{
  "contractName": "Busd",
  "abi": [
    {
      "inputs": [],
      "stateMutability": "nonpayable",
      "type": "constructor"
    },
    {
      "anonymous": false,
      "inputs": [
        {
          "indexed": true,
          "internalType": "address",
          "name": "owner",
          "type": "address"
        },
        {
          "indexed": true,
          "internalType": "address",
          "name": "spender",
          "type": "address"
        },
        {
          "indexed": false,
          "internalType": "uint256",
          "name": "value",
          "type": "uint256"
        }
      ],
      "name": "Approval",
      "type": "event"
    },
    {
      "anonymous": false,
      "inputs": [
        {
          "indexed": true,
          "internalType": "address",
          "name": "from",
          "type": "address"
        },
        {
          "indexed": true,
          "internalType": "address",
          "name": "to",
          "type": "address"
        },
        {
          "indexed": false,
          "internalType": "uint256",
          "name": "value",
          "type": "uint256"
        }
      ],
      "name": "Transfer",
      "type": "event"
    },
    {
      "inputs": [],
      "name": "_decimals",
      "outputs": [
        {
          "internalType": "uint8",
          "name": "",
          "type": "uint8"
        }
      ],
      "stateMutability": "view",
      "type": "function"
    },
    {
      "inputs": [],
      "name": "_name",
      "outputs": [
        {
          "internalType": "string",
          "name": "",
          "type": "string"
        }
      ],
      "stateMutability": "view",
      "type": "function"
    },
    {
      "inputs": [],
      "name": "_symbol",
      "outputs": [
        {
          "internalType": "string",
          "name": "",
          "type": "string"
        }
      ],
      "stateMutability": "view",
      "type": "function"
    },
    {
      "inputs": [],
      "name": "decimals",
      "outputs": [
        {
          "internalType": "uint8",
          "name": "",
          "type": "uint8"
        }
      ],
      "stateMutability": "view",
      "type": "function"
    },
    {
      "inputs": [],
      "name": "symbol",
      "outputs": [
        {
          "internalType": "string",
          "name": "",
          "type": "string"
        }
      ],
      "stateMutability": "view",
      "type": "function"
    },
    {
      "inputs": [],
      "name": "name",
      "outputs": [
        {
          "internalType": "string",
          "name": "",
          "type": "string"
        }
      ],
      "stateMutability": "view",
      "type": "function"
    },
    {
      "inputs": [],
      "name": "totalSupply",
      "outputs": [
        {
          "internalType": "uint256",
          "name": "",
          "type": "uint256"
        }
      ],
      "stateMutability": "view",
      "type": "function"
    },
    {
      "inputs": [
        {
          "internalType": "address",
          "name": "account",
          "type": "address"
        }
      ],
      "name": "balanceOf",
      "outputs": [
        {
          "internalType": "uint256",
          "name": "",
          "type": "uint256"
        }
      ],
      "stateMutability": "view",
      "type": "function"
    },
    {
      "inputs": [
        {
          "internalType": "address",
          "name": "_recipient",
          "type": "address"
        },
        {
          "internalType": "uint256",
          "name": "_amount",
          "type": "uint256"
        }
      ],
      "name": "transfer",
      "outputs": [
        {
          "internalType": "bool",
          "name": "",
          "type": "bool"
        }
      ],
      "stateMutability": "nonpayable",
      "type": "function"
    },
    {
      "inputs": [
        {
          "internalType": "address",
          "name": "_owner",
          "type": "address"
        },
        {
          "internalType": "address",
          "name": "_spender",
          "type": "address"
        }
      ],
      "name": "allowance",
      "outputs": [
        {
          "internalType": "uint256",
          "name": "",
          "type": "uint256"
        }
      ],
      "stateMutability": "view",
      "type": "function"
    },
    {
      "inputs": [
        {
          "internalType": "address",
          "name": "_spender",
          "type": "address"
        },
        {
          "internalType": "uint256",
          "name": "_amount",
          "type": "uint256"
        }
      ],
      "name": "approve",
      "outputs": [
        {
          "internalType": "bool",
          "name": "",
          "type": "bool"
        }
      ],
      "stateMutability": "nonpayable",
      "type": "function"
    },
    {
      "inputs": [
        {
          "internalType": "address",
          "name": "_sender",
          "type": "address"
        },
        {
          "internalType": "address",
          "name": "_recipient",
          "type": "address"
        },
        {
          "internalType": "uint256",
          "name": "_amount",
          "type": "uint256"
        }
      ],
      "name": "transferFrom",
      "outputs": [
        {
          "internalType": "bool",
          "name": "",
          "type": "bool"
        }
      ],
      "stateMutability": "nonpayable",
      "type": "function"
    },
    {
      "inputs": [
        {
          "internalType": "address",
          "name": "_spender",
          "type": "address"
        },
        {
          "internalType": "uint256",
          "name": "_addedValue",
          "type": "uint256"
        }
      ],
      "name": "increaseAllowance",
      "outputs": [
        {
          "internalType": "bool",
          "name": "",
          "type": "bool"
        }
      ],
      "stateMutability": "nonpayable",
      "type": "function"
    },
    {
      "inputs": [
        {
          "internalType": "address",
          "name": "_spender",
          "type": "address"
        },
        {
          "internalType": "uint256",
          "name": "_subtractedValue",
          "type": "uint256"
        }
      ],
      "name": "decreaseAllowance",
      "outputs": [
        {
          "internalType": "bool",
          "name": "",
          "type": "bool"
        }
      ],
      "stateMutability": "nonpayable",
      "type": "function"
    },
    {
      "inputs": [
        {
          "internalType": "uint256",
          "name": "_amount",
          "type": "uint256"
        }
      ],
      "name": "burn",
      "outputs": [],
      "stateMutability": "nonpayable",
      "type": "function"
    }
  ],
  "bytecode": "0x608060405234801561001057600080fd5b5060408051808201909152600a8082527f4275736420546f6b656e000000000000000000000000000000000000000000006020909201918252610055916003916100cc565b506040805180820190915260048082527f4255534400000000000000000000000000000000000000000000000000000000602090920191825261009891816100cc565b506005805460ff191660121790556af8277896582678ac0000006002819055336000908152602081905260409020556101b9565b8280546100d890610165565b90600052602060002090601f0160209004810192826100fa5760008555610140565b82601f1061011357805160ff1916838001178555610140565b82800160010185558215610140579182015b82811115610140578251825591602001919060010190610125565b5061014c929150610150565b5090565b5b8082111561014c5760008155600101610151565b60028104600182168061017957607f821691505b602082108114156101b3577f4e487b7100000000000000000000000000000000000000000000000000000000600052602260045260246000fd5b50919050565b610a8b806101c86000396000f3fe608060405234801561001057600080fd5b5060043610610112576000357c01000000000000000000000000000000000000000000000000000000009004806342966c68116100b4578063a9059cbb11610083578063a9059cbb1461020f578063b09f126614610222578063d28d88521461022a578063dd62ed3e1461023257600080fd5b806342966c68146101b657806370a08231146101cb57806395d89b41146101f4578063a457c2d7146101fc57600080fd5b806323b872dd116100f057806323b872dd1461016a578063313ce5671461017d57806332424aa31461019657806339509351146101a357600080fd5b806306fdde0314610117578063095ea7b31461013557806318160ddd14610158575b600080fd5b61011f61026b565b60405161012c9190610950565b60405180910390f35b61014861014336600461090f565b6102fd565b604051901515815260200161012c565b6002545b60405190815260200161012c565b6101486101783660046108d4565b610313565b60055460ff165b60405160ff909116815260200161012c565b6005546101849060ff1681565b6101486101b136600461090f565b610365565b6101c96101c4366004610938565b61039c565b005b61015c6101d9366004610881565b600160a060020a031660009081526020819052604090205490565b61011f6103a9565b61014861020a36600461090f565b6103b8565b61014861021d36600461090f565b6103ef565b61011f6103fc565b61011f61048a565b61015c6102403660046108a2565b600160a060020a03918216600090815260016020908152604080832093909416825291909152205490565b60606003805461027a906109d2565b80601f01602080910402602001604051908101604052809291908181526020018280546102a6906109d2565b80156102f35780601f106102c8576101008083540402835291602001916102f3565b820191906000526020600020905b8154815290600101906020018083116102d657829003601f168201915b5050505050905090565b600061030a338484610497565b50600192915050565b60006103208484846105d6565b600160a060020a03841660009081526001602090815260408083203380855292529091205461035b9186916103569086906109bb565b610497565b5060019392505050565b336000818152600160209081526040808320600160a060020a0387168452909152812054909161030a9185906103569086906109a3565b6103a63382610779565b50565b60606004805461027a906109d2565b336000818152600160209081526040808320600160a060020a0387168452909152812054909161030a9185906103569086906109bb565b600061030a3384846105d6565b60048054610409906109d2565b80601f0160208091040260200160405190810160405280929190818152602001828054610435906109d2565b80156104825780601f1061045757610100808354040283529160200191610482565b820191906000526020600020905b81548152906001019060200180831161046557829003601f168201915b505050505081565b60038054610409906109d2565b600160a060020a03831661051b5760405160e560020a62461bcd02815260206004820152602260248201527f4d49543a20617070726f76652066726f6d20746865207a65726f20616464726560448201527f737300000000000000000000000000000000000000000000000000000000000060648201526084015b60405180910390fd5b600160a060020a0382166105745760405160e560020a62461bcd02815260206004820181905260248201527f4d49543a20617070726f766520746f20746865207a65726f20616464726573736044820152606401610512565b600160a060020a0383811660008181526001602090815260408083209487168084529482529182902085905590518481527f8c5be1e5ebec7d5bd14f71427d1e84f3dd0314c0f7b2291e5b200ac8c7c3b92591015b60405180910390a3505050565b600160a060020a0383166106555760405160e560020a62461bcd02815260206004820152602360248201527f4d49543a207472616e736665722066726f6d20746865207a65726f206164647260448201527f65737300000000000000000000000000000000000000000000000000000000006064820152608401610512565b600160a060020a0382166106d45760405160e560020a62461bcd02815260206004820152602160248201527f4d49543a207472616e7366657220746f20746865207a65726f2061646472657360448201527f73000000000000000000000000000000000000000000000000000000000000006064820152608401610512565b600160a060020a0383166000908152602081905260409020546106f89082906109bb565b600160a060020a0380851660009081526020819052604080822093909355908416815220546107289082906109a3565b600160a060020a038381166000818152602081815260409182902094909455518481529092918616917fddf252ad1be2c89b69c2b068fc378daa952ba7f163c4a11628f55a4df523b3ef91016105c9565b600160a060020a0382166107d25760405160e560020a62461bcd02815260206004820152601f60248201527f4d49543a206275726e2066726f6d20746865207a65726f2061646472657373006044820152606401610512565b600160a060020a0382166000908152602081905260409020546107f69082906109bb565b600160a060020a03831660009081526020819052604090205560025461081d9082906109bb565b600255604051818152600090600160a060020a038416907fddf252ad1be2c89b69c2b068fc378daa952ba7f163c4a11628f55a4df523b3ef9060200160405180910390a35050565b8035600160a060020a038116811461087c57600080fd5b919050565b600060208284031215610892578081fd5b61089b82610865565b9392505050565b600080604083850312156108b4578081fd5b6108bd83610865565b91506108cb60208401610865565b90509250929050565b6000806000606084860312156108e8578081fd5b6108f184610865565b92506108ff60208501610865565b9150604084013590509250925092565b60008060408385031215610921578182fd5b61092a83610865565b946020939093013593505050565b600060208284031215610949578081fd5b5035919050565b6000602080835283518082850152825b8181101561097c57858101830151858201604001528201610960565b8181111561098d5783604083870101525b50601f01601f1916929092016040019392505050565b600082198211156109b6576109b6610a26565b500190565b6000828210156109cd576109cd610a26565b500390565b6002810460018216806109e657607f821691505b60208210811415610a20577f4e487b7100000000000000000000000000000000000000000000000000000000600052602260045260246000fd5b50919050565b7f4e487b7100000000000000000000000000000000000000000000000000000000600052601160045260246000fdfea2646970667358221220985fe9e83c4ef33e90fa16f2c00af42c071db67024de45982723d0c45c7d1dc264736f6c63430008040033",
  "immutableReferences": {},
  "source": "// SPDX-License-Identifier: MIT\r\npragma solidity ^0.8.4;\r\n\r\nimport \"@openzeppelin/contracts/utils/Context.sol\";\r\nimport \"./interfaces/IBusd.sol\";\r\n\r\ncontract Busd is Context, IBusd {\r\n    mapping(address => uint256) private _balances;\r\n    mapping(address => mapping(address => uint256)) private _allowances;\r\n\r\n    uint256 private _totalSupply;\r\n    string public _name;\r\n    string public _symbol;\r\n    uint8 public _decimals;\r\n\r\n    constructor() {\r\n        _name = \"Busd Token\";\r\n        _symbol = \"BUSD\";\r\n        _decimals = 18;\r\n        _totalSupply = 3 * 10**8 * 10**18; // 500m\r\n        _balances[msg.sender] = _totalSupply;\r\n    }\r\n\r\n    /**\r\n     * @dev Returns the token decimals.\r\n     */\r\n    function decimals() external view virtual override returns (uint8) {\r\n        return _decimals;\r\n    }\r\n\r\n    /**\r\n     * @dev Returns the token symbol.\r\n     */\r\n    function symbol() external view virtual override returns (string memory) {\r\n        return _symbol;\r\n    }\r\n\r\n    /**\r\n     * @dev Returns the token name.\r\n     */\r\n    function name() external view virtual override returns (string memory) {\r\n        return _name;\r\n    }\r\n\r\n    /**\r\n     * @dev See total supply of token.\r\n     */\r\n    function totalSupply() external view virtual override returns (uint256) {\r\n        return _totalSupply;\r\n    }\r\n\r\n    /**\r\n     * @dev See balance of account.\r\n     */\r\n    function balanceOf(address account)\r\n        external\r\n        view\r\n        virtual\r\n        override\r\n        returns (uint256)\r\n    {\r\n        return _balances[account];\r\n    }\r\n\r\n    /**\r\n     * @dev transfer token from msg.sender to recipient\r\n     * @param _recipient address of account to receive token,\r\n     *                   where it cannot be zero\r\n     * @param _amount amount of token to transfer\r\n     */\r\n    function transfer(address _recipient, uint256 _amount)\r\n        external\r\n        override\r\n        returns (bool)\r\n    {\r\n        _transfer(_msgSender(), _recipient, _amount);\r\n        return true;\r\n    }\r\n\r\n    /**\r\n     * @dev get allowance spender by owner\r\n     * @param _owner owner of token\r\n     * @param _spender account to be approved.\r\n     */\r\n    function allowance(address _owner, address _spender)\r\n        external\r\n        view\r\n        override\r\n        returns (uint256)\r\n    {\r\n        return _allowances[_owner][_spender];\r\n    }\r\n\r\n    /**\r\n     * @dev approve spender by owner\r\n     * @param _spender account to be approved\r\n     * @param _amount amount to transfer\r\n     */\r\n    function approve(address _spender, uint256 _amount)\r\n        external\r\n        override\r\n        returns (bool)\r\n    {\r\n        _approve(_msgSender(), _spender, _amount);\r\n        return true;\r\n    }\r\n\r\n    /**\r\n     * @dev transfer token from _sender to _recipient and update allowance\r\n     */\r\n    function transferFrom(\r\n        address _sender,\r\n        address _recipient,\r\n        uint256 _amount\r\n    ) external override returns (bool) {\r\n        _transfer(_sender, _recipient, _amount);\r\n        _approve(\r\n            _sender,\r\n            _msgSender(),\r\n            (_allowances[_sender][_msgSender()] - _amount)\r\n        );\r\n        return true;\r\n    }\r\n\r\n    /**\r\n     * @dev Atomically increases the allowance granted to `spender` by the caller.\r\n     *\r\n     * This is an alternative to {approve} that can be used as a mitigation for\r\n     * problems described in {BEP20-approve}.\r\n     *\r\n     * Emits an {Approval} event indicating the updated allowance.\r\n     */\r\n    function increaseAllowance(address _spender, uint256 _addedValue)\r\n        public\r\n        returns (bool)\r\n    {\r\n        _approve(\r\n            _msgSender(),\r\n            _spender,\r\n            _allowances[_msgSender()][_spender] + _addedValue\r\n        );\r\n        return true;\r\n    }\r\n\r\n    /**\r\n     * @dev Atomically decreases the allowance granted to `spender` by the caller.\r\n     *\r\n     * This is an alternative to {approve} that can be used as a mitigation for\r\n     * problems described in {BEP20-approve}.\r\n     *\r\n     * Emits an {Approval} event indicating the updated allowance.\r\n     */\r\n    function decreaseAllowance(address _spender, uint256 _subtractedValue)\r\n        public\r\n        returns (bool)\r\n    {\r\n        _approve(\r\n            _msgSender(),\r\n            _spender,\r\n            (_allowances[_msgSender()][_spender] - _subtractedValue)\r\n        );\r\n        return true;\r\n    }\r\n\r\n    /**\r\n     * @dev Destroys `_amount` tokens from the caller.\r\n     */\r\n    function burn(uint256 _amount) public virtual {\r\n        _burn(_msgSender(), _amount);\r\n    }\r\n\r\n    /**\r\n     * @dev Moves tokens `amount` from `sender` to `recipient`.\r\n     *\r\n     * This is internal function is equivalent to {transfer}, and can be used to\r\n     * e.g. implement automatic token fees, slashing mechanisms, etc.\r\n     *\r\n     * Emits a {Transfer} event.\r\n     *\r\n     * Requirements:\r\n     *\r\n     * - `sender` cannot be the zero address.\r\n     * - `recipient` cannot be the zero address.\r\n     * - `sender` must have a balance of at least `amount`.\r\n     */\r\n    function _transfer(\r\n        address _sender,\r\n        address _recipient,\r\n        uint256 _amount\r\n    ) internal {\r\n        require(_sender != address(0), \"MIT: transfer from the zero address\");\r\n        require(_recipient != address(0), \"MIT: transfer to the zero address\");\r\n\r\n        _balances[_sender] = _balances[_sender] - _amount;\r\n        _balances[_recipient] = _balances[_recipient] + _amount;\r\n        emit Transfer(_sender, _recipient, _amount);\r\n    }\r\n\r\n    /**\r\n     * @dev Destroys `amount` tokens from `_account`, reducing the\r\n     * total supply.\r\n     *\r\n     * Emits a {Transfer} event with `to` set to the zero address.\r\n     *\r\n     * Requirements\r\n     *\r\n     * - `_account` cannot be the zero address.\r\n     * - `_account` must have at least `_amount` tokens.\r\n     */\r\n    function _burn(address _account, uint256 _amount) internal {\r\n        require(_account != address(0), \"MIT: burn from the zero address\");\r\n\r\n        _balances[_account] = _balances[_account] - _amount;\r\n        _totalSupply = _totalSupply - _amount;\r\n        emit Transfer(_account, address(0), _amount);\r\n    }\r\n\r\n    /**\r\n     * @dev Sets `_amount` as the allowance of `spender` over the `_owner`s tokens.\r\n     *\r\n     * This is internal function is equivalent to `approve`, and can be used to\r\n     * e.g. set automatic allowances for certain subsystems, etc.\r\n     *\r\n     * Emits an {Approval} event.\r\n     *\r\n     * Requirements:\r\n     *\r\n     * - `_owner` cannot be the zero address.\r\n     * - `_spender` cannot be the zero address.\r\n     */\r\n    function _approve(\r\n        address _owner,\r\n        address _spender,\r\n        uint256 _amount\r\n    ) internal {\r\n        require(_owner != address(0), \"MIT: approve from the zero address\");\r\n        require(_spender != address(0), \"MIT: approve to the zero address\");\r\n\r\n        _allowances[_owner][_spender] = _amount;\r\n        emit Approval(_owner, _spender, _amount);\r\n    }\r\n}\r\n",
  "sourcePath": "E:\\Git for Project\\Ethereum\\NFT\\GolFinance\\gol-staking-contracts\\contracts\\Busd.sol",
  "compiler": {
    "name": "solc",
    "version": "0.8.4+commit.c7e474f2.Emscripten.clang"
  },
  "schemaVersion": "3.4.5",
  "updatedAt": "2022-05-02T22:13:32.864Z",
  "devdoc": {
    "kind": "dev",
    "methods": {
      "allowance(address,address)": {
        "details": "get allowance spender by owner",
        "params": {
          "_owner": "owner of token",
          "_spender": "account to be approved."
        }
      },
      "approve(address,uint256)": {
        "details": "approve spender by owner",
        "params": {
          "_amount": "amount to transfer",
          "_spender": "account to be approved"
        }
      },
      "balanceOf(address)": {
        "details": "See balance of account."
      },
      "burn(uint256)": {
        "details": "Destroys `_amount` tokens from the caller."
      },
      "decimals()": {
        "details": "Returns the token decimals."
      },
      "decreaseAllowance(address,uint256)": {
        "details": "Atomically decreases the allowance granted to `spender` by the caller. This is an alternative to {approve} that can be used as a mitigation for problems described in {BEP20-approve}. Emits an {Approval} event indicating the updated allowance."
      },
      "increaseAllowance(address,uint256)": {
        "details": "Atomically increases the allowance granted to `spender` by the caller. This is an alternative to {approve} that can be used as a mitigation for problems described in {BEP20-approve}. Emits an {Approval} event indicating the updated allowance."
      },
      "name()": {
        "details": "Returns the token name."
      },
      "symbol()": {
        "details": "Returns the token symbol."
      },
      "totalSupply()": {
        "details": "See total supply of token."
      },
      "transfer(address,uint256)": {
        "details": "transfer token from msg.sender to recipient",
        "params": {
          "_amount": "amount of token to transfer",
          "_recipient": "address of account to receive token,                   where it cannot be zero"
        }
      },
      "transferFrom(address,address,uint256)": {
        "details": "transfer token from _sender to _recipient and update allowance"
      }
    },
    "version": 1
  },
  "userdoc": {
    "kind": "user",
    "methods": {},
    "version": 1
  }
}