{
  "contractName": "Fusion",
  "abi": [
    {
      "inputs": [
        {
          "internalType": "contract IGolToken",
          "name": "_golToken",
          "type": "address"
        },
        {
          "internalType": "contract INonFungiblePlayer",
          "name": "_nonFungiblePlayer",
          "type": "address"
        },
        {
          "internalType": "address",
          "name": "_ownerAddr",
          "type": "address"
        }
      ],
      "stateMutability": "nonpayable",
      "type": "constructor"
    },
    {
      "anonymous": false,
      "inputs": [
        {
          "indexed": true,
          "internalType": "address",
          "name": "previousOwner",
          "type": "address"
        },
        {
          "indexed": true,
          "internalType": "address",
          "name": "newOwner",
          "type": "address"
        }
      ],
      "name": "OwnershipTransferred",
      "type": "event"
    },
    {
      "anonymous": false,
      "inputs": [
        {
          "indexed": true,
          "internalType": "uint256",
          "name": "tokenId",
          "type": "uint256"
        }
      ],
      "name": "fusionSucceed",
      "type": "event"
    },
    {
      "inputs": [],
      "name": "fusionFee",
      "outputs": [
        {
          "internalType": "uint256",
          "name": "",
          "type": "uint256"
        }
      ],
      "stateMutability": "view",
      "type": "function"
    },
    {
      "inputs": [],
      "name": "owner",
      "outputs": [
        {
          "internalType": "address",
          "name": "",
          "type": "address"
        }
      ],
      "stateMutability": "view",
      "type": "function"
    },
    {
      "inputs": [],
      "name": "renounceOwnership",
      "outputs": [],
      "stateMutability": "nonpayable",
      "type": "function"
    },
    {
      "inputs": [
        {
          "internalType": "address",
          "name": "newOwner",
          "type": "address"
        }
      ],
      "name": "transferOwnership",
      "outputs": [],
      "stateMutability": "nonpayable",
      "type": "function"
    },
    {
      "inputs": [
        {
          "internalType": "address",
          "name": "_ownerAddr",
          "type": "address"
        }
      ],
      "name": "setOwnerAddr",
      "outputs": [],
      "stateMutability": "nonpayable",
      "type": "function"
    },
    {
      "inputs": [
        {
          "internalType": "uint256",
          "name": "_fusionFee",
          "type": "uint256"
        }
      ],
      "name": "setFusionFee",
      "outputs": [],
      "stateMutability": "nonpayable",
      "type": "function"
    },
    {
      "inputs": [
        {
          "internalType": "uint256",
          "name": "_tokenId1",
          "type": "uint256"
        },
        {
          "internalType": "uint256",
          "name": "_tokenId2",
          "type": "uint256"
        }
      ],
      "name": "fusionNFPs",
      "outputs": [],
      "stateMutability": "nonpayable",
      "type": "function"
    }
  ],
  "bytecode": "0x60806040523480156200001157600080fd5b506040516200160c3803806200160c8339810160408190526200003491620000f6565b6200005a6200004b640100000000620000a2810204565b640100000000620000a6810204565b606460015560028054600160a060020a03948516600160a060020a03199182161790915560038054938516938216939093179092556004805491909316911617905562000162565b3390565b60008054600160a060020a03838116600160a060020a0319831681178455604051919092169283917f8be0079c531659141344cd1fd0a4f28419497f9722a3daafe3b4186f6b6457e09190a35050565b6000806000606084860312156200010b578283fd5b8351620001188162000149565b60208501519093506200012b8162000149565b60408501519092506200013e8162000149565b809150509250925092565b600160a060020a03811681146200015f57600080fd5b50565b61149a80620001726000396000f3fe608060405234801561001057600080fd5b50600436106100815760003560e060020a900480638da5cb5b1161005f5780638da5cb5b146100bf578063e074278d146100da578063f2fde38b146100ed578063f92ffecd1461010057600080fd5b80630c68deab1461008657806341bf4e2b1461009b578063715018a6146100b7575b600080fd5b61009961009436600461123b565b610113565b005b6100a460015481565b6040519081526020015b60405180910390f35b610099610eda565b600054604051600160a060020a0390911681526020016100ae565b6100996100e8366004611103565b610f13565b6100996100fb366004611103565b610f6f565b61009961010e36600461120b565b611027565b6003546040517f6352211e00000000000000000000000000000000000000000000000000000000815260048101849052600160a060020a0390911690636352211e9060240160206040518083038186803b15801561017057600080fd5b505afa158015610184573d6000803e3d6000fd5b505050506040513d601f19601f820116820180604052508101906101a89190611126565b600160a060020a031633600160a060020a031614801561026d57506003546040517f6352211e00000000000000000000000000000000000000000000000000000000815260048101839052600160a060020a0390911690636352211e9060240160206040518083038186803b15801561022057600080fd5b505afa158015610234573d6000803e3d6000fd5b505050506040513d601f19601f820116820180604052508101906102589190611126565b600160a060020a031633600160a060020a0316145b6102c15760405160e560020a62461bcd02815260206004820152601960248201527f596f7520617265206e6f74206f776e6572206f66204e4650730000000000000060448201526064015b60405180910390fd5b6001546102d690670de0b6b3a7640000611352565b6002546040517f70a08231000000000000000000000000000000000000000000000000000000008152336004820152600160a060020a03909116906370a082319060240160206040518083038186803b15801561033257600080fd5b505afa158015610346573d6000803e3d6000fd5b505050506040513d601f19601f8201168201806040525081019061036a9190611223565b10156103e15760405160e560020a62461bcd02815260206004820152602c60248201527f496e73756666696369656e742062616c616e6365206f6620476f6c20546f6b6560448201527f6e20746f20467573696f6e21000000000000000000000000000000000000000060648201526084016102b8565b8082141561045a5760405160e560020a62461bcd02815260206004820152602360248201527f546f6b656e20496473206f66204e4650206d757374206265206469666665726560448201527f6e7421000000000000000000000000000000000000000000000000000000000060648201526084016102b8565b6003546040517f512d62df00000000000000000000000000000000000000000000000000000000815260048101849052600091600160a060020a03169063512d62df9060240160006040518083038186803b1580156104b857600080fd5b505afa1580156104cc573d6000803e3d6000fd5b505050506040513d6000823e601f3d908101601f191682016040526104f49190810190611162565b6003546040517f512d62df00000000000000000000000000000000000000000000000000000000815260048101859052919250600091600160a060020a039091169063512d62df9060240160006040518083038186803b15801561055757600080fd5b505afa15801561056b573d6000803e3d6000fd5b505050506040513d6000823e601f3d908101601f191682016040526105939190810190611162565b6003546040517feb02c30100000000000000000000000000000000000000000000000000000000815260048101879052919250600091600160a060020a039091169063eb02c3019060240160006040518083038186803b1580156105f657600080fd5b505afa15801561060a573d6000803e3d6000fd5b505050506040513d6000823e601f3d908101601f191682016040526106329190810190611162565b6003546040517feb02c30100000000000000000000000000000000000000000000000000000000815260048101879052919250600091600160a060020a039091169063eb02c3019060240160006040518083038186803b15801561069557600080fd5b505afa1580156106a9573d6000803e3d6000fd5b505050506040513d6000823e601f3d908101601f191682016040526106d19190810190611162565b6003546040517f56e3df9700000000000000000000000000000000000000000000000000000000815260048101899052919250600091600160a060020a03909116906356e3df979060240160206040518083038186803b15801561073457600080fd5b505afa158015610748573d6000803e3d6000fd5b505050506040513d601f19601f8201168201806040525081019061076c9190611223565b6003546040517f56e3df9700000000000000000000000000000000000000000000000000000000815260048101899052919250600091600160a060020a03909116906356e3df979060240160206040518083038186803b1580156107cf57600080fd5b505afa1580156107e3573d6000803e3d6000fd5b505050506040513d601f19601f820116820180604052508101906108079190611223565b90506001610815838261133a565b61082090600a611352565b61082a9190611371565b6003546040517f86481d40000000000000000000000000000000000000000000000000000000008152600481018b9052600160a060020a03909116906386481d409060240160206040518083038186803b15801561088757600080fd5b505afa15801561089b573d6000803e3d6000fd5b505050506040513d601f19601f820116820180604052508101906108bf9190611223565b14801561097f575060016108d3828261133a565b6108de90600a611352565b6108e89190611371565b6003546040517f86481d40000000000000000000000000000000000000000000000000000000008152600481018a9052600160a060020a03909116906386481d409060240160206040518083038186803b15801561094557600080fd5b505afa158015610959573d6000803e3d6000fd5b505050506040513d601f19601f8201168201806040525081019061097d9190611223565b145b6109ce5760405160e560020a62461bcd02815260206004820152601d60248201527f4d6178204c6576656c20726571756972656420666f7220667573696f6e00000060448201526064016102b8565b846040516020016109df9190611288565b6040516020818303038152906040528051906020012086604051602001610a069190611288565b60405160208183030381529060405280519060200120148015610a74575082604051602001610a359190611288565b6040516020818303038152906040528051906020012084604051602001610a5c9190611288565b60405160208183030381529060405280519060200120145b8015610a7f57508082145b610af45760405160e560020a62461bcd02815260206004820152602e60248201527f436c617373206f7220506f736974696f6e206f722047656e65726174696f6e7360448201527f20617265206e6f742073616d652100000000000000000000000000000000000060648201526084016102b8565b600254600454600154600160a060020a03928316926323b872dd923392911690610b2690670de0b6b3a7640000611352565b60405160e060020a63ffffffff8616028152600160a060020a0393841660048201529290911660248301526044820152606401602060405180830381600087803b158015610b7357600080fd5b505af1158015610b87573d6000803e3d6000fd5b505050506040513d601f19601f82011682018060405250810190610bab9190611142565b5060606000610bbb612710611059565b905061157c811115610c04576040518060400160405280600681526020017f436f6d6d6f6e00000000000000000000000000000000000000000000000000008152509150610d11565b6107d0811115610c4b576040518060400160405280600881526020017f556e636f6d6d6f6e0000000000000000000000000000000000000000000000008152509150610d11565b6101f4811115610c92576040518060400160405280600481526020017f52617265000000000000000000000000000000000000000000000000000000008152509150610d11565b6064811115610cd8576040518060400160405280600981526020017f4c6567656e6461727900000000000000000000000000000000000000000000008152509150610d11565b6040518060400160405280600881526020017f4d7974686963616c00000000000000000000000000000000000000000000000081525091505b6000600360009054906101000a9004600160a060020a0316600160a060020a0316631280c047338d8d8b888f6040518763ffffffff1660e060020a028152600401610d61969594939291906112a4565b602060405180830381600087803b158015610d7b57600080fd5b505af1158015610d8f573d6000803e3d6000fd5b505050506040513d601f19601f82011682018060405250810190610db39190611223565b6003546040517f42966c68000000000000000000000000000000000000000000000000000000008152600481018e9052919250600160a060020a0316906342966c6890602401600060405180830381600087803b158015610e1357600080fd5b505af1158015610e27573d6000803e3d6000fd5b50506003546040517f42966c68000000000000000000000000000000000000000000000000000000008152600481018e9052600160a060020a0390911692506342966c689150602401600060405180830381600087803b158015610e8a57600080fd5b505af1158015610e9e573d6000803e3d6000fd5b50506040518392507f891ba56bb0febb8151faaf70ab2b04e6af0780ab29d4c562c26ee6d69121b84a9150600090a25050505050505050505050565b600054600160a060020a03163314610f075760405160e560020a62461bcd0281526004016102b890611305565b610f1160006110a6565b565b600054600160a060020a03163314610f405760405160e560020a62461bcd0281526004016102b890611305565b6004805473ffffffffffffffffffffffffffffffffffffffff1916600160a060020a0392909216919091179055565b600054600160a060020a03163314610f9c5760405160e560020a62461bcd0281526004016102b890611305565b600160a060020a03811661101b5760405160e560020a62461bcd02815260206004820152602660248201527f4f776e61626c653a206e6577206f776e657220697320746865207a65726f206160448201527f646472657373000000000000000000000000000000000000000000000000000060648201526084016102b8565b611024816110a6565b50565b600054600160a060020a031633146110545760405160e560020a62461bcd0281526004016102b890611305565b600155565b6040805142602080830191909152336c01000000000000000000000000028284015282516034818403018152605490920190925280519101206000906110a09083906113b8565b92915050565b60008054600160a060020a0383811673ffffffffffffffffffffffffffffffffffffffff19831681178455604051919092169283917f8be0079c531659141344cd1fd0a4f28419497f9722a3daafe3b4186f6b6457e09190a35050565b600060208284031215611114578081fd5b813561111f8161144f565b9392505050565b600060208284031215611137578081fd5b815161111f8161144f565b600060208284031215611153578081fd5b8151801515811461111f578182fd5b600060208284031215611173578081fd5b815167ffffffffffffffff8082111561118a578283fd5b818401915084601f83011261119d578283fd5b8151818111156111af576111af611420565b604051601f8201601f19908116603f011681019083821181831017156111d7576111d7611420565b816040528281528760208487010111156111ef578586fd5b611200836020830160208801611388565b979650505050505050565b60006020828403121561121c578081fd5b5035919050565b600060208284031215611234578081fd5b5051919050565b6000806040838503121561124d578081fd5b50508035926020909101359150565b60008151808452611274816020860160208601611388565b601f01601f19169290920160200192915050565b6000825161129a818460208701611388565b9190910192915050565b600160a060020a038716815285602082015284604082015260c0606082015260006112d260c083018661125c565b82810360808401526112e4818661125c565b905082810360a08401526112f8818561125c565b9998505050505050505050565b6020808252818101527f4f776e61626c653a2063616c6c6572206973206e6f7420746865206f776e6572604082015260600190565b6000821982111561134d5761134d6113f1565b500190565b600081600019048311821515161561136c5761136c6113f1565b500290565b600082821015611383576113836113f1565b500390565b60005b838110156113a357818101518382015260200161138b565b838111156113b2576000848401525b50505050565b6000826113ec577f4e487b710000000000000000000000000000000000000000000000000000000081526012600452602481fd5b500690565b7f4e487b7100000000000000000000000000000000000000000000000000000000600052601160045260246000fd5b7f4e487b7100000000000000000000000000000000000000000000000000000000600052604160045260246000fd5b600160a060020a038116811461102457600080fdfea26469706673582212202844f2a31870814413da4be2ac25b8a6d69708842362249d7cce48b71a2deed464736f6c63430008040033",
  "immutableReferences": {},
  "source": "// SPDX-License-Identifier: MIT\r\npragma solidity ^0.8.4;\r\nimport \"@openzeppelin/contracts/utils/Counters.sol\";\r\nimport \"@openzeppelin/contracts/token/ERC721/ERC721.sol\";\r\nimport \"@openzeppelin/contracts/security/ReentrancyGuard.sol\";\r\nimport \"@openzeppelin/contracts/access/Ownable.sol\";\r\nimport \"./interfaces/IGolToken.sol\";\r\nimport \"./interfaces/INonFungiblePlayer.sol\";\r\n\r\ncontract Fusion is Ownable {\r\n    uint256 public fusionFee;\r\n\r\n    IGolToken private golToken;\r\n    INonFungiblePlayer private nonFungiblePlayer;\r\n    address private ownerAddr;\r\n\r\n    event fusionSucceed(uint256 indexed tokenId);\r\n\r\n    constructor(\r\n        IGolToken _golToken,\r\n        INonFungiblePlayer _nonFungiblePlayer,\r\n        address _ownerAddr\r\n    ) {\r\n        fusionFee = 100;\r\n        golToken = _golToken;\r\n        nonFungiblePlayer = _nonFungiblePlayer;\r\n        ownerAddr = _ownerAddr;\r\n    }\r\n\r\n    function setOwnerAddr(address _ownerAddr) public onlyOwner {\r\n        ownerAddr = _ownerAddr;\r\n    }\r\n\r\n    function setFusionFee(uint256 _fusionFee) public onlyOwner {\r\n        fusionFee = _fusionFee;\r\n    }\r\n\r\n    function _rand(uint256 _modulus) internal view returns (uint256) {\r\n        return\r\n            uint256(keccak256(abi.encodePacked(block.timestamp, msg.sender))) %\r\n            _modulus;\r\n    }\r\n\r\n    function fusionNFPs(uint256 _tokenId1, uint256 _tokenId2) public {\r\n        require(\r\n            msg.sender == nonFungiblePlayer.ownerOf(_tokenId1) &&\r\n                msg.sender == nonFungiblePlayer.ownerOf(_tokenId2),\r\n            \"You are not owner of NFPs\"\r\n        );\r\n\r\n        require(\r\n            golToken.balanceOf(msg.sender) >= fusionFee * 10**18,\r\n            \"Insufficient balance of Gol Token to Fusion!\"\r\n        );\r\n\r\n        require(_tokenId1 != _tokenId2, \"Token Ids of NFP must be different!\");\r\n\r\n        string memory class1 = nonFungiblePlayer.getClass(_tokenId1);\r\n        string memory class2 = nonFungiblePlayer.getClass(_tokenId2);\r\n        string memory position1 = nonFungiblePlayer.getPosition(_tokenId1);\r\n        string memory position2 = nonFungiblePlayer.getPosition(_tokenId2);\r\n        uint256 _gen1 = nonFungiblePlayer.getGeneration(_tokenId1);\r\n        uint256 _gen2 = nonFungiblePlayer.getGeneration(_tokenId2);\r\n\r\n        require(\r\n            nonFungiblePlayer.getLevel(_tokenId1) == (_gen1 + 1) * 10 - 1 &&\r\n                nonFungiblePlayer.getLevel(_tokenId2) == (_gen2 + 1) * 10 - 1,\r\n            \"Max Level required for fusion\"\r\n        );\r\n\r\n        require(\r\n            keccak256(abi.encodePacked(class1)) ==\r\n                keccak256(abi.encodePacked(class2)) &&\r\n                keccak256(abi.encodePacked(position1)) ==\r\n                keccak256(abi.encodePacked(position2)) &&\r\n                _gen1 == _gen2,\r\n            \"Class or Position or Generations are not same!\"\r\n        );\r\n\r\n        golToken.transferFrom(msg.sender, ownerAddr, fusionFee * 10**18);\r\n\r\n        string memory rarityOfNew;\r\n        uint256 randProbability = _rand(10000);\r\n\r\n        if (randProbability > 5500) {\r\n            rarityOfNew = \"Common\";\r\n        } else if (randProbability > 2000) {\r\n            rarityOfNew = \"Uncommon\";\r\n        } else if (randProbability > 500) {\r\n            rarityOfNew = \"Rare\";\r\n        } else if (randProbability > 100) {\r\n            rarityOfNew = \"Legendary\";\r\n        } else {\r\n            rarityOfNew = \"Mythical\";\r\n        }\r\n\r\n        uint256 newTokenId = nonFungiblePlayer.mintFusionedNFP(\r\n            msg.sender,\r\n            _tokenId1,\r\n            _tokenId2,\r\n            position1,\r\n            rarityOfNew,\r\n            class1\r\n        );\r\n\r\n        nonFungiblePlayer.burn(_tokenId1);\r\n        nonFungiblePlayer.burn(_tokenId2);\r\n\r\n        emit fusionSucceed(newTokenId);\r\n    }\r\n}\r\n",
  "sourcePath": "E:\\Git for Project\\Ethereum\\NFT\\GolFinance\\gol-staking-contracts\\contracts\\Fusion.sol",
  "compiler": {
    "name": "solc",
    "version": "0.8.4+commit.c7e474f2.Emscripten.clang"
  },
  "schemaVersion": "3.4.5",
  "updatedAt": "2022-05-05T02:44:35.734Z",
  "devdoc": {
    "kind": "dev",
    "methods": {
      "owner()": {
        "details": "Returns the address of the current owner."
      },
      "renounceOwnership()": {
        "details": "Leaves the contract without owner. It will not be possible to call `onlyOwner` functions anymore. Can only be called by the current owner. NOTE: Renouncing ownership will leave the contract without an owner, thereby removing any functionality that is only available to the owner."
      },
      "transferOwnership(address)": {
        "details": "Transfers ownership of the contract to a new account (`newOwner`). Can only be called by the current owner."
      }
    },
    "version": 1
  },
  "userdoc": {
    "kind": "user",
    "methods": {},
    "version": 1
  }
}