{
  "contractName": "Fusion",
  "abi": [
    {
      "inputs": [
        {
          "internalType": "contract IGolToken",
          "name": "_golToken",
          "type": "address"
        },
        {
          "internalType": "contract INonFungiblePlayer",
          "name": "_nonFungiblePlayer",
          "type": "address"
        },
        {
          "internalType": "address",
          "name": "_ownerAddr",
          "type": "address"
        }
      ],
      "stateMutability": "nonpayable",
      "type": "constructor"
    },
    {
      "anonymous": false,
      "inputs": [
        {
          "indexed": true,
          "internalType": "address",
          "name": "previousOwner",
          "type": "address"
        },
        {
          "indexed": true,
          "internalType": "address",
          "name": "newOwner",
          "type": "address"
        }
      ],
      "name": "OwnershipTransferred",
      "type": "event"
    },
    {
      "inputs": [],
      "name": "fusionFee",
      "outputs": [
        {
          "internalType": "uint256",
          "name": "",
          "type": "uint256"
        }
      ],
      "stateMutability": "view",
      "type": "function",
      "constant": true
    },
    {
      "inputs": [],
      "name": "owner",
      "outputs": [
        {
          "internalType": "address",
          "name": "",
          "type": "address"
        }
      ],
      "stateMutability": "view",
      "type": "function",
      "constant": true
    },
    {
      "inputs": [],
      "name": "renounceOwnership",
      "outputs": [],
      "stateMutability": "nonpayable",
      "type": "function"
    },
    {
      "inputs": [
        {
          "internalType": "address",
          "name": "newOwner",
          "type": "address"
        }
      ],
      "name": "transferOwnership",
      "outputs": [],
      "stateMutability": "nonpayable",
      "type": "function"
    },
    {
      "inputs": [
        {
          "internalType": "address",
          "name": "_ownerAddr",
          "type": "address"
        }
      ],
      "name": "setOwnerAddr",
      "outputs": [],
      "stateMutability": "nonpayable",
      "type": "function"
    },
    {
      "inputs": [
        {
          "internalType": "uint256",
          "name": "_fusionFee",
          "type": "uint256"
        }
      ],
      "name": "setFusionFee",
      "outputs": [],
      "stateMutability": "nonpayable",
      "type": "function"
    },
    {
      "inputs": [
        {
          "internalType": "uint256",
          "name": "_tokenId1",
          "type": "uint256"
        },
        {
          "internalType": "uint256",
          "name": "_tokenId2",
          "type": "uint256"
        }
      ],
      "name": "fusionNFPs",
      "outputs": [],
      "stateMutability": "nonpayable",
      "type": "function"
    }
  ],
  "bytecode": "0x60806040523480156200001157600080fd5b506040516200136b3803806200136b8339810160408190526200003491620000f6565b6200005a6200004b640100000000620000a2810204565b640100000000620000a6810204565b606460015560028054600160a060020a03948516600160a060020a03199182161790915560038054938516938216939093179092556004805491909316911617905562000162565b3390565b60008054600160a060020a03838116600160a060020a0319831681178455604051919092169283917f8be0079c531659141344cd1fd0a4f28419497f9722a3daafe3b4186f6b6457e09190a35050565b6000806000606084860312156200010b578283fd5b8351620001188162000149565b60208501519093506200012b8162000149565b60408501519092506200013e8162000149565b809150509250925092565b600160a060020a03811681146200015f57600080fd5b50565b6111f980620001726000396000f3fe608060405234801561001057600080fd5b506004361061009a576000357c0100000000000000000000000000000000000000000000000000000000900480638da5cb5b116100785780638da5cb5b146100d8578063e074278d146100f3578063f2fde38b14610106578063f92ffecd1461011957600080fd5b80630c68deab1461009f57806341bf4e2b146100b4578063715018a6146100d0575b600080fd5b6100b26100ad366004610fe3565b61012c565b005b6100bd60015481565b6040519081526020015b60405180910390f35b6100b2610c82565b600054604051600160a060020a0390911681526020016100c7565b6100b2610101366004610eab565b610cbb565b6100b2610114366004610eab565b610d17565b6100b2610127366004610fb3565b610dcf565b6003546040517f6352211e00000000000000000000000000000000000000000000000000000000815260048101849052600160a060020a0390911690636352211e9060240160206040518083038186803b15801561018957600080fd5b505afa15801561019d573d6000803e3d6000fd5b505050506040513d601f19601f820116820180604052508101906101c19190610ece565b600160a060020a031633600160a060020a031614801561028657506003546040517f6352211e00000000000000000000000000000000000000000000000000000000815260048101839052600160a060020a0390911690636352211e9060240160206040518083038186803b15801561023957600080fd5b505afa15801561024d573d6000803e3d6000fd5b505050506040513d601f19601f820116820180604052508101906102719190610ece565b600160a060020a031633600160a060020a0316145b6102da5760405160e560020a62461bcd02815260206004820152601960248201527f596f7520617265206e6f74206f776e6572206f66204e4650730000000000000060448201526064015b60405180910390fd5b6001546102ef90670de0b6b3a76400006110d2565b6002546040517f70a08231000000000000000000000000000000000000000000000000000000008152336004820152600160a060020a03909116906370a082319060240160206040518083038186803b15801561034b57600080fd5b505afa15801561035f573d6000803e3d6000fd5b505050506040513d601f19601f820116820180604052508101906103839190610fcb565b10156103fa5760405160e560020a62461bcd02815260206004820152602c60248201527f496e73756666696369656e742062616c616e6365206f6620476f6c20546f6b6560448201527f6e20746f20467573696f6e21000000000000000000000000000000000000000060648201526084016102d1565b6003546040517f512d62df00000000000000000000000000000000000000000000000000000000815260048101849052600091600160a060020a03169063512d62df9060240160006040518083038186803b15801561045857600080fd5b505afa15801561046c573d6000803e3d6000fd5b505050506040513d6000823e601f3d908101601f191682016040526104949190810190610f0a565b6003546040517f512d62df00000000000000000000000000000000000000000000000000000000815260048101859052919250600091600160a060020a039091169063512d62df9060240160006040518083038186803b1580156104f757600080fd5b505afa15801561050b573d6000803e3d6000fd5b505050506040513d6000823e601f3d908101601f191682016040526105339190810190610f0a565b6003546040517feb02c30100000000000000000000000000000000000000000000000000000000815260048101879052919250600091600160a060020a039091169063eb02c3019060240160006040518083038186803b15801561059657600080fd5b505afa1580156105aa573d6000803e3d6000fd5b505050506040513d6000823e601f3d908101601f191682016040526105d29190810190610f0a565b6003546040517feb02c30100000000000000000000000000000000000000000000000000000000815260048101879052919250600091600160a060020a039091169063eb02c3019060240160006040518083038186803b15801561063557600080fd5b505afa158015610649573d6000803e3d6000fd5b505050506040513d6000823e601f3d908101601f191682016040526106719190810190610f0a565b6003546040517f56e3df9700000000000000000000000000000000000000000000000000000000815260048101899052919250600091600160a060020a03909116906356e3df979060240160206040518083038186803b1580156106d457600080fd5b505afa1580156106e8573d6000803e3d6000fd5b505050506040513d601f19601f8201168201806040525081019061070c9190610fcb565b6003546040517f56e3df9700000000000000000000000000000000000000000000000000000000815260048101899052919250600091600160a060020a03909116906356e3df979060240160206040518083038186803b15801561076f57600080fd5b505afa158015610783573d6000803e3d6000fd5b505050506040513d601f19601f820116820180604052508101906107a79190610fcb565b9050846040516020016107ba9190611030565b60405160208183030381529060405280519060200120866040516020016107e19190611030565b6040516020818303038152906040528051906020012014801561084f5750826040516020016108109190611030565b60405160208183030381529060405280519060200120846040516020016108379190611030565b60405160208183030381529060405280519060200120145b801561085a57508082145b6108cf5760405160e560020a62461bcd02815260206004820152602e60248201527f436c617373206f7220506f736974696f6e206f722047656e65726174696f6e7360448201527f20617265206e6f742073616d652100000000000000000000000000000000000060648201526084016102d1565b600254600454600154600160a060020a03928316926323b872dd92339291169061090190670de0b6b3a76400006110d2565b6040517c010000000000000000000000000000000000000000000000000000000063ffffffff8616028152600160a060020a0393841660048201529290911660248301526044820152606401602060405180830381600087803b15801561096757600080fd5b505af115801561097b573d6000803e3d6000fd5b505050506040513d601f19601f8201168201806040525081019061099f9190610eea565b50606060006109af612710610e01565b905061157c8111156109f8576040518060400160405280600681526020017f436f6d6d6f6e00000000000000000000000000000000000000000000000000008152509150610b05565b6107d0811115610a3f576040518060400160405280600881526020017f556e636f6d6d6f6e0000000000000000000000000000000000000000000000008152509150610b05565b6101f4811115610a86576040518060400160405280600481526020017f52617265000000000000000000000000000000000000000000000000000000008152509150610b05565b6064811115610acc576040518060400160405280600981526020017f4c6567656e6461727900000000000000000000000000000000000000000000008152509150610b05565b6040518060400160405280600881526020017f4d7974686963616c00000000000000000000000000000000000000000000000081525091505b6003546040517f7c206217000000000000000000000000000000000000000000000000000000008152600160a060020a0390911690637c20621790610b56908d908d908b9088908f90600401611081565b600060405180830381600087803b158015610b7057600080fd5b505af1158015610b84573d6000803e3d6000fd5b50506003546040517f42966c68000000000000000000000000000000000000000000000000000000008152600481018e9052600160a060020a0390911692506342966c689150602401600060405180830381600087803b158015610be757600080fd5b505af1158015610bfb573d6000803e3d6000fd5b50506003546040517f42966c68000000000000000000000000000000000000000000000000000000008152600481018d9052600160a060020a0390911692506342966c689150602401600060405180830381600087803b158015610c5e57600080fd5b505af1158015610c72573d6000803e3d6000fd5b5050505050505050505050505050565b600054600160a060020a03163314610caf5760405160e560020a62461bcd0281526004016102d19061104c565b610cb96000610e4e565b565b600054600160a060020a03163314610ce85760405160e560020a62461bcd0281526004016102d19061104c565b6004805473ffffffffffffffffffffffffffffffffffffffff1916600160a060020a0392909216919091179055565b600054600160a060020a03163314610d445760405160e560020a62461bcd0281526004016102d19061104c565b600160a060020a038116610dc35760405160e560020a62461bcd02815260206004820152602660248201527f4f776e61626c653a206e6577206f776e657220697320746865207a65726f206160448201527f646472657373000000000000000000000000000000000000000000000000000060648201526084016102d1565b610dcc81610e4e565b50565b600054600160a060020a03163314610dfc5760405160e560020a62461bcd0281526004016102d19061104c565b600155565b6040805142602080830191909152336c0100000000000000000000000002828401528251603481840301815260549092019092528051910120600090610e48908390611146565b92915050565b60008054600160a060020a0383811673ffffffffffffffffffffffffffffffffffffffff19831681178455604051919092169283917f8be0079c531659141344cd1fd0a4f28419497f9722a3daafe3b4186f6b6457e09190a35050565b600060208284031215610ebc578081fd5b8135610ec7816111ae565b9392505050565b600060208284031215610edf578081fd5b8151610ec7816111ae565b600060208284031215610efb578081fd5b81518015158114610ec7578182fd5b600060208284031215610f1b578081fd5b815167ffffffffffffffff80821115610f32578283fd5b818401915084601f830112610f45578283fd5b815181811115610f5757610f5761117f565b604051601f8201601f19908116603f01168101908382118183101715610f7f57610f7f61117f565b81604052828152876020848701011115610f97578586fd5b610fa8836020830160208801611116565b979650505050505050565b600060208284031215610fc4578081fd5b5035919050565b600060208284031215610fdc578081fd5b5051919050565b60008060408385031215610ff5578081fd5b50508035926020909101359150565b6000815180845261101c816020860160208601611116565b601f01601f19169290920160200192915050565b60008251611042818460208701611116565b9190910192915050565b6020808252818101527f4f776e61626c653a2063616c6c6572206973206e6f7420746865206f776e6572604082015260600190565b85815284602082015260a0604082015260006110a060a0830186611004565b82810360608401526110b28186611004565b905082810360808401526110c68185611004565b98975050505050505050565b6000816000190483118215151615611111577f4e487b710000000000000000000000000000000000000000000000000000000081526011600452602481fd5b500290565b60005b83811015611131578181015183820152602001611119565b83811115611140576000848401525b50505050565b60008261117a577f4e487b710000000000000000000000000000000000000000000000000000000081526012600452602481fd5b500690565b7f4e487b7100000000000000000000000000000000000000000000000000000000600052604160045260246000fd5b600160a060020a0381168114610dcc57600080fdfea26469706673582212209947f79fb86cff93800182b6ad5e72419b5d638a442c03870c0840cdc61d68b364736f6c63430008040033",
  "immutableReferences": {},
  "source": "// SPDX-License-Identifier: MIT\r\npragma solidity ^0.8.4;\r\nimport \"@openzeppelin/contracts/utils/Counters.sol\";\r\nimport \"@openzeppelin/contracts/token/ERC721/ERC721.sol\";\r\nimport \"@openzeppelin/contracts/security/ReentrancyGuard.sol\";\r\nimport \"@openzeppelin/contracts/access/Ownable.sol\";\r\nimport \"./interfaces/IGolToken.sol\";\r\nimport \"./interfaces/INonFungiblePlayer.sol\";\r\n\r\ncontract Fusion is Ownable {\r\n    uint256 public fusionFee;\r\n\r\n    IGolToken private golToken;\r\n    INonFungiblePlayer private nonFungiblePlayer;\r\n    address private ownerAddr;\r\n\r\n    constructor(\r\n        IGolToken _golToken,\r\n        INonFungiblePlayer _nonFungiblePlayer,\r\n        address _ownerAddr\r\n    ) {\r\n        fusionFee = 100;\r\n        golToken = _golToken;\r\n        nonFungiblePlayer = _nonFungiblePlayer;\r\n        ownerAddr = _ownerAddr;\r\n    }\r\n\r\n    function setOwnerAddr(address _ownerAddr) public onlyOwner {\r\n        ownerAddr = _ownerAddr;\r\n    }\r\n\r\n    function setFusionFee(uint256 _fusionFee) public onlyOwner {\r\n        fusionFee = _fusionFee;\r\n    }\r\n\r\n    function _rand(uint256 _modulus) internal view returns (uint256) {\r\n        return\r\n            uint256(keccak256(abi.encodePacked(block.timestamp, msg.sender))) %\r\n            _modulus;\r\n    }\r\n\r\n    function fusionNFPs(uint256 _tokenId1, uint256 _tokenId2) public {\r\n        require(\r\n            msg.sender == nonFungiblePlayer.ownerOf(_tokenId1) &&\r\n                msg.sender == nonFungiblePlayer.ownerOf(_tokenId2),\r\n            \"You are not owner of NFPs\"\r\n        );\r\n\r\n        require(\r\n            golToken.balanceOf(msg.sender) >= fusionFee * 10**18,\r\n            \"Insufficient balance of Gol Token to Fusion!\"\r\n        );\r\n\r\n        string memory class1 = nonFungiblePlayer.getClass(_tokenId1);\r\n        string memory class2 = nonFungiblePlayer.getClass(_tokenId2);\r\n        string memory position1 = nonFungiblePlayer.getPosition(_tokenId1);\r\n        string memory position2 = nonFungiblePlayer.getPosition(_tokenId2);\r\n        uint256 _gen1 = nonFungiblePlayer.getGeneration(_tokenId1);\r\n        uint256 _gen2 = nonFungiblePlayer.getGeneration(_tokenId2);\r\n\r\n        require(\r\n            keccak256(abi.encodePacked(class1)) ==\r\n                keccak256(abi.encodePacked(class2)) &&\r\n                keccak256(abi.encodePacked(position1)) ==\r\n                keccak256(abi.encodePacked(position2)) &&\r\n                _gen1 == _gen2,\r\n            \"Class or Position or Generations are not same!\"\r\n        );\r\n\r\n        golToken.transferFrom(msg.sender, ownerAddr, fusionFee * 10**18);\r\n\r\n        string memory rarityOfNew;\r\n        uint256 randProbability = _rand(10000);\r\n\r\n        if (randProbability > 5500) {\r\n            rarityOfNew = \"Common\";\r\n        } else if (randProbability > 2000) {\r\n            rarityOfNew = \"Uncommon\";\r\n        } else if (randProbability > 500) {\r\n            rarityOfNew = \"Rare\";\r\n        } else if (randProbability > 100) {\r\n            rarityOfNew = \"Legendary\";\r\n        } else {\r\n            rarityOfNew = \"Mythical\";\r\n        }\r\n\r\n        nonFungiblePlayer.mintFusionedNFP(\r\n            _tokenId1,\r\n            _tokenId2,\r\n            position1,\r\n            rarityOfNew,\r\n            class1\r\n        );\r\n\r\n        nonFungiblePlayer.burn(_tokenId1);\r\n        nonFungiblePlayer.burn(_tokenId2);\r\n    }\r\n}\r\n",
  "sourcePath": "E:\\Git for Project\\Ethereum\\NFT\\GolFinance\\gol-staking-contracts\\contracts\\Fusion.sol",
  "compiler": {
    "name": "solc",
    "version": "0.8.4+commit.c7e474f2.Emscripten.clang"
  },
  "schemaVersion": "3.4.5",
  "updatedAt": "2022-04-29T11:34:24.606Z",
  "networkType": "ethereum",
  "devdoc": {
    "kind": "dev",
    "methods": {
      "owner()": {
        "details": "Returns the address of the current owner."
      },
      "renounceOwnership()": {
        "details": "Leaves the contract without owner. It will not be possible to call `onlyOwner` functions anymore. Can only be called by the current owner. NOTE: Renouncing ownership will leave the contract without an owner, thereby removing any functionality that is only available to the owner."
      },
      "transferOwnership(address)": {
        "details": "Transfers ownership of the contract to a new account (`newOwner`). Can only be called by the current owner."
      }
    },
    "version": 1
  },
  "userdoc": {
    "kind": "user",
    "methods": {},
    "version": 1
  }
}