{
  "contractName": "Market",
  "abi": [
    {
      "inputs": [
        {
          "internalType": "contract IGolToken",
          "name": "_golToken",
          "type": "address"
        },
        {
          "internalType": "address",
          "name": "_ownerAddr",
          "type": "address"
        }
      ],
      "stateMutability": "nonpayable",
      "type": "constructor"
    },
    {
      "anonymous": false,
      "inputs": [
        {
          "indexed": true,
          "internalType": "uint256",
          "name": "itemId",
          "type": "uint256"
        },
        {
          "indexed": true,
          "internalType": "address",
          "name": "nftContract",
          "type": "address"
        },
        {
          "indexed": true,
          "internalType": "uint256",
          "name": "tokenId",
          "type": "uint256"
        },
        {
          "indexed": false,
          "internalType": "address",
          "name": "seller",
          "type": "address"
        },
        {
          "indexed": false,
          "internalType": "address",
          "name": "owner",
          "type": "address"
        },
        {
          "indexed": false,
          "internalType": "uint256",
          "name": "price",
          "type": "uint256"
        },
        {
          "indexed": false,
          "internalType": "uint256",
          "name": "listedTime",
          "type": "uint256"
        },
        {
          "indexed": false,
          "internalType": "bool",
          "name": "isSold",
          "type": "bool"
        }
      ],
      "name": "MarketItemCreated",
      "type": "event"
    },
    {
      "anonymous": false,
      "inputs": [
        {
          "indexed": true,
          "internalType": "address",
          "name": "previousOwner",
          "type": "address"
        },
        {
          "indexed": true,
          "internalType": "address",
          "name": "newOwner",
          "type": "address"
        }
      ],
      "name": "OwnershipTransferred",
      "type": "event"
    },
    {
      "inputs": [],
      "name": "feePercent",
      "outputs": [
        {
          "internalType": "uint8",
          "name": "",
          "type": "uint8"
        }
      ],
      "stateMutability": "view",
      "type": "function"
    },
    {
      "inputs": [],
      "name": "owner",
      "outputs": [
        {
          "internalType": "address",
          "name": "",
          "type": "address"
        }
      ],
      "stateMutability": "view",
      "type": "function"
    },
    {
      "inputs": [],
      "name": "renounceOwnership",
      "outputs": [],
      "stateMutability": "nonpayable",
      "type": "function"
    },
    {
      "inputs": [
        {
          "internalType": "address",
          "name": "newOwner",
          "type": "address"
        }
      ],
      "name": "transferOwnership",
      "outputs": [],
      "stateMutability": "nonpayable",
      "type": "function"
    },
    {
      "inputs": [
        {
          "internalType": "uint8",
          "name": "_feePercent",
          "type": "uint8"
        }
      ],
      "name": "setFeePercent",
      "outputs": [],
      "stateMutability": "nonpayable",
      "type": "function"
    },
    {
      "inputs": [
        {
          "internalType": "address",
          "name": "_ownerAddr",
          "type": "address"
        }
      ],
      "name": "setOwnerAddr",
      "outputs": [],
      "stateMutability": "nonpayable",
      "type": "function"
    },
    {
      "inputs": [],
      "name": "getOwnerAddr",
      "outputs": [
        {
          "internalType": "address",
          "name": "",
          "type": "address"
        }
      ],
      "stateMutability": "view",
      "type": "function"
    },
    {
      "inputs": [
        {
          "internalType": "address",
          "name": "nftContract",
          "type": "address"
        },
        {
          "internalType": "uint256",
          "name": "tokenId",
          "type": "uint256"
        },
        {
          "internalType": "uint256",
          "name": "price",
          "type": "uint256"
        }
      ],
      "name": "createMarketItem",
      "outputs": [],
      "stateMutability": "nonpayable",
      "type": "function"
    },
    {
      "inputs": [
        {
          "internalType": "address",
          "name": "nftContract",
          "type": "address"
        },
        {
          "internalType": "uint256",
          "name": "itemId",
          "type": "uint256"
        }
      ],
      "name": "unlistMarketItem",
      "outputs": [],
      "stateMutability": "nonpayable",
      "type": "function"
    },
    {
      "inputs": [
        {
          "internalType": "address",
          "name": "nftContract",
          "type": "address"
        },
        {
          "internalType": "uint256",
          "name": "itemId",
          "type": "uint256"
        }
      ],
      "name": "createMarketSale",
      "outputs": [],
      "stateMutability": "nonpayable",
      "type": "function"
    },
    {
      "inputs": [],
      "name": "fetchMarketItems",
      "outputs": [
        {
          "components": [
            {
              "internalType": "uint256",
              "name": "itemId",
              "type": "uint256"
            },
            {
              "internalType": "address",
              "name": "nftContract",
              "type": "address"
            },
            {
              "internalType": "uint256",
              "name": "tokenId",
              "type": "uint256"
            },
            {
              "internalType": "address",
              "name": "seller",
              "type": "address"
            },
            {
              "internalType": "address",
              "name": "buyer",
              "type": "address"
            },
            {
              "internalType": "uint256",
              "name": "price",
              "type": "uint256"
            },
            {
              "internalType": "uint256",
              "name": "listedTime",
              "type": "uint256"
            },
            {
              "internalType": "bool",
              "name": "isSold",
              "type": "bool"
            }
          ],
          "internalType": "struct Market.MarketItem[]",
          "name": "",
          "type": "tuple[]"
        }
      ],
      "stateMutability": "view",
      "type": "function"
    },
    {
      "inputs": [],
      "name": "fetchMyNFTs",
      "outputs": [
        {
          "components": [
            {
              "internalType": "uint256",
              "name": "itemId",
              "type": "uint256"
            },
            {
              "internalType": "address",
              "name": "nftContract",
              "type": "address"
            },
            {
              "internalType": "uint256",
              "name": "tokenId",
              "type": "uint256"
            },
            {
              "internalType": "address",
              "name": "seller",
              "type": "address"
            },
            {
              "internalType": "address",
              "name": "buyer",
              "type": "address"
            },
            {
              "internalType": "uint256",
              "name": "price",
              "type": "uint256"
            },
            {
              "internalType": "uint256",
              "name": "listedTime",
              "type": "uint256"
            },
            {
              "internalType": "bool",
              "name": "isSold",
              "type": "bool"
            }
          ],
          "internalType": "struct Market.MarketItem[]",
          "name": "",
          "type": "tuple[]"
        }
      ],
      "stateMutability": "view",
      "type": "function"
    },
    {
      "inputs": [],
      "name": "fetchItemsCreated",
      "outputs": [
        {
          "components": [
            {
              "internalType": "uint256",
              "name": "itemId",
              "type": "uint256"
            },
            {
              "internalType": "address",
              "name": "nftContract",
              "type": "address"
            },
            {
              "internalType": "uint256",
              "name": "tokenId",
              "type": "uint256"
            },
            {
              "internalType": "address",
              "name": "seller",
              "type": "address"
            },
            {
              "internalType": "address",
              "name": "buyer",
              "type": "address"
            },
            {
              "internalType": "uint256",
              "name": "price",
              "type": "uint256"
            },
            {
              "internalType": "uint256",
              "name": "listedTime",
              "type": "uint256"
            },
            {
              "internalType": "bool",
              "name": "isSold",
              "type": "bool"
            }
          ],
          "internalType": "struct Market.MarketItem[]",
          "name": "",
          "type": "tuple[]"
        }
      ],
      "stateMutability": "view",
      "type": "function"
    },
    {
      "inputs": [
        {
          "internalType": "uint256",
          "name": "_marketId",
          "type": "uint256"
        }
      ],
      "name": "fetchSellerOfMarketItem",
      "outputs": [
        {
          "internalType": "address",
          "name": "",
          "type": "address"
        }
      ],
      "stateMutability": "view",
      "type": "function"
    },
    {
      "inputs": [
        {
          "internalType": "uint256",
          "name": "_marketId",
          "type": "uint256"
        }
      ],
      "name": "fetchPriceOfMarketItem",
      "outputs": [
        {
          "internalType": "uint256",
          "name": "",
          "type": "uint256"
        }
      ],
      "stateMutability": "view",
      "type": "function"
    },
    {
      "inputs": [
        {
          "internalType": "uint256",
          "name": "_marketId",
          "type": "uint256"
        }
      ],
      "name": "fetchBuyerOfMarketItem",
      "outputs": [
        {
          "internalType": "address",
          "name": "",
          "type": "address"
        }
      ],
      "stateMutability": "view",
      "type": "function"
    }
  ],
  "bytecode": "0x60806040523480156200001157600080fd5b5060405162001aba38038062001aba833981016040819052620000349162000107565b60016000556200005f62000050640100000000620000b1810204565b640100000000620000b5810204565b60048054600160a060020a03938416600160a060020a03199091161790556005805491909216600160a860020a031990911617740a00000000000000000000000000000000000000001790556200015e565b3390565b60018054600160a060020a03838116600160a060020a0319831681179093556040519116919082907f8be0079c531659141344cd1fd0a4f28419497f9722a3daafe3b4186f6b6457e090600090a35050565b600080604083850312156200011a578182fd5b8251620001278162000145565b60208401519092506200013a8162000145565b809150509250929050565b600160a060020a03811681146200015b57600080fd5b50565b61194c806200016e6000396000f3fe608060405234801561001057600080fd5b50600436106101045760003560e060020a90048063a9e0c3161161009b578063e67047231161006a578063e670472314610255578063f064c32e1461025d578063f2fde38b14610265578063f48381761461027857600080fd5b8063a9e0c316146101eb578063c23b139e146101fe578063c919319314610211578063e074278d1461024257600080fd5b8063715018a6116100d7578063715018a61461016f5780637fd6f15c146101775780638da5cb5b146101ae57806392198437146101bf57600080fd5b80630f08efe014610109578063202e37401461012757806358eb2df51461012f578063591b8f6114610144575b600080fd5b61011161028b565b60405161011e9190611743565b60405180910390f35b610111610445565b61014261013d36600461167c565b61063c565b005b6101576101523660046116ce565b61088e565b604051600160a060020a03909116815260200161011e565b610142610911565b60055461019c9074010000000000000000000000000000000000000000900460ff1681565b60405160ff909116815260200161011e565b600154600160a060020a0316610157565b6101576101cd3660046116ce565b600090815260066020526040902060030154600160a060020a031690565b6101426101f9366004611653565b61094a565b61014261020c366004611653565b610c59565b61023461021f3660046116ce565b60009081526006602052604090206005015490565b60405190815260200161011e565b610142610250366004611632565b611090565b61015761116b565b6101116111ab565b610142610273366004611632565b6113a2565b6101426102863660046116fe565b61145a565b6060600061029860025490565b905060006102a560035490565b6002546102b291906118a8565b90506000808267ffffffffffffffff8111156102e15760e060020a634e487b7102600052604160045260246000fd5b60405190808252806020026020018201604052801561031a57816020015b6103076115b4565b8152602001906001900390816102ff5790505b50905060005b8481101561043c57600060068161033884600161184e565b8152602081019190915260400160002060040154600160a060020a0316141561042a57600061036882600161184e565b600081815260066020818152604092839020835161010081018552815481526001820154600160a060020a039081169382019390935260028201549481019490945260038101548216606085015260048101549091166080840152600581015460a08401529081015460c0830152600781015460ff16151560e083015285519293509185908790811061040e5760e060020a634e487b7102600052603260045260246000fd5b60200260200101819052508480610424906118e2565b95505050505b80610434816118e2565b915050610320565b50949350505050565b6060600061045260025490565b905060008060005b838110156104b557336006600061047284600161184e565b8152602081019190915260400160002060040154600160a060020a031614156104a3576104a060018461184e565b92505b806104ad816118e2565b91505061045a565b5060008267ffffffffffffffff8111156104e25760e060020a634e487b7102600052604160045260246000fd5b60405190808252806020026020018201604052801561051b57816020015b6105086115b4565b8152602001906001900390816105005790505b50905060005b8481101561043c57336006600061053984600161184e565b8152602081019190915260400160002060040154600160a060020a0316141561062a57600061056982600161184e565b600081815260066020818152604092839020835161010081018552815481526001820154600160a060020a039081169382019390935260028201549481019490945260038101548216606085015260048101549091166080840152600581015460a08401529081015460c0830152600781015460ff16151560e083015285519293509185908790811061060f5760e060020a634e487b7102600052603260045260246000fd5b602090810291909101015261062560018661184e565b945050505b80610634816118e2565b915050610521565b6002600054141561066b5760405160e560020a62461bcd02815260040161066290611817565b60405180910390fd5b6002600055806106c05760405160e560020a62461bcd02815260206004820152601360248201527f50726963652063616e2774206265207a65726f000000000000000000000000006044820152606401610662565b6106ce600280546001019055565b60006106d960025490565b6040805161010081018252828152600160a060020a0387811660208084018281528486018a8152336060870181815260006080890181815260a08a018e81524260c08c0190815260e08c018481528e85526006998a9052938d90209b518c55965160018c01805473ffffffffffffffffffffffffffffffffffffffff19908116928d16929092179055955160028c0155925160038b0180548716918b16919091179055516004808b018054909616919099161790935551600588015591519286019290925590516007909401805460ff19169415159490941790935592517f23b872dd00000000000000000000000000000000000000000000000000000000815293945091926323b872dd926107f49291309189910161171f565b600060405180830381600087803b15801561080e57600080fd5b505af1158015610822573d6000803e3d6000fd5b50506040805133815260006020820181905281830187905242606083015260808201529051869350600160a060020a038816925084917fd0bb1eaea8ab6cd0c288f209757734c5e280d8f4e05f93b1db82da8db7278758919081900360a00190a4505060016000555050565b60008181526006602052604081206007015460ff166108f25760405160e560020a62461bcd02815260206004820152601960248201527f54686973204974656d206973206e6f7420736f6c6420796574000000000000006044820152606401610662565b50600090815260066020526040902060040154600160a060020a031690565b600154600160a060020a0316331461093e5760405160e560020a62461bcd028152600401610662906117e2565b6109486000611555565b565b600260005414156109705760405160e560020a62461bcd02815260040161066290611817565b600260008181558281526006602052604090200154816109d55760405160e560020a62461bcd02815260206004820152601a60248201527f4974656d2049642063616e2774206e6f74206265207a65726f210000000000006044820152606401610662565b600082815260066020526040902060030154600160a060020a03163314610a675760405160e560020a62461bcd02815260206004820152602a60248201527f54686973206163636f756e74206973206e6f742073656c6c6572206f66206d6160448201527f726b6574206974656d21000000000000000000000000000000000000000000006064820152608401610662565b600082815260066020526040902060010154600160a060020a03848116911614610afb5760405160e560020a62461bcd028152602060048201526024808201527f54686973204e4654206973206e6f742061737369676e65642077697468204d6160448201527f726b6574000000000000000000000000000000000000000000000000000000006064820152608401610662565b60008281526006602052604090206007015460ff161515600114801590610b3a5750600082815260066020526040902060040154600160a060020a0316155b610b895760405160e560020a62461bcd02815260206004820152601b60248201527f54686973206974656d2077617320736f6c6420616c72656164792100000000006044820152606401610662565b6040517f23b872dd000000000000000000000000000000000000000000000000000000008152600160a060020a038416906323b872dd90610bd29030903390869060040161171f565b600060405180830381600087803b158015610bec57600080fd5b505af1158015610c00573d6000803e3d6000fd5b505050600083815260066020526040902060048101805473ffffffffffffffffffffffffffffffffffffffff191633179055600701805460ff1916600117905550610c4f600380546001019055565b5050600160005550565b60026000541415610c7f5760405160e560020a62461bcd02815260040161066290611817565b60026000818155828152600660205260409081902060058101549201546004805492517f70a08231000000000000000000000000000000000000000000000000000000008152339181019190915290918391600160a060020a03909116906370a082319060240160206040518083038186803b158015610cfe57600080fd5b505afa158015610d12573d6000803e3d6000fd5b505050506040513d601f19601f82011682018060405250810190610d3691906116e6565b1015610dad5760405160e560020a62461bcd02815260206004820152602360248201527f42616c616e6365206f66206275796572206973206c657373207468616e20707260448201527f69636500000000000000000000000000000000000000000000000000000000006064820152608401610662565b600083815260066020526040902060030154600160a060020a0316331415610e1a5760405160e560020a62461bcd02815260206004820152601760248201527f557365722063616e27742062757920686973204e4654210000000000000000006044820152606401610662565b600454600084815260066020526040902060030154600554600160a060020a03928316926323b872dd923392911690606490610e719074010000000000000000000000000000000000000000900460ff16826118bf565b610e7e9060ff1688611889565b610e889190611866565b6040518463ffffffff1660e060020a028152600401610ea99392919061171f565b602060405180830381600087803b158015610ec357600080fd5b505af1158015610ed7573d6000803e3d6000fd5b505050506040513d601f19601f82011682018060405250810190610efb91906116ae565b50600454600554600160a060020a03918216916323b872dd913391811690606490610f419074010000000000000000000000000000000000000000900460ff1688611889565b610f4b9190611866565b6040518463ffffffff1660e060020a028152600401610f6c9392919061171f565b602060405180830381600087803b158015610f8657600080fd5b505af1158015610f9a573d6000803e3d6000fd5b505050506040513d601f19601f82011682018060405250810190610fbe91906116ae565b506040517f23b872dd000000000000000000000000000000000000000000000000000000008152600160a060020a038516906323b872dd906110089030903390869060040161171f565b600060405180830381600087803b15801561102257600080fd5b505af1158015611036573d6000803e3d6000fd5b505050600084815260066020526040902060048101805473ffffffffffffffffffffffffffffffffffffffff191633179055600701805460ff1916600117905550611085600380546001019055565b505060016000555050565b600154600160a060020a031633146110bd5760405160e560020a62461bcd028152600401610662906117e2565b600160a060020a03811661113c5760405160e560020a62461bcd02815260206004820152602760248201527f5a65726f20416464726573732063616e277420626520746865206f776e65722060448201527f61646472657373000000000000000000000000000000000000000000000000006064820152608401610662565b6005805473ffffffffffffffffffffffffffffffffffffffff1916600160a060020a0392909216919091179055565b600154600090600160a060020a0316331461119b5760405160e560020a62461bcd028152600401610662906117e2565b50600554600160a060020a031690565b606060006111b860025490565b905060008060005b8381101561121b5733600660006111d884600161184e565b8152602081019190915260400160002060030154600160a060020a031614156112095761120660018461184e565b92505b80611213816118e2565b9150506111c0565b5060008267ffffffffffffffff8111156112485760e060020a634e487b7102600052604160045260246000fd5b60405190808252806020026020018201604052801561128157816020015b61126e6115b4565b8152602001906001900390816112665790505b50905060005b8481101561043c57336006600061129f84600161184e565b8152602081019190915260400160002060030154600160a060020a031614156113905760006112cf82600161184e565b600081815260066020818152604092839020835161010081018552815481526001820154600160a060020a039081169382019390935260028201549481019490945260038101548216606085015260048101549091166080840152600581015460a08401529081015460c0830152600781015460ff16151560e08301528551929350918590879081106113755760e060020a634e487b7102600052603260045260246000fd5b602090810291909101015261138b60018661184e565b945050505b8061139a816118e2565b915050611287565b600154600160a060020a031633146113cf5760405160e560020a62461bcd028152600401610662906117e2565b600160a060020a03811661144e5760405160e560020a62461bcd02815260206004820152602660248201527f4f776e61626c653a206e6577206f776e657220697320746865207a65726f206160448201527f64647265737300000000000000000000000000000000000000000000000000006064820152608401610662565b61145781611555565b50565b600154600160a060020a031633146114875760405160e560020a62461bcd028152600401610662906117e2565b601e8160ff161115801561149e575060008160ff16115b6115135760405160e560020a62461bcd02815260206004820152603560248201527f50657263656e74206f6620466565206d757374206265206c657373207468616e60448201527f20333025206f722063616e2774206265207a65726f00000000000000000000006064820152608401610662565b6005805460ff909216740100000000000000000000000000000000000000000274ff000000000000000000000000000000000000000019909216919091179055565b60018054600160a060020a0383811673ffffffffffffffffffffffffffffffffffffffff19831681179093556040519116919082907f8be0079c531659141344cd1fd0a4f28419497f9722a3daafe3b4186f6b6457e090600090a35050565b604051806101000160405280600081526020016000600160a060020a03168152602001600081526020016000600160a060020a031681526020016000600160a060020a0316815260200160008152602001600081526020016000151581525090565b8035600160a060020a038116811461162d57600080fd5b919050565b600060208284031215611643578081fd5b61164c82611616565b9392505050565b60008060408385031215611665578081fd5b61166e83611616565b946020939093013593505050565b600080600060608486031215611690578081fd5b61169984611616565b95602085013595506040909401359392505050565b6000602082840312156116bf578081fd5b8151801515811461164c578182fd5b6000602082840312156116df578081fd5b5035919050565b6000602082840312156116f7578081fd5b5051919050565b60006020828403121561170f578081fd5b813560ff8116811461164c578182fd5b600160a060020a039384168152919092166020820152604081019190915260600190565b602080825282518282018190526000919060409081850190868401855b828110156117d55781518051855286810151600160a060020a039081168887015286820151878701526060808301518216908701526080808301519091169086015260a0808201519086015260c0808201519086015260e0908101511515908501526101009093019290850190600101611760565b5091979650505050505050565b6020808252818101527f4f776e61626c653a2063616c6c6572206973206e6f7420746865206f776e6572604082015260600190565b6020808252601f908201527f5265656e7472616e637947756172643a207265656e7472616e742063616c6c00604082015260600190565b60008219821115611861576118616118fd565b500190565b6000826118845760e060020a634e487b710281526012600452602481fd5b500490565b60008160001904831182151516156118a3576118a36118fd565b500290565b6000828210156118ba576118ba6118fd565b500390565b600060ff821660ff8416808210156118d9576118d96118fd565b90039392505050565b60006000198214156118f6576118f66118fd565b5060010190565b60e060020a634e487b7102600052601160045260246000fdfea26469706673582212205986a057263600a4e362ff4602ae0cf0d54e028680f89a2bc43bd7a885acfe2864736f6c63430008040033",
  "immutableReferences": {},
  "source": "// SPDX-License-Identifier: MIT\r\npragma solidity ^0.8.4;\r\nimport \"@openzeppelin/contracts/utils/Counters.sol\";\r\nimport \"@openzeppelin/contracts/token/ERC721/ERC721.sol\";\r\nimport \"@openzeppelin/contracts/security/ReentrancyGuard.sol\";\r\nimport \"@openzeppelin/contracts/access/Ownable.sol\";\r\nimport \"./interfaces/IGolToken.sol\";\r\n\r\ncontract Market is ReentrancyGuard, Ownable {\r\n    using Counters for Counters.Counter;\r\n    Counters.Counter private _itemIds;\r\n    Counters.Counter private _itemSold;\r\n\r\n    IGolToken golToken;\r\n\r\n    address private ownerAddr;\r\n\r\n    struct MarketItem {\r\n        uint256 itemId;\r\n        address nftContract;\r\n        uint256 tokenId;\r\n        address seller;\r\n        address buyer;\r\n        uint256 price;\r\n        uint256 listedTime;\r\n        bool isSold;\r\n    }\r\n\r\n    uint8 public feePercent;\r\n\r\n    mapping(uint256 => MarketItem) private idToMarketItem;\r\n\r\n    event MarketItemCreated(\r\n        uint256 indexed itemId,\r\n        address indexed nftContract,\r\n        uint256 indexed tokenId,\r\n        address seller,\r\n        address owner,\r\n        uint256 price,\r\n        uint256 listedTime,\r\n        bool isSold\r\n    );\r\n\r\n    constructor(IGolToken _golToken, address _ownerAddr) {\r\n        golToken = _golToken;\r\n        feePercent = 10;\r\n        ownerAddr = _ownerAddr;\r\n    }\r\n\r\n    function setFeePercent(uint8 _feePercent) public onlyOwner {\r\n        require(\r\n            _feePercent <= 30 && _feePercent > 0,\r\n            \"Percent of Fee must be less than 30% or can't be zero\"\r\n        );\r\n        feePercent = _feePercent;\r\n    }\r\n\r\n    function setOwnerAddr(address _ownerAddr) public onlyOwner {\r\n        require(\r\n            _ownerAddr != address(0),\r\n            \"Zero Address can't be the owner address\"\r\n        );\r\n        ownerAddr = _ownerAddr;\r\n    }\r\n\r\n    function getOwnerAddr() public view onlyOwner returns (address) {\r\n        return ownerAddr;\r\n    }\r\n\r\n    function createMarketItem(\r\n        address nftContract,\r\n        uint256 tokenId,\r\n        uint256 price\r\n    ) public nonReentrant {\r\n        require(price > 0, \"Price can't be zero\");\r\n\r\n        _itemIds.increment();\r\n        uint256 itemId = _itemIds.current();\r\n\r\n        idToMarketItem[itemId] = MarketItem(\r\n            itemId,\r\n            nftContract,\r\n            tokenId,\r\n            msg.sender,\r\n            address(0),\r\n            price,\r\n            block.timestamp,\r\n            false\r\n        );\r\n\r\n        IERC721(nftContract).transferFrom(msg.sender, address(this), tokenId);\r\n\r\n        emit MarketItemCreated(\r\n            itemId,\r\n            nftContract,\r\n            tokenId,\r\n            msg.sender,\r\n            address(0),\r\n            price,\r\n            block.timestamp,\r\n            false\r\n        );\r\n    }\r\n\r\n    function unlistMarketItem(address nftContract, uint256 itemId)\r\n        public\r\n        nonReentrant\r\n    {\r\n        uint256 tokenId = idToMarketItem[itemId].tokenId;\r\n\r\n        require(itemId != 0, \"Item Id can't not be zero!\");\r\n\r\n        require(\r\n            msg.sender == idToMarketItem[itemId].seller,\r\n            \"This account is not seller of market item!\"\r\n        );\r\n\r\n        require(\r\n            nftContract == idToMarketItem[itemId].nftContract,\r\n            \"This NFT is not assigned with Market\"\r\n        );\r\n\r\n        require(\r\n            idToMarketItem[itemId].isSold != true &&\r\n                idToMarketItem[itemId].buyer == address(0),\r\n            \"This item was sold already!\"\r\n        );\r\n\r\n        IERC721(nftContract).transferFrom(address(this), msg.sender, tokenId);\r\n        idToMarketItem[itemId].buyer = msg.sender;\r\n        idToMarketItem[itemId].isSold = true;\r\n        _itemSold.increment();\r\n    }\r\n\r\n    function createMarketSale(address nftContract, uint256 itemId)\r\n        public\r\n        nonReentrant\r\n    {\r\n        uint256 price = idToMarketItem[itemId].price;\r\n        uint256 tokenId = idToMarketItem[itemId].tokenId;\r\n\r\n        require(\r\n            golToken.balanceOf(msg.sender) >= price,\r\n            \"Balance of buyer is less than price\"\r\n        );\r\n\r\n        require(\r\n            msg.sender != idToMarketItem[itemId].seller,\r\n            \"User can't buy his NFT!\"\r\n        );\r\n\r\n        golToken.transferFrom(\r\n            msg.sender,\r\n            idToMarketItem[itemId].seller,\r\n            (price * (100 - feePercent)) / 100\r\n        );\r\n\r\n        golToken.transferFrom(\r\n            msg.sender,\r\n            ownerAddr,\r\n            (price * feePercent) / 100\r\n        );\r\n\r\n        IERC721(nftContract).transferFrom(address(this), msg.sender, tokenId);\r\n        idToMarketItem[itemId].buyer = msg.sender;\r\n        idToMarketItem[itemId].isSold = true;\r\n        _itemSold.increment();\r\n    }\r\n\r\n    function fetchMarketItems() public view returns (MarketItem[] memory) {\r\n        uint256 itemCount = _itemIds.current();\r\n        uint256 unsoldItemCount = _itemIds.current() - _itemSold.current();\r\n        uint256 currentIndex = 0;\r\n\r\n        MarketItem[] memory items = new MarketItem[](unsoldItemCount);\r\n\r\n        for (uint256 i = 0; i < itemCount; i++) {\r\n            if (idToMarketItem[i + 1].buyer == address(0)) {\r\n                uint256 currentId = i + 1;\r\n                MarketItem storage currentItem = idToMarketItem[currentId];\r\n                items[currentIndex] = currentItem;\r\n                currentIndex++;\r\n            }\r\n        }\r\n\r\n        return items;\r\n    }\r\n\r\n    function fetchMyNFTs() public view returns (MarketItem[] memory) {\r\n        uint256 totalItemCount = _itemIds.current();\r\n        uint256 itemCount = 0;\r\n        uint256 currentIndex = 0;\r\n\r\n        for (uint256 i = 0; i < totalItemCount; i++) {\r\n            if (idToMarketItem[i + 1].buyer == msg.sender) {\r\n                itemCount += 1;\r\n            }\r\n        }\r\n\r\n        MarketItem[] memory items = new MarketItem[](itemCount);\r\n\r\n        for (uint256 i = 0; i < totalItemCount; i++) {\r\n            if (idToMarketItem[i + 1].buyer == msg.sender) {\r\n                uint256 currentId = i + 1;\r\n                MarketItem storage currentItem = idToMarketItem[currentId];\r\n                items[currentIndex] = currentItem;\r\n                currentIndex += 1;\r\n            }\r\n        }\r\n\r\n        return items;\r\n    }\r\n\r\n    function fetchItemsCreated() public view returns (MarketItem[] memory) {\r\n        uint256 totalItemCount = _itemIds.current();\r\n        uint256 itemCount = 0;\r\n        uint256 currentIndex = 0;\r\n\r\n        for (uint256 i = 0; i < totalItemCount; i++) {\r\n            if (idToMarketItem[i + 1].seller == msg.sender) {\r\n                itemCount += 1;\r\n            }\r\n        }\r\n\r\n        MarketItem[] memory items = new MarketItem[](itemCount);\r\n\r\n        for (uint256 i = 0; i < totalItemCount; i++) {\r\n            if (idToMarketItem[i + 1].seller == msg.sender) {\r\n                uint256 currentId = i + 1;\r\n                MarketItem storage currentItem = idToMarketItem[currentId];\r\n                items[currentIndex] = currentItem;\r\n                currentIndex += 1;\r\n            }\r\n        }\r\n\r\n        return items;\r\n    }\r\n\r\n    function fetchSellerOfMarketItem(uint256 _marketId)\r\n        public\r\n        view\r\n        returns (address)\r\n    {\r\n        return idToMarketItem[_marketId].seller;\r\n    }\r\n\r\n    function fetchPriceOfMarketItem(uint256 _marketId)\r\n        public\r\n        view\r\n        returns (uint256)\r\n    {\r\n        return idToMarketItem[_marketId].price;\r\n    }\r\n\r\n    function fetchBuyerOfMarketItem(uint256 _marketId)\r\n        public\r\n        view\r\n        returns (address)\r\n    {\r\n        require(idToMarketItem[_marketId].isSold, \"This Item is not sold yet\");\r\n\r\n        return idToMarketItem[_marketId].buyer;\r\n    }\r\n}\r\n",
  "sourcePath": "E:\\Git for Project\\Ethereum\\NFT\\GolFinance\\gol-staking-contracts\\contracts\\Market.sol",
  "compiler": {
    "name": "solc",
    "version": "0.8.4+commit.c7e474f2.Emscripten.clang"
  },
  "schemaVersion": "3.4.5",
  "updatedAt": "2022-03-09T19:00:30.611Z",
  "devdoc": {
    "kind": "dev",
    "methods": {
      "owner()": {
        "details": "Returns the address of the current owner."
      },
      "renounceOwnership()": {
        "details": "Leaves the contract without owner. It will not be possible to call `onlyOwner` functions anymore. Can only be called by the current owner. NOTE: Renouncing ownership will leave the contract without an owner, thereby removing any functionality that is only available to the owner."
      },
      "transferOwnership(address)": {
        "details": "Transfers ownership of the contract to a new account (`newOwner`). Can only be called by the current owner."
      }
    },
    "version": 1
  },
  "userdoc": {
    "kind": "user",
    "methods": {},
    "version": 1
  }
}