{
  "_format": "hh-sol-artifact-1",
  "contractName": "Match",
  "sourceName": "contracts/Match.sol",
  "abi": [
    {
      "inputs": [
        {
          "internalType": "contract IGolToken",
          "name": "_golToken",
          "type": "address"
        },
        {
          "internalType": "contract INonFungiblePlayer",
          "name": "_nonFungiblePlayer",
          "type": "address"
        },
        {
          "internalType": "contract IGolGameToken",
          "name": "_golGameToken",
          "type": "address"
        },
        {
          "internalType": "address",
          "name": "_genesis",
          "type": "address"
        },
        {
          "internalType": "address",
          "name": "_masterChef",
          "type": "address"
        }
      ],
      "stateMutability": "nonpayable",
      "type": "constructor"
    },
    {
      "anonymous": false,
      "inputs": [
        {
          "indexed": true,
          "internalType": "address",
          "name": "previousOwner",
          "type": "address"
        },
        {
          "indexed": true,
          "internalType": "address",
          "name": "newOwner",
          "type": "address"
        }
      ],
      "name": "OwnershipTransferred",
      "type": "event"
    },
    {
      "anonymous": false,
      "inputs": [
        {
          "indexed": false,
          "internalType": "bool",
          "name": "success",
          "type": "bool"
        },
        {
          "indexed": true,
          "internalType": "uint256",
          "name": "tokenPrize",
          "type": "uint256"
        }
      ],
      "name": "endMatch",
      "type": "event"
    },
    {
      "inputs": [],
      "name": "depositGameToken",
      "outputs": [],
      "stateMutability": "nonpayable",
      "type": "function"
    },
    {
      "inputs": [],
      "name": "emergencyWithdrawFromPool",
      "outputs": [],
      "stateMutability": "nonpayable",
      "type": "function"
    },
    {
      "inputs": [
        {
          "internalType": "address",
          "name": "_user",
          "type": "address"
        },
        {
          "internalType": "uint256",
          "name": "_gen",
          "type": "uint256"
        }
      ],
      "name": "getPassedBlocks",
      "outputs": [
        {
          "internalType": "uint256",
          "name": "",
          "type": "uint256"
        }
      ],
      "stateMutability": "view",
      "type": "function"
    },
    {
      "inputs": [
        {
          "internalType": "uint256[]",
          "name": "_tokenIds",
          "type": "uint256[]"
        },
        {
          "internalType": "address",
          "name": "_owner",
          "type": "address"
        }
      ],
      "name": "getWinningChance",
      "outputs": [
        {
          "internalType": "uint256",
          "name": "",
          "type": "uint256"
        }
      ],
      "stateMutability": "view",
      "type": "function"
    },
    {
      "inputs": [
        {
          "internalType": "uint256",
          "name": "level",
          "type": "uint256"
        }
      ],
      "name": "getWinningPrize",
      "outputs": [
        {
          "internalType": "uint256",
          "name": "",
          "type": "uint256"
        }
      ],
      "stateMutability": "view",
      "type": "function"
    },
    {
      "inputs": [
        {
          "internalType": "uint256",
          "name": "_amount",
          "type": "uint256"
        }
      ],
      "name": "initialDeposit",
      "outputs": [],
      "stateMutability": "nonpayable",
      "type": "function"
    },
    {
      "inputs": [
        {
          "internalType": "uint256",
          "name": "gen",
          "type": "uint256"
        },
        {
          "internalType": "address",
          "name": "_owner",
          "type": "address"
        }
      ],
      "name": "isLockedForLevel",
      "outputs": [
        {
          "internalType": "bool",
          "name": "",
          "type": "bool"
        }
      ],
      "stateMutability": "view",
      "type": "function"
    },
    {
      "inputs": [
        {
          "internalType": "address",
          "name": "",
          "type": "address"
        },
        {
          "internalType": "uint256",
          "name": "",
          "type": "uint256"
        }
      ],
      "name": "isPlayedMatch",
      "outputs": [
        {
          "internalType": "bool",
          "name": "",
          "type": "bool"
        }
      ],
      "stateMutability": "view",
      "type": "function"
    },
    {
      "inputs": [
        {
          "internalType": "address",
          "name": "",
          "type": "address"
        },
        {
          "internalType": "uint256",
          "name": "",
          "type": "uint256"
        }
      ],
      "name": "lastMatchBlock",
      "outputs": [
        {
          "internalType": "uint256",
          "name": "",
          "type": "uint256"
        }
      ],
      "stateMutability": "view",
      "type": "function"
    },
    {
      "inputs": [
        {
          "internalType": "uint256",
          "name": "",
          "type": "uint256"
        }
      ],
      "name": "leagueDifficulty",
      "outputs": [
        {
          "internalType": "uint256",
          "name": "",
          "type": "uint256"
        }
      ],
      "stateMutability": "view",
      "type": "function"
    },
    {
      "inputs": [],
      "name": "matchPeriod",
      "outputs": [
        {
          "internalType": "uint256",
          "name": "",
          "type": "uint256"
        }
      ],
      "stateMutability": "view",
      "type": "function"
    },
    {
      "inputs": [],
      "name": "owner",
      "outputs": [
        {
          "internalType": "address",
          "name": "",
          "type": "address"
        }
      ],
      "stateMutability": "view",
      "type": "function"
    },
    {
      "inputs": [
        {
          "internalType": "uint256",
          "name": "",
          "type": "uint256"
        }
      ],
      "name": "prizeList",
      "outputs": [
        {
          "internalType": "uint256",
          "name": "",
          "type": "uint256"
        }
      ],
      "stateMutability": "view",
      "type": "function"
    },
    {
      "inputs": [],
      "name": "renounceOwnership",
      "outputs": [],
      "stateMutability": "nonpayable",
      "type": "function"
    },
    {
      "inputs": [
        {
          "internalType": "uint256[]",
          "name": "_leagueDifficulty",
          "type": "uint256[]"
        }
      ],
      "name": "setLeagueDifficulty",
      "outputs": [],
      "stateMutability": "nonpayable",
      "type": "function"
    },
    {
      "inputs": [
        {
          "internalType": "uint256",
          "name": "_matchPeriod",
          "type": "uint256"
        }
      ],
      "name": "setMatchPeriod",
      "outputs": [],
      "stateMutability": "nonpayable",
      "type": "function"
    },
    {
      "inputs": [
        {
          "internalType": "uint256[]",
          "name": "_prizeList",
          "type": "uint256[]"
        }
      ],
      "name": "setPrizeList",
      "outputs": [],
      "stateMutability": "nonpayable",
      "type": "function"
    },
    {
      "inputs": [
        {
          "internalType": "uint256[]",
          "name": "_tokenIds",
          "type": "uint256[]"
        }
      ],
      "name": "startMatch",
      "outputs": [],
      "stateMutability": "nonpayable",
      "type": "function"
    },
    {
      "inputs": [
        {
          "internalType": "address",
          "name": "newOwner",
          "type": "address"
        }
      ],
      "name": "transferOwnership",
      "outputs": [],
      "stateMutability": "nonpayable",
      "type": "function"
    }
  ],
  "bytecode": "0x60806040523480156200001157600080fd5b5060405162003991380380620039918339810160408190526200003491620000f8565b6200003f33620000a8565b600280546001600160a01b03199081166001600160a01b0397881617909155600180548216958716959095179094556005805485169186169190911790556003805484169285169290921790915560098054909216921691909117905561708060045562000190565b600080546001600160a01b038381166001600160a01b0319831681178455604051919092169283917f8be0079c531659141344cd1fd0a4f28419497f9722a3daafe3b4186f6b6457e09190a35050565b600080600080600060a0868803121562000110578081fd5b85516200011d8162000177565b6020870151909550620001308162000177565b6040870151909450620001438162000177565b6060870151909350620001568162000177565b6080870151909250620001698162000177565b809150509295509295909350565b6001600160a01b03811681146200018d57600080fd5b50565b6137f180620001a06000396000f3fe608060405234801561001057600080fd5b50600436106101515760003560e01c806386cd647a116100cd578063bb86a93a11610081578063dcae2cb411610066578063dcae2cb4146102e0578063f2fde38b14610300578063f640fde91461031357600080fd5b8063bb86a93a146102c4578063c8852846146102cd57600080fd5b80638da5cb5b116100b25780638da5cb5b146102765780639612dc7d14610291578063a4b2ea6a146102a457600080fd5b806386cd647a146102285780638979087e1461024857600080fd5b80636a94f9ee116101245780637c6c1c94116101095780637c6c1c94146101fa5780637f570e2b146102025780638402a8191461021557600080fd5b80636a94f9ee146101df578063715018a6146101f257600080fd5b8063109adf27146101565780633828df2c1461016b5780634170595a146101935780634d6171d5146101a6575b600080fd5b6101696101643660046135e6565b61031b565b005b61017e610179366004613616565b61037f565b60405190151581526020015b60405180910390f35b6101696101a13660046135e6565b6103cf565b6101d16101b4366004613410565b600a60209081526000928352604080842090915290825290205481565b60405190815260200161018a565b6101696101ed36600461343b565b61062d565b610169610767565b6101696107cd565b6101696102103660046134ab565b610835565b6101d16102233660046134e6565b612009565b6101d16102363660046135e6565b60076020526000908152604090205481565b61017e610256366004613410565b600860209081526000928352604080842090915290825290205460ff1681565b6000546040516001600160a01b03909116815260200161018a565b61016961029f36600461343b565b612fa3565b6101d16102b23660046135e6565b60066020526000908152604090205481565b6101d160045481565b6101d16102db366004613410565b6130d8565b6101d16102ee3660046135e6565b60009081526006602052604090205490565b61016961030e3660046133d8565b61310d565b6101696131ef565b6000546001600160a01b0316331461037a5760405162461bcd60e51b815260206004820181905260248201527f4f776e61626c653a2063616c6c6572206973206e6f7420746865206f776e657260448201526064015b60405180910390fd5b600455565b600061038c836001613687565b6103989061708061369f565b6001600160a01b0383166000908152600a602090815260408083208784529091529020546103c690436136d2565b10159392505050565b6000546001600160a01b031633146104295760405162461bcd60e51b815260206004820181905260248201527f4f776e61626c653a2063616c6c6572206973206e6f7420746865206f776e65726044820152606401610371565b61043b81670de0b6b3a76400006136b3565b6003546040516370a0823160e01b81523060048201526001600160a01b03909116906370a082319060240160206040518083038186803b15801561047e57600080fd5b505afa158015610492573d6000803e3d6000fd5b505050506040513d601f19601f820116820180604052508101906104b691906135fe565b116105035760405162461bcd60e51b815260206004820152601560248201527f496e73756666696369656e742062616c616e63652100000000000000000000006044820152606401610371565b6003546005546001600160a01b039182169163095ea7b3911661052e84670de0b6b3a76400006136b3565b6040517fffffffff0000000000000000000000000000000000000000000000000000000060e085901b1681526001600160a01b0390921660048301526024820152604401602060405180830381600087803b15801561058c57600080fd5b505af11580156105a0573d6000803e3d6000fd5b505050506040513d601f19601f820116820180604052508101906105c49190613536565b50600554604051631c57762b60e31b815260026004820152602481018390526001600160a01b039091169063e2bbb15890604401600060405180830381600087803b15801561061257600080fd5b505af1158015610626573d6000803e3d6000fd5b5050505050565b6000546001600160a01b031633146106875760405162461bcd60e51b815260206004820181905260248201527f4f776e61626c653a2063616c6c6572206973206e6f7420746865206f776e65726044820152606401610371565b603281146106fd5760405162461bcd60e51b815260206004820152603460248201527f546865206c697374206f6620646966666963756c74696573206d75737420626560448201527f20666f72207468652065616368206c6576656c210000000000000000000000006064820152608401610371565b60005b60ff81168211156107625782828260ff1681811061072e57634e487b7160e01b600052603260045260246000fd5b90506020020135600760008360ff16815260200190815260200160002081905550808061075a90613730565b915050610700565b505050565b6000546001600160a01b031633146107c15760405162461bcd60e51b815260206004820181905260248201527f4f776e61626c653a2063616c6c6572206973206e6f7420746865206f776e65726044820152606401610371565b6107cb6000613293565b565b600554604051631c57762b60e31b815260026004820152600060248201526001600160a01b039091169063e2bbb158906044015b600060405180830381600087803b15801561081b57600080fd5b505af115801561082f573d6000803e3d6000fd5b50505050565b60015481516001600160a01b0390911690636352211e90839060009061086b57634e487b7160e01b600052603260045260246000fd5b60200260200101516040518263ffffffff1660e01b815260040161089191815260200190565b60206040518083038186803b1580156108a957600080fd5b505afa1580156108bd573d6000803e3d6000fd5b505050506040513d601f19601f820116820180604052508101906108e191906133f4565b6001600160a01b0316336001600160a01b03161480156109be57506001805482516001600160a01b0390911691636352211e91849190811061093357634e487b7160e01b600052603260045260246000fd5b60200260200101516040518263ffffffff1660e01b815260040161095991815260200190565b60206040518083038186803b15801561097157600080fd5b505afa158015610985573d6000803e3d6000fd5b505050506040513d601f19601f820116820180604052508101906109a991906133f4565b6001600160a01b0316336001600160a01b0316145b8015610a88575060015481516001600160a01b0390911690636352211e90839060029081106109fd57634e487b7160e01b600052603260045260246000fd5b60200260200101516040518263ffffffff1660e01b8152600401610a2391815260200190565b60206040518083038186803b158015610a3b57600080fd5b505afa158015610a4f573d6000803e3d6000fd5b505050506040513d601f19601f82011682018060405250810190610a7391906133f4565b6001600160a01b0316336001600160a01b0316145b8015610b52575060015481516001600160a01b0390911690636352211e9083906003908110610ac757634e487b7160e01b600052603260045260246000fd5b60200260200101516040518263ffffffff1660e01b8152600401610aed91815260200190565b60206040518083038186803b158015610b0557600080fd5b505afa158015610b19573d6000803e3d6000fd5b505050506040513d601f19601f82011682018060405250810190610b3d91906133f4565b6001600160a01b0316336001600160a01b0316145b610bc45760405162461bcd60e51b815260206004820152602360248201527f596f7520617265206e6f74206f776e6572206f6620746865736520506c61796560448201527f72732100000000000000000000000000000000000000000000000000000000006064820152608401610371565b6001805482516001600160a01b03909116916386481d40918491908110610bfb57634e487b7160e01b600052603260045260246000fd5b60200260200101516040518263ffffffff1660e01b8152600401610c2191815260200190565b60206040518083038186803b158015610c3957600080fd5b505afa158015610c4d573d6000803e3d6000fd5b505050506040513d601f19601f82011682018060405250810190610c7191906135fe565b60015482516001600160a01b03909116906386481d40908490600090610ca757634e487b7160e01b600052603260045260246000fd5b60200260200101516040518263ffffffff1660e01b8152600401610ccd91815260200190565b60206040518083038186803b158015610ce557600080fd5b505afa158015610cf9573d6000803e3d6000fd5b505050506040513d601f19601f82011682018060405250810190610d1d91906135fe565b148015610e82575060015481516001600160a01b03909116906386481d409083906002908110610d5d57634e487b7160e01b600052603260045260246000fd5b60200260200101516040518263ffffffff1660e01b8152600401610d8391815260200190565b60206040518083038186803b158015610d9b57600080fd5b505afa158015610daf573d6000803e3d6000fd5b505050506040513d601f19601f82011682018060405250810190610dd391906135fe565b6001805483516001600160a01b03909116916386481d40918591908110610e0a57634e487b7160e01b600052603260045260246000fd5b60200260200101516040518263ffffffff1660e01b8152600401610e3091815260200190565b60206040518083038186803b158015610e4857600080fd5b505afa158015610e5c573d6000803e3d6000fd5b505050506040513d601f19601f82011682018060405250810190610e8091906135fe565b145b8015610fe7575060015481516001600160a01b03909116906386481d409083906003908110610ec157634e487b7160e01b600052603260045260246000fd5b60200260200101516040518263ffffffff1660e01b8152600401610ee791815260200190565b60206040518083038186803b158015610eff57600080fd5b505afa158015610f13573d6000803e3d6000fd5b505050506040513d601f19601f82011682018060405250810190610f3791906135fe565b60015482516001600160a01b03909116906386481d409084906002908110610f6f57634e487b7160e01b600052603260045260246000fd5b60200260200101516040518263ffffffff1660e01b8152600401610f9591815260200190565b60206040518083038186803b158015610fad57600080fd5b505afa158015610fc1573d6000803e3d6000fd5b505050506040513d601f19601f82011682018060405250810190610fe591906135fe565b145b6110335760405162461bcd60e51b815260206004820152601c60248201527f506c617965727327206c6576656c206d7573742062652073616d6521000000006044820152606401610371565b60015481516000916001600160a01b03169063eb02c301908490849061106957634e487b7160e01b600052603260045260246000fd5b60200260200101516040518263ffffffff1660e01b815260040161108f91815260200190565b60006040518083038186803b1580156110a757600080fd5b505afa1580156110bb573d6000803e3d6000fd5b505050506040513d6000823e601f3d908101601f191682016040526110e39190810190613556565b6001805484519293506000926001600160a01b039091169163eb02c30191869190811061112057634e487b7160e01b600052603260045260246000fd5b60200260200101516040518263ffffffff1660e01b815260040161114691815260200190565b60006040518083038186803b15801561115e57600080fd5b505afa158015611172573d6000803e3d6000fd5b505050506040513d6000823e601f3d908101601f1916820160405261119a9190810190613556565b60015484519192506000916001600160a01b039091169063eb02c30190869060029081106111d857634e487b7160e01b600052603260045260246000fd5b60200260200101516040518263ffffffff1660e01b81526004016111fe91815260200190565b60006040518083038186803b15801561121657600080fd5b505afa15801561122a573d6000803e3d6000fd5b505050506040513d6000823e601f3d908101601f191682016040526112529190810190613556565b60015485519192506000916001600160a01b039091169063eb02c301908790600390811061129057634e487b7160e01b600052603260045260246000fd5b60200260200101516040518263ffffffff1660e01b81526004016112b691815260200190565b60006040518083038186803b1580156112ce57600080fd5b505afa1580156112e2573d6000803e3d6000fd5b505050506040513d6000823e601f3d908101601f1916820160405261130a9190810190613556565b90508260405160200161131d919061363a565b6040516020818303038152906040528051906020012084604051602001611344919061363a565b60405160208183030381529060405280519060200120141580156113b4575081604051602001611374919061363a565b604051602081830303815290604052805190602001208460405160200161139b919061363a565b6040516020818303038152906040528051906020012014155b801561140c5750806040516020016113cc919061363a565b60405160208183030381529060405280519060200120846040516020016113f3919061363a565b6040516020818303038152906040528051906020012014155b8015611464575081604051602001611424919061363a565b604051602081830303815290604052805190602001208360405160200161144b919061363a565b6040516020818303038152906040528051906020012014155b80156114bc57508060405160200161147c919061363a565b60405160208183030381529060405280519060200120836040516020016114a3919061363a565b6040516020818303038152906040528051906020012014155b80156115145750806040516020016114d4919061363a565b60405160208183030381529060405280519060200120826040516020016114fb919061363a565b6040516020818303038152906040528051906020012014155b6115735760405162461bcd60e51b815260206004820152602a60248201527f506f736974696f6e206f66206561636820706c61796572206d75737420626520604482015269646966666572656e742160b01b6064820152608401610371565b60015485516000916001600160a01b0316906356e3df9790889084906115a957634e487b7160e01b600052603260045260246000fd5b60200260200101516040518263ffffffff1660e01b81526004016115cf91815260200190565b60206040518083038186803b1580156115e757600080fd5b505afa1580156115fb573d6000803e3d6000fd5b505050506040513d601f19601f8201168201806040525081019061161f91906135fe565b905061162c816001613687565b600454611639919061369f565b336000908152600a6020908152604080832085845290915290205461165e90436136d2565b10156116d25760405162461bcd60e51b815260206004820152602560248201527f4c6f636b656420666f72204d617463682070657220746869732067656e65726160448201527f74696f6e210000000000000000000000000000000000000000000000000000006064820152608401610371565b33600090815260086020908152604080832084845290915290205460ff1661171a573360009081526008602090815260408083208484529091529020805460ff191660011790555b6009546040516370a0823160e01b815233600482015260009182916001600160a01b03909116906370a082319060240160206040518083038186803b15801561176257600080fd5b505afa158015611776573d6000803e3d6000fd5b505050506040513d601f19601f8201168201806040525081019061179a91906135fe565b116117a65760646117a9565b607d5b6002546040516370a0823160e01b815233600482015260ff9290921692506000916001600160a01b03909116906370a082319060240160206040518083038186803b1580156117f757600080fd5b505afa15801561180b573d6000803e3d6000fd5b505050506040513d601f19601f8201168201806040525081019061182f91906135fe565b90506000690a968163f0a57b4000008210156118b057690878678326eac90000008210156118a95769065a4da25d3016c000008210156118a25769043c33c193756480000082101561189b5769021e19e0c9bab240000082101561189457600a6118b3565b600b6118b3565b600c6118b3565b600d6118b3565b600e6118b3565b600f5b60ff1690506000805b60048160ff161015611bf6576001548b516000916001600160a01b0316906348758697908e9060ff861690811061190357634e487b7160e01b600052603260045260246000fd5b60200260200101516040518263ffffffff1660e01b815260040161192991815260200190565b60006040518083038186803b15801561194157600080fd5b505afa158015611955573d6000803e3d6000fd5b505050506040513d6000823e601f3d908101601f1916820160405261197d9190810190613556565b6001548d519192506000916001600160a01b039091169063db3843c6908f9060ff87169081106119bd57634e487b7160e01b600052603260045260246000fd5b60200260200101516040518263ffffffff1660e01b81526004016119e391815260200190565b60206040518083038186803b1580156119fb57600080fd5b505afa158015611a0f573d6000803e3d6000fd5b505050506040513d601f19601f82011682018060405250810190611a3391906135fe565b905080611a485780611a4481613715565b9150505b60405167135e5d1a1a58d85b60c21b60208201526028016040516020818303038152906040528051906020012082604051602001611a86919061363a565b6040516020818303038152906040528051906020012014611bc557604051684c6567656e6461727960b81b60208201526029016040516020818303038152906040528051906020012082604051602001611ae0919061363a565b6040516020818303038152906040528051906020012014611bbe57604051635261726560e01b60208201526024016040516020818303038152906040528051906020012082604051602001611b35919061363a565b6040516020818303038152906040528051906020012014611bb757604051672ab731b7b6b6b7b760c11b60208201526028016040516020818303038152906040528051906020012082604051602001611b8e919061363a565b6040516020818303038152906040528051906020012014611bb057600a611bc8565b600b611bc8565b600c611bc8565b600d611bc8565b600e5b611bd59060ff16826136b3565b611bdf9085613687565b935050508080611bee90613730565b9150506118bc565b5081611c0285836136b3565b611c0c91906136b3565b6001548b519192506007916000916001600160a01b0316906386481d40908e908490611c4857634e487b7160e01b600052603260045260246000fd5b60200260200101516040518263ffffffff1660e01b8152600401611c6e91815260200190565b60206040518083038186803b158015611c8657600080fd5b505afa158015611c9a573d6000803e3d6000fd5b505050506040513d601f19601f82011682018060405250810190611cbe91906135fe565b81526020019081526020016000205481612710611cdb91906136b3565b611ce5919061369f565b611cf06127106132fb565b11611fa8576001548a5160009160069183916001600160a01b0316906386481d40908f908490611d3057634e487b7160e01b600052603260045260246000fd5b60200260200101516040518263ffffffff1660e01b8152600401611d5691815260200190565b60206040518083038186803b158015611d6e57600080fd5b505afa158015611d82573d6000803e3d6000fd5b505050506040513d601f19601f82011682018060405250810190611da691906135fe565b81526020019081526020016000205490505b611dc8816509184e72a0006136b3565b6002546040516370a0823160e01b81523060048201526001600160a01b03909116906370a082319060240160206040518083038186803b158015611e0b57600080fd5b505afa158015611e1f573d6000803e3d6000fd5b505050506040513d601f19601f82011682018060405250810190611e4391906135fe565b1015611eb357600554604051631c57762b60e31b815260026004820152600060248201526001600160a01b039091169063e2bbb15890604401600060405180830381600087803b158015611e9657600080fd5b505af1158015611eaa573d6000803e3d6000fd5b50505050611db8565b6002546001600160a01b031663a9059cbb33611ed5846509184e72a0006136b3565b6040517fffffffff0000000000000000000000000000000000000000000000000000000060e085901b1681526001600160a01b0390921660048301526024820152604401602060405180830381600087803b158015611f3357600080fd5b505af1158015611f47573d6000803e3d6000fd5b505050506040513d601f19601f82011682018060405250810190611f6b9190613536565b506040516001815281907f53d4765ec670428368b78e96e475e7f10baf770184e16bf02c7bb2cd24ef6c2e9060200160405180910390a250611fdf565b6040516000808252907f53d4765ec670428368b78e96e475e7f10baf770184e16bf02c7bb2cd24ef6c2e9060200160405180910390a25b5050336000908152600a602090815260408083209583529490529290922043905550505050505050565b6001805483516000926001600160a01b03909216916386481d4091869190811061204357634e487b7160e01b600052603260045260246000fd5b60200260200101516040518263ffffffff1660e01b815260040161206991815260200190565b60206040518083038186803b15801561208157600080fd5b505afa158015612095573d6000803e3d6000fd5b505050506040513d601f19601f820116820180604052508101906120b991906135fe565b60015484516001600160a01b03909116906386481d409086906000906120ef57634e487b7160e01b600052603260045260246000fd5b60200260200101516040518263ffffffff1660e01b815260040161211591815260200190565b60206040518083038186803b15801561212d57600080fd5b505afa158015612141573d6000803e3d6000fd5b505050506040513d601f19601f8201168201806040525081019061216591906135fe565b1480156122ca575060015483516001600160a01b03909116906386481d4090859060029081106121a557634e487b7160e01b600052603260045260246000fd5b60200260200101516040518263ffffffff1660e01b81526004016121cb91815260200190565b60206040518083038186803b1580156121e357600080fd5b505afa1580156121f7573d6000803e3d6000fd5b505050506040513d601f19601f8201168201806040525081019061221b91906135fe565b6001805485516001600160a01b03909116916386481d4091879190811061225257634e487b7160e01b600052603260045260246000fd5b60200260200101516040518263ffffffff1660e01b815260040161227891815260200190565b60206040518083038186803b15801561229057600080fd5b505afa1580156122a4573d6000803e3d6000fd5b505050506040513d601f19601f820116820180604052508101906122c891906135fe565b145b801561242f575060015483516001600160a01b03909116906386481d40908590600390811061230957634e487b7160e01b600052603260045260246000fd5b60200260200101516040518263ffffffff1660e01b815260040161232f91815260200190565b60206040518083038186803b15801561234757600080fd5b505afa15801561235b573d6000803e3d6000fd5b505050506040513d601f19601f8201168201806040525081019061237f91906135fe565b60015484516001600160a01b03909116906386481d4090869060029081106123b757634e487b7160e01b600052603260045260246000fd5b60200260200101516040518263ffffffff1660e01b81526004016123dd91815260200190565b60206040518083038186803b1580156123f557600080fd5b505afa158015612409573d6000803e3d6000fd5b505050506040513d601f19601f8201168201806040525081019061242d91906135fe565b145b61247b5760405162461bcd60e51b815260206004820152601c60248201527f506c617965727327206c6576656c206d7573742062652073616d6521000000006044820152606401610371565b60015483516000916001600160a01b03169063eb02c30190869084906124b157634e487b7160e01b600052603260045260246000fd5b60200260200101516040518263ffffffff1660e01b81526004016124d791815260200190565b60006040518083038186803b1580156124ef57600080fd5b505afa158015612503573d6000803e3d6000fd5b505050506040513d6000823e601f3d908101601f1916820160405261252b9190810190613556565b6001805486519293506000926001600160a01b039091169163eb02c30191889190811061256857634e487b7160e01b600052603260045260246000fd5b60200260200101516040518263ffffffff1660e01b815260040161258e91815260200190565b60006040518083038186803b1580156125a657600080fd5b505afa1580156125ba573d6000803e3d6000fd5b505050506040513d6000823e601f3d908101601f191682016040526125e29190810190613556565b60015486519192506000916001600160a01b039091169063eb02c301908890600290811061262057634e487b7160e01b600052603260045260246000fd5b60200260200101516040518263ffffffff1660e01b815260040161264691815260200190565b60006040518083038186803b15801561265e57600080fd5b505afa158015612672573d6000803e3d6000fd5b505050506040513d6000823e601f3d908101601f1916820160405261269a9190810190613556565b60015487519192506000916001600160a01b039091169063eb02c30190899060039081106126d857634e487b7160e01b600052603260045260246000fd5b60200260200101516040518263ffffffff1660e01b81526004016126fe91815260200190565b60006040518083038186803b15801561271657600080fd5b505afa15801561272a573d6000803e3d6000fd5b505050506040513d6000823e601f3d908101601f191682016040526127529190810190613556565b905082604051602001612765919061363a565b604051602081830303815290604052805190602001208460405160200161278c919061363a565b60405160208183030381529060405280519060200120141580156127fc5750816040516020016127bc919061363a565b60405160208183030381529060405280519060200120846040516020016127e3919061363a565b6040516020818303038152906040528051906020012014155b8015612854575080604051602001612814919061363a565b604051602081830303815290604052805190602001208460405160200161283b919061363a565b6040516020818303038152906040528051906020012014155b80156128ac57508160405160200161286c919061363a565b6040516020818303038152906040528051906020012083604051602001612893919061363a565b6040516020818303038152906040528051906020012014155b80156129045750806040516020016128c4919061363a565b60405160208183030381529060405280519060200120836040516020016128eb919061363a565b6040516020818303038152906040528051906020012014155b801561295c57508060405160200161291c919061363a565b6040516020818303038152906040528051906020012082604051602001612943919061363a565b6040516020818303038152906040528051906020012014155b6129bb5760405162461bcd60e51b815260206004820152602a60248201527f506f736974696f6e206f66206561636820706c61796572206d75737420626520604482015269646966666572656e742160b01b6064820152608401610371565b6009546040516370a0823160e01b81526001600160a01b03888116600483015260009283929116906370a082319060240160206040518083038186803b158015612a0457600080fd5b505afa158015612a18573d6000803e3d6000fd5b505050506040513d601f19601f82011682018060405250810190612a3c91906135fe565b11612a48576064612a4b565b607d5b6002546040516370a0823160e01b81526001600160a01b038a8116600483015260ff939093169350600092909116906370a082319060240160206040518083038186803b158015612a9b57600080fd5b505afa158015612aaf573d6000803e3d6000fd5b505050506040513d601f19601f82011682018060405250810190612ad391906135fe565b90506000690a968163f0a57b400000821015612b5457690878678326eac9000000821015612b4d5769065a4da25d3016c00000821015612b465769043c33c1937564800000821015612b3f5769021e19e0c9bab2400000821015612b3857600a612b57565b600b612b57565b600c612b57565b600d612b57565b600e612b57565b600f5b60ff1690506000805b60048160ff161015612ea5576001548c516000916001600160a01b0316906348758697908f9060ff8616908110612ba757634e487b7160e01b600052603260045260246000fd5b60200260200101516040518263ffffffff1660e01b8152600401612bcd91815260200190565b60006040518083038186803b158015612be557600080fd5b505afa158015612bf9573d6000803e3d6000fd5b505050506040513d6000823e601f3d908101601f19168201604052612c219190810190613556565b90506000600160009054906101000a90046001600160a01b03166001600160a01b031663db3843c68f8560ff1681518110612c6c57634e487b7160e01b600052603260045260246000fd5b60200260200101516040518263ffffffff1660e01b8152600401612c9291815260200190565b60206040518083038186803b158015612caa57600080fd5b505afa158015612cbe573d6000803e3d6000fd5b505050506040513d601f19601f82011682018060405250810190612ce291906135fe565b905080612cf75780612cf381613715565b9150505b60405167135e5d1a1a58d85b60c21b60208201526028016040516020818303038152906040528051906020012082604051602001612d35919061363a565b6040516020818303038152906040528051906020012014612e7457604051684c6567656e6461727960b81b60208201526029016040516020818303038152906040528051906020012082604051602001612d8f919061363a565b6040516020818303038152906040528051906020012014612e6d57604051635261726560e01b60208201526024016040516020818303038152906040528051906020012082604051602001612de4919061363a565b6040516020818303038152906040528051906020012014612e6657604051672ab731b7b6b6b7b760c11b60208201526028016040516020818303038152906040528051906020012082604051602001612e3d919061363a565b6040516020818303038152906040528051906020012014612e5f57600a612e77565b600b612e77565b600c612e77565b600d612e77565b600e5b612e849060ff16826136b3565b612e8e9085613687565b935050508080612e9d90613730565b915050612b60565b5081612eb185836136b3565b612ebb91906136b3565b6001548c519192506007916000916001600160a01b0316906386481d40908f908490612ef757634e487b7160e01b600052603260045260246000fd5b60200260200101516040518263ffffffff1660e01b8152600401612f1d91815260200190565b60206040518083038186803b158015612f3557600080fd5b505afa158015612f49573d6000803e3d6000fd5b505050506040513d601f19601f82011682018060405250810190612f6d91906135fe565b81526020019081526020016000205481612710612f8a91906136b3565b612f94919061369f565b9b9a5050505050505050505050565b6000546001600160a01b03163314612ffd5760405162461bcd60e51b815260206004820181905260248201527f4f776e61626c653a2063616c6c6572206973206e6f7420746865206f776e65726044820152606401610371565b603281146130735760405162461bcd60e51b815260206004820152602960248201527f546865207072697a65206c697374206d75737420626520666f7220746865204560448201527f616368204c6576656c00000000000000000000000000000000000000000000006064820152608401610371565b60005b60ff81168211156107625782828260ff168181106130a457634e487b7160e01b600052603260045260246000fd5b90506020020135600660008360ff1681526020019081526020016000208190555080806130d090613730565b915050613076565b6001600160a01b0382166000908152600a6020908152604080832084845290915281205461310690436136d2565b9392505050565b6000546001600160a01b031633146131675760405162461bcd60e51b815260206004820181905260248201527f4f776e61626c653a2063616c6c6572206973206e6f7420746865206f776e65726044820152606401610371565b6001600160a01b0381166131e35760405162461bcd60e51b815260206004820152602660248201527f4f776e61626c653a206e6577206f776e657220697320746865207a65726f206160448201527f64647265737300000000000000000000000000000000000000000000000000006064820152608401610371565b6131ec81613293565b50565b6000546001600160a01b031633146132495760405162461bcd60e51b815260206004820181905260248201527f4f776e61626c653a2063616c6c6572206973206e6f7420746865206f776e65726044820152606401610371565b6005546040517f5312ea8e000000000000000000000000000000000000000000000000000000008152600260048201526001600160a01b0390911690635312ea8e90602401610801565b600080546001600160a01b038381167fffffffffffffffffffffffff0000000000000000000000000000000000000000831681178455604051919092169283917f8be0079c531659141344cd1fd0a4f28419497f9722a3daafe3b4186f6b6457e09190a35050565b600081423360405160200161332c92919091825260601b6bffffffffffffffffffffffff1916602082015260340190565b6040516020818303038152906040528051906020012060001c61334f9190613750565b92915050565b600082601f830112613365578081fd5b8135602067ffffffffffffffff82111561338157613381613790565b8160051b613390828201613656565b8381528281019086840183880185018910156133aa578687fd5b8693505b858410156133cc5780358352600193909301929184019184016133ae565b50979650505050505050565b6000602082840312156133e9578081fd5b8135613106816137a6565b600060208284031215613405578081fd5b8151613106816137a6565b60008060408385031215613422578081fd5b823561342d816137a6565b946020939093013593505050565b6000806020838503121561344d578182fd5b823567ffffffffffffffff80821115613464578384fd5b818501915085601f830112613477578384fd5b813581811115613485578485fd5b8660208260051b8501011115613499578485fd5b60209290920196919550909350505050565b6000602082840312156134bc578081fd5b813567ffffffffffffffff8111156134d2578182fd5b6134de84828501613355565b949350505050565b600080604083850312156134f8578182fd5b823567ffffffffffffffff81111561350e578283fd5b61351a85828601613355565b925050602083013561352b816137a6565b809150509250929050565b600060208284031215613547578081fd5b81518015158114613106578182fd5b600060208284031215613567578081fd5b815167ffffffffffffffff8082111561357e578283fd5b818401915084601f830112613591578283fd5b8151818111156135a3576135a3613790565b6135b6601f8201601f1916602001613656565b91508082528560208285010111156135cc578384fd5b6135dd8160208401602086016136e9565b50949350505050565b6000602082840312156135f7578081fd5b5035919050565b60006020828403121561360f578081fd5b5051919050565b60008060408385031215613628578182fd5b82359150602083013561352b816137a6565b6000825161364c8184602087016136e9565b9190910192915050565b604051601f8201601f1916810167ffffffffffffffff8111828210171561367f5761367f613790565b604052919050565b6000821982111561369a5761369a613764565b500190565b6000826136ae576136ae61377a565b500490565b60008160001904831182151516156136cd576136cd613764565b500290565b6000828210156136e4576136e4613764565b500390565b60005b838110156137045781810151838201526020016136ec565b8381111561082f5750506000910152565b600060001982141561372957613729613764565b5060010190565b600060ff821660ff81141561374757613747613764565b60010192915050565b60008261375f5761375f61377a565b500690565b634e487b7160e01b600052601160045260246000fd5b634e487b7160e01b600052601260045260246000fd5b634e487b7160e01b600052604160045260246000fd5b6001600160a01b03811681146131ec57600080fdfea26469706673582212203bae958a918c65570bd0e9e56692325f3340aec4feffaa08d9518b596ddd859964736f6c63430008040033",
  "linkReferences": {},
  "deployedLinkReferences": {}
}