{
  "contractName": "Match",
  "abi": [
    {
      "inputs": [
        {
          "internalType": "contract IGolToken",
          "name": "_golToken",
          "type": "address"
        },
        {
          "internalType": "contract INonFungiblePlayer",
          "name": "_nonFungiblePlayer",
          "type": "address"
        },
        {
          "internalType": "contract IGolGameToken",
          "name": "_golGameToken",
          "type": "address"
        },
        {
          "internalType": "address",
          "name": "_genesis",
          "type": "address"
        },
        {
          "internalType": "address",
          "name": "_masterChef",
          "type": "address"
        }
      ],
      "stateMutability": "nonpayable",
      "type": "constructor"
    },
    {
      "anonymous": false,
      "inputs": [
        {
          "indexed": true,
          "internalType": "address",
          "name": "previousOwner",
          "type": "address"
        },
        {
          "indexed": true,
          "internalType": "address",
          "name": "newOwner",
          "type": "address"
        }
      ],
      "name": "OwnershipTransferred",
      "type": "event"
    },
    {
      "anonymous": false,
      "inputs": [
        {
          "indexed": false,
          "internalType": "bool",
          "name": "success",
          "type": "bool"
        },
        {
          "indexed": true,
          "internalType": "uint256",
          "name": "tokenPrize",
          "type": "uint256"
        }
      ],
      "name": "endMatch",
      "type": "event"
    },
    {
      "inputs": [
        {
          "internalType": "address",
          "name": "",
          "type": "address"
        },
        {
          "internalType": "uint256",
          "name": "",
          "type": "uint256"
        }
      ],
      "name": "lastMatchBlock",
      "outputs": [
        {
          "internalType": "uint256",
          "name": "",
          "type": "uint256"
        }
      ],
      "stateMutability": "view",
      "type": "function",
      "constant": true
    },
    {
      "inputs": [],
      "name": "owner",
      "outputs": [
        {
          "internalType": "address",
          "name": "",
          "type": "address"
        }
      ],
      "stateMutability": "view",
      "type": "function",
      "constant": true
    },
    {
      "inputs": [
        {
          "internalType": "uint256",
          "name": "",
          "type": "uint256"
        }
      ],
      "name": "prizeList",
      "outputs": [
        {
          "internalType": "uint256",
          "name": "",
          "type": "uint256"
        }
      ],
      "stateMutability": "view",
      "type": "function",
      "constant": true
    },
    {
      "inputs": [],
      "name": "renounceOwnership",
      "outputs": [],
      "stateMutability": "nonpayable",
      "type": "function"
    },
    {
      "inputs": [
        {
          "internalType": "address",
          "name": "newOwner",
          "type": "address"
        }
      ],
      "name": "transferOwnership",
      "outputs": [],
      "stateMutability": "nonpayable",
      "type": "function"
    },
    {
      "inputs": [
        {
          "internalType": "uint256[]",
          "name": "_prizeList",
          "type": "uint256[]"
        }
      ],
      "name": "setPrizeList",
      "outputs": [],
      "stateMutability": "nonpayable",
      "type": "function"
    },
    {
      "inputs": [
        {
          "internalType": "uint256",
          "name": "_amount",
          "type": "uint256"
        }
      ],
      "name": "initialDeposit",
      "outputs": [],
      "stateMutability": "nonpayable",
      "type": "function"
    },
    {
      "inputs": [],
      "name": "depositGameToken",
      "outputs": [],
      "stateMutability": "nonpayable",
      "type": "function"
    },
    {
      "inputs": [],
      "name": "emergencyWithdrawFromPool",
      "outputs": [],
      "stateMutability": "nonpayable",
      "type": "function"
    },
    {
      "inputs": [
        {
          "internalType": "uint256[]",
          "name": "_tokenIds",
          "type": "uint256[]"
        }
      ],
      "name": "startMatch",
      "outputs": [],
      "stateMutability": "nonpayable",
      "type": "function"
    },
    {
      "inputs": [
        {
          "internalType": "uint256[]",
          "name": "_tokenIds",
          "type": "uint256[]"
        },
        {
          "internalType": "address",
          "name": "_owner",
          "type": "address"
        }
      ],
      "name": "getWinningChance",
      "outputs": [
        {
          "internalType": "uint256",
          "name": "",
          "type": "uint256"
        }
      ],
      "stateMutability": "view",
      "type": "function",
      "constant": true
    },
    {
      "inputs": [
        {
          "internalType": "uint256",
          "name": "level",
          "type": "uint256"
        }
      ],
      "name": "getWinningPrize",
      "outputs": [
        {
          "internalType": "uint256",
          "name": "",
          "type": "uint256"
        }
      ],
      "stateMutability": "view",
      "type": "function",
      "constant": true
    },
    {
      "inputs": [
        {
          "internalType": "uint256",
          "name": "gen",
          "type": "uint256"
        },
        {
          "internalType": "address",
          "name": "_owner",
          "type": "address"
        }
      ],
      "name": "isLockedForLevel",
      "outputs": [
        {
          "internalType": "bool",
          "name": "",
          "type": "bool"
        }
      ],
      "stateMutability": "view",
      "type": "function",
      "constant": true
    }
  ],
  "bytecode": "0x60806040523480156200001157600080fd5b50604051620037fd380380620037fd833981016040819052620000349162000111565b6200005a6200004b640100000000620000bd810204565b640100000000620000c1810204565b60028054600160a060020a0319908116600160a060020a03978816179091556001805482169587169590951790945560048054851691861691909117905560038054841692851692909217909155600680549092169216919091179055620001a9565b3390565b60008054600160a060020a03838116600160a060020a0319831681178455604051919092169283917f8be0079c531659141344cd1fd0a4f28419497f9722a3daafe3b4186f6b6457e09190a35050565b600080600080600060a0868803121562000129578081fd5b8551620001368162000190565b6020870151909550620001498162000190565b60408701519094506200015c8162000190565b60608701519093506200016f8162000190565b6080870151909250620001828162000190565b809150509295509295909350565b600160a060020a0381168114620001a657600080fd5b50565b61364480620001b96000396000f3fe608060405234801561001057600080fd5b50600436106100d35760003560e060020a900480638402a81911610090578063a4b2ea6a1161006a578063a4b2ea6a146101b2578063dcae2cb4146101d2578063f2fde38b146101f2578063f640fde91461020557600080fd5b80638402a819146101715780638da5cb5b146101845780639612dc7d1461019f57600080fd5b80633828df2c146100d85780634170595a146101005780634d6171d514610115578063715018a61461014e5780637c6c1c94146101565780637f570e2b1461015e575b600080fd5b6100eb6100e63660046133ce565b61020d565b60405190151581526020015b60405180910390f35b61011361010e36600461339e565b61025d565b005b6101406101233660046131c9565b600760209081526000928352604080842090915290825290205481565b6040519081526020016100f7565b61011361049d565b6101136104d6565b61011361016c366004613263565b610558565b61014061017f36600461329e565b611de7565b600054604051600160a060020a0390911681526020016100f7565b6101136101ad3660046131f4565b612e48565b6101406101c036600461339e565b60056020526000908152604090205481565b6101406101e036600461339e565b60009081526005602052604090205490565b61011361020036600461318a565b612f5b565b610113613013565b600061021a8360016134d1565b610226906170806134e9565b600160a060020a0383166000908152600760209081526040808320878452909152902054610254904361351c565b10159392505050565b600054600160a060020a031633146102935760405160e560020a62461bcd02815260040161028a9061346b565b60405180910390fd5b6102a581670de0b6b3a76400006134fd565b60035460405160e060020a6370a08231028152306004820152600160a060020a03909116906370a082319060240160206040518083038186803b1580156102eb57600080fd5b505afa1580156102ff573d6000803e3d6000fd5b505050506040513d601f19601f8201168201806040525081019061032391906133b6565b116103735760405160e560020a62461bcd02815260206004820152601560248201527f496e73756666696369656e742062616c616e6365210000000000000000000000604482015260640161028a565b600354600454600160a060020a039182169163095ea7b3911661039e84670de0b6b3a76400006134fd565b60405160e060020a63ffffffff8516028152600160a060020a0390921660048301526024820152604401602060405180830381600087803b1580156103e257600080fd5b505af11580156103f6573d6000803e3d6000fd5b505050506040513d601f19601f8201168201806040525081019061041a91906132ee565b50600480546040517fe2bbb15800000000000000000000000000000000000000000000000000000000815260029281019290925260248201839052600160a060020a03169063e2bbb15890604401600060405180830381600087803b15801561048257600080fd5b505af1158015610496573d6000803e3d6000fd5b5050505050565b600054600160a060020a031633146104ca5760405160e560020a62461bcd02815260040161028a9061346b565b6104d4600061305e565b565b600480546040517fe2bbb15800000000000000000000000000000000000000000000000000000000815260029281019290925260006024830152600160a060020a03169063e2bbb158906044015b600060405180830381600087803b15801561053e57600080fd5b505af1158015610552573d6000803e3d6000fd5b50505050565b6001548151600160a060020a0390911690636352211e9083906000906105915760e060020a634e487b7102600052603260045260246000fd5b60200260200101516040518263ffffffff1660e060020a0281526004016105ba91815260200190565b60206040518083038186803b1580156105d257600080fd5b505afa1580156105e6573d6000803e3d6000fd5b505050506040513d601f19601f8201168201806040525081019061060a91906131ad565b600160a060020a031633600160a060020a03161480156106ed5750600180548251600160a060020a0390911691636352211e91849190811061065f5760e060020a634e487b7102600052603260045260246000fd5b60200260200101516040518263ffffffff1660e060020a02815260040161068891815260200190565b60206040518083038186803b1580156106a057600080fd5b505afa1580156106b4573d6000803e3d6000fd5b505050506040513d601f19601f820116820180604052508101906106d891906131ad565b600160a060020a031633600160a060020a0316145b80156107bd57506001548151600160a060020a0390911690636352211e908390600290811061072f5760e060020a634e487b7102600052603260045260246000fd5b60200260200101516040518263ffffffff1660e060020a02815260040161075891815260200190565b60206040518083038186803b15801561077057600080fd5b505afa158015610784573d6000803e3d6000fd5b505050506040513d601f19601f820116820180604052508101906107a891906131ad565b600160a060020a031633600160a060020a0316145b801561088d57506001548151600160a060020a0390911690636352211e90839060039081106107ff5760e060020a634e487b7102600052603260045260246000fd5b60200260200101516040518263ffffffff1660e060020a02815260040161082891815260200190565b60206040518083038186803b15801561084057600080fd5b505afa158015610854573d6000803e3d6000fd5b505050506040513d601f19601f8201168201806040525081019061087891906131ad565b600160a060020a031633600160a060020a0316145b6109025760405160e560020a62461bcd02815260206004820152602360248201527f596f7520617265206e6f74206f776e6572206f6620746865736520506c61796560448201527f7273210000000000000000000000000000000000000000000000000000000000606482015260840161028a565b600180548251600160a060020a03909116916386481d4091849190811061093c5760e060020a634e487b7102600052603260045260246000fd5b60200260200101516040518263ffffffff1660e060020a02815260040161096591815260200190565b60206040518083038186803b15801561097d57600080fd5b505afa158015610991573d6000803e3d6000fd5b505050506040513d601f19601f820116820180604052508101906109b591906133b6565b6001548251600160a060020a03909116906386481d409084906000906109ee5760e060020a634e487b7102600052603260045260246000fd5b60200260200101516040518263ffffffff1660e060020a028152600401610a1791815260200190565b60206040518083038186803b158015610a2f57600080fd5b505afa158015610a43573d6000803e3d6000fd5b505050506040513d601f19601f82011682018060405250810190610a6791906133b6565b148015610bd857506001548151600160a060020a03909116906386481d409083906002908110610aaa5760e060020a634e487b7102600052603260045260246000fd5b60200260200101516040518263ffffffff1660e060020a028152600401610ad391815260200190565b60206040518083038186803b158015610aeb57600080fd5b505afa158015610aff573d6000803e3d6000fd5b505050506040513d601f19601f82011682018060405250810190610b2391906133b6565b600180548351600160a060020a03909116916386481d40918591908110610b5d5760e060020a634e487b7102600052603260045260246000fd5b60200260200101516040518263ffffffff1660e060020a028152600401610b8691815260200190565b60206040518083038186803b158015610b9e57600080fd5b505afa158015610bb2573d6000803e3d6000fd5b505050506040513d601f19601f82011682018060405250810190610bd691906133b6565b145b8015610d4957506001548151600160a060020a03909116906386481d409083906003908110610c1a5760e060020a634e487b7102600052603260045260246000fd5b60200260200101516040518263ffffffff1660e060020a028152600401610c4391815260200190565b60206040518083038186803b158015610c5b57600080fd5b505afa158015610c6f573d6000803e3d6000fd5b505050506040513d601f19601f82011682018060405250810190610c9391906133b6565b6001548251600160a060020a03909116906386481d409084906002908110610cce5760e060020a634e487b7102600052603260045260246000fd5b60200260200101516040518263ffffffff1660e060020a028152600401610cf791815260200190565b60206040518083038186803b158015610d0f57600080fd5b505afa158015610d23573d6000803e3d6000fd5b505050506040513d601f19601f82011682018060405250810190610d4791906133b6565b145b610d985760405160e560020a62461bcd02815260206004820152601c60248201527f506c617965727327206c6576656c206d7573742062652073616d652100000000604482015260640161028a565b6001548151600091600160a060020a03169063eb02c3019084908490610dd15760e060020a634e487b7102600052603260045260246000fd5b60200260200101516040518263ffffffff1660e060020a028152600401610dfa91815260200190565b60006040518083038186803b158015610e1257600080fd5b505afa158015610e26573d6000803e3d6000fd5b505050506040513d6000823e601f3d908101601f19168201604052610e4e919081019061330e565b600180548451929350600092600160a060020a039091169163eb02c301918691908110610e8e5760e060020a634e487b7102600052603260045260246000fd5b60200260200101516040518263ffffffff1660e060020a028152600401610eb791815260200190565b60006040518083038186803b158015610ecf57600080fd5b505afa158015610ee3573d6000803e3d6000fd5b505050506040513d6000823e601f3d908101601f19168201604052610f0b919081019061330e565b6001548451919250600091600160a060020a039091169063eb02c3019086906002908110610f4c5760e060020a634e487b7102600052603260045260246000fd5b60200260200101516040518263ffffffff1660e060020a028152600401610f7591815260200190565b60006040518083038186803b158015610f8d57600080fd5b505afa158015610fa1573d6000803e3d6000fd5b505050506040513d6000823e601f3d908101601f19168201604052610fc9919081019061330e565b6001548551919250600091600160a060020a039091169063eb02c301908790600390811061100a5760e060020a634e487b7102600052603260045260246000fd5b60200260200101516040518263ffffffff1660e060020a02815260040161103391815260200190565b60006040518083038186803b15801561104b57600080fd5b505afa15801561105f573d6000803e3d6000fd5b505050506040513d6000823e601f3d908101601f19168201604052611087919081019061330e565b90508260405160200161109a91906133f2565b60405160208183030381529060405280519060200120846040516020016110c191906133f2565b60405160208183030381529060405280519060200120141580156111315750816040516020016110f191906133f2565b604051602081830303815290604052805190602001208460405160200161111891906133f2565b6040516020818303038152906040528051906020012014155b801561118957508060405160200161114991906133f2565b604051602081830303815290604052805190602001208460405160200161117091906133f2565b6040516020818303038152906040528051906020012014155b80156111e15750816040516020016111a191906133f2565b60405160208183030381529060405280519060200120836040516020016111c891906133f2565b6040516020818303038152906040528051906020012014155b80156112395750806040516020016111f991906133f2565b604051602081830303815290604052805190602001208360405160200161122091906133f2565b6040516020818303038152906040528051906020012014155b801561129157508060405160200161125191906133f2565b604051602081830303815290604052805190602001208260405160200161127891906133f2565b6040516020818303038152906040528051906020012014155b6112b05760405160e560020a62461bcd02815260040161028a9061340e565b6001548551600091600160a060020a0316906356e3df9790889084906112e95760e060020a634e487b7102600052603260045260246000fd5b60200260200101516040518263ffffffff1660e060020a02815260040161131291815260200190565b60206040518083038186803b15801561132a57600080fd5b505afa15801561133e573d6000803e3d6000fd5b505050506040513d601f19601f8201168201806040525081019061136291906133b6565b905061136f8160016134d1565b61137b906170806134e9565b3360009081526007602090815260408083208584529091529020546113a0904361351c565b10156114175760405160e560020a62461bcd02815260206004820152602560248201527f4c6f636b656420666f72204d617463682070657220746869732067656e65726160448201527f74696f6e21000000000000000000000000000000000000000000000000000000606482015260840161028a565b60065460405160e060020a6370a082310281523360048201526000918291600160a060020a03909116906370a082319060240160206040518083038186803b15801561146257600080fd5b505afa158015611476573d6000803e3d6000fd5b505050506040513d601f19601f8201168201806040525081019061149a91906133b6565b116114a65760646114a9565b607d5b60025460405160e060020a6370a0823102815233600482015260ff929092169250600091600160a060020a03909116906370a082319060240160206040518083038186803b1580156114fa57600080fd5b505afa15801561150e573d6000803e3d6000fd5b505050506040513d601f19601f8201168201806040525081019061153291906133b6565b90506000690a968163f0a57b4000008210156115b357690878678326eac90000008210156115ac5769065a4da25d3016c000008210156115a55769043c33c193756480000082101561159e5769021e19e0c9bab240000082101561159757600a6115b6565b600b6115b6565b600c6115b6565b600d6115b6565b600e6115b6565b600f5b60ff1690506000805b60048160ff16101561195c576001548b51600091600160a060020a0316906348758697908e9060ff86169081106116095760e060020a634e487b7102600052603260045260246000fd5b60200260200101516040518263ffffffff1660e060020a02815260040161163291815260200190565b60006040518083038186803b15801561164a57600080fd5b505afa15801561165e573d6000803e3d6000fd5b505050506040513d6000823e601f3d908101601f19168201604052611686919081019061330e565b6001548d51919250600091600160a060020a039091169063db3843c6908f9060ff87169081106116c95760e060020a634e487b7102600052603260045260246000fd5b60200260200101516040518263ffffffff1660e060020a0281526004016116f291815260200190565b60206040518083038186803b15801561170a57600080fd5b505afa15801561171e573d6000803e3d6000fd5b505050506040513d601f19601f8201168201806040525081019061174291906133b6565b90508061175757806117538161355f565b9150505b6040517f4d7974686963616c000000000000000000000000000000000000000000000000602082015260280160405160208183030381529060405280519060200120826040516020016117aa91906133f2565b604051602081830303815290604052805190602001201461192b576040517f4c6567656e6461727900000000000000000000000000000000000000000000006020820152602901604051602081830303815290604052805190602001208260405160200161181891906133f2565b6040516020818303038152906040528051906020012014611924576040517f52617265000000000000000000000000000000000000000000000000000000006020820152602401604051602081830303815290604052805190602001208260405160200161188691906133f2565b604051602081830303815290604052805190602001201461191d576040517f556e636f6d6d6f6e000000000000000000000000000000000000000000000000602082015260280160405160208183030381529060405280519060200120826040516020016118f491906133f2565b604051602081830303815290604052805190602001201461191657600a61192e565b600b61192e565b600c61192e565b600d61192e565b600e5b61193b9060ff16826134fd565b61194590856134d1565b9350505080806119549061357a565b9150506115bf565b508161196885836134fd565b61197291906134fd565b600180548c51929350600092600160a060020a03909116906386481d40908e9085906119b15760e060020a634e487b7102600052603260045260246000fd5b60200260200101516040518263ffffffff1660e060020a0281526004016119da91815260200190565b60206040518083038186803b1580156119f257600080fd5b505afa158015611a06573d6000803e3d6000fd5b505050506040513d601f19601f82011682018060405250810190611a2a91906133b6565b611a359060016134d1565b611a4090600a6134fd565b611a4a919061351c565b611a559060046134fd565b611a6090600e6134fd565b611a6b90607d6134fd565b611a7690600f6134fd565b611a8190605f6134fd565b90506305f5e10081611a95846127106134fd565b611a9f91906134e9565b611aa991906134e9565b611ab46127106130bb565b11611d8557600060056000600160009054906101000a9004600160a060020a0316600160a060020a03166386481d408f600081518110611b075760e060020a634e487b7102600052603260045260246000fd5b60200260200101516040518263ffffffff1660e060020a028152600401611b3091815260200190565b60206040518083038186803b158015611b4857600080fd5b505afa158015611b5c573d6000803e3d6000fd5b505050506040513d601f19601f82011682018060405250810190611b8091906133b6565b81526020019081526020016000205490505b611ba2816509184e72a0006134fd565b60025460405160e060020a6370a08231028152306004820152600160a060020a03909116906370a082319060240160206040518083038186803b158015611be857600080fd5b505afa158015611bfc573d6000803e3d6000fd5b505050506040513d601f19601f82011682018060405250810190611c2091906133b6565b1015611caa57600480546040517fe2bbb15800000000000000000000000000000000000000000000000000000000815260029281019290925260006024830152600160a060020a03169063e2bbb15890604401600060405180830381600087803b158015611c8d57600080fd5b505af1158015611ca1573d6000803e3d6000fd5b50505050611b92565b600254600160a060020a031663a9059cbb33611ccc846509184e72a0006134fd565b60405160e060020a63ffffffff8516028152600160a060020a0390921660048301526024820152604401602060405180830381600087803b158015611d1057600080fd5b505af1158015611d24573d6000803e3d6000fd5b505050506040513d601f19601f82011682018060405250810190611d4891906132ee565b506040516001815281907f53d4765ec670428368b78e96e475e7f10baf770184e16bf02c7bb2cd24ef6c2e9060200160405180910390a250611dbc565b6040516000808252907f53d4765ec670428368b78e96e475e7f10baf770184e16bf02c7bb2cd24ef6c2e9060200160405180910390a25b5050336000908152600760209081526040808320968352959052939093204390555050505050505050565b600180548351600092600160a060020a03909216916386481d40918691908110611e245760e060020a634e487b7102600052603260045260246000fd5b60200260200101516040518263ffffffff1660e060020a028152600401611e4d91815260200190565b60206040518083038186803b158015611e6557600080fd5b505afa158015611e79573d6000803e3d6000fd5b505050506040513d601f19601f82011682018060405250810190611e9d91906133b6565b6001548451600160a060020a03909116906386481d40908690600090611ed65760e060020a634e487b7102600052603260045260246000fd5b60200260200101516040518263ffffffff1660e060020a028152600401611eff91815260200190565b60206040518083038186803b158015611f1757600080fd5b505afa158015611f2b573d6000803e3d6000fd5b505050506040513d601f19601f82011682018060405250810190611f4f91906133b6565b1480156120c057506001548351600160a060020a03909116906386481d409085906002908110611f925760e060020a634e487b7102600052603260045260246000fd5b60200260200101516040518263ffffffff1660e060020a028152600401611fbb91815260200190565b60206040518083038186803b158015611fd357600080fd5b505afa158015611fe7573d6000803e3d6000fd5b505050506040513d601f19601f8201168201806040525081019061200b91906133b6565b600180548551600160a060020a03909116916386481d409187919081106120455760e060020a634e487b7102600052603260045260246000fd5b60200260200101516040518263ffffffff1660e060020a02815260040161206e91815260200190565b60206040518083038186803b15801561208657600080fd5b505afa15801561209a573d6000803e3d6000fd5b505050506040513d601f19601f820116820180604052508101906120be91906133b6565b145b801561223157506001548351600160a060020a03909116906386481d4090859060039081106121025760e060020a634e487b7102600052603260045260246000fd5b60200260200101516040518263ffffffff1660e060020a02815260040161212b91815260200190565b60206040518083038186803b15801561214357600080fd5b505afa158015612157573d6000803e3d6000fd5b505050506040513d601f19601f8201168201806040525081019061217b91906133b6565b6001548451600160a060020a03909116906386481d4090869060029081106121b65760e060020a634e487b7102600052603260045260246000fd5b60200260200101516040518263ffffffff1660e060020a0281526004016121df91815260200190565b60206040518083038186803b1580156121f757600080fd5b505afa15801561220b573d6000803e3d6000fd5b505050506040513d601f19601f8201168201806040525081019061222f91906133b6565b145b6122805760405160e560020a62461bcd02815260206004820152601c60248201527f506c617965727327206c6576656c206d7573742062652073616d652100000000604482015260640161028a565b6001548351600091600160a060020a03169063eb02c30190869084906122b95760e060020a634e487b7102600052603260045260246000fd5b60200260200101516040518263ffffffff1660e060020a0281526004016122e291815260200190565b60006040518083038186803b1580156122fa57600080fd5b505afa15801561230e573d6000803e3d6000fd5b505050506040513d6000823e601f3d908101601f19168201604052612336919081019061330e565b600180548651929350600092600160a060020a039091169163eb02c3019188919081106123765760e060020a634e487b7102600052603260045260246000fd5b60200260200101516040518263ffffffff1660e060020a02815260040161239f91815260200190565b60006040518083038186803b1580156123b757600080fd5b505afa1580156123cb573d6000803e3d6000fd5b505050506040513d6000823e601f3d908101601f191682016040526123f3919081019061330e565b6001548651919250600091600160a060020a039091169063eb02c30190889060029081106124345760e060020a634e487b7102600052603260045260246000fd5b60200260200101516040518263ffffffff1660e060020a02815260040161245d91815260200190565b60006040518083038186803b15801561247557600080fd5b505afa158015612489573d6000803e3d6000fd5b505050506040513d6000823e601f3d908101601f191682016040526124b1919081019061330e565b6001548751919250600091600160a060020a039091169063eb02c30190899060039081106124f25760e060020a634e487b7102600052603260045260246000fd5b60200260200101516040518263ffffffff1660e060020a02815260040161251b91815260200190565b60006040518083038186803b15801561253357600080fd5b505afa158015612547573d6000803e3d6000fd5b505050506040513d6000823e601f3d908101601f1916820160405261256f919081019061330e565b90508260405160200161258291906133f2565b60405160208183030381529060405280519060200120846040516020016125a991906133f2565b60405160208183030381529060405280519060200120141580156126195750816040516020016125d991906133f2565b604051602081830303815290604052805190602001208460405160200161260091906133f2565b6040516020818303038152906040528051906020012014155b801561267157508060405160200161263191906133f2565b604051602081830303815290604052805190602001208460405160200161265891906133f2565b6040516020818303038152906040528051906020012014155b80156126c957508160405160200161268991906133f2565b60405160208183030381529060405280519060200120836040516020016126b091906133f2565b6040516020818303038152906040528051906020012014155b80156127215750806040516020016126e191906133f2565b604051602081830303815290604052805190602001208360405160200161270891906133f2565b6040516020818303038152906040528051906020012014155b801561277957508060405160200161273991906133f2565b604051602081830303815290604052805190602001208260405160200161276091906133f2565b6040516020818303038152906040528051906020012014155b6127985760405160e560020a62461bcd02815260040161028a9061340e565b60065460405160e060020a6370a08231028152600160a060020a03888116600483015260009283929116906370a082319060240160206040518083038186803b1580156127e457600080fd5b505afa1580156127f8573d6000803e3d6000fd5b505050506040513d601f19601f8201168201806040525081019061281c91906133b6565b1161282857606461282b565b607d5b60025460405160e060020a6370a08231028152600160a060020a038a8116600483015260ff939093169350600092909116906370a082319060240160206040518083038186803b15801561287e57600080fd5b505afa158015612892573d6000803e3d6000fd5b505050506040513d601f19601f820116820180604052508101906128b691906133b6565b90506000690a968163f0a57b40000082101561293757690878678326eac90000008210156129305769065a4da25d3016c000008210156129295769043c33c19375648000008210156129225769021e19e0c9bab240000082101561291b57600a61293a565b600b61293a565b600c61293a565b600d61293a565b600e61293a565b600f5b60ff1690506000805b60048160ff161015612ceb576001548c51600091600160a060020a0316906348758697908f9060ff861690811061298d5760e060020a634e487b7102600052603260045260246000fd5b60200260200101516040518263ffffffff1660e060020a0281526004016129b691815260200190565b60006040518083038186803b1580156129ce57600080fd5b505afa1580156129e2573d6000803e3d6000fd5b505050506040513d6000823e601f3d908101601f19168201604052612a0a919081019061330e565b90506000600160009054906101000a9004600160a060020a0316600160a060020a031663db3843c68f8560ff1681518110612a585760e060020a634e487b7102600052603260045260246000fd5b60200260200101516040518263ffffffff1660e060020a028152600401612a8191815260200190565b60206040518083038186803b158015612a9957600080fd5b505afa158015612aad573d6000803e3d6000fd5b505050506040513d601f19601f82011682018060405250810190612ad191906133b6565b905080612ae65780612ae28161355f565b9150505b6040517f4d7974686963616c00000000000000000000000000000000000000000000000060208201526028016040516020818303038152906040528051906020012082604051602001612b3991906133f2565b6040516020818303038152906040528051906020012014612cba576040517f4c6567656e64617279000000000000000000000000000000000000000000000060208201526029016040516020818303038152906040528051906020012082604051602001612ba791906133f2565b6040516020818303038152906040528051906020012014612cb3576040517f526172650000000000000000000000000000000000000000000000000000000060208201526024016040516020818303038152906040528051906020012082604051602001612c1591906133f2565b6040516020818303038152906040528051906020012014612cac576040517f556e636f6d6d6f6e00000000000000000000000000000000000000000000000060208201526028016040516020818303038152906040528051906020012082604051602001612c8391906133f2565b6040516020818303038152906040528051906020012014612ca557600a612cbd565b600b612cbd565b600c612cbd565b600d612cbd565b600e5b612cca9060ff16826134fd565b612cd490856134d1565b935050508080612ce39061357a565b915050612943565b5081612cf785836134fd565b612d0191906134fd565b600180548d51929350600092600160a060020a03909116906386481d40908f908590612d405760e060020a634e487b7102600052603260045260246000fd5b60200260200101516040518263ffffffff1660e060020a028152600401612d6991815260200190565b60206040518083038186803b158015612d8157600080fd5b505afa158015612d95573d6000803e3d6000fd5b505050506040513d601f19601f82011682018060405250810190612db991906133b6565b612dc49060016134d1565b612dcf90600a6134fd565b612dd9919061351c565b612de49060046134fd565b612def90600e6134fd565b612dfa90607d6134fd565b612e0590600f6134fd565b612e1090605f6134fd565b90506305f5e10081612e24846127106134fd565b612e2e91906134e9565b612e3891906134e9565b9c9b505050505050505050505050565b600054600160a060020a03163314612e755760405160e560020a62461bcd02815260040161028a9061346b565b60328114612eee5760405160e560020a62461bcd02815260206004820152602960248201527f546865207072697a65206c697374206d75737420626520666f7220746865204560448201527f616368204c6576656c0000000000000000000000000000000000000000000000606482015260840161028a565b60005b60ff8116821115612f565782828260ff16818110612f225760e060020a634e487b7102600052603260045260246000fd5b90506020020135600560008360ff168152602001908152602001600020819055508080612f4e9061357a565b915050612ef1565b505050565b600054600160a060020a03163314612f885760405160e560020a62461bcd02815260040161028a9061346b565b600160a060020a0381166130075760405160e560020a62461bcd02815260206004820152602660248201527f4f776e61626c653a206e6577206f776e657220697320746865207a65726f206160448201527f6464726573730000000000000000000000000000000000000000000000000000606482015260840161028a565b6130108161305e565b50565b600480546040517f5312ea8e000000000000000000000000000000000000000000000000000000008152600292810192909252600160a060020a031690635312ea8e90602401610524565b60008054600160a060020a0383811673ffffffffffffffffffffffffffffffffffffffff19831681178455604051919092169283917f8be0079c531659141344cd1fd0a4f28419497f9722a3daafe3b4186f6b6457e09190a35050565b6040805142602080830191909152336c010000000000000000000000000282840152825160348184030181526054909201909252805191012060009061310290839061359a565b92915050565b600082601f830112613118578081fd5b8135602067ffffffffffffffff821115613134576131346135e0565b8082026131428282016134a0565b83815282810190868401838801850189101561315c578687fd5b8693505b8584101561317e578035835260019390930192918401918401613160565b50979650505050505050565b60006020828403121561319b578081fd5b81356131a6816135f9565b9392505050565b6000602082840312156131be578081fd5b81516131a6816135f9565b600080604083850312156131db578081fd5b82356131e6816135f9565b946020939093013593505050565b60008060208385031215613206578182fd5b823567ffffffffffffffff8082111561321d578384fd5b818501915085601f830112613230578384fd5b81358181111561323e578485fd5b8660208083028501011115613251578485fd5b60209290920196919550909350505050565b600060208284031215613274578081fd5b813567ffffffffffffffff81111561328a578182fd5b61329684828501613108565b949350505050565b600080604083850312156132b0578182fd5b823567ffffffffffffffff8111156132c6578283fd5b6132d285828601613108565b92505060208301356132e3816135f9565b809150509250929050565b6000602082840312156132ff578081fd5b815180151581146131a6578182fd5b60006020828403121561331f578081fd5b815167ffffffffffffffff80821115613336578283fd5b818401915084601f830112613349578283fd5b81518181111561335b5761335b6135e0565b61336e601f8201601f19166020016134a0565b9150808252856020828501011115613384578384fd5b613395816020840160208601613533565b50949350505050565b6000602082840312156133af578081fd5b5035919050565b6000602082840312156133c7578081fd5b5051919050565b600080604083850312156133e0578182fd5b8235915060208301356132e3816135f9565b60008251613404818460208701613533565b9190910192915050565b6020808252602a908201527f506f736974696f6e206f66206561636820706c61796572206d7573742062652060408201527f646966666572656e742100000000000000000000000000000000000000000000606082015260800190565b6020808252818101527f4f776e61626c653a2063616c6c6572206973206e6f7420746865206f776e6572604082015260600190565b604051601f8201601f1916810167ffffffffffffffff811182821017156134c9576134c96135e0565b604052919050565b600082198211156134e4576134e46135ae565b500190565b6000826134f8576134f86135c7565b500490565b6000816000190483118215151615613517576135176135ae565b500290565b60008282101561352e5761352e6135ae565b500390565b60005b8381101561354e578181015183820152602001613536565b838111156105525750506000910152565b6000600019821415613573576135736135ae565b5060010190565b600060ff821660ff811415613591576135916135ae565b60010192915050565b6000826135a9576135a96135c7565b500690565b60e060020a634e487b7102600052601160045260246000fd5b60e060020a634e487b7102600052601260045260246000fd5b60e060020a634e487b7102600052604160045260246000fd5b600160a060020a038116811461301057600080fdfea2646970667358221220a2328f030a3432802069f96511d0d726a002694b5e240eb760ef46e1d80edee364736f6c63430008040033",
  "immutableReferences": {},
  "source": "// SPDX-License-Identifier: MIT\r\npragma solidity ^0.8.4;\r\nimport \"@openzeppelin/contracts/utils/Counters.sol\";\r\nimport \"@openzeppelin/contracts/token/ERC721/ERC721.sol\";\r\nimport \"@openzeppelin/contracts/token/ERC721/IERC721.sol\";\r\nimport \"@openzeppelin/contracts/security/ReentrancyGuard.sol\";\r\nimport \"@openzeppelin/contracts/access/Ownable.sol\";\r\nimport \"./interfaces/IMasterChef.sol\";\r\nimport \"./interfaces/IGolToken.sol\";\r\nimport \"./interfaces/INonFungiblePlayer.sol\";\r\nimport \"./interfaces/IGolGameToken.sol\";\r\n\r\ncontract Match is Ownable {\r\n    INonFungiblePlayer private nonFungiblePlayer;\r\n    IGolToken private golToken;\r\n    IGolGameToken private golGameToken;\r\n    address private masterChef;\r\n\r\n    mapping(uint256 => uint256) public prizeList;\r\n    address private genesis;\r\n\r\n    mapping(address => mapping(uint256 => uint256)) public lastMatchBlock;\r\n    event endMatch(bool success, uint256 indexed tokenPrize);\r\n\r\n    constructor(\r\n        IGolToken _golToken,\r\n        INonFungiblePlayer _nonFungiblePlayer,\r\n        IGolGameToken _golGameToken,\r\n        address _genesis,\r\n        address _masterChef\r\n    ) {\r\n        golToken = _golToken;\r\n        nonFungiblePlayer = _nonFungiblePlayer;\r\n        masterChef = _masterChef;\r\n        golGameToken = _golGameToken;\r\n        genesis = _genesis;\r\n    }\r\n\r\n    function _rand(uint256 _modulus) internal view returns (uint256) {\r\n        return\r\n            uint256(keccak256(abi.encodePacked(block.timestamp, msg.sender))) %\r\n            _modulus;\r\n    }\r\n\r\n    function setPrizeList(uint256[] calldata _prizeList) public onlyOwner {\r\n        require(\r\n            _prizeList.length == 50,\r\n            \"The prize list must be for the Each Level\"\r\n        );\r\n\r\n        for (uint8 i = 0; i < _prizeList.length; i++) {\r\n            prizeList[i] = _prizeList[i];\r\n        }\r\n    }\r\n\r\n    function initialDeposit(uint256 _amount) public onlyOwner {\r\n        require(\r\n            golGameToken.balanceOf(address(this)) > _amount * 10**18,\r\n            \"Insufficient balance!\"\r\n        );\r\n\r\n        golGameToken.approve(masterChef, _amount * 10**18);\r\n        IMasterChef(masterChef).deposit(2, _amount);\r\n    }\r\n\r\n    function depositGameToken() public {\r\n        IMasterChef(masterChef).deposit(2, 0);\r\n    }\r\n\r\n    function emergencyWithdrawFromPool() public {\r\n        IMasterChef(masterChef).emergencyWithdraw(2);\r\n    }\r\n\r\n    function startMatch(uint256[] memory _tokenIds) public {\r\n        require(\r\n            msg.sender == nonFungiblePlayer.ownerOf(_tokenIds[0]) &&\r\n                msg.sender == nonFungiblePlayer.ownerOf(_tokenIds[1]) &&\r\n                msg.sender == nonFungiblePlayer.ownerOf(_tokenIds[2]) &&\r\n                msg.sender == nonFungiblePlayer.ownerOf(_tokenIds[3]),\r\n            \"You are not owner of these Players!\"\r\n        );\r\n\r\n        require(\r\n            nonFungiblePlayer.getLevel(_tokenIds[0]) ==\r\n                nonFungiblePlayer.getLevel(_tokenIds[1]) &&\r\n                nonFungiblePlayer.getLevel(_tokenIds[1]) ==\r\n                nonFungiblePlayer.getLevel(_tokenIds[2]) &&\r\n                nonFungiblePlayer.getLevel(_tokenIds[2]) ==\r\n                nonFungiblePlayer.getLevel(_tokenIds[3]),\r\n            \"Players' level must be same!\"\r\n        );\r\n\r\n        string memory position0 = nonFungiblePlayer.getPosition(_tokenIds[0]);\r\n        string memory position1 = nonFungiblePlayer.getPosition(_tokenIds[1]);\r\n        string memory position2 = nonFungiblePlayer.getPosition(_tokenIds[2]);\r\n        string memory position3 = nonFungiblePlayer.getPosition(_tokenIds[3]);\r\n\r\n        require(\r\n            keccak256(abi.encodePacked(position0)) !=\r\n                keccak256(abi.encodePacked(position1)) &&\r\n                keccak256(abi.encodePacked(position0)) !=\r\n                keccak256(abi.encodePacked(position2)) &&\r\n                keccak256(abi.encodePacked(position0)) !=\r\n                keccak256(abi.encodePacked(position3)) &&\r\n                keccak256(abi.encodePacked(position1)) !=\r\n                keccak256(abi.encodePacked(position2)) &&\r\n                keccak256(abi.encodePacked(position1)) !=\r\n                keccak256(abi.encodePacked(position3)) &&\r\n                keccak256(abi.encodePacked(position2)) !=\r\n                keccak256(abi.encodePacked(position3)),\r\n            \"Position of each player must be different!\"\r\n        );\r\n\r\n        uint256 gen = nonFungiblePlayer.getGeneration(_tokenIds[0]);\r\n\r\n        require(\r\n            (block.number - lastMatchBlock[msg.sender][gen]) >=\r\n                (28800 / (gen + 1)),\r\n            \"Locked for Match per this generation!\"\r\n        );\r\n\r\n        uint256 genesisHolderBooster = IERC721(genesis).balanceOf(msg.sender) >\r\n            0\r\n            ? 125\r\n            : 100;\r\n        uint256 golTokenBalance = golToken.balanceOf(msg.sender);\r\n        uint256 golHolderBooster = golTokenBalance >= 50000 * 10**18\r\n            ? 15\r\n            : golTokenBalance >= 40000 * 10**18\r\n            ? 14\r\n            : golTokenBalance >= 30000 * 10**18\r\n            ? 13\r\n            : golTokenBalance >= 20000 * 10**18\r\n            ? 12\r\n            : golTokenBalance >= 10000 * 10**18\r\n            ? 11\r\n            : 10;\r\n        uint256 totalGolPower = 0;\r\n        for (uint8 i = 0; i < 4; i++) {\r\n            string memory rarity = nonFungiblePlayer.getRarity(_tokenIds[i]);\r\n            uint256 sp = nonFungiblePlayer.getSkillPoint(_tokenIds[i]);\r\n            if (sp == 0) sp++;\r\n            totalGolPower +=\r\n                sp *\r\n                (\r\n                    keccak256(abi.encodePacked(rarity)) ==\r\n                        keccak256(abi.encodePacked(\"Mythical\"))\r\n                        ? 14\r\n                        : keccak256(abi.encodePacked(rarity)) ==\r\n                            keccak256(abi.encodePacked(\"Legendary\"))\r\n                        ? 13\r\n                        : keccak256(abi.encodePacked(rarity)) ==\r\n                            keccak256(abi.encodePacked(\"Rare\"))\r\n                        ? 12\r\n                        : keccak256(abi.encodePacked(rarity)) ==\r\n                            keccak256(abi.encodePacked(\"Uncommon\"))\r\n                        ? 11\r\n                        : 10\r\n                );\r\n        }\r\n\r\n        totalGolPower = totalGolPower * genesisHolderBooster * golHolderBooster;\r\n\r\n        uint256 leagueDifficulty = (((nonFungiblePlayer.getLevel(_tokenIds[0]) +\r\n            1) *\r\n            10 -\r\n            1) *\r\n            4 *\r\n            14 *\r\n            125 *\r\n            15 *\r\n            95);\r\n\r\n        if (\r\n            _rand(10000) <=\r\n            (totalGolPower * 10000) / leagueDifficulty / 100000000\r\n        ) {\r\n            uint256 prize = prizeList[nonFungiblePlayer.getLevel(_tokenIds[0])];\r\n\r\n            while (golToken.balanceOf(address(this)) < prize * 10**13)\r\n                IMasterChef(masterChef).deposit(2, 0);\r\n\r\n            golToken.transfer(msg.sender, prize * 10**13);\r\n            emit endMatch(true, prize);\r\n        } else emit endMatch(false, 0);\r\n\r\n        lastMatchBlock[msg.sender][gen] = block.number;\r\n    }\r\n\r\n    function getWinningChance(uint256[] memory _tokenIds, address _owner)\r\n        public\r\n        view\r\n        returns (uint256)\r\n    {\r\n        require(\r\n            nonFungiblePlayer.getLevel(_tokenIds[0]) ==\r\n                nonFungiblePlayer.getLevel(_tokenIds[1]) &&\r\n                nonFungiblePlayer.getLevel(_tokenIds[1]) ==\r\n                nonFungiblePlayer.getLevel(_tokenIds[2]) &&\r\n                nonFungiblePlayer.getLevel(_tokenIds[2]) ==\r\n                nonFungiblePlayer.getLevel(_tokenIds[3]),\r\n            \"Players' level must be same!\"\r\n        );\r\n\r\n        string memory position0 = nonFungiblePlayer.getPosition(_tokenIds[0]);\r\n        string memory position1 = nonFungiblePlayer.getPosition(_tokenIds[1]);\r\n        string memory position2 = nonFungiblePlayer.getPosition(_tokenIds[2]);\r\n        string memory position3 = nonFungiblePlayer.getPosition(_tokenIds[3]);\r\n\r\n        require(\r\n            keccak256(abi.encodePacked(position0)) !=\r\n                keccak256(abi.encodePacked(position1)) &&\r\n                keccak256(abi.encodePacked(position0)) !=\r\n                keccak256(abi.encodePacked(position2)) &&\r\n                keccak256(abi.encodePacked(position0)) !=\r\n                keccak256(abi.encodePacked(position3)) &&\r\n                keccak256(abi.encodePacked(position1)) !=\r\n                keccak256(abi.encodePacked(position2)) &&\r\n                keccak256(abi.encodePacked(position1)) !=\r\n                keccak256(abi.encodePacked(position3)) &&\r\n                keccak256(abi.encodePacked(position2)) !=\r\n                keccak256(abi.encodePacked(position3)),\r\n            \"Position of each player must be different!\"\r\n        );\r\n\r\n        uint256 genesisHolderBooster = IERC721(genesis).balanceOf(_owner) > 0\r\n            ? 125\r\n            : 100;\r\n        uint256 golTokenBalance = golToken.balanceOf(_owner);\r\n        uint256 golHolderBooster = golTokenBalance >= 50000 * 10**18\r\n            ? 15\r\n            : golTokenBalance >= 40000 * 10**18\r\n            ? 14\r\n            : golTokenBalance >= 30000 * 10**18\r\n            ? 13\r\n            : golTokenBalance >= 20000 * 10**18\r\n            ? 12\r\n            : golTokenBalance >= 10000 * 10**18\r\n            ? 11\r\n            : 10;\r\n        uint256 totalGolPower = 0;\r\n        for (uint8 i = 0; i < 4; i++) {\r\n            string memory rarity = nonFungiblePlayer.getRarity(_tokenIds[i]);\r\n            uint256 sp = nonFungiblePlayer.getSkillPoint(_tokenIds[i]);\r\n            if (sp == 0) sp++;\r\n            totalGolPower +=\r\n                sp *\r\n                (\r\n                    keccak256(abi.encodePacked(rarity)) ==\r\n                        keccak256(abi.encodePacked(\"Mythical\"))\r\n                        ? 14\r\n                        : keccak256(abi.encodePacked(rarity)) ==\r\n                            keccak256(abi.encodePacked(\"Legendary\"))\r\n                        ? 13\r\n                        : keccak256(abi.encodePacked(rarity)) ==\r\n                            keccak256(abi.encodePacked(\"Rare\"))\r\n                        ? 12\r\n                        : keccak256(abi.encodePacked(rarity)) ==\r\n                            keccak256(abi.encodePacked(\"Uncommon\"))\r\n                        ? 11\r\n                        : 10\r\n                );\r\n        }\r\n\r\n        totalGolPower = totalGolPower * genesisHolderBooster * golHolderBooster;\r\n\r\n        uint256 leagueDifficulty = (((nonFungiblePlayer.getLevel(_tokenIds[0]) +\r\n            1) *\r\n            10 -\r\n            1) *\r\n            4 *\r\n            14 *\r\n            125 *\r\n            15 *\r\n            95);\r\n\r\n        return (totalGolPower * 10000) / leagueDifficulty / 100000000;\r\n    }\r\n\r\n    function getWinningPrize(uint256 level) public view returns (uint256) {\r\n        return prizeList[level];\r\n    }\r\n\r\n    function isLockedForLevel(uint256 gen, address _owner)\r\n        public\r\n        view\r\n        returns (bool)\r\n    {\r\n        return\r\n            (block.number - lastMatchBlock[_owner][gen]) >= (28800 / (gen + 1));\r\n    }\r\n}\r\n",
  "sourcePath": "E:\\Git for Project\\Ethereum\\NFT\\GolFinance\\gol-staking-contracts\\contracts\\Match.sol",
  "compiler": {
    "name": "solc",
    "version": "0.8.4+commit.c7e474f2.Emscripten.clang"
  },
  "schemaVersion": "3.4.5",
  "updatedAt": "2022-05-19T19:21:55.751Z",
  "networkType": "ethereum",
  "devdoc": {
    "kind": "dev",
    "methods": {
      "owner()": {
        "details": "Returns the address of the current owner."
      },
      "renounceOwnership()": {
        "details": "Leaves the contract without owner. It will not be possible to call `onlyOwner` functions anymore. Can only be called by the current owner. NOTE: Renouncing ownership will leave the contract without an owner, thereby removing any functionality that is only available to the owner."
      },
      "transferOwnership(address)": {
        "details": "Transfers ownership of the contract to a new account (`newOwner`). Can only be called by the current owner."
      }
    },
    "version": 1
  },
  "userdoc": {
    "kind": "user",
    "methods": {},
    "version": 1
  }
}