{
  "_format": "hh-sol-artifact-1",
  "contractName": "Match",
  "sourceName": "contracts/Match.sol",
  "abi": [
    {
      "inputs": [
        {
          "internalType": "contract IGolToken",
          "name": "_golToken",
          "type": "address"
        },
        {
          "internalType": "contract INonFungiblePlayer",
          "name": "_nonFungiblePlayer",
          "type": "address"
        },
        {
          "internalType": "contract IGolGameToken",
          "name": "_golGameToken",
          "type": "address"
        },
        {
          "internalType": "address",
          "name": "_genesis",
          "type": "address"
        },
        {
          "internalType": "address",
          "name": "_masterChef",
          "type": "address"
        }
      ],
      "stateMutability": "nonpayable",
      "type": "constructor"
    },
    {
      "anonymous": false,
      "inputs": [
        {
          "indexed": true,
          "internalType": "address",
          "name": "previousOwner",
          "type": "address"
        },
        {
          "indexed": true,
          "internalType": "address",
          "name": "newOwner",
          "type": "address"
        }
      ],
      "name": "OwnershipTransferred",
      "type": "event"
    },
    {
      "anonymous": false,
      "inputs": [
        {
          "indexed": false,
          "internalType": "bool",
          "name": "success",
          "type": "bool"
        },
        {
          "indexed": true,
          "internalType": "uint256",
          "name": "tokenPrize",
          "type": "uint256"
        }
      ],
      "name": "endMatch",
      "type": "event"
    },
    {
      "inputs": [],
      "name": "depositGameToken",
      "outputs": [],
      "stateMutability": "nonpayable",
      "type": "function"
    },
    {
      "inputs": [],
      "name": "emergencyWithdrawFromPool",
      "outputs": [],
      "stateMutability": "nonpayable",
      "type": "function"
    },
    {
      "inputs": [
        {
          "internalType": "address",
          "name": "_user",
          "type": "address"
        }
      ],
      "name": "getPassedBlocks",
      "outputs": [
        {
          "internalType": "uint256",
          "name": "",
          "type": "uint256"
        }
      ],
      "stateMutability": "view",
      "type": "function"
    },
    {
      "inputs": [
        {
          "internalType": "uint256[]",
          "name": "_tokenIds",
          "type": "uint256[]"
        },
        {
          "internalType": "address",
          "name": "_owner",
          "type": "address"
        }
      ],
      "name": "getWinningChance",
      "outputs": [
        {
          "internalType": "uint256",
          "name": "",
          "type": "uint256"
        }
      ],
      "stateMutability": "view",
      "type": "function"
    },
    {
      "inputs": [
        {
          "internalType": "uint256",
          "name": "level",
          "type": "uint256"
        }
      ],
      "name": "getWinningPrize",
      "outputs": [
        {
          "internalType": "uint256",
          "name": "",
          "type": "uint256"
        }
      ],
      "stateMutability": "view",
      "type": "function"
    },
    {
      "inputs": [
        {
          "internalType": "uint256",
          "name": "_amount",
          "type": "uint256"
        }
      ],
      "name": "initialDeposit",
      "outputs": [],
      "stateMutability": "nonpayable",
      "type": "function"
    },
    {
      "inputs": [
        {
          "internalType": "address",
          "name": "_owner",
          "type": "address"
        }
      ],
      "name": "isLockedForLevel",
      "outputs": [
        {
          "internalType": "bool",
          "name": "",
          "type": "bool"
        }
      ],
      "stateMutability": "view",
      "type": "function"
    },
    {
      "inputs": [
        {
          "internalType": "address",
          "name": "",
          "type": "address"
        }
      ],
      "name": "isPlayedMatch",
      "outputs": [
        {
          "internalType": "bool",
          "name": "",
          "type": "bool"
        }
      ],
      "stateMutability": "view",
      "type": "function"
    },
    {
      "inputs": [
        {
          "internalType": "address",
          "name": "",
          "type": "address"
        }
      ],
      "name": "lastMatchBlock",
      "outputs": [
        {
          "internalType": "uint256",
          "name": "",
          "type": "uint256"
        }
      ],
      "stateMutability": "view",
      "type": "function"
    },
    {
      "inputs": [
        {
          "internalType": "uint256",
          "name": "",
          "type": "uint256"
        }
      ],
      "name": "leagueDifficulty",
      "outputs": [
        {
          "internalType": "uint256",
          "name": "",
          "type": "uint256"
        }
      ],
      "stateMutability": "view",
      "type": "function"
    },
    {
      "inputs": [],
      "name": "matchPeriod",
      "outputs": [
        {
          "internalType": "uint256",
          "name": "",
          "type": "uint256"
        }
      ],
      "stateMutability": "view",
      "type": "function"
    },
    {
      "inputs": [],
      "name": "owner",
      "outputs": [
        {
          "internalType": "address",
          "name": "",
          "type": "address"
        }
      ],
      "stateMutability": "view",
      "type": "function"
    },
    {
      "inputs": [],
      "name": "pid",
      "outputs": [
        {
          "internalType": "uint256",
          "name": "",
          "type": "uint256"
        }
      ],
      "stateMutability": "view",
      "type": "function"
    },
    {
      "inputs": [
        {
          "internalType": "uint256",
          "name": "",
          "type": "uint256"
        }
      ],
      "name": "prizeList",
      "outputs": [
        {
          "internalType": "uint256",
          "name": "",
          "type": "uint256"
        }
      ],
      "stateMutability": "view",
      "type": "function"
    },
    {
      "inputs": [],
      "name": "renounceOwnership",
      "outputs": [],
      "stateMutability": "nonpayable",
      "type": "function"
    },
    {
      "inputs": [
        {
          "internalType": "uint256[]",
          "name": "_leagueDifficulty",
          "type": "uint256[]"
        }
      ],
      "name": "setLeagueDifficulty",
      "outputs": [],
      "stateMutability": "nonpayable",
      "type": "function"
    },
    {
      "inputs": [
        {
          "internalType": "uint256",
          "name": "_matchPeriod",
          "type": "uint256"
        }
      ],
      "name": "setMatchPeriod",
      "outputs": [],
      "stateMutability": "nonpayable",
      "type": "function"
    },
    {
      "inputs": [
        {
          "internalType": "uint256",
          "name": "_pid",
          "type": "uint256"
        }
      ],
      "name": "setPidMasterChef",
      "outputs": [],
      "stateMutability": "nonpayable",
      "type": "function"
    },
    {
      "inputs": [
        {
          "internalType": "uint256[]",
          "name": "_prizeList",
          "type": "uint256[]"
        }
      ],
      "name": "setPrizeList",
      "outputs": [],
      "stateMutability": "nonpayable",
      "type": "function"
    },
    {
      "inputs": [
        {
          "internalType": "uint256[]",
          "name": "_tokenIds",
          "type": "uint256[]"
        }
      ],
      "name": "startMatch",
      "outputs": [],
      "stateMutability": "nonpayable",
      "type": "function"
    },
    {
      "inputs": [
        {
          "internalType": "address",
          "name": "newOwner",
          "type": "address"
        }
      ],
      "name": "transferOwnership",
      "outputs": [],
      "stateMutability": "nonpayable",
      "type": "function"
    }
  ],
  "bytecode": "0x60806040523480156200001157600080fd5b5060405162003692380380620036928339810160408190526200003491620000f8565b6200003f33620000a8565b600280546001600160a01b03199081166001600160a01b03978816179091556001805482169587169590951790945560068054851691861691909117905560038054841692851692909217909155600a8054909216921691909117905561708060045562000190565b600080546001600160a01b038381166001600160a01b0319831681178455604051919092169283917f8be0079c531659141344cd1fd0a4f28419497f9722a3daafe3b4186f6b6457e09190a35050565b600080600080600060a0868803121562000110578081fd5b85516200011d8162000177565b6020870151909550620001308162000177565b6040870151909450620001438162000177565b6060870151909350620001568162000177565b6080870151909250620001698162000177565b809150509295509295909350565b6001600160a01b03811681146200018d57600080fd5b50565b6134f280620001a06000396000f3fe608060405234801561001057600080fd5b50600436106101775760003560e01c80638402a819116100d8578063bb86a93a1161008c578063f2fde38b11610066578063f2fde38b14610319578063f43092fe1461032c578063f640fde91461033f57600080fd5b8063bb86a93a146102e7578063dcae2cb4146102f0578063f10684541461031057600080fd5b80638da5cb5b116100bd5780638da5cb5b146102995780639612dc7d146102b4578063a4b2ea6a146102c757600080fd5b80638402a8191461026657806386cd647a1461027957600080fd5b80636a94f9ee1161012f578063750d003011610114578063750d00301461022b5780637c6c1c941461024b5780637f570e2b1461025357600080fd5b80636a94f9ee14610210578063715018a61461022357600080fd5b80634170595a116101605780634170595a146101b7578063566c12c9146101ca5780635af67463146101ed57600080fd5b8063109adf271461017c578063222159b014610191575b600080fd5b61018f61018a36600461330b565b610347565b005b6101a461019f366004613121565b610354565b6040519081526020015b60405180910390f35b61018f6101c536600461330b565b61037d565b6101dd6101d8366004613121565b610597565b60405190151581526020016101ae565b6101dd6101fb366004613121565b60096020526000908152604090205460ff1681565b61018f61021e366004613160565b6105c8565b61018f6106b0565b6101a4610239366004613121565b600b6020526000908152604090205481565b61018f6106c4565b61018f6102613660046131d0565b610730565b6101a461027436600461320b565b611e18565b6101a461028736600461330b565b60086020526000908152604090205481565b6000546040516001600160a01b0390911681526020016101ae565b61018f6102c2366004613160565b612db2565b6101a46102d536600461330b565b60076020526000908152604090205481565b6101a460045481565b6101a46102fe36600461330b565b60009081526007602052604090205490565b6101a460055481565b61018f610327366004613121565b612e95565b61018f61033a36600461330b565b612f25565b61018f612f32565b61034f612f88565b600455565b6001600160a01b0381166000908152600b602052604081205461037790436133d3565b92915050565b610385612f88565b61039781670de0b6b3a76400006133b4565b6003546040516370a0823160e01b81523060048201526001600160a01b03909116906370a082319060240160206040518083038186803b1580156103da57600080fd5b505afa1580156103ee573d6000803e3d6000fd5b505050506040513d601f19601f820116820180604052508101906104129190613323565b116104645760405162461bcd60e51b815260206004820152601560248201527f496e73756666696369656e742062616c616e636521000000000000000000000060448201526064015b60405180910390fd5b6003546006546001600160a01b039182169163095ea7b3911661048f84670de0b6b3a76400006133b4565b6040517fffffffff0000000000000000000000000000000000000000000000000000000060e085901b1681526001600160a01b0390921660048301526024820152604401602060405180830381600087803b1580156104ed57600080fd5b505af1158015610501573d6000803e3d6000fd5b505050506040513d601f19601f82011682018060405250810190610525919061325b565b50600654600554604051631c57762b60e31b81526001600160a01b039092169163e2bbb15891610562918590600401918252602082015260400190565b600060405180830381600087803b15801561057c57600080fd5b505af1158015610590573d6000803e3d6000fd5b5050505050565b6004546001600160a01b0382166000908152600b60205260408120549091906105c090436133d3565b101592915050565b6105d0612f88565b603281146106465760405162461bcd60e51b815260206004820152603460248201527f546865206c697374206f6620646966666963756c74696573206d75737420626560448201527f20666f72207468652065616368206c6576656c21000000000000000000000000606482015260840161045b565b60005b60ff81168211156106ab5782828260ff1681811061067757634e487b7160e01b600052603260045260246000fd5b90506020020135600860008360ff1681526020019081526020016000208190555080806106a390613431565b915050610649565b505050565b6106b8612f88565b6106c26000612fe2565b565b600654600554604051631c57762b60e31b81526004810191909152600060248201526001600160a01b039091169063e2bbb158906044015b600060405180830381600087803b15801561071657600080fd5b505af115801561072a573d6000803e3d6000fd5b50505050565b60015481516001600160a01b0390911690636352211e90839060009061076657634e487b7160e01b600052603260045260246000fd5b60200260200101516040518263ffffffff1660e01b815260040161078c91815260200190565b60206040518083038186803b1580156107a457600080fd5b505afa1580156107b8573d6000803e3d6000fd5b505050506040513d601f19601f820116820180604052508101906107dc9190613144565b6001600160a01b0316336001600160a01b03161480156108b957506001805482516001600160a01b0390911691636352211e91849190811061082e57634e487b7160e01b600052603260045260246000fd5b60200260200101516040518263ffffffff1660e01b815260040161085491815260200190565b60206040518083038186803b15801561086c57600080fd5b505afa158015610880573d6000803e3d6000fd5b505050506040513d601f19601f820116820180604052508101906108a49190613144565b6001600160a01b0316336001600160a01b0316145b8015610983575060015481516001600160a01b0390911690636352211e90839060029081106108f857634e487b7160e01b600052603260045260246000fd5b60200260200101516040518263ffffffff1660e01b815260040161091e91815260200190565b60206040518083038186803b15801561093657600080fd5b505afa15801561094a573d6000803e3d6000fd5b505050506040513d601f19601f8201168201806040525081019061096e9190613144565b6001600160a01b0316336001600160a01b0316145b8015610a4d575060015481516001600160a01b0390911690636352211e90839060039081106109c257634e487b7160e01b600052603260045260246000fd5b60200260200101516040518263ffffffff1660e01b81526004016109e891815260200190565b60206040518083038186803b158015610a0057600080fd5b505afa158015610a14573d6000803e3d6000fd5b505050506040513d601f19601f82011682018060405250810190610a389190613144565b6001600160a01b0316336001600160a01b0316145b610abf5760405162461bcd60e51b815260206004820152602360248201527f596f7520617265206e6f74206f776e6572206f6620746865736520506c61796560448201527f7273210000000000000000000000000000000000000000000000000000000000606482015260840161045b565b6001805482516001600160a01b03909116916386481d40918491908110610af657634e487b7160e01b600052603260045260246000fd5b60200260200101516040518263ffffffff1660e01b8152600401610b1c91815260200190565b60206040518083038186803b158015610b3457600080fd5b505afa158015610b48573d6000803e3d6000fd5b505050506040513d601f19601f82011682018060405250810190610b6c9190613323565b60015482516001600160a01b03909116906386481d40908490600090610ba257634e487b7160e01b600052603260045260246000fd5b60200260200101516040518263ffffffff1660e01b8152600401610bc891815260200190565b60206040518083038186803b158015610be057600080fd5b505afa158015610bf4573d6000803e3d6000fd5b505050506040513d601f19601f82011682018060405250810190610c189190613323565b148015610d7d575060015481516001600160a01b03909116906386481d409083906002908110610c5857634e487b7160e01b600052603260045260246000fd5b60200260200101516040518263ffffffff1660e01b8152600401610c7e91815260200190565b60206040518083038186803b158015610c9657600080fd5b505afa158015610caa573d6000803e3d6000fd5b505050506040513d601f19601f82011682018060405250810190610cce9190613323565b6001805483516001600160a01b03909116916386481d40918591908110610d0557634e487b7160e01b600052603260045260246000fd5b60200260200101516040518263ffffffff1660e01b8152600401610d2b91815260200190565b60206040518083038186803b158015610d4357600080fd5b505afa158015610d57573d6000803e3d6000fd5b505050506040513d601f19601f82011682018060405250810190610d7b9190613323565b145b8015610ee2575060015481516001600160a01b03909116906386481d409083906003908110610dbc57634e487b7160e01b600052603260045260246000fd5b60200260200101516040518263ffffffff1660e01b8152600401610de291815260200190565b60206040518083038186803b158015610dfa57600080fd5b505afa158015610e0e573d6000803e3d6000fd5b505050506040513d601f19601f82011682018060405250810190610e329190613323565b60015482516001600160a01b03909116906386481d409084906002908110610e6a57634e487b7160e01b600052603260045260246000fd5b60200260200101516040518263ffffffff1660e01b8152600401610e9091815260200190565b60206040518083038186803b158015610ea857600080fd5b505afa158015610ebc573d6000803e3d6000fd5b505050506040513d601f19601f82011682018060405250810190610ee09190613323565b145b610f2e5760405162461bcd60e51b815260206004820152601c60248201527f506c617965727327206c6576656c206d7573742062652073616d652100000000604482015260640161045b565b60015481516000916001600160a01b03169063eb02c3019084908490610f6457634e487b7160e01b600052603260045260246000fd5b60200260200101516040518263ffffffff1660e01b8152600401610f8a91815260200190565b60006040518083038186803b158015610fa257600080fd5b505afa158015610fb6573d6000803e3d6000fd5b505050506040513d6000823e601f3d908101601f19168201604052610fde919081019061327b565b6001805484519293506000926001600160a01b039091169163eb02c30191869190811061101b57634e487b7160e01b600052603260045260246000fd5b60200260200101516040518263ffffffff1660e01b815260040161104191815260200190565b60006040518083038186803b15801561105957600080fd5b505afa15801561106d573d6000803e3d6000fd5b505050506040513d6000823e601f3d908101601f19168201604052611095919081019061327b565b60015484519192506000916001600160a01b039091169063eb02c30190869060029081106110d357634e487b7160e01b600052603260045260246000fd5b60200260200101516040518263ffffffff1660e01b81526004016110f991815260200190565b60006040518083038186803b15801561111157600080fd5b505afa158015611125573d6000803e3d6000fd5b505050506040513d6000823e601f3d908101601f1916820160405261114d919081019061327b565b60015485519192506000916001600160a01b039091169063eb02c301908790600390811061118b57634e487b7160e01b600052603260045260246000fd5b60200260200101516040518263ffffffff1660e01b81526004016111b191815260200190565b60006040518083038186803b1580156111c957600080fd5b505afa1580156111dd573d6000803e3d6000fd5b505050506040513d6000823e601f3d908101601f19168201604052611205919081019061327b565b905082604051602001611218919061333b565b604051602081830303815290604052805190602001208460405160200161123f919061333b565b60405160208183030381529060405280519060200120141580156112af57508160405160200161126f919061333b565b6040516020818303038152906040528051906020012084604051602001611296919061333b565b6040516020818303038152906040528051906020012014155b80156113075750806040516020016112c7919061333b565b60405160208183030381529060405280519060200120846040516020016112ee919061333b565b6040516020818303038152906040528051906020012014155b801561135f57508160405160200161131f919061333b565b6040516020818303038152906040528051906020012083604051602001611346919061333b565b6040516020818303038152906040528051906020012014155b80156113b7575080604051602001611377919061333b565b604051602081830303815290604052805190602001208360405160200161139e919061333b565b6040516020818303038152906040528051906020012014155b801561140f5750806040516020016113cf919061333b565b60405160208183030381529060405280519060200120826040516020016113f6919061333b565b6040516020818303038152906040528051906020012014155b61146e5760405162461bcd60e51b815260206004820152602a60248201527f506f736974696f6e206f66206561636820706c61796572206d75737420626520604482015269646966666572656e742160b01b606482015260840161045b565b600454336000908152600b602052604090205461148b90436133d3565b10156114ff5760405162461bcd60e51b815260206004820152602560248201527f4c6f636b656420666f72204d617463682070657220746869732067656e65726160448201527f74696f6e21000000000000000000000000000000000000000000000000000000606482015260840161045b565b3360009081526009602052604090205460ff1661153157336000908152600960205260409020805460ff191660011790555b600a546040516370a0823160e01b815233600482015260009182916001600160a01b03909116906370a082319060240160206040518083038186803b15801561157957600080fd5b505afa15801561158d573d6000803e3d6000fd5b505050506040513d601f19601f820116820180604052508101906115b19190613323565b116115bd5760646115c0565b607d5b6002546040516370a0823160e01b815233600482015260ff9290921692506000916001600160a01b03909116906370a082319060240160206040518083038186803b15801561160e57600080fd5b505afa158015611622573d6000803e3d6000fd5b505050506040513d601f19601f820116820180604052508101906116469190613323565b90506000690a968163f0a57b4000008210156116c757690878678326eac90000008210156116c05769065a4da25d3016c000008210156116b95769043c33c19375648000008210156116b25769021e19e0c9bab24000008210156116ab57600a6116ca565b600b6116ca565b600c6116ca565b600d6116ca565b600e6116ca565b600f5b60ff1690506000805b60048160ff161015611a0d576001548a516000916001600160a01b0316906348758697908d9060ff861690811061171a57634e487b7160e01b600052603260045260246000fd5b60200260200101516040518263ffffffff1660e01b815260040161174091815260200190565b60006040518083038186803b15801561175857600080fd5b505afa15801561176c573d6000803e3d6000fd5b505050506040513d6000823e601f3d908101601f19168201604052611794919081019061327b565b6001548c519192506000916001600160a01b039091169063db3843c6908e9060ff87169081106117d457634e487b7160e01b600052603260045260246000fd5b60200260200101516040518263ffffffff1660e01b81526004016117fa91815260200190565b60206040518083038186803b15801561181257600080fd5b505afa158015611826573d6000803e3d6000fd5b505050506040513d601f19601f8201168201806040525081019061184a9190613323565b90508061185f578061185b81613416565b9150505b60405167135e5d1a1a58d85b60c21b6020820152602801604051602081830303815290604052805190602001208260405160200161189d919061333b565b60405160208183030381529060405280519060200120146119dc57604051684c6567656e6461727960b81b602082015260290160405160208183030381529060405280519060200120826040516020016118f7919061333b565b60405160208183030381529060405280519060200120146119d557604051635261726560e01b6020820152602401604051602081830303815290604052805190602001208260405160200161194c919061333b565b60405160208183030381529060405280519060200120146119ce57604051672ab731b7b6b6b7b760c11b602082015260280160405160208183030381529060405280519060200120826040516020016119a5919061333b565b60405160208183030381529060405280519060200120146119c757600a6119df565b600b6119df565b600c6119df565b600d6119df565b600e5b6119ec9060ff16826133b4565b6119f69085613388565b935050508080611a0590613431565b9150506116d3565b5081611a1985836133b4565b611a2391906133b4565b6001548a519192506008916000916001600160a01b0316906386481d40908d908490611a5f57634e487b7160e01b600052603260045260246000fd5b60200260200101516040518263ffffffff1660e01b8152600401611a8591815260200190565b60206040518083038186803b158015611a9d57600080fd5b505afa158015611ab1573d6000803e3d6000fd5b505050506040513d601f19601f82011682018060405250810190611ad59190613323565b81526020019081526020016000205481620186a0611af391906133b4565b611afd91906133a0565b611b0861271061304a565b11611dc457600154895160009160079183916001600160a01b0316906386481d40908e908490611b4857634e487b7160e01b600052603260045260246000fd5b60200260200101516040518263ffffffff1660e01b8152600401611b6e91815260200190565b60206040518083038186803b158015611b8657600080fd5b505afa158015611b9a573d6000803e3d6000fd5b505050506040513d601f19601f82011682018060405250810190611bbe9190613323565b81526020019081526020016000205490505b611be0816509184e72a0006133b4565b6002546040516370a0823160e01b81523060048201526001600160a01b03909116906370a082319060240160206040518083038186803b158015611c2357600080fd5b505afa158015611c37573d6000803e3d6000fd5b505050506040513d601f19601f82011682018060405250810190611c5b9190613323565b1015611ccf57600654600554604051631c57762b60e31b81526004810191909152600060248201526001600160a01b039091169063e2bbb15890604401600060405180830381600087803b158015611cb257600080fd5b505af1158015611cc6573d6000803e3d6000fd5b50505050611bd0565b6002546001600160a01b031663a9059cbb33611cf1846509184e72a0006133b4565b6040517fffffffff0000000000000000000000000000000000000000000000000000000060e085901b1681526001600160a01b0390921660048301526024820152604401602060405180830381600087803b158015611d4f57600080fd5b505af1158015611d63573d6000803e3d6000fd5b505050506040513d601f19601f82011682018060405250810190611d87919061325b565b506040516001815281907f53d4765ec670428368b78e96e475e7f10baf770184e16bf02c7bb2cd24ef6c2e9060200160405180910390a250611dfb565b6040516000808252907f53d4765ec670428368b78e96e475e7f10baf770184e16bf02c7bb2cd24ef6c2e9060200160405180910390a25b5050336000908152600b6020526040902043905550505050505050565b6001805483516000926001600160a01b03909216916386481d40918691908110611e5257634e487b7160e01b600052603260045260246000fd5b60200260200101516040518263ffffffff1660e01b8152600401611e7891815260200190565b60206040518083038186803b158015611e9057600080fd5b505afa158015611ea4573d6000803e3d6000fd5b505050506040513d601f19601f82011682018060405250810190611ec89190613323565b60015484516001600160a01b03909116906386481d40908690600090611efe57634e487b7160e01b600052603260045260246000fd5b60200260200101516040518263ffffffff1660e01b8152600401611f2491815260200190565b60206040518083038186803b158015611f3c57600080fd5b505afa158015611f50573d6000803e3d6000fd5b505050506040513d601f19601f82011682018060405250810190611f749190613323565b1480156120d9575060015483516001600160a01b03909116906386481d409085906002908110611fb457634e487b7160e01b600052603260045260246000fd5b60200260200101516040518263ffffffff1660e01b8152600401611fda91815260200190565b60206040518083038186803b158015611ff257600080fd5b505afa158015612006573d6000803e3d6000fd5b505050506040513d601f19601f8201168201806040525081019061202a9190613323565b6001805485516001600160a01b03909116916386481d4091879190811061206157634e487b7160e01b600052603260045260246000fd5b60200260200101516040518263ffffffff1660e01b815260040161208791815260200190565b60206040518083038186803b15801561209f57600080fd5b505afa1580156120b3573d6000803e3d6000fd5b505050506040513d601f19601f820116820180604052508101906120d79190613323565b145b801561223e575060015483516001600160a01b03909116906386481d40908590600390811061211857634e487b7160e01b600052603260045260246000fd5b60200260200101516040518263ffffffff1660e01b815260040161213e91815260200190565b60206040518083038186803b15801561215657600080fd5b505afa15801561216a573d6000803e3d6000fd5b505050506040513d601f19601f8201168201806040525081019061218e9190613323565b60015484516001600160a01b03909116906386481d4090869060029081106121c657634e487b7160e01b600052603260045260246000fd5b60200260200101516040518263ffffffff1660e01b81526004016121ec91815260200190565b60206040518083038186803b15801561220457600080fd5b505afa158015612218573d6000803e3d6000fd5b505050506040513d601f19601f8201168201806040525081019061223c9190613323565b145b61228a5760405162461bcd60e51b815260206004820152601c60248201527f506c617965727327206c6576656c206d7573742062652073616d652100000000604482015260640161045b565b60015483516000916001600160a01b03169063eb02c30190869084906122c057634e487b7160e01b600052603260045260246000fd5b60200260200101516040518263ffffffff1660e01b81526004016122e691815260200190565b60006040518083038186803b1580156122fe57600080fd5b505afa158015612312573d6000803e3d6000fd5b505050506040513d6000823e601f3d908101601f1916820160405261233a919081019061327b565b6001805486519293506000926001600160a01b039091169163eb02c30191889190811061237757634e487b7160e01b600052603260045260246000fd5b60200260200101516040518263ffffffff1660e01b815260040161239d91815260200190565b60006040518083038186803b1580156123b557600080fd5b505afa1580156123c9573d6000803e3d6000fd5b505050506040513d6000823e601f3d908101601f191682016040526123f1919081019061327b565b60015486519192506000916001600160a01b039091169063eb02c301908890600290811061242f57634e487b7160e01b600052603260045260246000fd5b60200260200101516040518263ffffffff1660e01b815260040161245591815260200190565b60006040518083038186803b15801561246d57600080fd5b505afa158015612481573d6000803e3d6000fd5b505050506040513d6000823e601f3d908101601f191682016040526124a9919081019061327b565b60015487519192506000916001600160a01b039091169063eb02c30190899060039081106124e757634e487b7160e01b600052603260045260246000fd5b60200260200101516040518263ffffffff1660e01b815260040161250d91815260200190565b60006040518083038186803b15801561252557600080fd5b505afa158015612539573d6000803e3d6000fd5b505050506040513d6000823e601f3d908101601f19168201604052612561919081019061327b565b905082604051602001612574919061333b565b604051602081830303815290604052805190602001208460405160200161259b919061333b565b604051602081830303815290604052805190602001201415801561260b5750816040516020016125cb919061333b565b60405160208183030381529060405280519060200120846040516020016125f2919061333b565b6040516020818303038152906040528051906020012014155b8015612663575080604051602001612623919061333b565b604051602081830303815290604052805190602001208460405160200161264a919061333b565b6040516020818303038152906040528051906020012014155b80156126bb57508160405160200161267b919061333b565b60405160208183030381529060405280519060200120836040516020016126a2919061333b565b6040516020818303038152906040528051906020012014155b80156127135750806040516020016126d3919061333b565b60405160208183030381529060405280519060200120836040516020016126fa919061333b565b6040516020818303038152906040528051906020012014155b801561276b57508060405160200161272b919061333b565b6040516020818303038152906040528051906020012082604051602001612752919061333b565b6040516020818303038152906040528051906020012014155b6127ca5760405162461bcd60e51b815260206004820152602a60248201527f506f736974696f6e206f66206561636820706c61796572206d75737420626520604482015269646966666572656e742160b01b606482015260840161045b565b600a546040516370a0823160e01b81526001600160a01b03888116600483015260009283929116906370a082319060240160206040518083038186803b15801561281357600080fd5b505afa158015612827573d6000803e3d6000fd5b505050506040513d601f19601f8201168201806040525081019061284b9190613323565b1161285757606461285a565b607d5b6002546040516370a0823160e01b81526001600160a01b038a8116600483015260ff939093169350600092909116906370a082319060240160206040518083038186803b1580156128aa57600080fd5b505afa1580156128be573d6000803e3d6000fd5b505050506040513d601f19601f820116820180604052508101906128e29190613323565b90506000690a968163f0a57b40000082101561296357690878678326eac900000082101561295c5769065a4da25d3016c000008210156129555769043c33c193756480000082101561294e5769021e19e0c9bab240000082101561294757600a612966565b600b612966565b600c612966565b600d612966565b600e612966565b600f5b60ff1690506000805b60048160ff161015612cb4576001548c516000916001600160a01b0316906348758697908f9060ff86169081106129b657634e487b7160e01b600052603260045260246000fd5b60200260200101516040518263ffffffff1660e01b81526004016129dc91815260200190565b60006040518083038186803b1580156129f457600080fd5b505afa158015612a08573d6000803e3d6000fd5b505050506040513d6000823e601f3d908101601f19168201604052612a30919081019061327b565b90506000600160009054906101000a90046001600160a01b03166001600160a01b031663db3843c68f8560ff1681518110612a7b57634e487b7160e01b600052603260045260246000fd5b60200260200101516040518263ffffffff1660e01b8152600401612aa191815260200190565b60206040518083038186803b158015612ab957600080fd5b505afa158015612acd573d6000803e3d6000fd5b505050506040513d601f19601f82011682018060405250810190612af19190613323565b905080612b065780612b0281613416565b9150505b60405167135e5d1a1a58d85b60c21b60208201526028016040516020818303038152906040528051906020012082604051602001612b44919061333b565b6040516020818303038152906040528051906020012014612c8357604051684c6567656e6461727960b81b60208201526029016040516020818303038152906040528051906020012082604051602001612b9e919061333b565b6040516020818303038152906040528051906020012014612c7c57604051635261726560e01b60208201526024016040516020818303038152906040528051906020012082604051602001612bf3919061333b565b6040516020818303038152906040528051906020012014612c7557604051672ab731b7b6b6b7b760c11b60208201526028016040516020818303038152906040528051906020012082604051602001612c4c919061333b565b6040516020818303038152906040528051906020012014612c6e57600a612c86565b600b612c86565b600c612c86565b600d612c86565b600e5b612c939060ff16826133b4565b612c9d9085613388565b935050508080612cac90613431565b91505061296f565b5081612cc085836133b4565b612cca91906133b4565b6001548c519192506008916000916001600160a01b0316906386481d40908f908490612d0657634e487b7160e01b600052603260045260246000fd5b60200260200101516040518263ffffffff1660e01b8152600401612d2c91815260200190565b60206040518083038186803b158015612d4457600080fd5b505afa158015612d58573d6000803e3d6000fd5b505050506040513d601f19601f82011682018060405250810190612d7c9190613323565b81526020019081526020016000205481612710612d9991906133b4565b612da391906133a0565b9b9a5050505050505050505050565b612dba612f88565b60328114612e305760405162461bcd60e51b815260206004820152602960248201527f546865207072697a65206c697374206d75737420626520666f7220746865204560448201527f616368204c6576656c0000000000000000000000000000000000000000000000606482015260840161045b565b60005b60ff81168211156106ab5782828260ff16818110612e6157634e487b7160e01b600052603260045260246000fd5b90506020020135600760008360ff168152602001908152602001600020819055508080612e8d90613431565b915050612e33565b612e9d612f88565b6001600160a01b038116612f195760405162461bcd60e51b815260206004820152602660248201527f4f776e61626c653a206e6577206f776e657220697320746865207a65726f206160448201527f6464726573730000000000000000000000000000000000000000000000000000606482015260840161045b565b612f2281612fe2565b50565b612f2d612f88565b600555565b612f3a612f88565b6006546005546040517f5312ea8e0000000000000000000000000000000000000000000000000000000081526001600160a01b0390921691635312ea8e916106fc9160040190815260200190565b6000546001600160a01b031633146106c25760405162461bcd60e51b815260206004820181905260248201527f4f776e61626c653a2063616c6c6572206973206e6f7420746865206f776e6572604482015260640161045b565b600080546001600160a01b038381167fffffffffffffffffffffffff0000000000000000000000000000000000000000831681178455604051919092169283917f8be0079c531659141344cd1fd0a4f28419497f9722a3daafe3b4186f6b6457e09190a35050565b600081423360405160200161307b92919091825260601b6bffffffffffffffffffffffff1916602082015260340190565b6040516020818303038152906040528051906020012060001c6103779190613451565b600082601f8301126130ae578081fd5b8135602067ffffffffffffffff8211156130ca576130ca613491565b8160051b6130d9828201613357565b8381528281019086840183880185018910156130f3578687fd5b8693505b858410156131155780358352600193909301929184019184016130f7565b50979650505050505050565b600060208284031215613132578081fd5b813561313d816134a7565b9392505050565b600060208284031215613155578081fd5b815161313d816134a7565b60008060208385031215613172578081fd5b823567ffffffffffffffff80821115613189578283fd5b818501915085601f83011261319c578283fd5b8135818111156131aa578384fd5b8660208260051b85010111156131be578384fd5b60209290920196919550909350505050565b6000602082840312156131e1578081fd5b813567ffffffffffffffff8111156131f7578182fd5b6132038482850161309e565b949350505050565b6000806040838503121561321d578182fd5b823567ffffffffffffffff811115613233578283fd5b61323f8582860161309e565b9250506020830135613250816134a7565b809150509250929050565b60006020828403121561326c578081fd5b8151801515811461313d578182fd5b60006020828403121561328c578081fd5b815167ffffffffffffffff808211156132a3578283fd5b818401915084601f8301126132b6578283fd5b8151818111156132c8576132c8613491565b6132db601f8201601f1916602001613357565b91508082528560208285010111156132f1578384fd5b6133028160208401602086016133ea565b50949350505050565b60006020828403121561331c578081fd5b5035919050565b600060208284031215613334578081fd5b5051919050565b6000825161334d8184602087016133ea565b9190910192915050565b604051601f8201601f1916810167ffffffffffffffff8111828210171561338057613380613491565b604052919050565b6000821982111561339b5761339b613465565b500190565b6000826133af576133af61347b565b500490565b60008160001904831182151516156133ce576133ce613465565b500290565b6000828210156133e5576133e5613465565b500390565b60005b838110156134055781810151838201526020016133ed565b8381111561072a5750506000910152565b600060001982141561342a5761342a613465565b5060010190565b600060ff821660ff81141561344857613448613465565b60010192915050565b6000826134605761346061347b565b500690565b634e487b7160e01b600052601160045260246000fd5b634e487b7160e01b600052601260045260246000fd5b634e487b7160e01b600052604160045260246000fd5b6001600160a01b0381168114612f2257600080fdfea264697066735822122086c501e6d7d688e4782d43d2ae31bc7c727134894781e3b88f0c4e89e51a8d8d64736f6c63430008040033",
  "linkReferences": {},
  "deployedLinkReferences": {}
}