{
  "_format": "hh-sol-artifact-1",
  "contractName": "Match",
  "sourceName": "contracts/Match.sol",
  "abi": [
    {
      "inputs": [
        {
          "internalType": "contract IGolToken",
          "name": "_golToken",
          "type": "address"
        },
        {
          "internalType": "contract INonFungiblePlayer",
          "name": "_nonFungiblePlayer",
          "type": "address"
        },
        {
          "internalType": "contract IGolGameToken",
          "name": "_golGameToken",
          "type": "address"
        },
        {
          "internalType": "address",
          "name": "_genesis",
          "type": "address"
        },
        {
          "internalType": "address",
          "name": "_masterChef",
          "type": "address"
        }
      ],
      "stateMutability": "nonpayable",
      "type": "constructor"
    },
    {
      "anonymous": false,
      "inputs": [
        {
          "indexed": true,
          "internalType": "address",
          "name": "previousOwner",
          "type": "address"
        },
        {
          "indexed": true,
          "internalType": "address",
          "name": "newOwner",
          "type": "address"
        }
      ],
      "name": "OwnershipTransferred",
      "type": "event"
    },
    {
      "anonymous": false,
      "inputs": [
        {
          "indexed": false,
          "internalType": "bool",
          "name": "success",
          "type": "bool"
        },
        {
          "indexed": true,
          "internalType": "uint256",
          "name": "tokenPrize",
          "type": "uint256"
        }
      ],
      "name": "endMatch",
      "type": "event"
    },
    {
      "inputs": [],
      "name": "depositGameToken",
      "outputs": [],
      "stateMutability": "nonpayable",
      "type": "function"
    },
    {
      "inputs": [],
      "name": "emergencyWithdrawFromPool",
      "outputs": [],
      "stateMutability": "nonpayable",
      "type": "function"
    },
    {
      "inputs": [
        {
          "internalType": "uint256",
          "name": "_tokenId",
          "type": "uint256"
        }
      ],
      "name": "getPassedBlocks",
      "outputs": [
        {
          "internalType": "uint256",
          "name": "",
          "type": "uint256"
        }
      ],
      "stateMutability": "view",
      "type": "function"
    },
    {
      "inputs": [
        {
          "internalType": "uint256[]",
          "name": "_tokenIds",
          "type": "uint256[]"
        },
        {
          "internalType": "address",
          "name": "_owner",
          "type": "address"
        }
      ],
      "name": "getWinningChance",
      "outputs": [
        {
          "internalType": "uint256",
          "name": "",
          "type": "uint256"
        }
      ],
      "stateMutability": "view",
      "type": "function"
    },
    {
      "inputs": [
        {
          "internalType": "uint256",
          "name": "level",
          "type": "uint256"
        }
      ],
      "name": "getWinningPrize",
      "outputs": [
        {
          "internalType": "uint256",
          "name": "",
          "type": "uint256"
        }
      ],
      "stateMutability": "view",
      "type": "function"
    },
    {
      "inputs": [
        {
          "internalType": "uint256",
          "name": "_amount",
          "type": "uint256"
        }
      ],
      "name": "initialDeposit",
      "outputs": [],
      "stateMutability": "nonpayable",
      "type": "function"
    },
    {
      "inputs": [
        {
          "internalType": "uint256",
          "name": "_tokenId",
          "type": "uint256"
        }
      ],
      "name": "isLockedForNFP",
      "outputs": [
        {
          "internalType": "bool",
          "name": "",
          "type": "bool"
        }
      ],
      "stateMutability": "view",
      "type": "function"
    },
    {
      "inputs": [
        {
          "internalType": "address",
          "name": "",
          "type": "address"
        }
      ],
      "name": "isPlayedMatch",
      "outputs": [
        {
          "internalType": "bool",
          "name": "",
          "type": "bool"
        }
      ],
      "stateMutability": "view",
      "type": "function"
    },
    {
      "inputs": [
        {
          "internalType": "uint256",
          "name": "",
          "type": "uint256"
        }
      ],
      "name": "lastMatchBlock",
      "outputs": [
        {
          "internalType": "uint256",
          "name": "",
          "type": "uint256"
        }
      ],
      "stateMutability": "view",
      "type": "function"
    },
    {
      "inputs": [
        {
          "internalType": "uint256",
          "name": "",
          "type": "uint256"
        }
      ],
      "name": "leagueDifficulty",
      "outputs": [
        {
          "internalType": "uint256",
          "name": "",
          "type": "uint256"
        }
      ],
      "stateMutability": "view",
      "type": "function"
    },
    {
      "inputs": [],
      "name": "matchPeriod",
      "outputs": [
        {
          "internalType": "uint256",
          "name": "",
          "type": "uint256"
        }
      ],
      "stateMutability": "view",
      "type": "function"
    },
    {
      "inputs": [],
      "name": "owner",
      "outputs": [
        {
          "internalType": "address",
          "name": "",
          "type": "address"
        }
      ],
      "stateMutability": "view",
      "type": "function"
    },
    {
      "inputs": [],
      "name": "pid",
      "outputs": [
        {
          "internalType": "uint256",
          "name": "",
          "type": "uint256"
        }
      ],
      "stateMutability": "view",
      "type": "function"
    },
    {
      "inputs": [
        {
          "internalType": "uint256",
          "name": "",
          "type": "uint256"
        }
      ],
      "name": "prizeList",
      "outputs": [
        {
          "internalType": "uint256",
          "name": "",
          "type": "uint256"
        }
      ],
      "stateMutability": "view",
      "type": "function"
    },
    {
      "inputs": [],
      "name": "renounceOwnership",
      "outputs": [],
      "stateMutability": "nonpayable",
      "type": "function"
    },
    {
      "inputs": [
        {
          "internalType": "uint256[]",
          "name": "_leagueDifficulty",
          "type": "uint256[]"
        }
      ],
      "name": "setLeagueDifficulty",
      "outputs": [],
      "stateMutability": "nonpayable",
      "type": "function"
    },
    {
      "inputs": [
        {
          "internalType": "uint256",
          "name": "_matchPeriod",
          "type": "uint256"
        }
      ],
      "name": "setMatchPeriod",
      "outputs": [],
      "stateMutability": "nonpayable",
      "type": "function"
    },
    {
      "inputs": [
        {
          "internalType": "uint256",
          "name": "_pid",
          "type": "uint256"
        }
      ],
      "name": "setPidMasterChef",
      "outputs": [],
      "stateMutability": "nonpayable",
      "type": "function"
    },
    {
      "inputs": [
        {
          "internalType": "uint256[]",
          "name": "_prizeList",
          "type": "uint256[]"
        }
      ],
      "name": "setPrizeList",
      "outputs": [],
      "stateMutability": "nonpayable",
      "type": "function"
    },
    {
      "inputs": [
        {
          "internalType": "uint256[]",
          "name": "_tokenIds",
          "type": "uint256[]"
        }
      ],
      "name": "startMatch",
      "outputs": [],
      "stateMutability": "nonpayable",
      "type": "function"
    },
    {
      "inputs": [
        {
          "internalType": "address",
          "name": "newOwner",
          "type": "address"
        }
      ],
      "name": "transferOwnership",
      "outputs": [],
      "stateMutability": "nonpayable",
      "type": "function"
    }
  ],
  "bytecode": "0x60806040523480156200001157600080fd5b5060405162003895380380620038958339810160408190526200003491620000f8565b6200003f33620000a8565b600280546001600160a01b03199081166001600160a01b03978816179091556001805482169587169590951790945560068054851691861691909117905560038054841692851692909217909155600a8054909216921691909117905561708060045562000190565b600080546001600160a01b038381166001600160a01b0319831681178455604051919092169283917f8be0079c531659141344cd1fd0a4f28419497f9722a3daafe3b4186f6b6457e09190a35050565b600080600080600060a0868803121562000110578081fd5b85516200011d8162000177565b6020870151909550620001308162000177565b6040870151909450620001438162000177565b6060870151909350620001568162000177565b6080870151909250620001698162000177565b809150509295509295909350565b6001600160a01b03811681146200018d57600080fd5b50565b6136f580620001a06000396000f3fe608060405234801561001057600080fd5b50600436106101775760003560e01c806386cd647a116100d8578063bb86a93a1161008c578063f2fde38b11610066578063f2fde38b14610319578063f43092fe1461032c578063f640fde91461033f57600080fd5b8063bb86a93a146102e7578063dcae2cb4146102f0578063f10684541461031057600080fd5b80638da5cb5b116100bd5780638da5cb5b146102995780639612dc7d146102b4578063a4b2ea6a146102c757600080fd5b806386cd647a146102665780638da44a671461028657600080fd5b80636a94f9ee1161012f5780637c6c1c94116101145780637c6c1c94146102385780637f570e2b146102405780638402a8191461025357600080fd5b80636a94f9ee1461021d578063715018a61461023057600080fd5b8063593e6ee211610160578063593e6ee2146101a45780635af67463146101ca5780635b81727d146101fd57600080fd5b8063109adf271461017c5780634170595a14610191575b600080fd5b61018f61018a36600461350e565b610347565b005b61018f61019f36600461350e565b610354565b6101b76101b236600461350e565b61056e565b6040519081526020015b60405180910390f35b6101ed6101d8366004613324565b60096020526000908152604090205460ff1681565b60405190151581526020016101c1565b6101b761020b36600461350e565b600b6020526000908152604090205481565b61018f61022b366004613363565b61058d565b61018f610675565b61018f610689565b61018f61024e3660046133d3565b6106f5565b6101b761026136600461340e565b611ff4565b6101b761027436600461350e565b60086020526000908152604090205481565b6101ed61029436600461350e565b612f8e565b6000546040516001600160a01b0390911681526020016101c1565b61018f6102c2366004613363565b612fb5565b6101b76102d536600461350e565b60076020526000908152604090205481565b6101b760045481565b6101b76102fe36600461350e565b60009081526007602052604090205490565b6101b760055481565b61018f610327366004613324565b613098565b61018f61033a36600461350e565b613128565b61018f613135565b61034f61318b565b600455565b61035c61318b565b61036e81670de0b6b3a76400006135b7565b6003546040516370a0823160e01b81523060048201526001600160a01b03909116906370a082319060240160206040518083038186803b1580156103b157600080fd5b505afa1580156103c5573d6000803e3d6000fd5b505050506040513d601f19601f820116820180604052508101906103e99190613526565b1161043b5760405162461bcd60e51b815260206004820152601560248201527f496e73756666696369656e742062616c616e636521000000000000000000000060448201526064015b60405180910390fd5b6003546006546001600160a01b039182169163095ea7b3911661046684670de0b6b3a76400006135b7565b6040517fffffffff0000000000000000000000000000000000000000000000000000000060e085901b1681526001600160a01b0390921660048301526024820152604401602060405180830381600087803b1580156104c457600080fd5b505af11580156104d8573d6000803e3d6000fd5b505050506040513d601f19601f820116820180604052508101906104fc919061345e565b50600654600554604051631c57762b60e31b81526001600160a01b039092169163e2bbb15891610539918590600401918252602082015260400190565b600060405180830381600087803b15801561055357600080fd5b505af1158015610567573d6000803e3d6000fd5b5050505050565b6000818152600b602052604081205461058790436135d6565b92915050565b61059561318b565b6032811461060b5760405162461bcd60e51b815260206004820152603460248201527f546865206c697374206f6620646966666963756c74696573206d75737420626560448201527f20666f72207468652065616368206c6576656c210000000000000000000000006064820152608401610432565b60005b60ff81168211156106705782828260ff1681811061063c57634e487b7160e01b600052603260045260246000fd5b90506020020135600860008360ff16815260200190815260200160002081905550808061066890613634565b91505061060e565b505050565b61067d61318b565b61068760006131e5565b565b600654600554604051631c57762b60e31b81526004810191909152600060248201526001600160a01b039091169063e2bbb158906044015b600060405180830381600087803b1580156106db57600080fd5b505af11580156106ef573d6000803e3d6000fd5b50505050565b60015481516001600160a01b0390911690636352211e90839060009061072b57634e487b7160e01b600052603260045260246000fd5b60200260200101516040518263ffffffff1660e01b815260040161075191815260200190565b60206040518083038186803b15801561076957600080fd5b505afa15801561077d573d6000803e3d6000fd5b505050506040513d601f19601f820116820180604052508101906107a19190613347565b6001600160a01b0316336001600160a01b031614801561087e57506001805482516001600160a01b0390911691636352211e9184919081106107f357634e487b7160e01b600052603260045260246000fd5b60200260200101516040518263ffffffff1660e01b815260040161081991815260200190565b60206040518083038186803b15801561083157600080fd5b505afa158015610845573d6000803e3d6000fd5b505050506040513d601f19601f820116820180604052508101906108699190613347565b6001600160a01b0316336001600160a01b0316145b8015610948575060015481516001600160a01b0390911690636352211e90839060029081106108bd57634e487b7160e01b600052603260045260246000fd5b60200260200101516040518263ffffffff1660e01b81526004016108e391815260200190565b60206040518083038186803b1580156108fb57600080fd5b505afa15801561090f573d6000803e3d6000fd5b505050506040513d601f19601f820116820180604052508101906109339190613347565b6001600160a01b0316336001600160a01b0316145b8015610a12575060015481516001600160a01b0390911690636352211e908390600390811061098757634e487b7160e01b600052603260045260246000fd5b60200260200101516040518263ffffffff1660e01b81526004016109ad91815260200190565b60206040518083038186803b1580156109c557600080fd5b505afa1580156109d9573d6000803e3d6000fd5b505050506040513d601f19601f820116820180604052508101906109fd9190613347565b6001600160a01b0316336001600160a01b0316145b610a845760405162461bcd60e51b815260206004820152602360248201527f596f7520617265206e6f74206f776e6572206f6620746865736520506c61796560448201527f72732100000000000000000000000000000000000000000000000000000000006064820152608401610432565b6001805482516001600160a01b03909116916386481d40918491908110610abb57634e487b7160e01b600052603260045260246000fd5b60200260200101516040518263ffffffff1660e01b8152600401610ae191815260200190565b60206040518083038186803b158015610af957600080fd5b505afa158015610b0d573d6000803e3d6000fd5b505050506040513d601f19601f82011682018060405250810190610b319190613526565b60015482516001600160a01b03909116906386481d40908490600090610b6757634e487b7160e01b600052603260045260246000fd5b60200260200101516040518263ffffffff1660e01b8152600401610b8d91815260200190565b60206040518083038186803b158015610ba557600080fd5b505afa158015610bb9573d6000803e3d6000fd5b505050506040513d601f19601f82011682018060405250810190610bdd9190613526565b148015610d42575060015481516001600160a01b03909116906386481d409083906002908110610c1d57634e487b7160e01b600052603260045260246000fd5b60200260200101516040518263ffffffff1660e01b8152600401610c4391815260200190565b60206040518083038186803b158015610c5b57600080fd5b505afa158015610c6f573d6000803e3d6000fd5b505050506040513d601f19601f82011682018060405250810190610c939190613526565b6001805483516001600160a01b03909116916386481d40918591908110610cca57634e487b7160e01b600052603260045260246000fd5b60200260200101516040518263ffffffff1660e01b8152600401610cf091815260200190565b60206040518083038186803b158015610d0857600080fd5b505afa158015610d1c573d6000803e3d6000fd5b505050506040513d601f19601f82011682018060405250810190610d409190613526565b145b8015610ea7575060015481516001600160a01b03909116906386481d409083906003908110610d8157634e487b7160e01b600052603260045260246000fd5b60200260200101516040518263ffffffff1660e01b8152600401610da791815260200190565b60206040518083038186803b158015610dbf57600080fd5b505afa158015610dd3573d6000803e3d6000fd5b505050506040513d601f19601f82011682018060405250810190610df79190613526565b60015482516001600160a01b03909116906386481d409084906002908110610e2f57634e487b7160e01b600052603260045260246000fd5b60200260200101516040518263ffffffff1660e01b8152600401610e5591815260200190565b60206040518083038186803b158015610e6d57600080fd5b505afa158015610e81573d6000803e3d6000fd5b505050506040513d601f19601f82011682018060405250810190610ea59190613526565b145b610ef35760405162461bcd60e51b815260206004820152601c60248201527f506c617965727327206c6576656c206d7573742062652073616d6521000000006044820152606401610432565b60015481516000916001600160a01b03169063eb02c3019084908490610f2957634e487b7160e01b600052603260045260246000fd5b60200260200101516040518263ffffffff1660e01b8152600401610f4f91815260200190565b60006040518083038186803b158015610f6757600080fd5b505afa158015610f7b573d6000803e3d6000fd5b505050506040513d6000823e601f3d908101601f19168201604052610fa3919081019061347e565b6001805484519293506000926001600160a01b039091169163eb02c301918691908110610fe057634e487b7160e01b600052603260045260246000fd5b60200260200101516040518263ffffffff1660e01b815260040161100691815260200190565b60006040518083038186803b15801561101e57600080fd5b505afa158015611032573d6000803e3d6000fd5b505050506040513d6000823e601f3d908101601f1916820160405261105a919081019061347e565b60015484519192506000916001600160a01b039091169063eb02c301908690600290811061109857634e487b7160e01b600052603260045260246000fd5b60200260200101516040518263ffffffff1660e01b81526004016110be91815260200190565b60006040518083038186803b1580156110d657600080fd5b505afa1580156110ea573d6000803e3d6000fd5b505050506040513d6000823e601f3d908101601f19168201604052611112919081019061347e565b60015485519192506000916001600160a01b039091169063eb02c301908790600390811061115057634e487b7160e01b600052603260045260246000fd5b60200260200101516040518263ffffffff1660e01b815260040161117691815260200190565b60006040518083038186803b15801561118e57600080fd5b505afa1580156111a2573d6000803e3d6000fd5b505050506040513d6000823e601f3d908101601f191682016040526111ca919081019061347e565b9050826040516020016111dd919061353e565b6040516020818303038152906040528051906020012084604051602001611204919061353e565b6040516020818303038152906040528051906020012014158015611274575081604051602001611234919061353e565b604051602081830303815290604052805190602001208460405160200161125b919061353e565b6040516020818303038152906040528051906020012014155b80156112cc57508060405160200161128c919061353e565b60405160208183030381529060405280519060200120846040516020016112b3919061353e565b6040516020818303038152906040528051906020012014155b80156113245750816040516020016112e4919061353e565b604051602081830303815290604052805190602001208360405160200161130b919061353e565b6040516020818303038152906040528051906020012014155b801561137c57508060405160200161133c919061353e565b6040516020818303038152906040528051906020012083604051602001611363919061353e565b6040516020818303038152906040528051906020012014155b80156113d4575080604051602001611394919061353e565b60405160208183030381529060405280519060200120826040516020016113bb919061353e565b6040516020818303038152906040528051906020012014155b6114335760405162461bcd60e51b815260206004820152602a60248201527f506f736974696f6e206f66206561636820706c61796572206d75737420626520604482015269646966666572656e742160b01b6064820152608401610432565b600454600b60008760008151811061145b57634e487b7160e01b600052603260045260246000fd5b60200260200101518152602001908152602001600020544361147d91906135d6565b101580156114d35750600454600b6000876001815181106114ae57634e487b7160e01b600052603260045260246000fd5b6020026020010151815260200190815260200160002054436114d091906135d6565b10155b80156115275750600454600b60008760028151811061150257634e487b7160e01b600052603260045260246000fd5b60200260200101518152602001908152602001600020544361152491906135d6565b10155b801561157b5750600454600b60008760038151811061155657634e487b7160e01b600052603260045260246000fd5b60200260200101518152602001908152602001600020544361157891906135d6565b10155b6115ed5760405162461bcd60e51b815260206004820152602560248201527f4c6f636b656420666f72204d617463682070657220746869732067656e65726160448201527f74696f6e210000000000000000000000000000000000000000000000000000006064820152608401610432565b3360009081526009602052604090205460ff1661161f57336000908152600960205260409020805460ff191660011790555b600a546040516370a0823160e01b815233600482015260009182916001600160a01b03909116906370a082319060240160206040518083038186803b15801561166757600080fd5b505afa15801561167b573d6000803e3d6000fd5b505050506040513d601f19601f8201168201806040525081019061169f9190613526565b116116ab5760646116ae565b607d5b6002546040516370a0823160e01b815233600482015260ff9290921692506000916001600160a01b03909116906370a082319060240160206040518083038186803b1580156116fc57600080fd5b505afa158015611710573d6000803e3d6000fd5b505050506040513d601f19601f820116820180604052508101906117349190613526565b90506000690a968163f0a57b4000008210156117b557690878678326eac90000008210156117ae5769065a4da25d3016c000008210156117a75769043c33c19375648000008210156117a05769021e19e0c9bab240000082101561179957600a6117b8565b600b6117b8565b600c6117b8565b600d6117b8565b600e6117b8565b600f5b60ff1690506000805b60048160ff161015611afb576001548a516000916001600160a01b0316906348758697908d9060ff861690811061180857634e487b7160e01b600052603260045260246000fd5b60200260200101516040518263ffffffff1660e01b815260040161182e91815260200190565b60006040518083038186803b15801561184657600080fd5b505afa15801561185a573d6000803e3d6000fd5b505050506040513d6000823e601f3d908101601f19168201604052611882919081019061347e565b6001548c519192506000916001600160a01b039091169063db3843c6908e9060ff87169081106118c257634e487b7160e01b600052603260045260246000fd5b60200260200101516040518263ffffffff1660e01b81526004016118e891815260200190565b60206040518083038186803b15801561190057600080fd5b505afa158015611914573d6000803e3d6000fd5b505050506040513d601f19601f820116820180604052508101906119389190613526565b90508061194d578061194981613619565b9150505b60405167135e5d1a1a58d85b60c21b6020820152602801604051602081830303815290604052805190602001208260405160200161198b919061353e565b6040516020818303038152906040528051906020012014611aca57604051684c6567656e6461727960b81b602082015260290160405160208183030381529060405280519060200120826040516020016119e5919061353e565b6040516020818303038152906040528051906020012014611ac357604051635261726560e01b60208201526024016040516020818303038152906040528051906020012082604051602001611a3a919061353e565b6040516020818303038152906040528051906020012014611abc57604051672ab731b7b6b6b7b760c11b60208201526028016040516020818303038152906040528051906020012082604051602001611a93919061353e565b6040516020818303038152906040528051906020012014611ab557600a611acd565b600b611acd565b600c611acd565b600d611acd565b600e5b611ada9060ff16826135b7565b611ae4908561358b565b935050508080611af390613634565b9150506117c1565b5081611b0785836135b7565b611b1191906135b7565b6001548a519192506008916000916001600160a01b0316906386481d40908d908490611b4d57634e487b7160e01b600052603260045260246000fd5b60200260200101516040518263ffffffff1660e01b8152600401611b7391815260200190565b60206040518083038186803b158015611b8b57600080fd5b505afa158015611b9f573d6000803e3d6000fd5b505050506040513d601f19601f82011682018060405250810190611bc39190613526565b81526020019081526020016000205481620186a0611be191906135b7565b611beb91906135a3565b611bf661271061324d565b11611eb257600154895160009160079183916001600160a01b0316906386481d40908e908490611c3657634e487b7160e01b600052603260045260246000fd5b60200260200101516040518263ffffffff1660e01b8152600401611c5c91815260200190565b60206040518083038186803b158015611c7457600080fd5b505afa158015611c88573d6000803e3d6000fd5b505050506040513d601f19601f82011682018060405250810190611cac9190613526565b81526020019081526020016000205490505b611cce816509184e72a0006135b7565b6002546040516370a0823160e01b81523060048201526001600160a01b03909116906370a082319060240160206040518083038186803b158015611d1157600080fd5b505afa158015611d25573d6000803e3d6000fd5b505050506040513d601f19601f82011682018060405250810190611d499190613526565b1015611dbd57600654600554604051631c57762b60e31b81526004810191909152600060248201526001600160a01b039091169063e2bbb15890604401600060405180830381600087803b158015611da057600080fd5b505af1158015611db4573d6000803e3d6000fd5b50505050611cbe565b6002546001600160a01b031663a9059cbb33611ddf846509184e72a0006135b7565b6040517fffffffff0000000000000000000000000000000000000000000000000000000060e085901b1681526001600160a01b0390921660048301526024820152604401602060405180830381600087803b158015611e3d57600080fd5b505af1158015611e51573d6000803e3d6000fd5b505050506040513d601f19601f82011682018060405250810190611e75919061345e565b506040516001815281907f53d4765ec670428368b78e96e475e7f10baf770184e16bf02c7bb2cd24ef6c2e9060200160405180910390a250611ee9565b6040516000808252907f53d4765ec670428368b78e96e475e7f10baf770184e16bf02c7bb2cd24ef6c2e9060200160405180910390a25b43600b60008b600081518110611f0f57634e487b7160e01b600052603260045260246000fd5b602002602001015181526020019081526020016000208190555043600b60008b600181518110611f4f57634e487b7160e01b600052603260045260246000fd5b602002602001015181526020019081526020016000208190555043600b60008b600281518110611f8f57634e487b7160e01b600052603260045260246000fd5b602002602001015181526020019081526020016000208190555043600b60008b600381518110611fcf57634e487b7160e01b600052603260045260246000fd5b6020026020010151815260200190815260200160002081905550505050505050505050565b6001805483516000926001600160a01b03909216916386481d4091869190811061202e57634e487b7160e01b600052603260045260246000fd5b60200260200101516040518263ffffffff1660e01b815260040161205491815260200190565b60206040518083038186803b15801561206c57600080fd5b505afa158015612080573d6000803e3d6000fd5b505050506040513d601f19601f820116820180604052508101906120a49190613526565b60015484516001600160a01b03909116906386481d409086906000906120da57634e487b7160e01b600052603260045260246000fd5b60200260200101516040518263ffffffff1660e01b815260040161210091815260200190565b60206040518083038186803b15801561211857600080fd5b505afa15801561212c573d6000803e3d6000fd5b505050506040513d601f19601f820116820180604052508101906121509190613526565b1480156122b5575060015483516001600160a01b03909116906386481d40908590600290811061219057634e487b7160e01b600052603260045260246000fd5b60200260200101516040518263ffffffff1660e01b81526004016121b691815260200190565b60206040518083038186803b1580156121ce57600080fd5b505afa1580156121e2573d6000803e3d6000fd5b505050506040513d601f19601f820116820180604052508101906122069190613526565b6001805485516001600160a01b03909116916386481d4091879190811061223d57634e487b7160e01b600052603260045260246000fd5b60200260200101516040518263ffffffff1660e01b815260040161226391815260200190565b60206040518083038186803b15801561227b57600080fd5b505afa15801561228f573d6000803e3d6000fd5b505050506040513d601f19601f820116820180604052508101906122b39190613526565b145b801561241a575060015483516001600160a01b03909116906386481d4090859060039081106122f457634e487b7160e01b600052603260045260246000fd5b60200260200101516040518263ffffffff1660e01b815260040161231a91815260200190565b60206040518083038186803b15801561233257600080fd5b505afa158015612346573d6000803e3d6000fd5b505050506040513d601f19601f8201168201806040525081019061236a9190613526565b60015484516001600160a01b03909116906386481d4090869060029081106123a257634e487b7160e01b600052603260045260246000fd5b60200260200101516040518263ffffffff1660e01b81526004016123c891815260200190565b60206040518083038186803b1580156123e057600080fd5b505afa1580156123f4573d6000803e3d6000fd5b505050506040513d601f19601f820116820180604052508101906124189190613526565b145b6124665760405162461bcd60e51b815260206004820152601c60248201527f506c617965727327206c6576656c206d7573742062652073616d6521000000006044820152606401610432565b60015483516000916001600160a01b03169063eb02c301908690849061249c57634e487b7160e01b600052603260045260246000fd5b60200260200101516040518263ffffffff1660e01b81526004016124c291815260200190565b60006040518083038186803b1580156124da57600080fd5b505afa1580156124ee573d6000803e3d6000fd5b505050506040513d6000823e601f3d908101601f19168201604052612516919081019061347e565b6001805486519293506000926001600160a01b039091169163eb02c30191889190811061255357634e487b7160e01b600052603260045260246000fd5b60200260200101516040518263ffffffff1660e01b815260040161257991815260200190565b60006040518083038186803b15801561259157600080fd5b505afa1580156125a5573d6000803e3d6000fd5b505050506040513d6000823e601f3d908101601f191682016040526125cd919081019061347e565b60015486519192506000916001600160a01b039091169063eb02c301908890600290811061260b57634e487b7160e01b600052603260045260246000fd5b60200260200101516040518263ffffffff1660e01b815260040161263191815260200190565b60006040518083038186803b15801561264957600080fd5b505afa15801561265d573d6000803e3d6000fd5b505050506040513d6000823e601f3d908101601f19168201604052612685919081019061347e565b60015487519192506000916001600160a01b039091169063eb02c30190899060039081106126c357634e487b7160e01b600052603260045260246000fd5b60200260200101516040518263ffffffff1660e01b81526004016126e991815260200190565b60006040518083038186803b15801561270157600080fd5b505afa158015612715573d6000803e3d6000fd5b505050506040513d6000823e601f3d908101601f1916820160405261273d919081019061347e565b905082604051602001612750919061353e565b6040516020818303038152906040528051906020012084604051602001612777919061353e565b60405160208183030381529060405280519060200120141580156127e75750816040516020016127a7919061353e565b60405160208183030381529060405280519060200120846040516020016127ce919061353e565b6040516020818303038152906040528051906020012014155b801561283f5750806040516020016127ff919061353e565b6040516020818303038152906040528051906020012084604051602001612826919061353e565b6040516020818303038152906040528051906020012014155b8015612897575081604051602001612857919061353e565b604051602081830303815290604052805190602001208360405160200161287e919061353e565b6040516020818303038152906040528051906020012014155b80156128ef5750806040516020016128af919061353e565b60405160208183030381529060405280519060200120836040516020016128d6919061353e565b6040516020818303038152906040528051906020012014155b8015612947575080604051602001612907919061353e565b604051602081830303815290604052805190602001208260405160200161292e919061353e565b6040516020818303038152906040528051906020012014155b6129a65760405162461bcd60e51b815260206004820152602a60248201527f506f736974696f6e206f66206561636820706c61796572206d75737420626520604482015269646966666572656e742160b01b6064820152608401610432565b600a546040516370a0823160e01b81526001600160a01b03888116600483015260009283929116906370a082319060240160206040518083038186803b1580156129ef57600080fd5b505afa158015612a03573d6000803e3d6000fd5b505050506040513d601f19601f82011682018060405250810190612a279190613526565b11612a33576064612a36565b607d5b6002546040516370a0823160e01b81526001600160a01b038a8116600483015260ff939093169350600092909116906370a082319060240160206040518083038186803b158015612a8657600080fd5b505afa158015612a9a573d6000803e3d6000fd5b505050506040513d601f19601f82011682018060405250810190612abe9190613526565b90506000690a968163f0a57b400000821015612b3f57690878678326eac9000000821015612b385769065a4da25d3016c00000821015612b315769043c33c1937564800000821015612b2a5769021e19e0c9bab2400000821015612b2357600a612b42565b600b612b42565b600c612b42565b600d612b42565b600e612b42565b600f5b60ff1690506000805b60048160ff161015612e90576001548c516000916001600160a01b0316906348758697908f9060ff8616908110612b9257634e487b7160e01b600052603260045260246000fd5b60200260200101516040518263ffffffff1660e01b8152600401612bb891815260200190565b60006040518083038186803b158015612bd057600080fd5b505afa158015612be4573d6000803e3d6000fd5b505050506040513d6000823e601f3d908101601f19168201604052612c0c919081019061347e565b90506000600160009054906101000a90046001600160a01b03166001600160a01b031663db3843c68f8560ff1681518110612c5757634e487b7160e01b600052603260045260246000fd5b60200260200101516040518263ffffffff1660e01b8152600401612c7d91815260200190565b60206040518083038186803b158015612c9557600080fd5b505afa158015612ca9573d6000803e3d6000fd5b505050506040513d601f19601f82011682018060405250810190612ccd9190613526565b905080612ce25780612cde81613619565b9150505b60405167135e5d1a1a58d85b60c21b60208201526028016040516020818303038152906040528051906020012082604051602001612d20919061353e565b6040516020818303038152906040528051906020012014612e5f57604051684c6567656e6461727960b81b60208201526029016040516020818303038152906040528051906020012082604051602001612d7a919061353e565b6040516020818303038152906040528051906020012014612e5857604051635261726560e01b60208201526024016040516020818303038152906040528051906020012082604051602001612dcf919061353e565b6040516020818303038152906040528051906020012014612e5157604051672ab731b7b6b6b7b760c11b60208201526028016040516020818303038152906040528051906020012082604051602001612e28919061353e565b6040516020818303038152906040528051906020012014612e4a57600a612e62565b600b612e62565b600c612e62565b600d612e62565b600e5b612e6f9060ff16826135b7565b612e79908561358b565b935050508080612e8890613634565b915050612b4b565b5081612e9c85836135b7565b612ea691906135b7565b6001548c519192506008916000916001600160a01b0316906386481d40908f908490612ee257634e487b7160e01b600052603260045260246000fd5b60200260200101516040518263ffffffff1660e01b8152600401612f0891815260200190565b60206040518083038186803b158015612f2057600080fd5b505afa158015612f34573d6000803e3d6000fd5b505050506040513d601f19601f82011682018060405250810190612f589190613526565b81526020019081526020016000205481612710612f7591906135b7565b612f7f91906135a3565b9b9a5050505050505050505050565b6004546000828152600b6020526040812054909190612fad90436135d6565b101592915050565b612fbd61318b565b603281146130335760405162461bcd60e51b815260206004820152602960248201527f546865207072697a65206c697374206d75737420626520666f7220746865204560448201527f616368204c6576656c00000000000000000000000000000000000000000000006064820152608401610432565b60005b60ff81168211156106705782828260ff1681811061306457634e487b7160e01b600052603260045260246000fd5b90506020020135600760008360ff16815260200190815260200160002081905550808061309090613634565b915050613036565b6130a061318b565b6001600160a01b03811661311c5760405162461bcd60e51b815260206004820152602660248201527f4f776e61626c653a206e6577206f776e657220697320746865207a65726f206160448201527f64647265737300000000000000000000000000000000000000000000000000006064820152608401610432565b613125816131e5565b50565b61313061318b565b600555565b61313d61318b565b6006546005546040517f5312ea8e0000000000000000000000000000000000000000000000000000000081526001600160a01b0390921691635312ea8e916106c19160040190815260200190565b6000546001600160a01b031633146106875760405162461bcd60e51b815260206004820181905260248201527f4f776e61626c653a2063616c6c6572206973206e6f7420746865206f776e65726044820152606401610432565b600080546001600160a01b038381167fffffffffffffffffffffffff0000000000000000000000000000000000000000831681178455604051919092169283917f8be0079c531659141344cd1fd0a4f28419497f9722a3daafe3b4186f6b6457e09190a35050565b600081423360405160200161327e92919091825260601b6bffffffffffffffffffffffff1916602082015260340190565b6040516020818303038152906040528051906020012060001c6105879190613654565b600082601f8301126132b1578081fd5b8135602067ffffffffffffffff8211156132cd576132cd613694565b8160051b6132dc82820161355a565b8381528281019086840183880185018910156132f6578687fd5b8693505b858410156133185780358352600193909301929184019184016132fa565b50979650505050505050565b600060208284031215613335578081fd5b8135613340816136aa565b9392505050565b600060208284031215613358578081fd5b8151613340816136aa565b60008060208385031215613375578081fd5b823567ffffffffffffffff8082111561338c578283fd5b818501915085601f83011261339f578283fd5b8135818111156133ad578384fd5b8660208260051b85010111156133c1578384fd5b60209290920196919550909350505050565b6000602082840312156133e4578081fd5b813567ffffffffffffffff8111156133fa578182fd5b613406848285016132a1565b949350505050565b60008060408385031215613420578182fd5b823567ffffffffffffffff811115613436578283fd5b613442858286016132a1565b9250506020830135613453816136aa565b809150509250929050565b60006020828403121561346f578081fd5b81518015158114613340578182fd5b60006020828403121561348f578081fd5b815167ffffffffffffffff808211156134a6578283fd5b818401915084601f8301126134b9578283fd5b8151818111156134cb576134cb613694565b6134de601f8201601f191660200161355a565b91508082528560208285010111156134f4578384fd5b6135058160208401602086016135ed565b50949350505050565b60006020828403121561351f578081fd5b5035919050565b600060208284031215613537578081fd5b5051919050565b600082516135508184602087016135ed565b9190910192915050565b604051601f8201601f1916810167ffffffffffffffff8111828210171561358357613583613694565b604052919050565b6000821982111561359e5761359e613668565b500190565b6000826135b2576135b261367e565b500490565b60008160001904831182151516156135d1576135d1613668565b500290565b6000828210156135e8576135e8613668565b500390565b60005b838110156136085781810151838201526020016135f0565b838111156106ef5750506000910152565b600060001982141561362d5761362d613668565b5060010190565b600060ff821660ff81141561364b5761364b613668565b60010192915050565b6000826136635761366361367e565b500690565b634e487b7160e01b600052601160045260246000fd5b634e487b7160e01b600052601260045260246000fd5b634e487b7160e01b600052604160045260246000fd5b6001600160a01b038116811461312557600080fdfea2646970667358221220043cd6db5e082912ff3a000f41e18b102d43b74d6202023a8226e79dfaf12a4d64736f6c63430008040033",
  "linkReferences": {},
  "deployedLinkReferences": {}
}