{
  "contractName": "NonFungiblePlayer",
  "abi": [
    {
      "inputs": [
        {
          "internalType": "uint256",
          "name": "_blockNumber",
          "type": "uint256"
        },
        {
          "internalType": "contract IBusd",
          "name": "_busd",
          "type": "address"
        },
        {
          "internalType": "string",
          "name": "_baseURI",
          "type": "string"
        },
        {
          "internalType": "string",
          "name": "_cID",
          "type": "string"
        },
        {
          "internalType": "address",
          "name": "_ownerAddr",
          "type": "address"
        }
      ],
      "stateMutability": "nonpayable",
      "type": "constructor"
    },
    {
      "anonymous": false,
      "inputs": [
        {
          "indexed": true,
          "internalType": "address",
          "name": "owner",
          "type": "address"
        },
        {
          "indexed": true,
          "internalType": "address",
          "name": "approved",
          "type": "address"
        },
        {
          "indexed": true,
          "internalType": "uint256",
          "name": "tokenId",
          "type": "uint256"
        }
      ],
      "name": "Approval",
      "type": "event"
    },
    {
      "anonymous": false,
      "inputs": [
        {
          "indexed": true,
          "internalType": "address",
          "name": "owner",
          "type": "address"
        },
        {
          "indexed": true,
          "internalType": "address",
          "name": "operator",
          "type": "address"
        },
        {
          "indexed": false,
          "internalType": "bool",
          "name": "approved",
          "type": "bool"
        }
      ],
      "name": "ApprovalForAll",
      "type": "event"
    },
    {
      "anonymous": false,
      "inputs": [
        {
          "indexed": true,
          "internalType": "uint256",
          "name": "itemId",
          "type": "uint256"
        },
        {
          "indexed": false,
          "internalType": "string",
          "name": "metaHash",
          "type": "string"
        }
      ],
      "name": "BuyBlindBox",
      "type": "event"
    },
    {
      "anonymous": false,
      "inputs": [
        {
          "indexed": true,
          "internalType": "uint256",
          "name": "tokenId",
          "type": "uint256"
        }
      ],
      "name": "FusionSuccess",
      "type": "event"
    },
    {
      "anonymous": false,
      "inputs": [
        {
          "indexed": true,
          "internalType": "address",
          "name": "previousOwner",
          "type": "address"
        },
        {
          "indexed": true,
          "internalType": "address",
          "name": "newOwner",
          "type": "address"
        }
      ],
      "name": "OwnershipTransferred",
      "type": "event"
    },
    {
      "anonymous": false,
      "inputs": [
        {
          "indexed": true,
          "internalType": "bytes32",
          "name": "role",
          "type": "bytes32"
        },
        {
          "indexed": true,
          "internalType": "bytes32",
          "name": "previousAdminRole",
          "type": "bytes32"
        },
        {
          "indexed": true,
          "internalType": "bytes32",
          "name": "newAdminRole",
          "type": "bytes32"
        }
      ],
      "name": "RoleAdminChanged",
      "type": "event"
    },
    {
      "anonymous": false,
      "inputs": [
        {
          "indexed": true,
          "internalType": "bytes32",
          "name": "role",
          "type": "bytes32"
        },
        {
          "indexed": true,
          "internalType": "address",
          "name": "account",
          "type": "address"
        },
        {
          "indexed": true,
          "internalType": "address",
          "name": "sender",
          "type": "address"
        }
      ],
      "name": "RoleGranted",
      "type": "event"
    },
    {
      "anonymous": false,
      "inputs": [
        {
          "indexed": true,
          "internalType": "bytes32",
          "name": "role",
          "type": "bytes32"
        },
        {
          "indexed": true,
          "internalType": "address",
          "name": "account",
          "type": "address"
        },
        {
          "indexed": true,
          "internalType": "address",
          "name": "sender",
          "type": "address"
        }
      ],
      "name": "RoleRevoked",
      "type": "event"
    },
    {
      "anonymous": false,
      "inputs": [
        {
          "indexed": true,
          "internalType": "address",
          "name": "from",
          "type": "address"
        },
        {
          "indexed": true,
          "internalType": "address",
          "name": "to",
          "type": "address"
        },
        {
          "indexed": true,
          "internalType": "uint256",
          "name": "tokenId",
          "type": "uint256"
        }
      ],
      "name": "Transfer",
      "type": "event"
    },
    {
      "inputs": [],
      "name": "DEFAULT_ADMIN_ROLE",
      "outputs": [
        {
          "internalType": "bytes32",
          "name": "",
          "type": "bytes32"
        }
      ],
      "stateMutability": "view",
      "type": "function"
    },
    {
      "inputs": [],
      "name": "UPDATE_ROLE",
      "outputs": [
        {
          "internalType": "bytes32",
          "name": "",
          "type": "bytes32"
        }
      ],
      "stateMutability": "view",
      "type": "function"
    },
    {
      "inputs": [
        {
          "internalType": "address",
          "name": "to",
          "type": "address"
        },
        {
          "internalType": "uint256",
          "name": "tokenId",
          "type": "uint256"
        }
      ],
      "name": "approve",
      "outputs": [],
      "stateMutability": "nonpayable",
      "type": "function"
    },
    {
      "inputs": [
        {
          "internalType": "address",
          "name": "owner",
          "type": "address"
        }
      ],
      "name": "balanceOf",
      "outputs": [
        {
          "internalType": "uint256",
          "name": "",
          "type": "uint256"
        }
      ],
      "stateMutability": "view",
      "type": "function"
    },
    {
      "inputs": [],
      "name": "baseURI",
      "outputs": [
        {
          "internalType": "string",
          "name": "",
          "type": "string"
        }
      ],
      "stateMutability": "view",
      "type": "function"
    },
    {
      "inputs": [],
      "name": "blockNumber",
      "outputs": [
        {
          "internalType": "uint256",
          "name": "",
          "type": "uint256"
        }
      ],
      "stateMutability": "view",
      "type": "function"
    },
    {
      "inputs": [],
      "name": "cID",
      "outputs": [
        {
          "internalType": "string",
          "name": "",
          "type": "string"
        }
      ],
      "stateMutability": "view",
      "type": "function"
    },
    {
      "inputs": [
        {
          "internalType": "uint256",
          "name": "tokenId",
          "type": "uint256"
        }
      ],
      "name": "getApproved",
      "outputs": [
        {
          "internalType": "address",
          "name": "",
          "type": "address"
        }
      ],
      "stateMutability": "view",
      "type": "function"
    },
    {
      "inputs": [
        {
          "internalType": "bytes32",
          "name": "role",
          "type": "bytes32"
        }
      ],
      "name": "getRoleAdmin",
      "outputs": [
        {
          "internalType": "bytes32",
          "name": "",
          "type": "bytes32"
        }
      ],
      "stateMutability": "view",
      "type": "function"
    },
    {
      "inputs": [
        {
          "internalType": "bytes32",
          "name": "role",
          "type": "bytes32"
        },
        {
          "internalType": "address",
          "name": "account",
          "type": "address"
        }
      ],
      "name": "grantRole",
      "outputs": [],
      "stateMutability": "nonpayable",
      "type": "function"
    },
    {
      "inputs": [
        {
          "internalType": "bytes32",
          "name": "role",
          "type": "bytes32"
        },
        {
          "internalType": "address",
          "name": "account",
          "type": "address"
        }
      ],
      "name": "hasRole",
      "outputs": [
        {
          "internalType": "bool",
          "name": "",
          "type": "bool"
        }
      ],
      "stateMutability": "view",
      "type": "function"
    },
    {
      "inputs": [
        {
          "internalType": "address",
          "name": "owner",
          "type": "address"
        },
        {
          "internalType": "address",
          "name": "operator",
          "type": "address"
        }
      ],
      "name": "isApprovedForAll",
      "outputs": [
        {
          "internalType": "bool",
          "name": "",
          "type": "bool"
        }
      ],
      "stateMutability": "view",
      "type": "function"
    },
    {
      "inputs": [
        {
          "internalType": "uint256",
          "name": "",
          "type": "uint256"
        }
      ],
      "name": "isBurned",
      "outputs": [
        {
          "internalType": "bool",
          "name": "",
          "type": "bool"
        }
      ],
      "stateMutability": "view",
      "type": "function"
    },
    {
      "inputs": [],
      "name": "name",
      "outputs": [
        {
          "internalType": "string",
          "name": "",
          "type": "string"
        }
      ],
      "stateMutability": "view",
      "type": "function"
    },
    {
      "inputs": [
        {
          "internalType": "uint256",
          "name": "",
          "type": "uint256"
        }
      ],
      "name": "nfps",
      "outputs": [
        {
          "internalType": "uint256",
          "name": "gen",
          "type": "uint256"
        },
        {
          "internalType": "uint256",
          "name": "level",
          "type": "uint256"
        },
        {
          "internalType": "uint256",
          "name": "skillPoint",
          "type": "uint256"
        },
        {
          "internalType": "string",
          "name": "position",
          "type": "string"
        },
        {
          "internalType": "string",
          "name": "rarity",
          "type": "string"
        },
        {
          "internalType": "string",
          "name": "class",
          "type": "string"
        }
      ],
      "stateMutability": "view",
      "type": "function"
    },
    {
      "inputs": [],
      "name": "owner",
      "outputs": [
        {
          "internalType": "address",
          "name": "",
          "type": "address"
        }
      ],
      "stateMutability": "view",
      "type": "function"
    },
    {
      "inputs": [
        {
          "internalType": "uint256",
          "name": "tokenId",
          "type": "uint256"
        }
      ],
      "name": "ownerOf",
      "outputs": [
        {
          "internalType": "address",
          "name": "",
          "type": "address"
        }
      ],
      "stateMutability": "view",
      "type": "function"
    },
    {
      "inputs": [],
      "name": "price",
      "outputs": [
        {
          "internalType": "uint256",
          "name": "",
          "type": "uint256"
        }
      ],
      "stateMutability": "view",
      "type": "function"
    },
    {
      "inputs": [],
      "name": "renounceOwnership",
      "outputs": [],
      "stateMutability": "nonpayable",
      "type": "function"
    },
    {
      "inputs": [
        {
          "internalType": "bytes32",
          "name": "role",
          "type": "bytes32"
        },
        {
          "internalType": "address",
          "name": "account",
          "type": "address"
        }
      ],
      "name": "renounceRole",
      "outputs": [],
      "stateMutability": "nonpayable",
      "type": "function"
    },
    {
      "inputs": [
        {
          "internalType": "bytes32",
          "name": "role",
          "type": "bytes32"
        },
        {
          "internalType": "address",
          "name": "account",
          "type": "address"
        }
      ],
      "name": "revokeRole",
      "outputs": [],
      "stateMutability": "nonpayable",
      "type": "function"
    },
    {
      "inputs": [
        {
          "internalType": "address",
          "name": "from",
          "type": "address"
        },
        {
          "internalType": "address",
          "name": "to",
          "type": "address"
        },
        {
          "internalType": "uint256",
          "name": "tokenId",
          "type": "uint256"
        }
      ],
      "name": "safeTransferFrom",
      "outputs": [],
      "stateMutability": "nonpayable",
      "type": "function"
    },
    {
      "inputs": [
        {
          "internalType": "address",
          "name": "from",
          "type": "address"
        },
        {
          "internalType": "address",
          "name": "to",
          "type": "address"
        },
        {
          "internalType": "uint256",
          "name": "tokenId",
          "type": "uint256"
        },
        {
          "internalType": "bytes",
          "name": "_data",
          "type": "bytes"
        }
      ],
      "name": "safeTransferFrom",
      "outputs": [],
      "stateMutability": "nonpayable",
      "type": "function"
    },
    {
      "inputs": [
        {
          "internalType": "address",
          "name": "operator",
          "type": "address"
        },
        {
          "internalType": "bool",
          "name": "approved",
          "type": "bool"
        }
      ],
      "name": "setApprovalForAll",
      "outputs": [],
      "stateMutability": "nonpayable",
      "type": "function"
    },
    {
      "inputs": [],
      "name": "symbol",
      "outputs": [
        {
          "internalType": "string",
          "name": "",
          "type": "string"
        }
      ],
      "stateMutability": "view",
      "type": "function"
    },
    {
      "inputs": [
        {
          "internalType": "uint256",
          "name": "tokenId",
          "type": "uint256"
        }
      ],
      "name": "tokenURI",
      "outputs": [
        {
          "internalType": "string",
          "name": "",
          "type": "string"
        }
      ],
      "stateMutability": "view",
      "type": "function"
    },
    {
      "inputs": [
        {
          "internalType": "address",
          "name": "from",
          "type": "address"
        },
        {
          "internalType": "address",
          "name": "to",
          "type": "address"
        },
        {
          "internalType": "uint256",
          "name": "tokenId",
          "type": "uint256"
        }
      ],
      "name": "transferFrom",
      "outputs": [],
      "stateMutability": "nonpayable",
      "type": "function"
    },
    {
      "inputs": [
        {
          "internalType": "address",
          "name": "newOwner",
          "type": "address"
        }
      ],
      "name": "transferOwnership",
      "outputs": [],
      "stateMutability": "nonpayable",
      "type": "function"
    },
    {
      "inputs": [],
      "name": "buyNFPBox",
      "outputs": [],
      "stateMutability": "nonpayable",
      "type": "function"
    },
    {
      "inputs": [
        {
          "internalType": "address",
          "name": "_owner",
          "type": "address"
        },
        {
          "internalType": "uint256",
          "name": "_tokenId1",
          "type": "uint256"
        },
        {
          "internalType": "uint256",
          "name": "_tokenId2",
          "type": "uint256"
        },
        {
          "internalType": "string",
          "name": "_position",
          "type": "string"
        },
        {
          "internalType": "string",
          "name": "_rarity",
          "type": "string"
        },
        {
          "internalType": "string",
          "name": "_class",
          "type": "string"
        }
      ],
      "name": "mintFusionedNFP",
      "outputs": [],
      "stateMutability": "nonpayable",
      "type": "function"
    },
    {
      "inputs": [
        {
          "internalType": "uint256",
          "name": "_tokenId",
          "type": "uint256"
        },
        {
          "internalType": "uint256",
          "name": "_gen",
          "type": "uint256"
        },
        {
          "internalType": "uint256",
          "name": "_level",
          "type": "uint256"
        },
        {
          "internalType": "uint256",
          "name": "_skillPoint",
          "type": "uint256"
        },
        {
          "internalType": "string",
          "name": "_position",
          "type": "string"
        },
        {
          "internalType": "string",
          "name": "_rarity",
          "type": "string"
        },
        {
          "internalType": "string",
          "name": "_class",
          "type": "string"
        }
      ],
      "name": "updateTraitsNFP",
      "outputs": [],
      "stateMutability": "nonpayable",
      "type": "function"
    },
    {
      "inputs": [
        {
          "internalType": "address",
          "name": "_ownerAddr",
          "type": "address"
        }
      ],
      "name": "setOwnerAddr",
      "outputs": [],
      "stateMutability": "nonpayable",
      "type": "function"
    },
    {
      "inputs": [],
      "name": "getOwnerAddr",
      "outputs": [
        {
          "internalType": "address",
          "name": "",
          "type": "address"
        }
      ],
      "stateMutability": "view",
      "type": "function"
    },
    {
      "inputs": [
        {
          "internalType": "uint256",
          "name": "_price",
          "type": "uint256"
        }
      ],
      "name": "setPrice",
      "outputs": [],
      "stateMutability": "nonpayable",
      "type": "function"
    },
    {
      "inputs": [
        {
          "internalType": "uint256",
          "name": "_blockNumber",
          "type": "uint256"
        }
      ],
      "name": "setBlockNumber",
      "outputs": [],
      "stateMutability": "nonpayable",
      "type": "function"
    },
    {
      "inputs": [
        {
          "internalType": "string",
          "name": "_baseURI",
          "type": "string"
        }
      ],
      "name": "setBaseURI",
      "outputs": [],
      "stateMutability": "nonpayable",
      "type": "function"
    },
    {
      "inputs": [
        {
          "internalType": "string",
          "name": "_cID",
          "type": "string"
        }
      ],
      "name": "setCID",
      "outputs": [],
      "stateMutability": "nonpayable",
      "type": "function"
    },
    {
      "inputs": [
        {
          "internalType": "address",
          "name": "_from",
          "type": "address"
        },
        {
          "internalType": "address",
          "name": "_to",
          "type": "address"
        },
        {
          "internalType": "uint256",
          "name": "_tokenId",
          "type": "uint256"
        }
      ],
      "name": "transfer",
      "outputs": [],
      "stateMutability": "nonpayable",
      "type": "function"
    },
    {
      "inputs": [],
      "name": "getBlockNumber",
      "outputs": [
        {
          "internalType": "uint256",
          "name": "",
          "type": "uint256"
        }
      ],
      "stateMutability": "view",
      "type": "function"
    },
    {
      "inputs": [],
      "name": "totalSupply",
      "outputs": [
        {
          "internalType": "uint256",
          "name": "",
          "type": "uint256"
        }
      ],
      "stateMutability": "view",
      "type": "function"
    },
    {
      "inputs": [
        {
          "internalType": "uint256",
          "name": "tokenId",
          "type": "uint256"
        }
      ],
      "name": "getTokenFullURI",
      "outputs": [
        {
          "internalType": "string",
          "name": "",
          "type": "string"
        }
      ],
      "stateMutability": "view",
      "type": "function"
    },
    {
      "inputs": [],
      "name": "getBaseURI",
      "outputs": [
        {
          "internalType": "string",
          "name": "",
          "type": "string"
        }
      ],
      "stateMutability": "view",
      "type": "function"
    },
    {
      "inputs": [],
      "name": "fetchMyNfts",
      "outputs": [
        {
          "internalType": "uint256[]",
          "name": "",
          "type": "uint256[]"
        }
      ],
      "stateMutability": "view",
      "type": "function"
    },
    {
      "inputs": [
        {
          "internalType": "address",
          "name": "_updateRoleAddr",
          "type": "address"
        }
      ],
      "name": "setUpdateRoleAddr",
      "outputs": [],
      "stateMutability": "nonpayable",
      "type": "function"
    },
    {
      "inputs": [
        {
          "internalType": "uint256",
          "name": "_tokenId",
          "type": "uint256"
        }
      ],
      "name": "getSkillPoint",
      "outputs": [
        {
          "internalType": "uint256",
          "name": "",
          "type": "uint256"
        }
      ],
      "stateMutability": "view",
      "type": "function"
    },
    {
      "inputs": [
        {
          "internalType": "uint256",
          "name": "_tokenId",
          "type": "uint256"
        },
        {
          "internalType": "uint256",
          "name": "_skillPoint",
          "type": "uint256"
        }
      ],
      "name": "setSkillPoint",
      "outputs": [],
      "stateMutability": "nonpayable",
      "type": "function"
    },
    {
      "inputs": [
        {
          "internalType": "uint256",
          "name": "_tokenId",
          "type": "uint256"
        }
      ],
      "name": "getGeneration",
      "outputs": [
        {
          "internalType": "uint256",
          "name": "",
          "type": "uint256"
        }
      ],
      "stateMutability": "view",
      "type": "function"
    },
    {
      "inputs": [
        {
          "internalType": "uint256",
          "name": "_tokenId",
          "type": "uint256"
        },
        {
          "internalType": "uint256",
          "name": "_gen",
          "type": "uint256"
        }
      ],
      "name": "setGeneration",
      "outputs": [],
      "stateMutability": "nonpayable",
      "type": "function"
    },
    {
      "inputs": [
        {
          "internalType": "uint256",
          "name": "_tokenId",
          "type": "uint256"
        }
      ],
      "name": "getLevel",
      "outputs": [
        {
          "internalType": "uint256",
          "name": "",
          "type": "uint256"
        }
      ],
      "stateMutability": "view",
      "type": "function"
    },
    {
      "inputs": [
        {
          "internalType": "uint256",
          "name": "_tokenId",
          "type": "uint256"
        },
        {
          "internalType": "uint256",
          "name": "_level",
          "type": "uint256"
        }
      ],
      "name": "setLevel",
      "outputs": [],
      "stateMutability": "nonpayable",
      "type": "function"
    },
    {
      "inputs": [
        {
          "internalType": "uint256",
          "name": "_tokenId",
          "type": "uint256"
        }
      ],
      "name": "getPosition",
      "outputs": [
        {
          "internalType": "string",
          "name": "",
          "type": "string"
        }
      ],
      "stateMutability": "view",
      "type": "function"
    },
    {
      "inputs": [
        {
          "internalType": "uint256",
          "name": "_tokenId",
          "type": "uint256"
        },
        {
          "internalType": "string",
          "name": "_position",
          "type": "string"
        }
      ],
      "name": "setPosition",
      "outputs": [],
      "stateMutability": "nonpayable",
      "type": "function"
    },
    {
      "inputs": [
        {
          "internalType": "uint256",
          "name": "_tokenId",
          "type": "uint256"
        }
      ],
      "name": "getRarity",
      "outputs": [
        {
          "internalType": "string",
          "name": "",
          "type": "string"
        }
      ],
      "stateMutability": "view",
      "type": "function"
    },
    {
      "inputs": [
        {
          "internalType": "uint256",
          "name": "_tokenId",
          "type": "uint256"
        },
        {
          "internalType": "string",
          "name": "_rarity",
          "type": "string"
        }
      ],
      "name": "setRarity",
      "outputs": [],
      "stateMutability": "nonpayable",
      "type": "function"
    },
    {
      "inputs": [
        {
          "internalType": "uint256",
          "name": "_tokenId",
          "type": "uint256"
        }
      ],
      "name": "getClass",
      "outputs": [
        {
          "internalType": "string",
          "name": "",
          "type": "string"
        }
      ],
      "stateMutability": "view",
      "type": "function"
    },
    {
      "inputs": [
        {
          "internalType": "uint256",
          "name": "_tokenId",
          "type": "uint256"
        },
        {
          "internalType": "string",
          "name": "_class",
          "type": "string"
        }
      ],
      "name": "setClass",
      "outputs": [],
      "stateMutability": "nonpayable",
      "type": "function"
    },
    {
      "inputs": [
        {
          "internalType": "uint256",
          "name": "tokenId",
          "type": "uint256"
        }
      ],
      "name": "burn",
      "outputs": [],
      "stateMutability": "nonpayable",
      "type": "function"
    },
    {
      "inputs": [
        {
          "internalType": "bytes4",
          "name": "interfaceId",
          "type": "bytes4"
        }
      ],
      "name": "supportsInterface",
      "outputs": [
        {
          "internalType": "bool",
          "name": "",
          "type": "bool"
        }
      ],
      "stateMutability": "view",
      "type": "function"
    }
  ],
  "bytecode": "0x60806040523480156200001157600080fd5b506040516200447738038062004477833981016040819052620000349162000325565b6040518060400160405280601381526020017f4e6f6e2d46756e6769626c6520506c61796572000000000000000000000000008152506040518060400160405280600381526020017f4e46500000000000000000000000000000000000000000000000000000000000815250620000cc620000bd62000176640100000000026401000000009004565b6401000000006200017a810204565b8151620000e1906002906020850190620001cc565b508051620000f7906003906020840190620001cc565b505050600b859055600f8054600160a060020a031916600160a060020a03861617905582516200012f90600d906020860190620001cc565b506064600c5581516200014a90600e906020850190620001cc565b50600a8054600160a060020a031916600160a060020a0392909216919091179055506200046092505050565b3390565b60018054600160a060020a03838116600160a060020a0319831681179093556040519116919082907f8be0079c531659141344cd1fd0a4f28419497f9722a3daafe3b4186f6b6457e090600090a35050565b828054620001da90620003c2565b90600052602060002090601f016020900481019282620001fe576000855562000249565b82601f106200021957805160ff191683800117855562000249565b8280016001018555821562000249579182015b82811115620002495782518255916020019190600101906200022c565b50620002579291506200025b565b5090565b5b808211156200025757600081556001016200025c565b600082601f83011262000283578081fd5b81516001604060020a0380821115620002a057620002a062000418565b604051601f8301601f19908116603f01168101908282118183101715620002cb57620002cb62000418565b81604052838152602092508683858801011115620002e7578485fd5b8491505b838210156200030a5785820183015181830184015290820190620002eb565b838211156200031b57848385830101525b9695505050505050565b600080600080600060a086880312156200033d578081fd5b855194506020860151620003518162000447565b60408701519094506001604060020a03808211156200036e578283fd5b6200037c89838a0162000272565b9450606088015191508082111562000392578283fd5b50620003a18882890162000272565b9250506080860151620003b48162000447565b809150509295509295909350565b600281046001821680620003d757607f821691505b6020821081141562000412577f4e487b7100000000000000000000000000000000000000000000000000000000600052602260045260246000fd5b50919050565b7f4e487b7100000000000000000000000000000000000000000000000000000000600052604160045260246000fd5b600160a060020a03811681146200045d57600080fd5b50565b61400780620004706000396000f3fe608060405234801561001057600080fd5b50600436106103aa576000357c010000000000000000000000000000000000000000000000000000000090048063714c5398116101fb578063a8c3c8501161012c578063db3843c6116100ca578063e670472311610099578063e6704723146107d8578063e985e9c5146107e0578063eb02c3011461081c578063f2fde38b1461082f57600080fd5b8063db3843c61461076c578063db44fe071461078f578063e074278d146107b2578063e36db2fb146107c557600080fd5b8063beabacc811610106578063beabacc814610720578063c3d6ee7f14610733578063c87b56dd14610746578063d547741f1461075957600080fd5b8063a8c3c850146106e7578063b5c82bd1146106fa578063b88d4fde1461070d57600080fd5b806391d14854116101995780639c96b2f7116101735780639c96b2f7146106bb578063a035b1fe146106c3578063a217fddf146106cc578063a22cb465146106d457600080fd5b806391d148541461069857806395d89b41146106ab57806399a2f2d7146106b357600080fd5b806386481d40116101d557806386481d401461063e5780638a26d4ec146106615780638da5cb5b1461067457806391b7f5ed1461068557600080fd5b8063714c53981461061b578063715018a61461062357806380e719c61461062b57600080fd5b8063363e9fb1116102e0578063512d62df1161027e5780636352211e1161024d5780636352211e146105da5780636c0360eb146105ed57806370a08231146105f557806370a93b361461060857600080fd5b8063512d62df1461058b57806355f804b31461059e57806356e3df97146105b157806357e871e7146105d157600080fd5b806342842e0e116102ba57806342842e0e1461054c57806342966c681461055f57806342cbb15c14610572578063487586971461057857600080fd5b8063363e9fb11461051357806336568abe1461052657806336e3c0901461053957600080fd5b8063128ae7121161034d578063248a9ca311610327578063248a9ca3146104a557806328091904146104c85780632de4f3db146104db5780632f2ff15d1461050057600080fd5b8063128ae7121461047557806318160ddd1461048a57806323b872dd1461049257600080fd5b806306fdde031161038957806306fdde031461040f578063081812fc14610424578063095ea7b31461044f5780631280c0471461046257600080fd5b8062497846146103af57806301ffc9a7146103d757806304d5ef3f146103fa575b600080fd5b6103c4600080516020613fb283398151915281565b6040519081526020015b60405180910390f35b6103ea6103e53660046138c9565b610842565b60405190151581526020016103ce565b61040d610408366004613991565b610853565b005b61041761087f565b6040516103ce9190613cd6565b61043761043236600461388f565b610911565b604051600160a060020a0390911681526020016103ce565b61040d61045d3660046137a3565b6109b2565b61040d6104703660046137cc565b610aea565b61047d610cf4565b6040516103ce9190613c92565b6103c4610fe3565b61040d6104a03660046136b9565b610ff3565b6103c46104b336600461388f565b60009081526020819052604090206001015490565b61040d6104d63660046139b2565b611027565b6104ee6104e936600461388f565b6110ea565b6040516103ce96959493929190613dd8565b61040d61050e3660046138a7565b6112b9565b61040d61052136600461366d565b6112df565b61040d6105343660046138a7565b61138f565b61040d61054736600461394c565b61141e565b61040d61055a3660046136b9565b611464565b61040d61056d36600461388f565b61147f565b436103c4565b61041761058636600461388f565b6114bd565b61041761059936600461388f565b611562565b61040d6105ac366004613901565b611582565b6103c46105bf36600461388f565b60009081526010602052604090205490565b6103c4600b5481565b6104376105e836600461388f565b6115c2565b610417611650565b6103c461060336600461366d565b6116de565b61040d610616366004613991565b61177b565b6104176117aa565b61040d611840565b61041761063936600461388f565b611879565b6103c461064c36600461388f565b60009081526010602052604090206001015490565b61040d61066f36600461394c565b61188d565b600154600160a060020a0316610437565b61040d61069336600461388f565b6118cc565b6103ea6106a63660046138a7565b6118fe565b610417611927565b610417611936565b61040d611943565b6103c4600c5481565b6103c4600081565b61040d6106e236600461376d565b611ff9565b61040d6106f536600461388f565b612004565b61040d61070836600461394c565b612036565b61040d61071b3660046136f4565b612075565b61040d61072e3660046136b9565b6120b0565b61040d610741366004613901565b6120e8565b61041761075436600461388f565b612128565b61040d6107673660046138a7565b6122ae565b6103c461077a36600461388f565b60009081526010602052604090206002015490565b6103ea61079d36600461388f565b60116020526000908152604090205460ff1681565b61040d6107c036600461366d565b6122d4565b61040d6107d3366004613991565b6123af565b6104376123de565b6103ea6107ee366004613687565b600160a060020a03918216600090815260076020908152604080832093909416825291909152205460ff1690565b61041761082a36600461388f565b61241e565b61040d61083d36600461366d565b61243e565b600061084d826124f3565b92915050565b600080516020613fb283398151915261086c8133612565565b5060009182526010602052604090912055565b60606002805461088e90613ed5565b80601f01602080910402602001604051908101604052809291908181526020018280546108ba90613ed5565b80156109075780601f106108dc57610100808354040283529160200191610907565b820191906000526020600020905b8154815290600101906020018083116108ea57829003601f168201915b5050505050905090565b600061091c826125cc565b6109965760405160e560020a62461bcd02815260206004820152602c60248201527f4552433732313a20617070726f76656420717565727920666f72206e6f6e657860448201527f697374656e7420746f6b656e000000000000000000000000000000000000000060648201526084015b60405180910390fd5b50600090815260066020526040902054600160a060020a031690565b60006109bd826115c2565b905080600160a060020a031683600160a060020a03161415610a4a5760405160e560020a62461bcd02815260206004820152602160248201527f4552433732313a20617070726f76616c20746f2063757272656e74206f776e6560448201527f7200000000000000000000000000000000000000000000000000000000000000606482015260840161098d565b33600160a060020a0382161480610a665750610a6681336107ee565b610adb5760405160e560020a62461bcd02815260206004820152603860248201527f4552433732313a20617070726f76652063616c6c6572206973206e6f74206f7760448201527f6e6572206e6f7220617070726f76656420666f7220616c6c0000000000000000606482015260840161098d565b610ae583836125e9565b505050565b600080516020613fb2833981519152610b038133612565565b6000610b0f600a612664565b9050600060058211610b2957610b2487612128565b610b32565b610b3288612128565b9050610b42600980546001019055565b6000610b4d60095490565b90506000601060008b81526020019081526020016000206001015490506000601060008b81526020019081526020016000206001015490506000601060008d81526020019081526020016000206002015490506000601060008d81526020019081526020016000206002015490506000601060008f8152602001908152602001600020600001546001610be09190613e30565b90506040518060c00160405280828152602001858711610c005785610c02565b865b8152602001838511610c145783610c16565b845b815260208082018f905260408083018f905260609283018e905260008a81526010835281902084518155848301516001820155908401516002820155918301518051610c6892600385019201906134ed565b5060808201518051610c849160048401916020909101906134ed565b5060a08201518051610ca09160058401916020909101906134ed565b50905050610cae8f876126ab565b610cb886886127f1565b60405186907f01db8c7c6ad92be8b4130331ba7a596589ebf84d276b370ce2ff1d38489c2ffb90600090a2505050505050505050505050505050565b6060600080610d0260095490565b90506000805b82811015610d575760116000610d1f836001613e30565b815260208101919091526040016000205460ff16610d455783610d4181613f13565b9450505b80610d4f81613f13565b915050610d08565b5060008367ffffffffffffffff811115610d845760e060020a634e487b7102600052604160045260246000fd5b604051908082528060200260200182016040528015610dad578160200160208202803683370190505b50905060005b83811015610e3b5760116000610dca836001613e30565b815260208101919091526040016000205460ff16610e2957610ded816001613e30565b828481518110610e105760e060020a634e487b7102600052603260045260246000fd5b602090810291909101015282610e2581613f13565b9350505b80610e3381613f13565b915050610db3565b50600093506000915060005b8151811015610ebc5733600160a060020a0316610e8d838381518110610e805760e060020a634e487b7102600052603260045260246000fd5b60200260200101516115c2565b600160a060020a03161415610eaa5784610ea681613f13565b9550505b80610eb481613f13565b915050610e47565b5060008467ffffffffffffffff811115610ee95760e060020a634e487b7102600052604160045260246000fd5b604051908082528060200260200182016040528015610f12578160200160208202803683370190505b50905060005b8251811015610fd95733600160a060020a0316610f51848381518110610e805760e060020a634e487b7102600052603260045260246000fd5b600160a060020a03161415610fc757828181518110610f835760e060020a634e487b7102600052603260045260246000fd5b6020026020010151828581518110610fae5760e060020a634e487b7102600052603260045260246000fd5b602090810291909101015283610fc381613f13565b9450505b80610fd181613f13565b915050610f18565b5095945050505050565b6000610fee60095490565b905090565b610ffd338261288e565b61101c5760405160e560020a62461bcd02815260040161098d90613d7b565b610ae5838383612988565b600080516020613fb28339815191526110408133612565565b6040805160c0810182528881526020808201898152828401898152606084018981526080850189905260a0850188905260008e815260108552959095208451815591516001830155516002820155925180519293926110a592600385019201906134ed565b50608082015180516110c19160048401916020909101906134ed565b5060a082015180516110dd9160058401916020909101906134ed565b5050505050505050505050565b60106020526000908152604090208054600182015460028301546003840180549394929391929161111a90613ed5565b80601f016020809104026020016040519081016040528092919081815260200182805461114690613ed5565b80156111935780601f1061116857610100808354040283529160200191611193565b820191906000526020600020905b81548152906001019060200180831161117657829003601f168201915b5050505050908060040180546111a890613ed5565b80601f01602080910402602001604051908101604052809291908181526020018280546111d490613ed5565b80156112215780601f106111f657610100808354040283529160200191611221565b820191906000526020600020905b81548152906001019060200180831161120457829003601f168201915b50505050509080600501805461123690613ed5565b80601f016020809104026020016040519081016040528092919081815260200182805461126290613ed5565b80156112af5780601f10611284576101008083540402835291602001916112af565b820191906000526020600020905b81548152906001019060200180831161129257829003601f168201915b5050505050905086565b6000828152602081905260409020600101546112d58133612565565b610ae58383612b68565b600154600160a060020a0316331461130c5760405160e560020a62461bcd02815260040161098d90613d46565b611324600080516020613fb2833981519152826118fe565b156113745760405160e560020a62461bcd02815260206004820152601960248201527f416c726561647920686176652075706461746520726f6c652100000000000000604482015260640161098d565b61138c600080516020613fb283398151915282612bec565b50565b600160a060020a03811633146114105760405160e560020a62461bcd02815260206004820152602f60248201527f416363657373436f6e74726f6c3a2063616e206f6e6c792072656e6f756e636560448201527f20726f6c657320666f722073656c660000000000000000000000000000000000606482015260840161098d565b61141a8282612bf6565b5050565b600080516020613fb28339815191526114378133612565565b60008381526010602090815260409091208351909161145d9160038401918601906134ed565b5050505050565b610ae583838360405180602001604052806000815250612075565b600080516020613fb28339815191526114988133612565565b6114a182612c5b565b506000908152601160205260409020805460ff19166001179055565b60008181526010602052604090206004018054606091906114dd90613ed5565b80601f016020809104026020016040519081016040528092919081815260200182805461150990613ed5565b80156115565780601f1061152b57610100808354040283529160200191611556565b820191906000526020600020905b81548152906001019060200180831161153957829003601f168201915b50505050509050919050565b60008181526010602052604090206005018054606091906114dd90613ed5565b600154600160a060020a031633146115af5760405160e560020a62461bcd02815260040161098d90613d46565b805161141a90600d9060208401906134ed565b600081815260046020526040812054600160a060020a03168061084d5760405160e560020a62461bcd02815260206004820152602960248201527f4552433732313a206f776e657220717565727920666f72206e6f6e657869737460448201527f656e7420746f6b656e0000000000000000000000000000000000000000000000606482015260840161098d565b600d805461165d90613ed5565b80601f016020809104026020016040519081016040528092919081815260200182805461168990613ed5565b80156116d65780601f106116ab576101008083540402835291602001916116d6565b820191906000526020600020905b8154815290600101906020018083116116b957829003601f168201915b505050505081565b6000600160a060020a03821661175f5760405160e560020a62461bcd02815260206004820152602a60248201527f4552433732313a2062616c616e636520717565727920666f7220746865207a6560448201527f726f206164647265737300000000000000000000000000000000000000000000606482015260840161098d565b50600160a060020a031660009081526005602052604090205490565b600080516020613fb28339815191526117948133612565565b5060009182526010602052604090912060010155565b60606000600d80546117bb90613ed5565b80601f01602080910402602001604051908101604052809291908181526020018280546117e790613ed5565b80156118345780601f1061180957610100808354040283529160200191611834565b820191906000526020600020905b81548152906001019060200180831161181757829003601f168201915b50939695505050505050565b600154600160a060020a0316331461186d5760405160e560020a62461bcd02815260040161098d90613d46565b6118776000612c9b565b565b6060600061188683612128565b9392505050565b600080516020613fb28339815191526118a68133612565565b60008381526010602090815260409091208351909161145d9160058401918601906134ed565b600154600160a060020a031633146118f95760405160e560020a62461bcd02815260040161098d90613d46565b600c55565b600091825260208281526040808420600160a060020a0393909316845291905290205460ff1690565b60606003805461088e90613ed5565b600e805461165d90613ed5565b336119b95760405160e560020a62461bcd02815260206004820152602260248201527f4d696e7420416464726573732063616e2774206265207a65726f20616464726560448201527f7373000000000000000000000000000000000000000000000000000000000000606482015260840161098d565b6203e8006119c660095490565b10611a165760405160e560020a62461bcd02815260206004820152601160248201527f416c6c204e4650732061726520736f6c64000000000000000000000000000000604482015260640161098d565b600c54611a2b90670de0b6b3a7640000613e5c565b600f546040517f70a08231000000000000000000000000000000000000000000000000000000008152336004820152600160a060020a03909116906370a082319060240160206040518083038186803b158015611a8757600080fd5b505afa158015611a9b573d6000803e3d6000fd5b505050506040513d601f19601f82011682018060405250810190611abf9190613934565b1015611b365760405160e560020a62461bcd02815260206004820152603360248201527f42616c616e6365206f6620476f6c20746f6b656e206973206e6f7420656e6f7560448201527f67687420746f2062757920426c696e64426f7800000000000000000000000000606482015260840161098d565b600f54600a54600c54600160a060020a03928316926323b872dd923392911690611b6890670de0b6b3a7640000613e5c565b6040517c010000000000000000000000000000000000000000000000000000000063ffffffff8616028152600160a060020a0393841660048201529290911660248301526044820152606401602060405180830381600087803b158015611bce57600080fd5b505af1158015611be2573d6000803e3d6000fd5b505050506040513d601f19601f82011682018060405250810190611c069190613873565b50611c15600980546001019055565b6000611c2060095490565b90506000600d600e611c3184612cfa565b604051602001611c4393929190613b53565b60405160208183030381529060405290506060806000611c64612710612664565b905061157c811115611cad576040518060400160405280600681526020017f436f6d6d6f6e00000000000000000000000000000000000000000000000000008152509250611dba565b6107d0811115611cf4576040518060400160405280600881526020017f556e636f6d6d6f6e0000000000000000000000000000000000000000000000008152509250611dba565b6101f4811115611d3b576040518060400160405280600481526020017f52617265000000000000000000000000000000000000000000000000000000008152509250611dba565b6064811115611d81576040518060400160405280600981526020017f4c6567656e6461727900000000000000000000000000000000000000000000008152509250611dba565b6040518060400160405280600881526020017f4d7974686963616c00000000000000000000000000000000000000000000000081525092505b611dc5612710612664565b9050611d4c811115611e0e576040518060400160405280600681526020017f476f616c696500000000000000000000000000000000000000000000000000008152509150611ed5565b611388811115611e55576040518060400160405280600881526020017f446566656e6465720000000000000000000000000000000000000000000000008152509150611ed5565b6109c4811115611e9c576040518060400160405280600a81526020017f4d69646669656c646572000000000000000000000000000000000000000000008152509150611ed5565b6040518060400160405280600781526020017f537472696b65720000000000000000000000000000000000000000000000000081525091505b6040805160c0810182526000808252602080830182815283850183815260608501888152608086018a905286518088018852600681527f526f6f6b696500000000000000000000000000000000000000000000000000008186015260a08701528b855260108452959093208451815590516001820155915160028301559251805192939192611f6a92600385019201906134ed565b5060808201518051611f869160048401916020909101906134ed565b5060a08201518051611fa29160058401916020909101906134ed565b50905050611fb033866126ab565b611fba85856127f1565b847f3ca34f54675bad9d785db929cb916abd42ddf71feb18d41797015aa66e3d8c3185604051611fea9190613cd6565b60405180910390a25050505050565b61141a338383612e55565b600154600160a060020a031633146120315760405160e560020a62461bcd02815260040161098d90613d46565b600b55565b600080516020613fb283398151915261204f8133612565565b60008381526010602090815260409091208351909161145d9160048401918601906134ed565b61207f338361288e565b61209e5760405160e560020a62461bcd02815260040161098d90613d7b565b6120aa84848484612f27565b50505050565b600154600160a060020a031633146120dd5760405160e560020a62461bcd02815260040161098d90613d46565b610ae5838383610ff3565b600154600160a060020a031633146121155760405160e560020a62461bcd02815260040161098d90613d46565b805161141a90600e9060208401906134ed565b6060612133826125cc565b6121a85760405160e560020a62461bcd02815260206004820152603160248201527f45524337323155524953746f726167653a2055524920717565727920666f722060448201527f6e6f6e6578697374656e7420746f6b656e000000000000000000000000000000606482015260840161098d565b600082815260086020526040812080546121c190613ed5565b80601f01602080910402602001604051908101604052809291908181526020018280546121ed90613ed5565b801561223a5780601f1061220f5761010080835404028352916020019161223a565b820191906000526020600020905b81548152906001019060200180831161221d57829003601f168201915b50505050509050600061225860408051602081019091526000815290565b905080516000141561226b575092915050565b81511561229d578082604051602001612285929190613b24565b60405160208183030381529060405292505050919050565b6122a684612f5d565b949350505050565b6000828152602081905260409020600101546122ca8133612565565b610ae58383612bf6565b600154600160a060020a031633146123015760405160e560020a62461bcd02815260040161098d90613d46565b600160a060020a0381166123805760405160e560020a62461bcd02815260206004820152602360248201527f4f776e657220416464726573732063616e2774206265207a65726f206164647260448201527f6573730000000000000000000000000000000000000000000000000000000000606482015260840161098d565b600a805473ffffffffffffffffffffffffffffffffffffffff1916600160a060020a0392909216919091179055565b600080516020613fb28339815191526123c88133612565565b5060009182526010602052604090912060020155565b600154600090600160a060020a0316331461240e5760405160e560020a62461bcd02815260040161098d90613d46565b50600a54600160a060020a031690565b60008181526010602052604090206003018054606091906114dd90613ed5565b600154600160a060020a0316331461246b5760405160e560020a62461bcd02815260040161098d90613d46565b600160a060020a0381166124ea5760405160e560020a62461bcd02815260206004820152602660248201527f4f776e61626c653a206e6577206f776e657220697320746865207a65726f206160448201527f6464726573730000000000000000000000000000000000000000000000000000606482015260840161098d565b61138c81612c9b565b6000600160e060020a031982167f80ac58cd0000000000000000000000000000000000000000000000000000000014806125565750600160e060020a031982167f5b5e139f00000000000000000000000000000000000000000000000000000000145b8061084d575061084d82613045565b61256f82826118fe565b61141a5761258781600160a060020a031660146130ac565b6125928360206130ac565b6040516020016125a3929190613bd5565b60408051601f198184030181529082905260e560020a62461bcd02825261098d91600401613cd6565b600090815260046020526040902054600160a060020a0316151590565b6000818152600660205260409020805473ffffffffffffffffffffffffffffffffffffffff1916600160a060020a038416908117909155819061262b826115c2565b600160a060020a03167f8c5be1e5ebec7d5bd14f71427d1e84f3dd0314c0f7b2291e5b200ac8c7c3b92560405160405180910390a45050565b6040805142602080830191909152336c010000000000000000000000000282840152825160348184030181526054909201909252805191012060009061084d908390613f2e565b600160a060020a0382166127045760405160e560020a62461bcd02815260206004820181905260248201527f4552433732313a206d696e7420746f20746865207a65726f2061646472657373604482015260640161098d565b61270d816125cc565b1561275d5760405160e560020a62461bcd02815260206004820152601c60248201527f4552433732313a20746f6b656e20616c7265616479206d696e74656400000000604482015260640161098d565b600160a060020a0382166000908152600560205260408120805460019290612786908490613e30565b9091555050600081815260046020526040808220805473ffffffffffffffffffffffffffffffffffffffff1916600160a060020a03861690811790915590518392907fddf252ad1be2c89b69c2b068fc378daa952ba7f163c4a11628f55a4df523b3ef908290a45050565b6127fa826125cc565b61286f5760405160e560020a62461bcd02815260206004820152602e60248201527f45524337323155524953746f726167653a2055524920736574206f66206e6f6e60448201527f6578697374656e7420746f6b656e000000000000000000000000000000000000606482015260840161098d565b60008281526008602090815260409091208251610ae5928401906134ed565b6000612899826125cc565b61290e5760405160e560020a62461bcd02815260206004820152602c60248201527f4552433732313a206f70657261746f7220717565727920666f72206e6f6e657860448201527f697374656e7420746f6b656e0000000000000000000000000000000000000000606482015260840161098d565b6000612919836115c2565b905080600160a060020a031684600160a060020a03161480612954575083600160a060020a031661294984610911565b600160a060020a0316145b806122a65750600160a060020a0380821660009081526007602090815260408083209388168352929052205460ff166122a6565b82600160a060020a031661299b826115c2565b600160a060020a031614612a1a5760405160e560020a62461bcd02815260206004820152602560248201527f4552433732313a207472616e736665722066726f6d20696e636f72726563742060448201527f6f776e6572000000000000000000000000000000000000000000000000000000606482015260840161098d565b600160a060020a038216612a985760405160e560020a62461bcd028152602060048201526024808201527f4552433732313a207472616e7366657220746f20746865207a65726f2061646460448201527f7265737300000000000000000000000000000000000000000000000000000000606482015260840161098d565b612aa36000826125e9565b600160a060020a0383166000908152600560205260408120805460019290612acc908490613e7b565b9091555050600160a060020a0382166000908152600560205260408120805460019290612afa908490613e30565b9091555050600081815260046020526040808220805473ffffffffffffffffffffffffffffffffffffffff1916600160a060020a0386811691821790925591518493918716917fddf252ad1be2c89b69c2b068fc378daa952ba7f163c4a11628f55a4df523b3ef91a4505050565b612b7282826118fe565b61141a57600082815260208181526040808320600160a060020a03851684529091529020805460ff19166001179055612ba83390565b600160a060020a031681600160a060020a0316837f2f8788117e7eff1d82e926ec794901d17c78024a50270940304540a733656f0d60405160405180910390a45050565b61141a8282612b68565b612c0082826118fe565b1561141a57600082815260208181526040808320600160a060020a0385168085529252808320805460ff1916905551339285917ff6391f5c32d9c69d2a47ea670b442974b53935d1edc7fd64eb21e047a839171b9190a45050565b612c6481613303565b60008181526008602052604090208054612c7d90613ed5565b15905061138c57600081815260086020526040812061138c91613571565b60018054600160a060020a0383811673ffffffffffffffffffffffffffffffffffffffff19831681179093556040519116919082907f8be0079c531659141344cd1fd0a4f28419497f9722a3daafe3b4186f6b6457e090600090a35050565b606081612d3a57505060408051808201909152600181527f3000000000000000000000000000000000000000000000000000000000000000602082015290565b8160005b8115612d645780612d4e81613f13565b9150612d5d9050600a83613e48565b9150612d3e565b60008167ffffffffffffffff811115612d905760e060020a634e487b7102600052604160045260246000fd5b6040519080825280601f01601f191660200182016040528015612dba576020820181803683370190505b5090505b84156122a657612dcf600183613e7b565b9150612ddc600a86613f2e565b612de7906030613e30565b7f010000000000000000000000000000000000000000000000000000000000000002818381518110612e2c5760e060020a634e487b7102600052603260045260246000fd5b6020010190600160f860020a031916908160001a905350612e4e600a86613e48565b9450612dbe565b81600160a060020a031683600160a060020a03161415612eba5760405160e560020a62461bcd02815260206004820152601960248201527f4552433732313a20617070726f766520746f2063616c6c657200000000000000604482015260640161098d565b600160a060020a03838116600081815260076020908152604080832094871680845294825291829020805460ff191686151590811790915591519182527f17307eab39ab6107e8899845ad3d59bd9653f200f220920489ca2b5937696c31910160405180910390a3505050565b612f32848484612988565b612f3e848484846133ab565b6120aa5760405160e560020a62461bcd02815260040161098d90613ce9565b6060612f68826125cc565b612fdd5760405160e560020a62461bcd02815260206004820152602f60248201527f4552433732314d657461646174613a2055524920717565727920666f72206e6f60448201527f6e6578697374656e7420746f6b656e0000000000000000000000000000000000606482015260840161098d565b6000612ff460408051602081019091526000815290565b905060008151116130145760405180602001604052806000815250611886565b8061301e84612cfa565b60405160200161302f929190613b24565b6040516020818303038152906040529392505050565b6000600160e060020a031982167f7965db0b00000000000000000000000000000000000000000000000000000000148061084d57507f01ffc9a700000000000000000000000000000000000000000000000000000000600160e060020a031983161461084d565b606060006130bb836002613e5c565b6130c6906002613e30565b67ffffffffffffffff8111156130ef5760e060020a634e487b7102600052604160045260246000fd5b6040519080825280601f01601f191660200182016040528015613119576020820181803683370190505b5090507f3000000000000000000000000000000000000000000000000000000000000000816000815181106131615760e060020a634e487b7102600052603260045260246000fd5b6020010190600160f860020a031916908160001a9053507f7800000000000000000000000000000000000000000000000000000000000000816001815181106131bd5760e060020a634e487b7102600052603260045260246000fd5b6020010190600160f860020a031916908160001a90535060006131e1846002613e5c565b6131ec906001613e30565b90505b60018111156132b1577f303132333435363738396162636465660000000000000000000000000000000085600f166010811061323e5760e060020a634e487b7102600052603260045260246000fd5b1a7f0100000000000000000000000000000000000000000000000000000000000000028282815181106132845760e060020a634e487b7102600052603260045260246000fd5b6020010190600160f860020a031916908160001a9053506010909404936132aa81613ebe565b90506131ef565b5083156118865760405160e560020a62461bcd02815260206004820181905260248201527f537472696e67733a20686578206c656e67746820696e73756666696369656e74604482015260640161098d565b600061330e826115c2565b905061331b6000836125e9565b600160a060020a0381166000908152600560205260408120805460019290613344908490613e7b565b9091555050600082815260046020526040808220805473ffffffffffffffffffffffffffffffffffffffff1916905551839190600160a060020a038416907fddf252ad1be2c89b69c2b068fc378daa952ba7f163c4a11628f55a4df523b3ef908390a45050565b6000600160a060020a0384163b156134e2576040517f150b7a02000000000000000000000000000000000000000000000000000000008152600160a060020a0385169063150b7a0290613408903390899088908890600401613c56565b602060405180830381600087803b15801561342257600080fd5b505af1925050508015613452575060408051601f3d908101601f1916820190925261344f918101906138e5565b60015b6134af573d808015613480576040519150601f19603f3d011682016040523d82523d6000602084013e613485565b606091505b5080516134a75760405160e560020a62461bcd02815260040161098d90613ce9565b805181602001fd5b600160e060020a0319167f150b7a02000000000000000000000000000000000000000000000000000000001490506122a6565b506001949350505050565b8280546134f990613ed5565b90600052602060002090601f01602090048101928261351b5760008555613561565b82601f1061353457805160ff1916838001178555613561565b82800160010185558215613561579182015b82811115613561578251825591602001919060010190613546565b5061356d9291506135a7565b5090565b50805461357d90613ed5565b6000825580601f1061358d575050565b601f01602090049060005260206000209081019061138c91905b5b8082111561356d57600081556001016135a8565b600067ffffffffffffffff808411156135d7576135d7613f74565b604051601f8501601f19908116603f011681019082821181831017156135ff576135ff613f74565b8160405280935085815286868601111561361857600080fd5b858560208301376000602087830101525050509392505050565b8035600160a060020a038116811461364957600080fd5b919050565b600082601f83011261365e578081fd5b611886838335602085016135bc565b60006020828403121561367e578081fd5b61188682613632565b60008060408385031215613699578081fd5b6136a283613632565b91506136b060208401613632565b90509250929050565b6000806000606084860312156136cd578081fd5b6136d684613632565b92506136e460208501613632565b9150604084013590509250925092565b60008060008060808587031215613709578081fd5b61371285613632565b935061372060208601613632565b925060408501359150606085013567ffffffffffffffff811115613742578182fd5b8501601f81018713613752578182fd5b613761878235602084016135bc565b91505092959194509250565b6000806040838503121561377f578182fd5b61378883613632565b9150602083013561379881613f8d565b809150509250929050565b600080604083850312156137b5578182fd5b6137be83613632565b946020939093013593505050565b60008060008060008060c087890312156137e4578182fd5b6137ed87613632565b95506020870135945060408701359350606087013567ffffffffffffffff80821115613817578384fd5b6138238a838b0161364e565b94506080890135915080821115613838578384fd5b6138448a838b0161364e565b935060a0890135915080821115613859578283fd5b5061386689828a0161364e565b9150509295509295509295565b600060208284031215613884578081fd5b815161188681613f8d565b6000602082840312156138a0578081fd5b5035919050565b600080604083850312156138b9578182fd5b823591506136b060208401613632565b6000602082840312156138da578081fd5b813561188681613f9b565b6000602082840312156138f6578081fd5b815161188681613f9b565b600060208284031215613912578081fd5b813567ffffffffffffffff811115613928578182fd5b6122a68482850161364e565b600060208284031215613945578081fd5b5051919050565b6000806040838503121561395e578182fd5b82359150602083013567ffffffffffffffff81111561397b578182fd5b6139878582860161364e565b9150509250929050565b600080604083850312156139a3578182fd5b50508035926020909101359150565b600080600080600080600060e0888a0312156139cc578485fd5b87359650602088013595506040880135945060608801359350608088013567ffffffffffffffff808211156139ff578283fd5b613a0b8b838c0161364e565b945060a08a0135915080821115613a20578283fd5b613a2c8b838c0161364e565b935060c08a0135915080821115613a41578283fd5b50613a4e8a828b0161364e565b91505092959891949750929550565b60008151808452613a75816020860160208601613e92565b601f01601f19169290920160200192915050565b805460009060028104600180831680613aa357607f831692505b6020808410821415613ac65760e060020a634e487b710286526022600452602486fd5b818015613ada5760018114613aeb57613b18565b60ff19861689528489019650613b18565b60008881526020902060005b86811015613b105781548b820152908501908301613af7565b505084890196505b50505050505092915050565b60008351613b36818460208801613e92565b835190830190613b4a818360208801613e92565b01949350505050565b6000613b68613b628387613a89565b85613a89565b7f2f0000000000000000000000000000000000000000000000000000000000000081528351613b9e816001840160208801613e92565b7f2e6a736f6e0000000000000000000000000000000000000000000000000000006001929091019182015260060195945050505050565b7f416363657373436f6e74726f6c3a206163636f756e7420000000000000000000815260008351613c0d816017850160208801613e92565b7f206973206d697373696e6720726f6c65200000000000000000000000000000006017918401918201528351613c4a816028840160208801613e92565b01602801949350505050565b6000600160a060020a03808716835280861660208401525083604083015260806060830152613c886080830184613a5d565b9695505050505050565b6020808252825182820181905260009190848201906040850190845b81811015613cca57835183529284019291840191600101613cae565b50909695505050505050565b6020815260006118866020830184613a5d565b60208082526032908201527f4552433732313a207472616e7366657220746f206e6f6e20455243373231526560408201527f63656976657220696d706c656d656e7465720000000000000000000000000000606082015260800190565b6020808252818101527f4f776e61626c653a2063616c6c6572206973206e6f7420746865206f776e6572604082015260600190565b60208082526031908201527f4552433732313a207472616e736665722063616c6c6572206973206e6f74206f60408201527f776e6572206e6f7220617070726f766564000000000000000000000000000000606082015260800190565b86815285602082015284604082015260c060608201526000613dfd60c0830186613a5d565b8281036080840152613e0f8186613a5d565b905082810360a0840152613e238185613a5d565b9998505050505050505050565b60008219821115613e4357613e43613f42565b500190565b600082613e5757613e57613f5b565b500490565b6000816000190483118215151615613e7657613e76613f42565b500290565b600082821015613e8d57613e8d613f42565b500390565b60005b83811015613ead578181015183820152602001613e95565b838111156120aa5750506000910152565b600081613ecd57613ecd613f42565b506000190190565b600281046001821680613ee957607f821691505b60208210811415613f0d5760e060020a634e487b7102600052602260045260246000fd5b50919050565b6000600019821415613f2757613f27613f42565b5060010190565b600082613f3d57613f3d613f5b565b500690565b60e060020a634e487b7102600052601160045260246000fd5b60e060020a634e487b7102600052601260045260246000fd5b60e060020a634e487b7102600052604160045260246000fd5b801515811461138c57600080fd5b600160e060020a03198116811461138c57600080fdfe3ee192ac25847473237ced4bba57f848e1fd794930ff85b42823290580967205a26469706673582212207478bdc231c137603faebd1a01e6a002e5e8eda7e8c9589c3347d1703079f70964736f6c63430008040033",
  "immutableReferences": {},
  "source": "// SPDX-License-Identifier: MIT\r\npragma solidity ^0.8.4;\r\n\r\nimport \"@openzeppelin/contracts/access/Ownable.sol\";\r\nimport \"@openzeppelin/contracts/access/AccessControl.sol\";\r\nimport \"@openzeppelin/contracts/utils/Counters.sol\";\r\nimport \"@openzeppelin/contracts/token/ERC721/ERC721.sol\";\r\nimport \"@openzeppelin/contracts/token/ERC721/extensions/ERC721URIStorage.sol\";\r\nimport \"@openzeppelin/contracts/utils/Strings.sol\";\r\nimport \"./interfaces/IBusd.sol\";\r\nimport \"./interfaces/INonFungiblePlayer.sol\";\r\n\r\ncontract NonFungiblePlayer is\r\n    AccessControl,\r\n    Ownable,\r\n    ERC721URIStorage,\r\n    INonFungiblePlayer\r\n{\r\n    using Counters for Counters.Counter;\r\n    Counters.Counter private _tokenIds;\r\n\r\n    bytes32 public constant UPDATE_ROLE = keccak256(\"UPDATE_ROLE\");\r\n\r\n    address private ownerAddr;\r\n    uint256 public blockNumber;\r\n    uint256 public price;\r\n    string public baseURI;\r\n    string public cID;\r\n\r\n    IBusd busd;\r\n\r\n    mapping(uint256 => NfpInfo) public nfps;\r\n    mapping(uint256 => bool) public isBurned;\r\n    event BuyBlindBox(uint256 indexed itemId, string metaHash);\r\n    event FusionSuccess(uint256 indexed tokenId);\r\n\r\n    constructor(\r\n        uint256 _blockNumber,\r\n        IBusd _busd,\r\n        string memory _baseURI,\r\n        string memory _cID,\r\n        address _ownerAddr\r\n    ) ERC721(\"Non-Fungible Player\", \"NFP\") {\r\n        blockNumber = _blockNumber;\r\n        busd = _busd;\r\n        baseURI = _baseURI;\r\n        price = 100;\r\n        cID = _cID;\r\n        ownerAddr = _ownerAddr;\r\n    }\r\n\r\n    function _rand(uint256 _modulus) internal view returns (uint256) {\r\n        return\r\n            uint256(keccak256(abi.encodePacked(block.timestamp, msg.sender))) %\r\n            _modulus;\r\n    }\r\n\r\n    function buyNFPBox() public {\r\n        require(msg.sender != address(0), \"Mint Address can't be zero address\");\r\n        // require(block.number >= blockNumber, \"NFPBox Sale is not started\");\r\n        require(_tokenIds.current() < 256000, \"All NFPs are sold\");\r\n        require(\r\n            busd.balanceOf(msg.sender) >= price * 10**18,\r\n            \"Balance of Gol token is not enought to buy BlindBox\"\r\n        );\r\n\r\n        busd.transferFrom(msg.sender, ownerAddr, price * 10**18);\r\n\r\n        _tokenIds.increment();\r\n        uint256 newItemId = _tokenIds.current();\r\n        string memory s = string(\r\n            abi.encodePacked(\r\n                baseURI,\r\n                cID,\r\n                \"/\",\r\n                Strings.toString(newItemId),\r\n                \".json\"\r\n            )\r\n        );\r\n\r\n        string memory rarityOfNew;\r\n        string memory positionOfNew;\r\n        uint256 randProbability = _rand(10000);\r\n\r\n        if (randProbability > 5500) {\r\n            rarityOfNew = \"Common\";\r\n        } else if (randProbability > 2000) {\r\n            rarityOfNew = \"Uncommon\";\r\n        } else if (randProbability > 500) {\r\n            rarityOfNew = \"Rare\";\r\n        } else if (randProbability > 100) {\r\n            rarityOfNew = \"Legendary\";\r\n        } else {\r\n            rarityOfNew = \"Mythical\";\r\n        }\r\n\r\n        randProbability = _rand(10000);\r\n\r\n        if (randProbability > 7500) {\r\n            positionOfNew = \"Goalie\";\r\n        } else if (randProbability > 5000) {\r\n            positionOfNew = \"Defender\";\r\n        } else if (randProbability > 2500) {\r\n            positionOfNew = \"Midfielder\";\r\n        } else {\r\n            positionOfNew = \"Striker\";\r\n        }\r\n\r\n        nfps[newItemId] = NfpInfo(\r\n            0,\r\n            0,\r\n            0,\r\n            positionOfNew,\r\n            rarityOfNew,\r\n            \"Rookie\"\r\n        );\r\n        _mint(msg.sender, newItemId);\r\n        _setTokenURI(newItemId, s);\r\n\r\n        emit BuyBlindBox(newItemId, s);\r\n    }\r\n\r\n    function mintFusionedNFP(\r\n        address _owner,\r\n        uint256 _tokenId1,\r\n        uint256 _tokenId2,\r\n        string memory _position,\r\n        string memory _rarity,\r\n        string memory _class\r\n    ) external override onlyRole(UPDATE_ROLE) {\r\n        uint256 randomNumber = _rand(10);\r\n        string memory _tokenURI = randomNumber > 5\r\n            ? tokenURI(_tokenId1)\r\n            : tokenURI(_tokenId2);\r\n\r\n        _tokenIds.increment();\r\n        uint256 newItemId = _tokenIds.current();\r\n\r\n        uint256 level1 = nfps[_tokenId1].level;\r\n        uint256 level2 = nfps[_tokenId2].level;\r\n        uint256 skillPoint1 = nfps[_tokenId1].skillPoint;\r\n        uint256 skillPoint2 = nfps[_tokenId2].skillPoint;\r\n        uint256 newGen = nfps[_tokenId1].gen + 1;\r\n\r\n        nfps[newItemId] = NfpInfo(\r\n            newGen,\r\n            level1 > level2 ? level1 : level2,\r\n            skillPoint1 > skillPoint2 ? skillPoint1 : skillPoint2,\r\n            _position,\r\n            _rarity,\r\n            _class\r\n        );\r\n        _mint(_owner, newItemId);\r\n        _setTokenURI(newItemId, _tokenURI);\r\n        emit FusionSuccess(newItemId);\r\n    }\r\n\r\n    function updateTraitsNFP(\r\n        uint256 _tokenId,\r\n        uint256 _gen,\r\n        uint256 _level,\r\n        uint256 _skillPoint,\r\n        string memory _position,\r\n        string memory _rarity,\r\n        string memory _class\r\n    ) external override onlyRole(UPDATE_ROLE) {\r\n        nfps[_tokenId] = NfpInfo(\r\n            _gen,\r\n            _level,\r\n            _skillPoint,\r\n            _position,\r\n            _rarity,\r\n            _class\r\n        );\r\n    }\r\n\r\n    function setOwnerAddr(address _ownerAddr) public onlyOwner {\r\n        require(\r\n            _ownerAddr != address(0),\r\n            \"Owner Address can't be zero address\"\r\n        );\r\n        ownerAddr = _ownerAddr;\r\n    }\r\n\r\n    function getOwnerAddr() public view onlyOwner returns (address) {\r\n        return ownerAddr;\r\n    }\r\n\r\n    function setPrice(uint256 _price) public onlyOwner {\r\n        price = _price;\r\n    }\r\n\r\n    function setBlockNumber(uint256 _blockNumber) public onlyOwner {\r\n        blockNumber = _blockNumber;\r\n    }\r\n\r\n    function setBaseURI(string memory _baseURI) public onlyOwner {\r\n        baseURI = _baseURI;\r\n    }\r\n\r\n    function setCID(string memory _cID) public onlyOwner {\r\n        cID = _cID;\r\n    }\r\n\r\n    function transfer(\r\n        address _from,\r\n        address _to,\r\n        uint256 _tokenId\r\n    ) external onlyOwner {\r\n        transferFrom(_from, _to, _tokenId);\r\n    }\r\n\r\n    function getBlockNumber() external view returns (uint256) {\r\n        return block.number;\r\n    }\r\n\r\n    function totalSupply() external view returns (uint256) {\r\n        return (_tokenIds.current());\r\n    }\r\n\r\n    function getTokenFullURI(uint256 tokenId)\r\n        external\r\n        view\r\n        returns (string memory)\r\n    {\r\n        string memory _tokenURI = tokenURI(tokenId);\r\n\r\n        return _tokenURI;\r\n    }\r\n\r\n    function getBaseURI() external view returns (string memory) {\r\n        string memory _baseURI = baseURI;\r\n        return _baseURI;\r\n    }\r\n\r\n    function fetchMyNfts() external view returns (uint256[] memory) {\r\n        uint256 tokenCount = 0;\r\n        uint256 _totalSupply = _tokenIds.current();\r\n        uint256 currentIndex = 0;\r\n\r\n        for (uint256 i = 0; i < _totalSupply; i++) {\r\n            if (isBurned[i + 1] == false) tokenCount++;\r\n        }\r\n        uint256[] memory availableTokenIds = new uint256[](tokenCount);\r\n\r\n        for (uint256 i = 0; i < _totalSupply; i++) {\r\n            if (isBurned[i + 1] == false) {\r\n                availableTokenIds[currentIndex] = i + 1;\r\n                currentIndex++;\r\n            }\r\n        }\r\n\r\n        tokenCount = 0;\r\n        currentIndex = 0;\r\n        for (uint256 i = 0; i < availableTokenIds.length; i++) {\r\n            if (ownerOf(availableTokenIds[i]) == msg.sender) tokenCount++;\r\n        }\r\n\r\n        uint256[] memory tokenIds = new uint256[](tokenCount);\r\n        for (uint256 i = 0; i < availableTokenIds.length; i++) {\r\n            if (ownerOf(availableTokenIds[i]) == msg.sender) {\r\n                tokenIds[currentIndex] = availableTokenIds[i];\r\n                currentIndex++;\r\n            }\r\n        }\r\n\r\n        return tokenIds;\r\n    }\r\n\r\n    function setUpdateRoleAddr(address _updateRoleAddr) public onlyOwner {\r\n        require(\r\n            !hasRole(UPDATE_ROLE, _updateRoleAddr),\r\n            \"Already have update role!\"\r\n        );\r\n        _setupRole(UPDATE_ROLE, _updateRoleAddr);\r\n    }\r\n\r\n    function getSkillPoint(uint256 _tokenId)\r\n        external\r\n        view\r\n        override\r\n        returns (uint256)\r\n    {\r\n        return nfps[_tokenId].skillPoint;\r\n    }\r\n\r\n    function setSkillPoint(uint256 _tokenId, uint256 _skillPoint)\r\n        external\r\n        override\r\n        onlyRole(UPDATE_ROLE)\r\n    {\r\n        NfpInfo storage _nfpInfo = nfps[_tokenId];\r\n        _nfpInfo.skillPoint = _skillPoint;\r\n    }\r\n\r\n    function getGeneration(uint256 _tokenId)\r\n        external\r\n        view\r\n        override\r\n        returns (uint256)\r\n    {\r\n        return nfps[_tokenId].gen;\r\n    }\r\n\r\n    function setGeneration(uint256 _tokenId, uint256 _gen)\r\n        external\r\n        override\r\n        onlyRole(UPDATE_ROLE)\r\n    {\r\n        NfpInfo storage _nfpInfo = nfps[_tokenId];\r\n        _nfpInfo.gen = _gen;\r\n    }\r\n\r\n    function getLevel(uint256 _tokenId)\r\n        external\r\n        view\r\n        override\r\n        returns (uint256)\r\n    {\r\n        return nfps[_tokenId].level;\r\n    }\r\n\r\n    function setLevel(uint256 _tokenId, uint256 _level)\r\n        external\r\n        override\r\n        onlyRole(UPDATE_ROLE)\r\n    {\r\n        NfpInfo storage _nfpInfo = nfps[_tokenId];\r\n        _nfpInfo.level = _level;\r\n    }\r\n\r\n    function getPosition(uint256 _tokenId)\r\n        external\r\n        view\r\n        override\r\n        returns (string memory)\r\n    {\r\n        return nfps[_tokenId].position;\r\n    }\r\n\r\n    function setPosition(uint256 _tokenId, string memory _position)\r\n        external\r\n        override\r\n        onlyRole(UPDATE_ROLE)\r\n    {\r\n        NfpInfo storage _nfpInfo = nfps[_tokenId];\r\n        _nfpInfo.position = _position;\r\n    }\r\n\r\n    function getRarity(uint256 _tokenId)\r\n        external\r\n        view\r\n        override\r\n        returns (string memory)\r\n    {\r\n        return nfps[_tokenId].rarity;\r\n    }\r\n\r\n    function setRarity(uint256 _tokenId, string memory _rarity)\r\n        external\r\n        override\r\n        onlyRole(UPDATE_ROLE)\r\n    {\r\n        NfpInfo storage _nfpInfo = nfps[_tokenId];\r\n        _nfpInfo.rarity = _rarity;\r\n    }\r\n\r\n    function getClass(uint256 _tokenId)\r\n        external\r\n        view\r\n        override\r\n        returns (string memory)\r\n    {\r\n        return nfps[_tokenId].class;\r\n    }\r\n\r\n    function setClass(uint256 _tokenId, string memory _class)\r\n        external\r\n        override\r\n        onlyRole(UPDATE_ROLE)\r\n    {\r\n        NfpInfo storage _nfpInfo = nfps[_tokenId];\r\n        _nfpInfo.class = _class;\r\n    }\r\n\r\n    function burn(uint256 tokenId) external override onlyRole(UPDATE_ROLE) {\r\n        _burn(tokenId);\r\n        isBurned[tokenId] = true;\r\n    }\r\n\r\n    function supportsInterface(bytes4 interfaceId)\r\n        public\r\n        view\r\n        virtual\r\n        override(ERC721, IERC165, AccessControl)\r\n        returns (bool)\r\n    {\r\n        return super.supportsInterface(interfaceId);\r\n    }\r\n}\r\n",
  "sourcePath": "E:\\Git for Project\\Ethereum\\NFT\\GolFinance\\gol-staking-contracts\\contracts\\NonFungiblePlayer.sol",
  "compiler": {
    "name": "solc",
    "version": "0.8.4+commit.c7e474f2.Emscripten.clang"
  },
  "schemaVersion": "3.4.5",
  "updatedAt": "2022-05-02T13:05:14.891Z",
  "devdoc": {
    "kind": "dev",
    "methods": {
      "approve(address,uint256)": {
        "details": "See {IERC721-approve}."
      },
      "balanceOf(address)": {
        "details": "See {IERC721-balanceOf}."
      },
      "getApproved(uint256)": {
        "details": "See {IERC721-getApproved}."
      },
      "getRoleAdmin(bytes32)": {
        "details": "Returns the admin role that controls `role`. See {grantRole} and {revokeRole}. To change a role's admin, use {_setRoleAdmin}."
      },
      "grantRole(bytes32,address)": {
        "details": "Grants `role` to `account`. If `account` had not been already granted `role`, emits a {RoleGranted} event. Requirements: - the caller must have ``role``'s admin role."
      },
      "hasRole(bytes32,address)": {
        "details": "Returns `true` if `account` has been granted `role`."
      },
      "isApprovedForAll(address,address)": {
        "details": "See {IERC721-isApprovedForAll}."
      },
      "name()": {
        "details": "See {IERC721Metadata-name}."
      },
      "owner()": {
        "details": "Returns the address of the current owner."
      },
      "ownerOf(uint256)": {
        "details": "See {IERC721-ownerOf}."
      },
      "renounceOwnership()": {
        "details": "Leaves the contract without owner. It will not be possible to call `onlyOwner` functions anymore. Can only be called by the current owner. NOTE: Renouncing ownership will leave the contract without an owner, thereby removing any functionality that is only available to the owner."
      },
      "renounceRole(bytes32,address)": {
        "details": "Revokes `role` from the calling account. Roles are often managed via {grantRole} and {revokeRole}: this function's purpose is to provide a mechanism for accounts to lose their privileges if they are compromised (such as when a trusted device is misplaced). If the calling account had been revoked `role`, emits a {RoleRevoked} event. Requirements: - the caller must be `account`."
      },
      "revokeRole(bytes32,address)": {
        "details": "Revokes `role` from `account`. If `account` had been granted `role`, emits a {RoleRevoked} event. Requirements: - the caller must have ``role``'s admin role."
      },
      "safeTransferFrom(address,address,uint256)": {
        "details": "See {IERC721-safeTransferFrom}."
      },
      "safeTransferFrom(address,address,uint256,bytes)": {
        "details": "See {IERC721-safeTransferFrom}."
      },
      "setApprovalForAll(address,bool)": {
        "details": "See {IERC721-setApprovalForAll}."
      },
      "symbol()": {
        "details": "See {IERC721Metadata-symbol}."
      },
      "tokenURI(uint256)": {
        "details": "See {IERC721Metadata-tokenURI}."
      },
      "transferFrom(address,address,uint256)": {
        "details": "See {IERC721-transferFrom}."
      },
      "transferOwnership(address)": {
        "details": "Transfers ownership of the contract to a new account (`newOwner`). Can only be called by the current owner."
      }
    },
    "version": 1
  },
  "userdoc": {
    "kind": "user",
    "methods": {},
    "version": 1
  }
}