{
  "contractName": "NonFungiblePlayer",
  "abi": [
    {
      "inputs": [
        {
          "internalType": "uint256",
          "name": "_blockNumber",
          "type": "uint256"
        },
        {
          "internalType": "contract IBusd",
          "name": "_busd",
          "type": "address"
        },
        {
          "internalType": "string",
          "name": "_baseURI",
          "type": "string"
        },
        {
          "internalType": "string",
          "name": "_cID",
          "type": "string"
        },
        {
          "internalType": "address",
          "name": "_ownerAddr",
          "type": "address"
        }
      ],
      "stateMutability": "nonpayable",
      "type": "constructor"
    },
    {
      "anonymous": false,
      "inputs": [
        {
          "indexed": true,
          "internalType": "address",
          "name": "owner",
          "type": "address"
        },
        {
          "indexed": true,
          "internalType": "address",
          "name": "approved",
          "type": "address"
        },
        {
          "indexed": true,
          "internalType": "uint256",
          "name": "tokenId",
          "type": "uint256"
        }
      ],
      "name": "Approval",
      "type": "event"
    },
    {
      "anonymous": false,
      "inputs": [
        {
          "indexed": true,
          "internalType": "address",
          "name": "owner",
          "type": "address"
        },
        {
          "indexed": true,
          "internalType": "address",
          "name": "operator",
          "type": "address"
        },
        {
          "indexed": false,
          "internalType": "bool",
          "name": "approved",
          "type": "bool"
        }
      ],
      "name": "ApprovalForAll",
      "type": "event"
    },
    {
      "anonymous": false,
      "inputs": [
        {
          "indexed": true,
          "internalType": "uint256",
          "name": "itemId",
          "type": "uint256"
        },
        {
          "indexed": false,
          "internalType": "string",
          "name": "metaHash",
          "type": "string"
        }
      ],
      "name": "BuyBlindBox",
      "type": "event"
    },
    {
      "anonymous": false,
      "inputs": [
        {
          "indexed": true,
          "internalType": "uint256",
          "name": "tokenId",
          "type": "uint256"
        }
      ],
      "name": "FusionSuccess",
      "type": "event"
    },
    {
      "anonymous": false,
      "inputs": [
        {
          "indexed": true,
          "internalType": "address",
          "name": "previousOwner",
          "type": "address"
        },
        {
          "indexed": true,
          "internalType": "address",
          "name": "newOwner",
          "type": "address"
        }
      ],
      "name": "OwnershipTransferred",
      "type": "event"
    },
    {
      "anonymous": false,
      "inputs": [
        {
          "indexed": true,
          "internalType": "bytes32",
          "name": "role",
          "type": "bytes32"
        },
        {
          "indexed": true,
          "internalType": "bytes32",
          "name": "previousAdminRole",
          "type": "bytes32"
        },
        {
          "indexed": true,
          "internalType": "bytes32",
          "name": "newAdminRole",
          "type": "bytes32"
        }
      ],
      "name": "RoleAdminChanged",
      "type": "event"
    },
    {
      "anonymous": false,
      "inputs": [
        {
          "indexed": true,
          "internalType": "bytes32",
          "name": "role",
          "type": "bytes32"
        },
        {
          "indexed": true,
          "internalType": "address",
          "name": "account",
          "type": "address"
        },
        {
          "indexed": true,
          "internalType": "address",
          "name": "sender",
          "type": "address"
        }
      ],
      "name": "RoleGranted",
      "type": "event"
    },
    {
      "anonymous": false,
      "inputs": [
        {
          "indexed": true,
          "internalType": "bytes32",
          "name": "role",
          "type": "bytes32"
        },
        {
          "indexed": true,
          "internalType": "address",
          "name": "account",
          "type": "address"
        },
        {
          "indexed": true,
          "internalType": "address",
          "name": "sender",
          "type": "address"
        }
      ],
      "name": "RoleRevoked",
      "type": "event"
    },
    {
      "anonymous": false,
      "inputs": [
        {
          "indexed": true,
          "internalType": "address",
          "name": "from",
          "type": "address"
        },
        {
          "indexed": true,
          "internalType": "address",
          "name": "to",
          "type": "address"
        },
        {
          "indexed": true,
          "internalType": "uint256",
          "name": "tokenId",
          "type": "uint256"
        }
      ],
      "name": "Transfer",
      "type": "event"
    },
    {
      "inputs": [],
      "name": "DEFAULT_ADMIN_ROLE",
      "outputs": [
        {
          "internalType": "bytes32",
          "name": "",
          "type": "bytes32"
        }
      ],
      "stateMutability": "view",
      "type": "function"
    },
    {
      "inputs": [],
      "name": "UPDATE_ROLE",
      "outputs": [
        {
          "internalType": "bytes32",
          "name": "",
          "type": "bytes32"
        }
      ],
      "stateMutability": "view",
      "type": "function"
    },
    {
      "inputs": [
        {
          "internalType": "address",
          "name": "to",
          "type": "address"
        },
        {
          "internalType": "uint256",
          "name": "tokenId",
          "type": "uint256"
        }
      ],
      "name": "approve",
      "outputs": [],
      "stateMutability": "nonpayable",
      "type": "function"
    },
    {
      "inputs": [
        {
          "internalType": "address",
          "name": "owner",
          "type": "address"
        }
      ],
      "name": "balanceOf",
      "outputs": [
        {
          "internalType": "uint256",
          "name": "",
          "type": "uint256"
        }
      ],
      "stateMutability": "view",
      "type": "function"
    },
    {
      "inputs": [],
      "name": "baseURI",
      "outputs": [
        {
          "internalType": "string",
          "name": "",
          "type": "string"
        }
      ],
      "stateMutability": "view",
      "type": "function"
    },
    {
      "inputs": [],
      "name": "blockNumber",
      "outputs": [
        {
          "internalType": "uint256",
          "name": "",
          "type": "uint256"
        }
      ],
      "stateMutability": "view",
      "type": "function"
    },
    {
      "inputs": [],
      "name": "cID",
      "outputs": [
        {
          "internalType": "string",
          "name": "",
          "type": "string"
        }
      ],
      "stateMutability": "view",
      "type": "function"
    },
    {
      "inputs": [
        {
          "internalType": "uint256",
          "name": "tokenId",
          "type": "uint256"
        }
      ],
      "name": "getApproved",
      "outputs": [
        {
          "internalType": "address",
          "name": "",
          "type": "address"
        }
      ],
      "stateMutability": "view",
      "type": "function"
    },
    {
      "inputs": [
        {
          "internalType": "bytes32",
          "name": "role",
          "type": "bytes32"
        }
      ],
      "name": "getRoleAdmin",
      "outputs": [
        {
          "internalType": "bytes32",
          "name": "",
          "type": "bytes32"
        }
      ],
      "stateMutability": "view",
      "type": "function"
    },
    {
      "inputs": [
        {
          "internalType": "bytes32",
          "name": "role",
          "type": "bytes32"
        },
        {
          "internalType": "address",
          "name": "account",
          "type": "address"
        }
      ],
      "name": "grantRole",
      "outputs": [],
      "stateMutability": "nonpayable",
      "type": "function"
    },
    {
      "inputs": [
        {
          "internalType": "bytes32",
          "name": "role",
          "type": "bytes32"
        },
        {
          "internalType": "address",
          "name": "account",
          "type": "address"
        }
      ],
      "name": "hasRole",
      "outputs": [
        {
          "internalType": "bool",
          "name": "",
          "type": "bool"
        }
      ],
      "stateMutability": "view",
      "type": "function"
    },
    {
      "inputs": [
        {
          "internalType": "address",
          "name": "owner",
          "type": "address"
        },
        {
          "internalType": "address",
          "name": "operator",
          "type": "address"
        }
      ],
      "name": "isApprovedForAll",
      "outputs": [
        {
          "internalType": "bool",
          "name": "",
          "type": "bool"
        }
      ],
      "stateMutability": "view",
      "type": "function"
    },
    {
      "inputs": [
        {
          "internalType": "uint256",
          "name": "",
          "type": "uint256"
        }
      ],
      "name": "isBurned",
      "outputs": [
        {
          "internalType": "bool",
          "name": "",
          "type": "bool"
        }
      ],
      "stateMutability": "view",
      "type": "function"
    },
    {
      "inputs": [],
      "name": "name",
      "outputs": [
        {
          "internalType": "string",
          "name": "",
          "type": "string"
        }
      ],
      "stateMutability": "view",
      "type": "function"
    },
    {
      "inputs": [
        {
          "internalType": "uint256",
          "name": "",
          "type": "uint256"
        }
      ],
      "name": "nfps",
      "outputs": [
        {
          "internalType": "uint256",
          "name": "gen",
          "type": "uint256"
        },
        {
          "internalType": "uint256",
          "name": "level",
          "type": "uint256"
        },
        {
          "internalType": "uint256",
          "name": "skillPoint",
          "type": "uint256"
        },
        {
          "internalType": "string",
          "name": "position",
          "type": "string"
        },
        {
          "internalType": "string",
          "name": "rarity",
          "type": "string"
        },
        {
          "internalType": "string",
          "name": "class",
          "type": "string"
        }
      ],
      "stateMutability": "view",
      "type": "function"
    },
    {
      "inputs": [],
      "name": "owner",
      "outputs": [
        {
          "internalType": "address",
          "name": "",
          "type": "address"
        }
      ],
      "stateMutability": "view",
      "type": "function"
    },
    {
      "inputs": [
        {
          "internalType": "uint256",
          "name": "tokenId",
          "type": "uint256"
        }
      ],
      "name": "ownerOf",
      "outputs": [
        {
          "internalType": "address",
          "name": "",
          "type": "address"
        }
      ],
      "stateMutability": "view",
      "type": "function"
    },
    {
      "inputs": [],
      "name": "price",
      "outputs": [
        {
          "internalType": "uint256",
          "name": "",
          "type": "uint256"
        }
      ],
      "stateMutability": "view",
      "type": "function"
    },
    {
      "inputs": [],
      "name": "renounceOwnership",
      "outputs": [],
      "stateMutability": "nonpayable",
      "type": "function"
    },
    {
      "inputs": [
        {
          "internalType": "bytes32",
          "name": "role",
          "type": "bytes32"
        },
        {
          "internalType": "address",
          "name": "account",
          "type": "address"
        }
      ],
      "name": "renounceRole",
      "outputs": [],
      "stateMutability": "nonpayable",
      "type": "function"
    },
    {
      "inputs": [
        {
          "internalType": "bytes32",
          "name": "role",
          "type": "bytes32"
        },
        {
          "internalType": "address",
          "name": "account",
          "type": "address"
        }
      ],
      "name": "revokeRole",
      "outputs": [],
      "stateMutability": "nonpayable",
      "type": "function"
    },
    {
      "inputs": [
        {
          "internalType": "address",
          "name": "from",
          "type": "address"
        },
        {
          "internalType": "address",
          "name": "to",
          "type": "address"
        },
        {
          "internalType": "uint256",
          "name": "tokenId",
          "type": "uint256"
        }
      ],
      "name": "safeTransferFrom",
      "outputs": [],
      "stateMutability": "nonpayable",
      "type": "function"
    },
    {
      "inputs": [
        {
          "internalType": "address",
          "name": "from",
          "type": "address"
        },
        {
          "internalType": "address",
          "name": "to",
          "type": "address"
        },
        {
          "internalType": "uint256",
          "name": "tokenId",
          "type": "uint256"
        },
        {
          "internalType": "bytes",
          "name": "_data",
          "type": "bytes"
        }
      ],
      "name": "safeTransferFrom",
      "outputs": [],
      "stateMutability": "nonpayable",
      "type": "function"
    },
    {
      "inputs": [
        {
          "internalType": "address",
          "name": "operator",
          "type": "address"
        },
        {
          "internalType": "bool",
          "name": "approved",
          "type": "bool"
        }
      ],
      "name": "setApprovalForAll",
      "outputs": [],
      "stateMutability": "nonpayable",
      "type": "function"
    },
    {
      "inputs": [],
      "name": "symbol",
      "outputs": [
        {
          "internalType": "string",
          "name": "",
          "type": "string"
        }
      ],
      "stateMutability": "view",
      "type": "function"
    },
    {
      "inputs": [
        {
          "internalType": "uint256",
          "name": "tokenId",
          "type": "uint256"
        }
      ],
      "name": "tokenURI",
      "outputs": [
        {
          "internalType": "string",
          "name": "",
          "type": "string"
        }
      ],
      "stateMutability": "view",
      "type": "function"
    },
    {
      "inputs": [
        {
          "internalType": "address",
          "name": "from",
          "type": "address"
        },
        {
          "internalType": "address",
          "name": "to",
          "type": "address"
        },
        {
          "internalType": "uint256",
          "name": "tokenId",
          "type": "uint256"
        }
      ],
      "name": "transferFrom",
      "outputs": [],
      "stateMutability": "nonpayable",
      "type": "function"
    },
    {
      "inputs": [
        {
          "internalType": "address",
          "name": "newOwner",
          "type": "address"
        }
      ],
      "name": "transferOwnership",
      "outputs": [],
      "stateMutability": "nonpayable",
      "type": "function"
    },
    {
      "inputs": [],
      "name": "buyNFPBox",
      "outputs": [],
      "stateMutability": "nonpayable",
      "type": "function"
    },
    {
      "inputs": [
        {
          "internalType": "address",
          "name": "_owner",
          "type": "address"
        },
        {
          "internalType": "uint256",
          "name": "_tokenId1",
          "type": "uint256"
        },
        {
          "internalType": "uint256",
          "name": "_tokenId2",
          "type": "uint256"
        },
        {
          "internalType": "string",
          "name": "_position",
          "type": "string"
        },
        {
          "internalType": "string",
          "name": "_rarity",
          "type": "string"
        },
        {
          "internalType": "string",
          "name": "_class",
          "type": "string"
        }
      ],
      "name": "mintFusionedNFP",
      "outputs": [
        {
          "internalType": "uint256",
          "name": "",
          "type": "uint256"
        }
      ],
      "stateMutability": "nonpayable",
      "type": "function"
    },
    {
      "inputs": [
        {
          "internalType": "uint256",
          "name": "_tokenId",
          "type": "uint256"
        },
        {
          "internalType": "uint256",
          "name": "_gen",
          "type": "uint256"
        },
        {
          "internalType": "uint256",
          "name": "_level",
          "type": "uint256"
        },
        {
          "internalType": "uint256",
          "name": "_skillPoint",
          "type": "uint256"
        },
        {
          "internalType": "string",
          "name": "_position",
          "type": "string"
        },
        {
          "internalType": "string",
          "name": "_rarity",
          "type": "string"
        },
        {
          "internalType": "string",
          "name": "_class",
          "type": "string"
        }
      ],
      "name": "updateTraitsNFP",
      "outputs": [],
      "stateMutability": "nonpayable",
      "type": "function"
    },
    {
      "inputs": [
        {
          "internalType": "address",
          "name": "_ownerAddr",
          "type": "address"
        }
      ],
      "name": "setOwnerAddr",
      "outputs": [],
      "stateMutability": "nonpayable",
      "type": "function"
    },
    {
      "inputs": [],
      "name": "getOwnerAddr",
      "outputs": [
        {
          "internalType": "address",
          "name": "",
          "type": "address"
        }
      ],
      "stateMutability": "view",
      "type": "function"
    },
    {
      "inputs": [
        {
          "internalType": "uint256",
          "name": "_price",
          "type": "uint256"
        }
      ],
      "name": "setPrice",
      "outputs": [],
      "stateMutability": "nonpayable",
      "type": "function"
    },
    {
      "inputs": [
        {
          "internalType": "uint256",
          "name": "_blockNumber",
          "type": "uint256"
        }
      ],
      "name": "setBlockNumber",
      "outputs": [],
      "stateMutability": "nonpayable",
      "type": "function"
    },
    {
      "inputs": [
        {
          "internalType": "string",
          "name": "_baseURI",
          "type": "string"
        }
      ],
      "name": "setBaseURI",
      "outputs": [],
      "stateMutability": "nonpayable",
      "type": "function"
    },
    {
      "inputs": [
        {
          "internalType": "string",
          "name": "_cID",
          "type": "string"
        }
      ],
      "name": "setCID",
      "outputs": [],
      "stateMutability": "nonpayable",
      "type": "function"
    },
    {
      "inputs": [
        {
          "internalType": "address",
          "name": "_from",
          "type": "address"
        },
        {
          "internalType": "address",
          "name": "_to",
          "type": "address"
        },
        {
          "internalType": "uint256",
          "name": "_tokenId",
          "type": "uint256"
        }
      ],
      "name": "transfer",
      "outputs": [],
      "stateMutability": "nonpayable",
      "type": "function"
    },
    {
      "inputs": [],
      "name": "getBlockNumber",
      "outputs": [
        {
          "internalType": "uint256",
          "name": "",
          "type": "uint256"
        }
      ],
      "stateMutability": "view",
      "type": "function"
    },
    {
      "inputs": [],
      "name": "totalSupply",
      "outputs": [
        {
          "internalType": "uint256",
          "name": "",
          "type": "uint256"
        }
      ],
      "stateMutability": "view",
      "type": "function"
    },
    {
      "inputs": [
        {
          "internalType": "uint256",
          "name": "tokenId",
          "type": "uint256"
        }
      ],
      "name": "getTokenFullURI",
      "outputs": [
        {
          "internalType": "string",
          "name": "",
          "type": "string"
        }
      ],
      "stateMutability": "view",
      "type": "function"
    },
    {
      "inputs": [],
      "name": "getBaseURI",
      "outputs": [
        {
          "internalType": "string",
          "name": "",
          "type": "string"
        }
      ],
      "stateMutability": "view",
      "type": "function"
    },
    {
      "inputs": [],
      "name": "fetchMyNfts",
      "outputs": [
        {
          "internalType": "uint256[]",
          "name": "",
          "type": "uint256[]"
        }
      ],
      "stateMutability": "view",
      "type": "function"
    },
    {
      "inputs": [
        {
          "internalType": "address",
          "name": "_updateRoleAddr",
          "type": "address"
        }
      ],
      "name": "setUpdateRoleAddr",
      "outputs": [],
      "stateMutability": "nonpayable",
      "type": "function"
    },
    {
      "inputs": [
        {
          "internalType": "uint256",
          "name": "_tokenId",
          "type": "uint256"
        }
      ],
      "name": "getSkillPoint",
      "outputs": [
        {
          "internalType": "uint256",
          "name": "",
          "type": "uint256"
        }
      ],
      "stateMutability": "view",
      "type": "function"
    },
    {
      "inputs": [
        {
          "internalType": "uint256",
          "name": "_tokenId",
          "type": "uint256"
        },
        {
          "internalType": "uint256",
          "name": "_skillPoint",
          "type": "uint256"
        }
      ],
      "name": "setSkillPoint",
      "outputs": [],
      "stateMutability": "nonpayable",
      "type": "function"
    },
    {
      "inputs": [
        {
          "internalType": "uint256",
          "name": "_tokenId",
          "type": "uint256"
        }
      ],
      "name": "getGeneration",
      "outputs": [
        {
          "internalType": "uint256",
          "name": "",
          "type": "uint256"
        }
      ],
      "stateMutability": "view",
      "type": "function"
    },
    {
      "inputs": [
        {
          "internalType": "uint256",
          "name": "_tokenId",
          "type": "uint256"
        },
        {
          "internalType": "uint256",
          "name": "_gen",
          "type": "uint256"
        }
      ],
      "name": "setGeneration",
      "outputs": [],
      "stateMutability": "nonpayable",
      "type": "function"
    },
    {
      "inputs": [
        {
          "internalType": "uint256",
          "name": "_tokenId",
          "type": "uint256"
        }
      ],
      "name": "getLevel",
      "outputs": [
        {
          "internalType": "uint256",
          "name": "",
          "type": "uint256"
        }
      ],
      "stateMutability": "view",
      "type": "function"
    },
    {
      "inputs": [
        {
          "internalType": "uint256",
          "name": "_tokenId",
          "type": "uint256"
        },
        {
          "internalType": "uint256",
          "name": "_level",
          "type": "uint256"
        }
      ],
      "name": "setLevel",
      "outputs": [],
      "stateMutability": "nonpayable",
      "type": "function"
    },
    {
      "inputs": [
        {
          "internalType": "uint256",
          "name": "_tokenId",
          "type": "uint256"
        }
      ],
      "name": "getPosition",
      "outputs": [
        {
          "internalType": "string",
          "name": "",
          "type": "string"
        }
      ],
      "stateMutability": "view",
      "type": "function"
    },
    {
      "inputs": [
        {
          "internalType": "uint256",
          "name": "_tokenId",
          "type": "uint256"
        },
        {
          "internalType": "string",
          "name": "_position",
          "type": "string"
        }
      ],
      "name": "setPosition",
      "outputs": [],
      "stateMutability": "nonpayable",
      "type": "function"
    },
    {
      "inputs": [
        {
          "internalType": "uint256",
          "name": "_tokenId",
          "type": "uint256"
        }
      ],
      "name": "getRarity",
      "outputs": [
        {
          "internalType": "string",
          "name": "",
          "type": "string"
        }
      ],
      "stateMutability": "view",
      "type": "function"
    },
    {
      "inputs": [
        {
          "internalType": "uint256",
          "name": "_tokenId",
          "type": "uint256"
        },
        {
          "internalType": "string",
          "name": "_rarity",
          "type": "string"
        }
      ],
      "name": "setRarity",
      "outputs": [],
      "stateMutability": "nonpayable",
      "type": "function"
    },
    {
      "inputs": [
        {
          "internalType": "uint256",
          "name": "_tokenId",
          "type": "uint256"
        }
      ],
      "name": "getClass",
      "outputs": [
        {
          "internalType": "string",
          "name": "",
          "type": "string"
        }
      ],
      "stateMutability": "view",
      "type": "function"
    },
    {
      "inputs": [
        {
          "internalType": "uint256",
          "name": "_tokenId",
          "type": "uint256"
        },
        {
          "internalType": "string",
          "name": "_class",
          "type": "string"
        }
      ],
      "name": "setClass",
      "outputs": [],
      "stateMutability": "nonpayable",
      "type": "function"
    },
    {
      "inputs": [
        {
          "internalType": "uint256",
          "name": "tokenId",
          "type": "uint256"
        }
      ],
      "name": "burn",
      "outputs": [],
      "stateMutability": "nonpayable",
      "type": "function"
    },
    {
      "inputs": [
        {
          "internalType": "bytes4",
          "name": "interfaceId",
          "type": "bytes4"
        }
      ],
      "name": "supportsInterface",
      "outputs": [
        {
          "internalType": "bool",
          "name": "",
          "type": "bool"
        }
      ],
      "stateMutability": "view",
      "type": "function"
    }
  ],
  "bytecode": "0x60806040523480156200001157600080fd5b506040516200440038038062004400833981016040819052620000349162000325565b6040518060400160405280601381526020017f4e6f6e2d46756e6769626c6520506c61796572000000000000000000000000008152506040518060400160405280600381526020017f4e46500000000000000000000000000000000000000000000000000000000000815250620000cc620000bd62000176640100000000026401000000009004565b6401000000006200017a810204565b8151620000e1906002906020850190620001cc565b508051620000f7906003906020840190620001cc565b505050600b859055600f8054600160a060020a031916600160a060020a03861617905582516200012f90600d906020860190620001cc565b506064600c5581516200014a90600e906020850190620001cc565b50600a8054600160a060020a031916600160a060020a0392909216919091179055506200046092505050565b3390565b60018054600160a060020a03838116600160a060020a0319831681179093556040519116919082907f8be0079c531659141344cd1fd0a4f28419497f9722a3daafe3b4186f6b6457e090600090a35050565b828054620001da90620003c2565b90600052602060002090601f016020900481019282620001fe576000855562000249565b82601f106200021957805160ff191683800117855562000249565b8280016001018555821562000249579182015b82811115620002495782518255916020019190600101906200022c565b50620002579291506200025b565b5090565b5b808211156200025757600081556001016200025c565b600082601f83011262000283578081fd5b81516001604060020a0380821115620002a057620002a062000418565b604051601f8301601f19908116603f01168101908282118183101715620002cb57620002cb62000418565b81604052838152602092508683858801011115620002e7578485fd5b8491505b838210156200030a5785820183015181830184015290820190620002eb565b838211156200031b57848385830101525b9695505050505050565b600080600080600060a086880312156200033d578081fd5b855194506020860151620003518162000447565b60408701519094506001604060020a03808211156200036e578283fd5b6200037c89838a0162000272565b9450606088015191508082111562000392578283fd5b50620003a18882890162000272565b9250506080860151620003b48162000447565b809150509295509295909350565b600281046001821680620003d757607f821691505b6020821081141562000412577f4e487b7100000000000000000000000000000000000000000000000000000000600052602260045260246000fd5b50919050565b7f4e487b7100000000000000000000000000000000000000000000000000000000600052604160045260246000fd5b600160a060020a03811681146200045d57600080fd5b50565b613f9080620004706000396000f3fe608060405234801561001057600080fd5b50600436106103aa576000357c010000000000000000000000000000000000000000000000000000000090048063714c5398116101fb578063a8c3c8501161012c578063db3843c6116100ca578063e670472311610099578063e6704723146107d8578063e985e9c5146107e0578063eb02c3011461081c578063f2fde38b1461082f57600080fd5b8063db3843c61461076c578063db44fe071461078f578063e074278d146107b2578063e36db2fb146107c557600080fd5b8063beabacc811610106578063beabacc814610720578063c3d6ee7f14610733578063c87b56dd14610746578063d547741f1461075957600080fd5b8063a8c3c850146106e7578063b5c82bd1146106fa578063b88d4fde1461070d57600080fd5b806391d14854116101995780639c96b2f7116101735780639c96b2f7146106bb578063a035b1fe146106c3578063a217fddf146106cc578063a22cb465146106d457600080fd5b806391d148541461069857806395d89b41146106ab57806399a2f2d7146106b357600080fd5b806386481d40116101d557806386481d401461063e5780638a26d4ec146106615780638da5cb5b1461067457806391b7f5ed1461068557600080fd5b8063714c53981461061b578063715018a61461062357806380e719c61461062b57600080fd5b8063363e9fb1116102e0578063512d62df1161027e5780636352211e1161024d5780636352211e146105da5780636c0360eb146105ed57806370a08231146105f557806370a93b361461060857600080fd5b8063512d62df1461058b57806355f804b31461059e57806356e3df97146105b157806357e871e7146105d157600080fd5b806342842e0e116102ba57806342842e0e1461054c57806342966c681461055f57806342cbb15c14610572578063487586971461057857600080fd5b8063363e9fb11461051357806336568abe1461052657806336e3c0901461053957600080fd5b8063128ae7121161034d578063248a9ca311610327578063248a9ca3146104a557806328091904146104c85780632de4f3db146104db5780632f2ff15d1461050057600080fd5b8063128ae7121461047557806318160ddd1461048a57806323b872dd1461049257600080fd5b806306fdde031161038957806306fdde031461040f578063081812fc14610424578063095ea7b31461044f5780631280c0471461046257600080fd5b8062497846146103af57806301ffc9a7146103d757806304d5ef3f146103fa575b600080fd5b6103c4600080516020613f3b83398151915281565b6040519081526020015b60405180910390f35b6103ea6103e5366004613852565b610842565b60405190151581526020016103ce565b61040d61040836600461391a565b610853565b005b61041761087f565b6040516103ce9190613c5f565b610437610432366004613818565b610911565b604051600160a060020a0390911681526020016103ce565b61040d61045d36600461372c565b6109b2565b6103c4610470366004613755565b610aea565b61047d610c7d565b6040516103ce9190613c1b565b6103c4610f6c565b61040d6104a0366004613642565b610f7c565b6103c46104b3366004613818565b60009081526020819052604090206001015490565b61040d6104d636600461393b565b610fb0565b6104ee6104e9366004613818565b611073565b6040516103ce96959493929190613d61565b61040d61050e366004613830565b611242565b61040d6105213660046135f6565b611268565b61040d610534366004613830565b611318565b61040d6105473660046138d5565b6113a7565b61040d61055a366004613642565b6113ed565b61040d61056d366004613818565b611408565b436103c4565b610417610586366004613818565b611446565b610417610599366004613818565b6114eb565b61040d6105ac36600461388a565b61150b565b6103c46105bf366004613818565b60009081526010602052604090205490565b6103c4600b5481565b6104376105e8366004613818565b61154b565b6104176115d9565b6103c46106033660046135f6565b611667565b61040d61061636600461391a565b611704565b610417611733565b61040d6117c9565b610417610639366004613818565b611802565b6103c461064c366004613818565b60009081526010602052604090206001015490565b61040d61066f3660046138d5565b611816565b600154600160a060020a0316610437565b61040d610693366004613818565b611855565b6103ea6106a6366004613830565b611887565b6104176118b0565b6104176118bf565b61040d6118cc565b6103c4600c5481565b6103c4600081565b61040d6106e23660046136f6565b611f82565b61040d6106f5366004613818565b611f8d565b61040d6107083660046138d5565b611fbf565b61040d61071b36600461367d565b611ffe565b61040d61072e366004613642565b612039565b61040d61074136600461388a565b612071565b610417610754366004613818565b6120b1565b61040d610767366004613830565b612237565b6103c461077a366004613818565b60009081526010602052604090206002015490565b6103ea61079d366004613818565b60116020526000908152604090205460ff1681565b61040d6107c03660046135f6565b61225d565b61040d6107d336600461391a565b612338565b610437612367565b6103ea6107ee366004613610565b600160a060020a03918216600090815260076020908152604080832093909416825291909152205460ff1690565b61041761082a366004613818565b6123a7565b61040d61083d3660046135f6565b6123c7565b600061084d8261247c565b92915050565b600080516020613f3b83398151915261086c81336124ee565b5060009182526010602052604090912055565b60606002805461088e90613e5e565b80601f01602080910402602001604051908101604052809291908181526020018280546108ba90613e5e565b80156109075780601f106108dc57610100808354040283529160200191610907565b820191906000526020600020905b8154815290600101906020018083116108ea57829003601f168201915b5050505050905090565b600061091c82612555565b6109965760405160e560020a62461bcd02815260206004820152602c60248201527f4552433732313a20617070726f76656420717565727920666f72206e6f6e657860448201527f697374656e7420746f6b656e000000000000000000000000000000000000000060648201526084015b60405180910390fd5b50600090815260066020526040902054600160a060020a031690565b60006109bd8261154b565b905080600160a060020a031683600160a060020a03161415610a4a5760405160e560020a62461bcd02815260206004820152602160248201527f4552433732313a20617070726f76616c20746f2063757272656e74206f776e6560448201527f7200000000000000000000000000000000000000000000000000000000000000606482015260840161098d565b33600160a060020a0382161480610a665750610a6681336107ee565b610adb5760405160e560020a62461bcd02815260206004820152603860248201527f4552433732313a20617070726f76652063616c6c6572206973206e6f74206f7760448201527f6e6572206e6f7220617070726f76656420666f7220616c6c0000000000000000606482015260840161098d565b610ae58383612572565b505050565b6000600080516020613f3b833981519152610b0581336124ee565b610b13600980546001019055565b6000610b1e60095490565b6000898152601060205260408082206001808201548c8552928420808201546002808501549201548f875293549697509395939490939091610b609190613db9565b90506040518060c00160405280828152602001858711610b805785610b82565b865b8152602001838511610b945783610b96565b845b815260208082018e905260408083018e905260609283018d905260008a81526010835281902084518155848301516001820155908401516002820155918301518051610be89260038501920190613476565b5060808201518051610c04916004840191602090910190613476565b5060a08201518051610c20916005840191602090910190613476565b50905050610c2e8e876125ed565b6000600d600e610c3d89612733565b604051602001610c4f93929190613adc565b6040516020818303038152906040529050610c6a878261288e565b50949d9c50505050505050505050505050565b6060600080610c8b60095490565b90506000805b82811015610ce05760116000610ca8836001613db9565b815260208101919091526040016000205460ff16610cce5783610cca81613e9c565b9450505b80610cd881613e9c565b915050610c91565b5060008367ffffffffffffffff811115610d0d5760e060020a634e487b7102600052604160045260246000fd5b604051908082528060200260200182016040528015610d36578160200160208202803683370190505b50905060005b83811015610dc45760116000610d53836001613db9565b815260208101919091526040016000205460ff16610db257610d76816001613db9565b828481518110610d995760e060020a634e487b7102600052603260045260246000fd5b602090810291909101015282610dae81613e9c565b9350505b80610dbc81613e9c565b915050610d3c565b50600093506000915060005b8151811015610e455733600160a060020a0316610e16838381518110610e095760e060020a634e487b7102600052603260045260246000fd5b602002602001015161154b565b600160a060020a03161415610e335784610e2f81613e9c565b9550505b80610e3d81613e9c565b915050610dd0565b5060008467ffffffffffffffff811115610e725760e060020a634e487b7102600052604160045260246000fd5b604051908082528060200260200182016040528015610e9b578160200160208202803683370190505b50905060005b8251811015610f625733600160a060020a0316610eda848381518110610e095760e060020a634e487b7102600052603260045260246000fd5b600160a060020a03161415610f5057828181518110610f0c5760e060020a634e487b7102600052603260045260246000fd5b6020026020010151828581518110610f375760e060020a634e487b7102600052603260045260246000fd5b602090810291909101015283610f4c81613e9c565b9450505b80610f5a81613e9c565b915050610ea1565b5095945050505050565b6000610f7760095490565b905090565b610f86338261292b565b610fa55760405160e560020a62461bcd02815260040161098d90613d04565b610ae5838383612a25565b600080516020613f3b833981519152610fc981336124ee565b6040805160c0810182528881526020808201898152828401898152606084018981526080850189905260a0850188905260008e8152601085529590952084518155915160018301555160028201559251805192939261102e9260038501920190613476565b506080820151805161104a916004840191602090910190613476565b5060a08201518051611066916005840191602090910190613476565b5050505050505050505050565b6010602052600090815260409020805460018201546002830154600384018054939492939192916110a390613e5e565b80601f01602080910402602001604051908101604052809291908181526020018280546110cf90613e5e565b801561111c5780601f106110f15761010080835404028352916020019161111c565b820191906000526020600020905b8154815290600101906020018083116110ff57829003601f168201915b50505050509080600401805461113190613e5e565b80601f016020809104026020016040519081016040528092919081815260200182805461115d90613e5e565b80156111aa5780601f1061117f576101008083540402835291602001916111aa565b820191906000526020600020905b81548152906001019060200180831161118d57829003601f168201915b5050505050908060050180546111bf90613e5e565b80601f01602080910402602001604051908101604052809291908181526020018280546111eb90613e5e565b80156112385780601f1061120d57610100808354040283529160200191611238565b820191906000526020600020905b81548152906001019060200180831161121b57829003601f168201915b5050505050905086565b60008281526020819052604090206001015461125e81336124ee565b610ae58383612c05565b600154600160a060020a031633146112955760405160e560020a62461bcd02815260040161098d90613ccf565b6112ad600080516020613f3b83398151915282611887565b156112fd5760405160e560020a62461bcd02815260206004820152601960248201527f416c726561647920686176652075706461746520726f6c652100000000000000604482015260640161098d565b611315600080516020613f3b83398151915282612c89565b50565b600160a060020a03811633146113995760405160e560020a62461bcd02815260206004820152602f60248201527f416363657373436f6e74726f6c3a2063616e206f6e6c792072656e6f756e636560448201527f20726f6c657320666f722073656c660000000000000000000000000000000000606482015260840161098d565b6113a38282612c93565b5050565b600080516020613f3b8339815191526113c081336124ee565b6000838152601060209081526040909120835190916113e6916003840191860190613476565b5050505050565b610ae583838360405180602001604052806000815250611ffe565b600080516020613f3b83398151915261142181336124ee565b61142a82612cf8565b506000908152601160205260409020805460ff19166001179055565b600081815260106020526040902060040180546060919061146690613e5e565b80601f016020809104026020016040519081016040528092919081815260200182805461149290613e5e565b80156114df5780601f106114b4576101008083540402835291602001916114df565b820191906000526020600020905b8154815290600101906020018083116114c257829003601f168201915b50505050509050919050565b600081815260106020526040902060050180546060919061146690613e5e565b600154600160a060020a031633146115385760405160e560020a62461bcd02815260040161098d90613ccf565b80516113a390600d906020840190613476565b600081815260046020526040812054600160a060020a03168061084d5760405160e560020a62461bcd02815260206004820152602960248201527f4552433732313a206f776e657220717565727920666f72206e6f6e657869737460448201527f656e7420746f6b656e0000000000000000000000000000000000000000000000606482015260840161098d565b600d80546115e690613e5e565b80601f016020809104026020016040519081016040528092919081815260200182805461161290613e5e565b801561165f5780601f106116345761010080835404028352916020019161165f565b820191906000526020600020905b81548152906001019060200180831161164257829003601f168201915b505050505081565b6000600160a060020a0382166116e85760405160e560020a62461bcd02815260206004820152602a60248201527f4552433732313a2062616c616e636520717565727920666f7220746865207a6560448201527f726f206164647265737300000000000000000000000000000000000000000000606482015260840161098d565b50600160a060020a031660009081526005602052604090205490565b600080516020613f3b83398151915261171d81336124ee565b5060009182526010602052604090912060010155565b60606000600d805461174490613e5e565b80601f016020809104026020016040519081016040528092919081815260200182805461177090613e5e565b80156117bd5780601f10611792576101008083540402835291602001916117bd565b820191906000526020600020905b8154815290600101906020018083116117a057829003601f168201915b50939695505050505050565b600154600160a060020a031633146117f65760405160e560020a62461bcd02815260040161098d90613ccf565b6118006000612d38565b565b6060600061180f836120b1565b9392505050565b600080516020613f3b83398151915261182f81336124ee565b6000838152601060209081526040909120835190916113e6916005840191860190613476565b600154600160a060020a031633146118825760405160e560020a62461bcd02815260040161098d90613ccf565b600c55565b600091825260208281526040808420600160a060020a0393909316845291905290205460ff1690565b60606003805461088e90613e5e565b600e80546115e690613e5e565b336119425760405160e560020a62461bcd02815260206004820152602260248201527f4d696e7420416464726573732063616e2774206265207a65726f20616464726560448201527f7373000000000000000000000000000000000000000000000000000000000000606482015260840161098d565b6203e80061194f60095490565b1061199f5760405160e560020a62461bcd02815260206004820152601160248201527f416c6c204e4650732061726520736f6c64000000000000000000000000000000604482015260640161098d565b600c546119b490670de0b6b3a7640000613de5565b600f546040517f70a08231000000000000000000000000000000000000000000000000000000008152336004820152600160a060020a03909116906370a082319060240160206040518083038186803b158015611a1057600080fd5b505afa158015611a24573d6000803e3d6000fd5b505050506040513d601f19601f82011682018060405250810190611a4891906138bd565b1015611abf5760405160e560020a62461bcd02815260206004820152603360248201527f42616c616e6365206f6620476f6c20746f6b656e206973206e6f7420656e6f7560448201527f67687420746f2062757920426c696e64426f7800000000000000000000000000606482015260840161098d565b600f54600a54600c54600160a060020a03928316926323b872dd923392911690611af190670de0b6b3a7640000613de5565b6040517c010000000000000000000000000000000000000000000000000000000063ffffffff8616028152600160a060020a0393841660048201529290911660248301526044820152606401602060405180830381600087803b158015611b5757600080fd5b505af1158015611b6b573d6000803e3d6000fd5b505050506040513d601f19601f82011682018060405250810190611b8f91906137fc565b50611b9e600980546001019055565b6000611ba960095490565b90506000600d600e611bba84612733565b604051602001611bcc93929190613adc565b60405160208183030381529060405290506060806000611bed612710612d97565b905061157c811115611c36576040518060400160405280600681526020017f436f6d6d6f6e00000000000000000000000000000000000000000000000000008152509250611d43565b6107d0811115611c7d576040518060400160405280600881526020017f556e636f6d6d6f6e0000000000000000000000000000000000000000000000008152509250611d43565b6101f4811115611cc4576040518060400160405280600481526020017f52617265000000000000000000000000000000000000000000000000000000008152509250611d43565b6064811115611d0a576040518060400160405280600981526020017f4c6567656e6461727900000000000000000000000000000000000000000000008152509250611d43565b6040518060400160405280600881526020017f4d7974686963616c00000000000000000000000000000000000000000000000081525092505b611d4e612710612d97565b9050611d4c811115611d97576040518060400160405280600681526020017f476f616c696500000000000000000000000000000000000000000000000000008152509150611e5e565b611388811115611dde576040518060400160405280600881526020017f446566656e6465720000000000000000000000000000000000000000000000008152509150611e5e565b6109c4811115611e25576040518060400160405280600a81526020017f4d69646669656c646572000000000000000000000000000000000000000000008152509150611e5e565b6040518060400160405280600781526020017f537472696b65720000000000000000000000000000000000000000000000000081525091505b6040805160c0810182526000808252602080830182815283850183815260608501888152608086018a905286518088018852600681527f526f6f6b696500000000000000000000000000000000000000000000000000008186015260a08701528b855260108452959093208451815590516001820155915160028301559251805192939192611ef39260038501920190613476565b5060808201518051611f0f916004840191602090910190613476565b5060a08201518051611f2b916005840191602090910190613476565b50905050611f3933866125ed565b611f43858561288e565b847f3ca34f54675bad9d785db929cb916abd42ddf71feb18d41797015aa66e3d8c3185604051611f739190613c5f565b60405180910390a25050505050565b6113a3338383612dde565b600154600160a060020a03163314611fba5760405160e560020a62461bcd02815260040161098d90613ccf565b600b55565b600080516020613f3b833981519152611fd881336124ee565b6000838152601060209081526040909120835190916113e6916004840191860190613476565b612008338361292b565b6120275760405160e560020a62461bcd02815260040161098d90613d04565b61203384848484612eb0565b50505050565b600154600160a060020a031633146120665760405160e560020a62461bcd02815260040161098d90613ccf565b610ae5838383610f7c565b600154600160a060020a0316331461209e5760405160e560020a62461bcd02815260040161098d90613ccf565b80516113a390600e906020840190613476565b60606120bc82612555565b6121315760405160e560020a62461bcd02815260206004820152603160248201527f45524337323155524953746f726167653a2055524920717565727920666f722060448201527f6e6f6e6578697374656e7420746f6b656e000000000000000000000000000000606482015260840161098d565b6000828152600860205260408120805461214a90613e5e565b80601f016020809104026020016040519081016040528092919081815260200182805461217690613e5e565b80156121c35780601f10612198576101008083540402835291602001916121c3565b820191906000526020600020905b8154815290600101906020018083116121a657829003601f168201915b5050505050905060006121e160408051602081019091526000815290565b90508051600014156121f4575092915050565b81511561222657808260405160200161220e929190613aad565b60405160208183030381529060405292505050919050565b61222f84612ee6565b949350505050565b60008281526020819052604090206001015461225381336124ee565b610ae58383612c93565b600154600160a060020a0316331461228a5760405160e560020a62461bcd02815260040161098d90613ccf565b600160a060020a0381166123095760405160e560020a62461bcd02815260206004820152602360248201527f4f776e657220416464726573732063616e2774206265207a65726f206164647260448201527f6573730000000000000000000000000000000000000000000000000000000000606482015260840161098d565b600a805473ffffffffffffffffffffffffffffffffffffffff1916600160a060020a0392909216919091179055565b600080516020613f3b83398151915261235181336124ee565b5060009182526010602052604090912060020155565b600154600090600160a060020a031633146123975760405160e560020a62461bcd02815260040161098d90613ccf565b50600a54600160a060020a031690565b600081815260106020526040902060030180546060919061146690613e5e565b600154600160a060020a031633146123f45760405160e560020a62461bcd02815260040161098d90613ccf565b600160a060020a0381166124735760405160e560020a62461bcd02815260206004820152602660248201527f4f776e61626c653a206e6577206f776e657220697320746865207a65726f206160448201527f6464726573730000000000000000000000000000000000000000000000000000606482015260840161098d565b61131581612d38565b6000600160e060020a031982167f80ac58cd0000000000000000000000000000000000000000000000000000000014806124df5750600160e060020a031982167f5b5e139f00000000000000000000000000000000000000000000000000000000145b8061084d575061084d82612fce565b6124f88282611887565b6113a35761251081600160a060020a03166014613035565b61251b836020613035565b60405160200161252c929190613b5e565b60408051601f198184030181529082905260e560020a62461bcd02825261098d91600401613c5f565b600090815260046020526040902054600160a060020a0316151590565b6000818152600660205260409020805473ffffffffffffffffffffffffffffffffffffffff1916600160a060020a03841690811790915581906125b48261154b565b600160a060020a03167f8c5be1e5ebec7d5bd14f71427d1e84f3dd0314c0f7b2291e5b200ac8c7c3b92560405160405180910390a45050565b600160a060020a0382166126465760405160e560020a62461bcd02815260206004820181905260248201527f4552433732313a206d696e7420746f20746865207a65726f2061646472657373604482015260640161098d565b61264f81612555565b1561269f5760405160e560020a62461bcd02815260206004820152601c60248201527f4552433732313a20746f6b656e20616c7265616479206d696e74656400000000604482015260640161098d565b600160a060020a03821660009081526005602052604081208054600192906126c8908490613db9565b9091555050600081815260046020526040808220805473ffffffffffffffffffffffffffffffffffffffff1916600160a060020a03861690811790915590518392907fddf252ad1be2c89b69c2b068fc378daa952ba7f163c4a11628f55a4df523b3ef908290a45050565b60608161277357505060408051808201909152600181527f3000000000000000000000000000000000000000000000000000000000000000602082015290565b8160005b811561279d578061278781613e9c565b91506127969050600a83613dd1565b9150612777565b60008167ffffffffffffffff8111156127c95760e060020a634e487b7102600052604160045260246000fd5b6040519080825280601f01601f1916602001820160405280156127f3576020820181803683370190505b5090505b841561222f57612808600183613e04565b9150612815600a86613eb7565b612820906030613db9565b7f0100000000000000000000000000000000000000000000000000000000000000028183815181106128655760e060020a634e487b7102600052603260045260246000fd5b6020010190600160f860020a031916908160001a905350612887600a86613dd1565b94506127f7565b61289782612555565b61290c5760405160e560020a62461bcd02815260206004820152602e60248201527f45524337323155524953746f726167653a2055524920736574206f66206e6f6e60448201527f6578697374656e7420746f6b656e000000000000000000000000000000000000606482015260840161098d565b60008281526008602090815260409091208251610ae592840190613476565b600061293682612555565b6129ab5760405160e560020a62461bcd02815260206004820152602c60248201527f4552433732313a206f70657261746f7220717565727920666f72206e6f6e657860448201527f697374656e7420746f6b656e0000000000000000000000000000000000000000606482015260840161098d565b60006129b68361154b565b905080600160a060020a031684600160a060020a031614806129f1575083600160a060020a03166129e684610911565b600160a060020a0316145b8061222f5750600160a060020a0380821660009081526007602090815260408083209388168352929052205460ff1661222f565b82600160a060020a0316612a388261154b565b600160a060020a031614612ab75760405160e560020a62461bcd02815260206004820152602560248201527f4552433732313a207472616e736665722066726f6d20696e636f72726563742060448201527f6f776e6572000000000000000000000000000000000000000000000000000000606482015260840161098d565b600160a060020a038216612b355760405160e560020a62461bcd028152602060048201526024808201527f4552433732313a207472616e7366657220746f20746865207a65726f2061646460448201527f7265737300000000000000000000000000000000000000000000000000000000606482015260840161098d565b612b40600082612572565b600160a060020a0383166000908152600560205260408120805460019290612b69908490613e04565b9091555050600160a060020a0382166000908152600560205260408120805460019290612b97908490613db9565b9091555050600081815260046020526040808220805473ffffffffffffffffffffffffffffffffffffffff1916600160a060020a0386811691821790925591518493918716917fddf252ad1be2c89b69c2b068fc378daa952ba7f163c4a11628f55a4df523b3ef91a4505050565b612c0f8282611887565b6113a357600082815260208181526040808320600160a060020a03851684529091529020805460ff19166001179055612c453390565b600160a060020a031681600160a060020a0316837f2f8788117e7eff1d82e926ec794901d17c78024a50270940304540a733656f0d60405160405180910390a45050565b6113a38282612c05565b612c9d8282611887565b156113a357600082815260208181526040808320600160a060020a0385168085529252808320805460ff1916905551339285917ff6391f5c32d9c69d2a47ea670b442974b53935d1edc7fd64eb21e047a839171b9190a45050565b612d018161328c565b60008181526008602052604090208054612d1a90613e5e565b159050611315576000818152600860205260408120611315916134fa565b60018054600160a060020a0383811673ffffffffffffffffffffffffffffffffffffffff19831681179093556040519116919082907f8be0079c531659141344cd1fd0a4f28419497f9722a3daafe3b4186f6b6457e090600090a35050565b6040805142602080830191909152336c010000000000000000000000000282840152825160348184030181526054909201909252805191012060009061084d908390613eb7565b81600160a060020a031683600160a060020a03161415612e435760405160e560020a62461bcd02815260206004820152601960248201527f4552433732313a20617070726f766520746f2063616c6c657200000000000000604482015260640161098d565b600160a060020a03838116600081815260076020908152604080832094871680845294825291829020805460ff191686151590811790915591519182527f17307eab39ab6107e8899845ad3d59bd9653f200f220920489ca2b5937696c31910160405180910390a3505050565b612ebb848484612a25565b612ec784848484613334565b6120335760405160e560020a62461bcd02815260040161098d90613c72565b6060612ef182612555565b612f665760405160e560020a62461bcd02815260206004820152602f60248201527f4552433732314d657461646174613a2055524920717565727920666f72206e6f60448201527f6e6578697374656e7420746f6b656e0000000000000000000000000000000000606482015260840161098d565b6000612f7d60408051602081019091526000815290565b90506000815111612f9d576040518060200160405280600081525061180f565b80612fa784612733565b604051602001612fb8929190613aad565b6040516020818303038152906040529392505050565b6000600160e060020a031982167f7965db0b00000000000000000000000000000000000000000000000000000000148061084d57507f01ffc9a700000000000000000000000000000000000000000000000000000000600160e060020a031983161461084d565b60606000613044836002613de5565b61304f906002613db9565b67ffffffffffffffff8111156130785760e060020a634e487b7102600052604160045260246000fd5b6040519080825280601f01601f1916602001820160405280156130a2576020820181803683370190505b5090507f3000000000000000000000000000000000000000000000000000000000000000816000815181106130ea5760e060020a634e487b7102600052603260045260246000fd5b6020010190600160f860020a031916908160001a9053507f7800000000000000000000000000000000000000000000000000000000000000816001815181106131465760e060020a634e487b7102600052603260045260246000fd5b6020010190600160f860020a031916908160001a905350600061316a846002613de5565b613175906001613db9565b90505b600181111561323a577f303132333435363738396162636465660000000000000000000000000000000085600f16601081106131c75760e060020a634e487b7102600052603260045260246000fd5b1a7f01000000000000000000000000000000000000000000000000000000000000000282828151811061320d5760e060020a634e487b7102600052603260045260246000fd5b6020010190600160f860020a031916908160001a90535060109094049361323381613e47565b9050613178565b50831561180f5760405160e560020a62461bcd02815260206004820181905260248201527f537472696e67733a20686578206c656e67746820696e73756666696369656e74604482015260640161098d565b60006132978261154b565b90506132a4600083612572565b600160a060020a03811660009081526005602052604081208054600192906132cd908490613e04565b9091555050600082815260046020526040808220805473ffffffffffffffffffffffffffffffffffffffff1916905551839190600160a060020a038416907fddf252ad1be2c89b69c2b068fc378daa952ba7f163c4a11628f55a4df523b3ef908390a45050565b6000600160a060020a0384163b1561346b576040517f150b7a02000000000000000000000000000000000000000000000000000000008152600160a060020a0385169063150b7a0290613391903390899088908890600401613bdf565b602060405180830381600087803b1580156133ab57600080fd5b505af19250505080156133db575060408051601f3d908101601f191682019092526133d89181019061386e565b60015b613438573d808015613409576040519150601f19603f3d011682016040523d82523d6000602084013e61340e565b606091505b5080516134305760405160e560020a62461bcd02815260040161098d90613c72565b805181602001fd5b600160e060020a0319167f150b7a020000000000000000000000000000000000000000000000000000000014905061222f565b506001949350505050565b82805461348290613e5e565b90600052602060002090601f0160209004810192826134a457600085556134ea565b82601f106134bd57805160ff19168380011785556134ea565b828001600101855582156134ea579182015b828111156134ea5782518255916020019190600101906134cf565b506134f6929150613530565b5090565b50805461350690613e5e565b6000825580601f10613516575050565b601f01602090049060005260206000209081019061131591905b5b808211156134f65760008155600101613531565b600067ffffffffffffffff8084111561356057613560613efd565b604051601f8501601f19908116603f0116810190828211818310171561358857613588613efd565b816040528093508581528686860111156135a157600080fd5b858560208301376000602087830101525050509392505050565b8035600160a060020a03811681146135d257600080fd5b919050565b600082601f8301126135e7578081fd5b61180f83833560208501613545565b600060208284031215613607578081fd5b61180f826135bb565b60008060408385031215613622578081fd5b61362b836135bb565b9150613639602084016135bb565b90509250929050565b600080600060608486031215613656578081fd5b61365f846135bb565b925061366d602085016135bb565b9150604084013590509250925092565b60008060008060808587031215613692578081fd5b61369b856135bb565b93506136a9602086016135bb565b925060408501359150606085013567ffffffffffffffff8111156136cb578182fd5b8501601f810187136136db578182fd5b6136ea87823560208401613545565b91505092959194509250565b60008060408385031215613708578182fd5b613711836135bb565b9150602083013561372181613f16565b809150509250929050565b6000806040838503121561373e578182fd5b613747836135bb565b946020939093013593505050565b60008060008060008060c0878903121561376d578182fd5b613776876135bb565b95506020870135945060408701359350606087013567ffffffffffffffff808211156137a0578384fd5b6137ac8a838b016135d7565b945060808901359150808211156137c1578384fd5b6137cd8a838b016135d7565b935060a08901359150808211156137e2578283fd5b506137ef89828a016135d7565b9150509295509295509295565b60006020828403121561380d578081fd5b815161180f81613f16565b600060208284031215613829578081fd5b5035919050565b60008060408385031215613842578182fd5b82359150613639602084016135bb565b600060208284031215613863578081fd5b813561180f81613f24565b60006020828403121561387f578081fd5b815161180f81613f24565b60006020828403121561389b578081fd5b813567ffffffffffffffff8111156138b1578182fd5b61222f848285016135d7565b6000602082840312156138ce578081fd5b5051919050565b600080604083850312156138e7578182fd5b82359150602083013567ffffffffffffffff811115613904578182fd5b613910858286016135d7565b9150509250929050565b6000806040838503121561392c578182fd5b50508035926020909101359150565b600080600080600080600060e0888a031215613955578485fd5b87359650602088013595506040880135945060608801359350608088013567ffffffffffffffff80821115613988578283fd5b6139948b838c016135d7565b945060a08a01359150808211156139a9578283fd5b6139b58b838c016135d7565b935060c08a01359150808211156139ca578283fd5b506139d78a828b016135d7565b91505092959891949750929550565b600081518084526139fe816020860160208601613e1b565b601f01601f19169290920160200192915050565b805460009060028104600180831680613a2c57607f831692505b6020808410821415613a4f5760e060020a634e487b710286526022600452602486fd5b818015613a635760018114613a7457613aa1565b60ff19861689528489019650613aa1565b60008881526020902060005b86811015613a995781548b820152908501908301613a80565b505084890196505b50505050505092915050565b60008351613abf818460208801613e1b565b835190830190613ad3818360208801613e1b565b01949350505050565b6000613af1613aeb8387613a12565b85613a12565b7f2f0000000000000000000000000000000000000000000000000000000000000081528351613b27816001840160208801613e1b565b7f2e6a736f6e0000000000000000000000000000000000000000000000000000006001929091019182015260060195945050505050565b7f416363657373436f6e74726f6c3a206163636f756e7420000000000000000000815260008351613b96816017850160208801613e1b565b7f206973206d697373696e6720726f6c65200000000000000000000000000000006017918401918201528351613bd3816028840160208801613e1b565b01602801949350505050565b6000600160a060020a03808716835280861660208401525083604083015260806060830152613c1160808301846139e6565b9695505050505050565b6020808252825182820181905260009190848201906040850190845b81811015613c5357835183529284019291840191600101613c37565b50909695505050505050565b60208152600061180f60208301846139e6565b60208082526032908201527f4552433732313a207472616e7366657220746f206e6f6e20455243373231526560408201527f63656976657220696d706c656d656e7465720000000000000000000000000000606082015260800190565b6020808252818101527f4f776e61626c653a2063616c6c6572206973206e6f7420746865206f776e6572604082015260600190565b60208082526031908201527f4552433732313a207472616e736665722063616c6c6572206973206e6f74206f60408201527f776e6572206e6f7220617070726f766564000000000000000000000000000000606082015260800190565b86815285602082015284604082015260c060608201526000613d8660c08301866139e6565b8281036080840152613d9881866139e6565b905082810360a0840152613dac81856139e6565b9998505050505050505050565b60008219821115613dcc57613dcc613ecb565b500190565b600082613de057613de0613ee4565b500490565b6000816000190483118215151615613dff57613dff613ecb565b500290565b600082821015613e1657613e16613ecb565b500390565b60005b83811015613e36578181015183820152602001613e1e565b838111156120335750506000910152565b600081613e5657613e56613ecb565b506000190190565b600281046001821680613e7257607f821691505b60208210811415613e965760e060020a634e487b7102600052602260045260246000fd5b50919050565b6000600019821415613eb057613eb0613ecb565b5060010190565b600082613ec657613ec6613ee4565b500690565b60e060020a634e487b7102600052601160045260246000fd5b60e060020a634e487b7102600052601260045260246000fd5b60e060020a634e487b7102600052604160045260246000fd5b801515811461131557600080fd5b600160e060020a03198116811461131557600080fdfe3ee192ac25847473237ced4bba57f848e1fd794930ff85b42823290580967205a2646970667358221220ff6fbb726b3d682902c40a372a42aa2016a73818abf206e7c2f70aedb7c38f8864736f6c63430008040033",
  "immutableReferences": {},
  "source": "// SPDX-License-Identifier: MIT\r\npragma solidity ^0.8.4;\r\n\r\nimport \"@openzeppelin/contracts/access/Ownable.sol\";\r\nimport \"@openzeppelin/contracts/access/AccessControl.sol\";\r\nimport \"@openzeppelin/contracts/utils/Counters.sol\";\r\nimport \"@openzeppelin/contracts/token/ERC721/ERC721.sol\";\r\nimport \"@openzeppelin/contracts/token/ERC721/extensions/ERC721URIStorage.sol\";\r\nimport \"@openzeppelin/contracts/utils/Strings.sol\";\r\nimport \"./interfaces/IBusd.sol\";\r\nimport \"./interfaces/INonFungiblePlayer.sol\";\r\n\r\ncontract NonFungiblePlayer is\r\n    AccessControl,\r\n    Ownable,\r\n    ERC721URIStorage,\r\n    INonFungiblePlayer\r\n{\r\n    using Counters for Counters.Counter;\r\n    Counters.Counter private _tokenIds;\r\n\r\n    bytes32 public constant UPDATE_ROLE = keccak256(\"UPDATE_ROLE\");\r\n\r\n    address private ownerAddr;\r\n    uint256 public blockNumber;\r\n    uint256 public price;\r\n    string public baseURI;\r\n    string public cID;\r\n\r\n    IBusd busd;\r\n\r\n    mapping(uint256 => NfpInfo) public nfps;\r\n    mapping(uint256 => bool) public isBurned;\r\n    event BuyBlindBox(uint256 indexed itemId, string metaHash);\r\n    event FusionSuccess(uint256 indexed tokenId);\r\n\r\n    constructor(\r\n        uint256 _blockNumber,\r\n        IBusd _busd,\r\n        string memory _baseURI,\r\n        string memory _cID,\r\n        address _ownerAddr\r\n    ) ERC721(\"Non-Fungible Player\", \"NFP\") {\r\n        blockNumber = _blockNumber;\r\n        busd = _busd;\r\n        baseURI = _baseURI;\r\n        price = 100;\r\n        cID = _cID;\r\n        ownerAddr = _ownerAddr;\r\n    }\r\n\r\n    function _rand(uint256 _modulus) internal view returns (uint256) {\r\n        return\r\n            uint256(keccak256(abi.encodePacked(block.timestamp, msg.sender))) %\r\n            _modulus;\r\n    }\r\n\r\n    function buyNFPBox() public {\r\n        require(msg.sender != address(0), \"Mint Address can't be zero address\");\r\n        // require(block.number >= blockNumber, \"NFPBox Sale is not started\");\r\n        require(_tokenIds.current() < 256000, \"All NFPs are sold\");\r\n        require(\r\n            busd.balanceOf(msg.sender) >= price * 10**18,\r\n            \"Balance of Gol token is not enought to buy BlindBox\"\r\n        );\r\n\r\n        busd.transferFrom(msg.sender, ownerAddr, price * 10**18);\r\n\r\n        _tokenIds.increment();\r\n        uint256 newItemId = _tokenIds.current();\r\n        string memory s = string(\r\n            abi.encodePacked(\r\n                baseURI,\r\n                cID,\r\n                \"/\",\r\n                Strings.toString(newItemId),\r\n                \".json\"\r\n            )\r\n        );\r\n\r\n        string memory rarityOfNew;\r\n        string memory positionOfNew;\r\n        uint256 randProbability = _rand(10000);\r\n\r\n        if (randProbability > 5500) {\r\n            rarityOfNew = \"Common\";\r\n        } else if (randProbability > 2000) {\r\n            rarityOfNew = \"Uncommon\";\r\n        } else if (randProbability > 500) {\r\n            rarityOfNew = \"Rare\";\r\n        } else if (randProbability > 100) {\r\n            rarityOfNew = \"Legendary\";\r\n        } else {\r\n            rarityOfNew = \"Mythical\";\r\n        }\r\n\r\n        randProbability = _rand(10000);\r\n\r\n        if (randProbability > 7500) {\r\n            positionOfNew = \"Goalie\";\r\n        } else if (randProbability > 5000) {\r\n            positionOfNew = \"Defender\";\r\n        } else if (randProbability > 2500) {\r\n            positionOfNew = \"Midfielder\";\r\n        } else {\r\n            positionOfNew = \"Striker\";\r\n        }\r\n\r\n        nfps[newItemId] = NfpInfo(\r\n            0,\r\n            0,\r\n            0,\r\n            positionOfNew,\r\n            rarityOfNew,\r\n            \"Rookie\"\r\n        );\r\n        _mint(msg.sender, newItemId);\r\n        _setTokenURI(newItemId, s);\r\n\r\n        emit BuyBlindBox(newItemId, s);\r\n    }\r\n\r\n    function mintFusionedNFP(\r\n        address _owner,\r\n        uint256 _tokenId1,\r\n        uint256 _tokenId2,\r\n        string memory _position,\r\n        string memory _rarity,\r\n        string memory _class\r\n    ) external override onlyRole(UPDATE_ROLE) returns (uint256) {\r\n        _tokenIds.increment();\r\n        uint256 newItemId = _tokenIds.current();\r\n\r\n        uint256 level1 = nfps[_tokenId1].level;\r\n        uint256 level2 = nfps[_tokenId2].level;\r\n        uint256 skillPoint1 = nfps[_tokenId1].skillPoint;\r\n        uint256 skillPoint2 = nfps[_tokenId2].skillPoint;\r\n        uint256 newGen = nfps[_tokenId1].gen + 1;\r\n\r\n        nfps[newItemId] = NfpInfo(\r\n            newGen,\r\n            level1 > level2 ? level1 : level2,\r\n            skillPoint1 > skillPoint2 ? skillPoint1 : skillPoint2,\r\n            _position,\r\n            _rarity,\r\n            _class\r\n        );\r\n        _mint(_owner, newItemId);\r\n\r\n        string memory s = string(\r\n            abi.encodePacked(\r\n                baseURI,\r\n                cID,\r\n                \"/\",\r\n                Strings.toString(newItemId),\r\n                \".json\"\r\n            )\r\n        );\r\n\r\n        _setTokenURI(newItemId, s);\r\n        return newItemId;\r\n        emit FusionSuccess(newItemId);\r\n    }\r\n\r\n    function updateTraitsNFP(\r\n        uint256 _tokenId,\r\n        uint256 _gen,\r\n        uint256 _level,\r\n        uint256 _skillPoint,\r\n        string memory _position,\r\n        string memory _rarity,\r\n        string memory _class\r\n    ) external override onlyRole(UPDATE_ROLE) {\r\n        nfps[_tokenId] = NfpInfo(\r\n            _gen,\r\n            _level,\r\n            _skillPoint,\r\n            _position,\r\n            _rarity,\r\n            _class\r\n        );\r\n    }\r\n\r\n    function setOwnerAddr(address _ownerAddr) public onlyOwner {\r\n        require(\r\n            _ownerAddr != address(0),\r\n            \"Owner Address can't be zero address\"\r\n        );\r\n        ownerAddr = _ownerAddr;\r\n    }\r\n\r\n    function getOwnerAddr() public view onlyOwner returns (address) {\r\n        return ownerAddr;\r\n    }\r\n\r\n    function setPrice(uint256 _price) public onlyOwner {\r\n        price = _price;\r\n    }\r\n\r\n    function setBlockNumber(uint256 _blockNumber) public onlyOwner {\r\n        blockNumber = _blockNumber;\r\n    }\r\n\r\n    function setBaseURI(string memory _baseURI) public onlyOwner {\r\n        baseURI = _baseURI;\r\n    }\r\n\r\n    function setCID(string memory _cID) public onlyOwner {\r\n        cID = _cID;\r\n    }\r\n\r\n    function transfer(\r\n        address _from,\r\n        address _to,\r\n        uint256 _tokenId\r\n    ) external onlyOwner {\r\n        transferFrom(_from, _to, _tokenId);\r\n    }\r\n\r\n    function getBlockNumber() external view returns (uint256) {\r\n        return block.number;\r\n    }\r\n\r\n    function totalSupply() external view returns (uint256) {\r\n        return (_tokenIds.current());\r\n    }\r\n\r\n    function getTokenFullURI(uint256 tokenId)\r\n        external\r\n        view\r\n        returns (string memory)\r\n    {\r\n        string memory _tokenURI = tokenURI(tokenId);\r\n\r\n        return _tokenURI;\r\n    }\r\n\r\n    function getBaseURI() external view returns (string memory) {\r\n        string memory _baseURI = baseURI;\r\n        return _baseURI;\r\n    }\r\n\r\n    function fetchMyNfts() external view returns (uint256[] memory) {\r\n        uint256 tokenCount = 0;\r\n        uint256 _totalSupply = _tokenIds.current();\r\n        uint256 currentIndex = 0;\r\n\r\n        for (uint256 i = 0; i < _totalSupply; i++) {\r\n            if (isBurned[i + 1] == false) tokenCount++;\r\n        }\r\n        uint256[] memory availableTokenIds = new uint256[](tokenCount);\r\n\r\n        for (uint256 i = 0; i < _totalSupply; i++) {\r\n            if (isBurned[i + 1] == false) {\r\n                availableTokenIds[currentIndex] = i + 1;\r\n                currentIndex++;\r\n            }\r\n        }\r\n\r\n        tokenCount = 0;\r\n        currentIndex = 0;\r\n        for (uint256 i = 0; i < availableTokenIds.length; i++) {\r\n            if (ownerOf(availableTokenIds[i]) == msg.sender) tokenCount++;\r\n        }\r\n\r\n        uint256[] memory tokenIds = new uint256[](tokenCount);\r\n        for (uint256 i = 0; i < availableTokenIds.length; i++) {\r\n            if (ownerOf(availableTokenIds[i]) == msg.sender) {\r\n                tokenIds[currentIndex] = availableTokenIds[i];\r\n                currentIndex++;\r\n            }\r\n        }\r\n\r\n        return tokenIds;\r\n    }\r\n\r\n    function setUpdateRoleAddr(address _updateRoleAddr) public onlyOwner {\r\n        require(\r\n            !hasRole(UPDATE_ROLE, _updateRoleAddr),\r\n            \"Already have update role!\"\r\n        );\r\n        _setupRole(UPDATE_ROLE, _updateRoleAddr);\r\n    }\r\n\r\n    function getSkillPoint(uint256 _tokenId)\r\n        external\r\n        view\r\n        override\r\n        returns (uint256)\r\n    {\r\n        return nfps[_tokenId].skillPoint;\r\n    }\r\n\r\n    function setSkillPoint(uint256 _tokenId, uint256 _skillPoint)\r\n        external\r\n        override\r\n        onlyRole(UPDATE_ROLE)\r\n    {\r\n        NfpInfo storage _nfpInfo = nfps[_tokenId];\r\n        _nfpInfo.skillPoint = _skillPoint;\r\n    }\r\n\r\n    function getGeneration(uint256 _tokenId)\r\n        external\r\n        view\r\n        override\r\n        returns (uint256)\r\n    {\r\n        return nfps[_tokenId].gen;\r\n    }\r\n\r\n    function setGeneration(uint256 _tokenId, uint256 _gen)\r\n        external\r\n        override\r\n        onlyRole(UPDATE_ROLE)\r\n    {\r\n        NfpInfo storage _nfpInfo = nfps[_tokenId];\r\n        _nfpInfo.gen = _gen;\r\n    }\r\n\r\n    function getLevel(uint256 _tokenId)\r\n        external\r\n        view\r\n        override\r\n        returns (uint256)\r\n    {\r\n        return nfps[_tokenId].level;\r\n    }\r\n\r\n    function setLevel(uint256 _tokenId, uint256 _level)\r\n        external\r\n        override\r\n        onlyRole(UPDATE_ROLE)\r\n    {\r\n        NfpInfo storage _nfpInfo = nfps[_tokenId];\r\n        _nfpInfo.level = _level;\r\n    }\r\n\r\n    function getPosition(uint256 _tokenId)\r\n        external\r\n        view\r\n        override\r\n        returns (string memory)\r\n    {\r\n        return nfps[_tokenId].position;\r\n    }\r\n\r\n    function setPosition(uint256 _tokenId, string memory _position)\r\n        external\r\n        override\r\n        onlyRole(UPDATE_ROLE)\r\n    {\r\n        NfpInfo storage _nfpInfo = nfps[_tokenId];\r\n        _nfpInfo.position = _position;\r\n    }\r\n\r\n    function getRarity(uint256 _tokenId)\r\n        external\r\n        view\r\n        override\r\n        returns (string memory)\r\n    {\r\n        return nfps[_tokenId].rarity;\r\n    }\r\n\r\n    function setRarity(uint256 _tokenId, string memory _rarity)\r\n        external\r\n        override\r\n        onlyRole(UPDATE_ROLE)\r\n    {\r\n        NfpInfo storage _nfpInfo = nfps[_tokenId];\r\n        _nfpInfo.rarity = _rarity;\r\n    }\r\n\r\n    function getClass(uint256 _tokenId)\r\n        external\r\n        view\r\n        override\r\n        returns (string memory)\r\n    {\r\n        return nfps[_tokenId].class;\r\n    }\r\n\r\n    function setClass(uint256 _tokenId, string memory _class)\r\n        external\r\n        override\r\n        onlyRole(UPDATE_ROLE)\r\n    {\r\n        NfpInfo storage _nfpInfo = nfps[_tokenId];\r\n        _nfpInfo.class = _class;\r\n    }\r\n\r\n    function burn(uint256 tokenId) external override onlyRole(UPDATE_ROLE) {\r\n        _burn(tokenId);\r\n        isBurned[tokenId] = true;\r\n    }\r\n\r\n    function supportsInterface(bytes4 interfaceId)\r\n        public\r\n        view\r\n        virtual\r\n        override(ERC721, IERC165, AccessControl)\r\n        returns (bool)\r\n    {\r\n        return super.supportsInterface(interfaceId);\r\n    }\r\n}\r\n",
  "sourcePath": "E:\\Git for Project\\Ethereum\\NFT\\GolFinance\\gol-staking-contracts\\contracts\\NonFungiblePlayer.sol",
  "compiler": {
    "name": "solc",
    "version": "0.8.4+commit.c7e474f2.Emscripten.clang"
  },
  "schemaVersion": "3.4.5",
  "updatedAt": "2022-05-02T22:13:32.977Z",
  "devdoc": {
    "kind": "dev",
    "methods": {
      "approve(address,uint256)": {
        "details": "See {IERC721-approve}."
      },
      "balanceOf(address)": {
        "details": "See {IERC721-balanceOf}."
      },
      "getApproved(uint256)": {
        "details": "See {IERC721-getApproved}."
      },
      "getRoleAdmin(bytes32)": {
        "details": "Returns the admin role that controls `role`. See {grantRole} and {revokeRole}. To change a role's admin, use {_setRoleAdmin}."
      },
      "grantRole(bytes32,address)": {
        "details": "Grants `role` to `account`. If `account` had not been already granted `role`, emits a {RoleGranted} event. Requirements: - the caller must have ``role``'s admin role."
      },
      "hasRole(bytes32,address)": {
        "details": "Returns `true` if `account` has been granted `role`."
      },
      "isApprovedForAll(address,address)": {
        "details": "See {IERC721-isApprovedForAll}."
      },
      "name()": {
        "details": "See {IERC721Metadata-name}."
      },
      "owner()": {
        "details": "Returns the address of the current owner."
      },
      "ownerOf(uint256)": {
        "details": "See {IERC721-ownerOf}."
      },
      "renounceOwnership()": {
        "details": "Leaves the contract without owner. It will not be possible to call `onlyOwner` functions anymore. Can only be called by the current owner. NOTE: Renouncing ownership will leave the contract without an owner, thereby removing any functionality that is only available to the owner."
      },
      "renounceRole(bytes32,address)": {
        "details": "Revokes `role` from the calling account. Roles are often managed via {grantRole} and {revokeRole}: this function's purpose is to provide a mechanism for accounts to lose their privileges if they are compromised (such as when a trusted device is misplaced). If the calling account had been revoked `role`, emits a {RoleRevoked} event. Requirements: - the caller must be `account`."
      },
      "revokeRole(bytes32,address)": {
        "details": "Revokes `role` from `account`. If `account` had been granted `role`, emits a {RoleRevoked} event. Requirements: - the caller must have ``role``'s admin role."
      },
      "safeTransferFrom(address,address,uint256)": {
        "details": "See {IERC721-safeTransferFrom}."
      },
      "safeTransferFrom(address,address,uint256,bytes)": {
        "details": "See {IERC721-safeTransferFrom}."
      },
      "setApprovalForAll(address,bool)": {
        "details": "See {IERC721-setApprovalForAll}."
      },
      "symbol()": {
        "details": "See {IERC721Metadata-symbol}."
      },
      "tokenURI(uint256)": {
        "details": "See {IERC721Metadata-tokenURI}."
      },
      "transferFrom(address,address,uint256)": {
        "details": "See {IERC721-transferFrom}."
      },
      "transferOwnership(address)": {
        "details": "Transfers ownership of the contract to a new account (`newOwner`). Can only be called by the current owner."
      }
    },
    "version": 1
  },
  "userdoc": {
    "kind": "user",
    "methods": {},
    "version": 1
  }
}