{
  "contractName": "NonFungiblePlayer",
  "abi": [
    {
      "inputs": [
        {
          "internalType": "uint256",
          "name": "_blockNumber",
          "type": "uint256"
        },
        {
          "internalType": "contract IBusd",
          "name": "_busd",
          "type": "address"
        },
        {
          "internalType": "string",
          "name": "_baseURI",
          "type": "string"
        },
        {
          "internalType": "string",
          "name": "_cID",
          "type": "string"
        },
        {
          "internalType": "address",
          "name": "_ownerAddr",
          "type": "address"
        }
      ],
      "stateMutability": "nonpayable",
      "type": "constructor"
    },
    {
      "anonymous": false,
      "inputs": [
        {
          "indexed": true,
          "internalType": "address",
          "name": "owner",
          "type": "address"
        },
        {
          "indexed": true,
          "internalType": "address",
          "name": "approved",
          "type": "address"
        },
        {
          "indexed": true,
          "internalType": "uint256",
          "name": "tokenId",
          "type": "uint256"
        }
      ],
      "name": "Approval",
      "type": "event"
    },
    {
      "anonymous": false,
      "inputs": [
        {
          "indexed": true,
          "internalType": "address",
          "name": "owner",
          "type": "address"
        },
        {
          "indexed": true,
          "internalType": "address",
          "name": "operator",
          "type": "address"
        },
        {
          "indexed": false,
          "internalType": "bool",
          "name": "approved",
          "type": "bool"
        }
      ],
      "name": "ApprovalForAll",
      "type": "event"
    },
    {
      "anonymous": false,
      "inputs": [
        {
          "indexed": true,
          "internalType": "uint256",
          "name": "itemId",
          "type": "uint256"
        },
        {
          "indexed": false,
          "internalType": "string",
          "name": "metaHash",
          "type": "string"
        }
      ],
      "name": "BuyBlindBox",
      "type": "event"
    },
    {
      "anonymous": false,
      "inputs": [
        {
          "indexed": true,
          "internalType": "uint256",
          "name": "tokenId",
          "type": "uint256"
        }
      ],
      "name": "FusionSuccess",
      "type": "event"
    },
    {
      "anonymous": false,
      "inputs": [
        {
          "indexed": true,
          "internalType": "address",
          "name": "previousOwner",
          "type": "address"
        },
        {
          "indexed": true,
          "internalType": "address",
          "name": "newOwner",
          "type": "address"
        }
      ],
      "name": "OwnershipTransferred",
      "type": "event"
    },
    {
      "anonymous": false,
      "inputs": [
        {
          "indexed": true,
          "internalType": "bytes32",
          "name": "role",
          "type": "bytes32"
        },
        {
          "indexed": true,
          "internalType": "bytes32",
          "name": "previousAdminRole",
          "type": "bytes32"
        },
        {
          "indexed": true,
          "internalType": "bytes32",
          "name": "newAdminRole",
          "type": "bytes32"
        }
      ],
      "name": "RoleAdminChanged",
      "type": "event"
    },
    {
      "anonymous": false,
      "inputs": [
        {
          "indexed": true,
          "internalType": "bytes32",
          "name": "role",
          "type": "bytes32"
        },
        {
          "indexed": true,
          "internalType": "address",
          "name": "account",
          "type": "address"
        },
        {
          "indexed": true,
          "internalType": "address",
          "name": "sender",
          "type": "address"
        }
      ],
      "name": "RoleGranted",
      "type": "event"
    },
    {
      "anonymous": false,
      "inputs": [
        {
          "indexed": true,
          "internalType": "bytes32",
          "name": "role",
          "type": "bytes32"
        },
        {
          "indexed": true,
          "internalType": "address",
          "name": "account",
          "type": "address"
        },
        {
          "indexed": true,
          "internalType": "address",
          "name": "sender",
          "type": "address"
        }
      ],
      "name": "RoleRevoked",
      "type": "event"
    },
    {
      "anonymous": false,
      "inputs": [
        {
          "indexed": true,
          "internalType": "address",
          "name": "from",
          "type": "address"
        },
        {
          "indexed": true,
          "internalType": "address",
          "name": "to",
          "type": "address"
        },
        {
          "indexed": true,
          "internalType": "uint256",
          "name": "tokenId",
          "type": "uint256"
        }
      ],
      "name": "Transfer",
      "type": "event"
    },
    {
      "inputs": [],
      "name": "DEFAULT_ADMIN_ROLE",
      "outputs": [
        {
          "internalType": "bytes32",
          "name": "",
          "type": "bytes32"
        }
      ],
      "stateMutability": "view",
      "type": "function"
    },
    {
      "inputs": [],
      "name": "UPDATE_ROLE",
      "outputs": [
        {
          "internalType": "bytes32",
          "name": "",
          "type": "bytes32"
        }
      ],
      "stateMutability": "view",
      "type": "function"
    },
    {
      "inputs": [
        {
          "internalType": "address",
          "name": "to",
          "type": "address"
        },
        {
          "internalType": "uint256",
          "name": "tokenId",
          "type": "uint256"
        }
      ],
      "name": "approve",
      "outputs": [],
      "stateMutability": "nonpayable",
      "type": "function"
    },
    {
      "inputs": [
        {
          "internalType": "address",
          "name": "owner",
          "type": "address"
        }
      ],
      "name": "balanceOf",
      "outputs": [
        {
          "internalType": "uint256",
          "name": "",
          "type": "uint256"
        }
      ],
      "stateMutability": "view",
      "type": "function"
    },
    {
      "inputs": [],
      "name": "baseURI",
      "outputs": [
        {
          "internalType": "string",
          "name": "",
          "type": "string"
        }
      ],
      "stateMutability": "view",
      "type": "function"
    },
    {
      "inputs": [],
      "name": "blockNumber",
      "outputs": [
        {
          "internalType": "uint256",
          "name": "",
          "type": "uint256"
        }
      ],
      "stateMutability": "view",
      "type": "function"
    },
    {
      "inputs": [],
      "name": "cID",
      "outputs": [
        {
          "internalType": "string",
          "name": "",
          "type": "string"
        }
      ],
      "stateMutability": "view",
      "type": "function"
    },
    {
      "inputs": [
        {
          "internalType": "uint256",
          "name": "tokenId",
          "type": "uint256"
        }
      ],
      "name": "getApproved",
      "outputs": [
        {
          "internalType": "address",
          "name": "",
          "type": "address"
        }
      ],
      "stateMutability": "view",
      "type": "function"
    },
    {
      "inputs": [
        {
          "internalType": "bytes32",
          "name": "role",
          "type": "bytes32"
        }
      ],
      "name": "getRoleAdmin",
      "outputs": [
        {
          "internalType": "bytes32",
          "name": "",
          "type": "bytes32"
        }
      ],
      "stateMutability": "view",
      "type": "function"
    },
    {
      "inputs": [
        {
          "internalType": "bytes32",
          "name": "role",
          "type": "bytes32"
        },
        {
          "internalType": "address",
          "name": "account",
          "type": "address"
        }
      ],
      "name": "grantRole",
      "outputs": [],
      "stateMutability": "nonpayable",
      "type": "function"
    },
    {
      "inputs": [
        {
          "internalType": "bytes32",
          "name": "role",
          "type": "bytes32"
        },
        {
          "internalType": "address",
          "name": "account",
          "type": "address"
        }
      ],
      "name": "hasRole",
      "outputs": [
        {
          "internalType": "bool",
          "name": "",
          "type": "bool"
        }
      ],
      "stateMutability": "view",
      "type": "function"
    },
    {
      "inputs": [
        {
          "internalType": "address",
          "name": "owner",
          "type": "address"
        },
        {
          "internalType": "address",
          "name": "operator",
          "type": "address"
        }
      ],
      "name": "isApprovedForAll",
      "outputs": [
        {
          "internalType": "bool",
          "name": "",
          "type": "bool"
        }
      ],
      "stateMutability": "view",
      "type": "function"
    },
    {
      "inputs": [],
      "name": "name",
      "outputs": [
        {
          "internalType": "string",
          "name": "",
          "type": "string"
        }
      ],
      "stateMutability": "view",
      "type": "function"
    },
    {
      "inputs": [
        {
          "internalType": "uint256",
          "name": "",
          "type": "uint256"
        }
      ],
      "name": "nfps",
      "outputs": [
        {
          "internalType": "uint256",
          "name": "gen",
          "type": "uint256"
        },
        {
          "internalType": "uint256",
          "name": "level",
          "type": "uint256"
        },
        {
          "internalType": "uint256",
          "name": "skillPoint",
          "type": "uint256"
        },
        {
          "internalType": "string",
          "name": "position",
          "type": "string"
        },
        {
          "internalType": "string",
          "name": "rarity",
          "type": "string"
        },
        {
          "internalType": "string",
          "name": "class",
          "type": "string"
        }
      ],
      "stateMutability": "view",
      "type": "function"
    },
    {
      "inputs": [],
      "name": "owner",
      "outputs": [
        {
          "internalType": "address",
          "name": "",
          "type": "address"
        }
      ],
      "stateMutability": "view",
      "type": "function"
    },
    {
      "inputs": [
        {
          "internalType": "uint256",
          "name": "tokenId",
          "type": "uint256"
        }
      ],
      "name": "ownerOf",
      "outputs": [
        {
          "internalType": "address",
          "name": "",
          "type": "address"
        }
      ],
      "stateMutability": "view",
      "type": "function"
    },
    {
      "inputs": [],
      "name": "price",
      "outputs": [
        {
          "internalType": "uint256",
          "name": "",
          "type": "uint256"
        }
      ],
      "stateMutability": "view",
      "type": "function"
    },
    {
      "inputs": [],
      "name": "renounceOwnership",
      "outputs": [],
      "stateMutability": "nonpayable",
      "type": "function"
    },
    {
      "inputs": [
        {
          "internalType": "bytes32",
          "name": "role",
          "type": "bytes32"
        },
        {
          "internalType": "address",
          "name": "account",
          "type": "address"
        }
      ],
      "name": "renounceRole",
      "outputs": [],
      "stateMutability": "nonpayable",
      "type": "function"
    },
    {
      "inputs": [
        {
          "internalType": "bytes32",
          "name": "role",
          "type": "bytes32"
        },
        {
          "internalType": "address",
          "name": "account",
          "type": "address"
        }
      ],
      "name": "revokeRole",
      "outputs": [],
      "stateMutability": "nonpayable",
      "type": "function"
    },
    {
      "inputs": [
        {
          "internalType": "address",
          "name": "from",
          "type": "address"
        },
        {
          "internalType": "address",
          "name": "to",
          "type": "address"
        },
        {
          "internalType": "uint256",
          "name": "tokenId",
          "type": "uint256"
        }
      ],
      "name": "safeTransferFrom",
      "outputs": [],
      "stateMutability": "nonpayable",
      "type": "function"
    },
    {
      "inputs": [
        {
          "internalType": "address",
          "name": "from",
          "type": "address"
        },
        {
          "internalType": "address",
          "name": "to",
          "type": "address"
        },
        {
          "internalType": "uint256",
          "name": "tokenId",
          "type": "uint256"
        },
        {
          "internalType": "bytes",
          "name": "_data",
          "type": "bytes"
        }
      ],
      "name": "safeTransferFrom",
      "outputs": [],
      "stateMutability": "nonpayable",
      "type": "function"
    },
    {
      "inputs": [
        {
          "internalType": "address",
          "name": "operator",
          "type": "address"
        },
        {
          "internalType": "bool",
          "name": "approved",
          "type": "bool"
        }
      ],
      "name": "setApprovalForAll",
      "outputs": [],
      "stateMutability": "nonpayable",
      "type": "function"
    },
    {
      "inputs": [],
      "name": "symbol",
      "outputs": [
        {
          "internalType": "string",
          "name": "",
          "type": "string"
        }
      ],
      "stateMutability": "view",
      "type": "function"
    },
    {
      "inputs": [
        {
          "internalType": "uint256",
          "name": "tokenId",
          "type": "uint256"
        }
      ],
      "name": "tokenURI",
      "outputs": [
        {
          "internalType": "string",
          "name": "",
          "type": "string"
        }
      ],
      "stateMutability": "view",
      "type": "function"
    },
    {
      "inputs": [
        {
          "internalType": "address",
          "name": "from",
          "type": "address"
        },
        {
          "internalType": "address",
          "name": "to",
          "type": "address"
        },
        {
          "internalType": "uint256",
          "name": "tokenId",
          "type": "uint256"
        }
      ],
      "name": "transferFrom",
      "outputs": [],
      "stateMutability": "nonpayable",
      "type": "function"
    },
    {
      "inputs": [
        {
          "internalType": "address",
          "name": "newOwner",
          "type": "address"
        }
      ],
      "name": "transferOwnership",
      "outputs": [],
      "stateMutability": "nonpayable",
      "type": "function"
    },
    {
      "inputs": [],
      "name": "buyNFPBox",
      "outputs": [],
      "stateMutability": "nonpayable",
      "type": "function"
    },
    {
      "inputs": [
        {
          "internalType": "uint256",
          "name": "_tokenId1",
          "type": "uint256"
        },
        {
          "internalType": "uint256",
          "name": "_tokenId2",
          "type": "uint256"
        },
        {
          "internalType": "string",
          "name": "_position",
          "type": "string"
        },
        {
          "internalType": "string",
          "name": "_rarity",
          "type": "string"
        },
        {
          "internalType": "string",
          "name": "_class",
          "type": "string"
        }
      ],
      "name": "mintFusionedNFP",
      "outputs": [],
      "stateMutability": "nonpayable",
      "type": "function"
    },
    {
      "inputs": [
        {
          "internalType": "uint256",
          "name": "_tokenId",
          "type": "uint256"
        },
        {
          "internalType": "uint256",
          "name": "_gen",
          "type": "uint256"
        },
        {
          "internalType": "uint256",
          "name": "_level",
          "type": "uint256"
        },
        {
          "internalType": "uint256",
          "name": "_skillPoint",
          "type": "uint256"
        },
        {
          "internalType": "string",
          "name": "_position",
          "type": "string"
        },
        {
          "internalType": "string",
          "name": "_rarity",
          "type": "string"
        },
        {
          "internalType": "string",
          "name": "_class",
          "type": "string"
        }
      ],
      "name": "updateTraitsNFP",
      "outputs": [],
      "stateMutability": "nonpayable",
      "type": "function"
    },
    {
      "inputs": [
        {
          "internalType": "address",
          "name": "_ownerAddr",
          "type": "address"
        }
      ],
      "name": "setOwnerAddr",
      "outputs": [],
      "stateMutability": "nonpayable",
      "type": "function"
    },
    {
      "inputs": [],
      "name": "getOwnerAddr",
      "outputs": [
        {
          "internalType": "address",
          "name": "",
          "type": "address"
        }
      ],
      "stateMutability": "view",
      "type": "function"
    },
    {
      "inputs": [
        {
          "internalType": "uint256",
          "name": "_price",
          "type": "uint256"
        }
      ],
      "name": "setPrice",
      "outputs": [],
      "stateMutability": "nonpayable",
      "type": "function"
    },
    {
      "inputs": [
        {
          "internalType": "uint256",
          "name": "_blockNumber",
          "type": "uint256"
        }
      ],
      "name": "setBlockNumber",
      "outputs": [],
      "stateMutability": "nonpayable",
      "type": "function"
    },
    {
      "inputs": [
        {
          "internalType": "string",
          "name": "_baseURI",
          "type": "string"
        }
      ],
      "name": "setBaseURI",
      "outputs": [],
      "stateMutability": "nonpayable",
      "type": "function"
    },
    {
      "inputs": [
        {
          "internalType": "string",
          "name": "_cID",
          "type": "string"
        }
      ],
      "name": "setCID",
      "outputs": [],
      "stateMutability": "nonpayable",
      "type": "function"
    },
    {
      "inputs": [
        {
          "internalType": "address",
          "name": "_from",
          "type": "address"
        },
        {
          "internalType": "address",
          "name": "_to",
          "type": "address"
        },
        {
          "internalType": "uint256",
          "name": "_tokenId",
          "type": "uint256"
        }
      ],
      "name": "transfer",
      "outputs": [],
      "stateMutability": "nonpayable",
      "type": "function"
    },
    {
      "inputs": [],
      "name": "getBlockNumber",
      "outputs": [
        {
          "internalType": "uint256",
          "name": "",
          "type": "uint256"
        }
      ],
      "stateMutability": "view",
      "type": "function"
    },
    {
      "inputs": [],
      "name": "totalSupply",
      "outputs": [
        {
          "internalType": "uint256",
          "name": "",
          "type": "uint256"
        }
      ],
      "stateMutability": "view",
      "type": "function"
    },
    {
      "inputs": [
        {
          "internalType": "uint256",
          "name": "tokenId",
          "type": "uint256"
        }
      ],
      "name": "getTokenFullURI",
      "outputs": [
        {
          "internalType": "string",
          "name": "",
          "type": "string"
        }
      ],
      "stateMutability": "view",
      "type": "function"
    },
    {
      "inputs": [],
      "name": "getBaseURI",
      "outputs": [
        {
          "internalType": "string",
          "name": "",
          "type": "string"
        }
      ],
      "stateMutability": "view",
      "type": "function"
    },
    {
      "inputs": [],
      "name": "fetchMyNfts",
      "outputs": [
        {
          "internalType": "uint256[]",
          "name": "",
          "type": "uint256[]"
        }
      ],
      "stateMutability": "view",
      "type": "function"
    },
    {
      "inputs": [
        {
          "internalType": "address",
          "name": "_updateRoleAddr",
          "type": "address"
        }
      ],
      "name": "setUpdateRoleAddr",
      "outputs": [],
      "stateMutability": "nonpayable",
      "type": "function"
    },
    {
      "inputs": [
        {
          "internalType": "uint256",
          "name": "_tokenId",
          "type": "uint256"
        }
      ],
      "name": "getSkillPoint",
      "outputs": [
        {
          "internalType": "uint256",
          "name": "",
          "type": "uint256"
        }
      ],
      "stateMutability": "view",
      "type": "function"
    },
    {
      "inputs": [
        {
          "internalType": "uint256",
          "name": "_tokenId",
          "type": "uint256"
        },
        {
          "internalType": "uint256",
          "name": "_skillPoint",
          "type": "uint256"
        }
      ],
      "name": "setSkillPoint",
      "outputs": [],
      "stateMutability": "nonpayable",
      "type": "function"
    },
    {
      "inputs": [
        {
          "internalType": "uint256",
          "name": "_tokenId",
          "type": "uint256"
        }
      ],
      "name": "getGeneration",
      "outputs": [
        {
          "internalType": "uint256",
          "name": "",
          "type": "uint256"
        }
      ],
      "stateMutability": "view",
      "type": "function"
    },
    {
      "inputs": [
        {
          "internalType": "uint256",
          "name": "_tokenId",
          "type": "uint256"
        },
        {
          "internalType": "uint256",
          "name": "_gen",
          "type": "uint256"
        }
      ],
      "name": "setGeneration",
      "outputs": [],
      "stateMutability": "nonpayable",
      "type": "function"
    },
    {
      "inputs": [
        {
          "internalType": "uint256",
          "name": "_tokenId",
          "type": "uint256"
        }
      ],
      "name": "getLevel",
      "outputs": [
        {
          "internalType": "uint256",
          "name": "",
          "type": "uint256"
        }
      ],
      "stateMutability": "view",
      "type": "function"
    },
    {
      "inputs": [
        {
          "internalType": "uint256",
          "name": "_tokenId",
          "type": "uint256"
        },
        {
          "internalType": "uint256",
          "name": "_level",
          "type": "uint256"
        }
      ],
      "name": "setLevel",
      "outputs": [],
      "stateMutability": "nonpayable",
      "type": "function"
    },
    {
      "inputs": [
        {
          "internalType": "uint256",
          "name": "_tokenId",
          "type": "uint256"
        }
      ],
      "name": "getPosition",
      "outputs": [
        {
          "internalType": "string",
          "name": "",
          "type": "string"
        }
      ],
      "stateMutability": "view",
      "type": "function"
    },
    {
      "inputs": [
        {
          "internalType": "uint256",
          "name": "_tokenId",
          "type": "uint256"
        },
        {
          "internalType": "string",
          "name": "_position",
          "type": "string"
        }
      ],
      "name": "setPosition",
      "outputs": [],
      "stateMutability": "nonpayable",
      "type": "function"
    },
    {
      "inputs": [
        {
          "internalType": "uint256",
          "name": "_tokenId",
          "type": "uint256"
        }
      ],
      "name": "getRarity",
      "outputs": [
        {
          "internalType": "string",
          "name": "",
          "type": "string"
        }
      ],
      "stateMutability": "view",
      "type": "function"
    },
    {
      "inputs": [
        {
          "internalType": "uint256",
          "name": "_tokenId",
          "type": "uint256"
        },
        {
          "internalType": "string",
          "name": "_rarity",
          "type": "string"
        }
      ],
      "name": "setRarity",
      "outputs": [],
      "stateMutability": "nonpayable",
      "type": "function"
    },
    {
      "inputs": [
        {
          "internalType": "uint256",
          "name": "_tokenId",
          "type": "uint256"
        }
      ],
      "name": "getClass",
      "outputs": [
        {
          "internalType": "string",
          "name": "",
          "type": "string"
        }
      ],
      "stateMutability": "view",
      "type": "function"
    },
    {
      "inputs": [
        {
          "internalType": "uint256",
          "name": "_tokenId",
          "type": "uint256"
        },
        {
          "internalType": "string",
          "name": "_class",
          "type": "string"
        }
      ],
      "name": "setClass",
      "outputs": [],
      "stateMutability": "nonpayable",
      "type": "function"
    },
    {
      "inputs": [
        {
          "internalType": "uint256",
          "name": "tokenId",
          "type": "uint256"
        }
      ],
      "name": "burn",
      "outputs": [],
      "stateMutability": "nonpayable",
      "type": "function"
    },
    {
      "inputs": [
        {
          "internalType": "bytes4",
          "name": "interfaceId",
          "type": "bytes4"
        }
      ],
      "name": "supportsInterface",
      "outputs": [
        {
          "internalType": "bool",
          "name": "",
          "type": "bool"
        }
      ],
      "stateMutability": "view",
      "type": "function"
    }
  ],
  "bytecode": "0x60806040523480156200001157600080fd5b506040516200426d3803806200426d833981016040819052620000349162000325565b6040518060400160405280601381526020017f4e6f6e2d46756e6769626c6520506c61796572000000000000000000000000008152506040518060400160405280600381526020017f4e46500000000000000000000000000000000000000000000000000000000000815250620000cc620000bd62000176640100000000026401000000009004565b6401000000006200017a810204565b8151620000e1906002906020850190620001cc565b508051620000f7906003906020840190620001cc565b505050600b859055600f8054600160a060020a031916600160a060020a03861617905582516200012f90600d906020860190620001cc565b506064600c5581516200014a90600e906020850190620001cc565b50600a8054600160a060020a031916600160a060020a0392909216919091179055506200046092505050565b3390565b60018054600160a060020a03838116600160a060020a0319831681179093556040519116919082907f8be0079c531659141344cd1fd0a4f28419497f9722a3daafe3b4186f6b6457e090600090a35050565b828054620001da90620003c2565b90600052602060002090601f016020900481019282620001fe576000855562000249565b82601f106200021957805160ff191683800117855562000249565b8280016001018555821562000249579182015b82811115620002495782518255916020019190600101906200022c565b50620002579291506200025b565b5090565b5b808211156200025757600081556001016200025c565b600082601f83011262000283578081fd5b81516001604060020a0380821115620002a057620002a062000418565b604051601f8301601f19908116603f01168101908282118183101715620002cb57620002cb62000418565b81604052838152602092508683858801011115620002e7578485fd5b8491505b838210156200030a5785820183015181830184015290820190620002eb565b838211156200031b57848385830101525b9695505050505050565b600080600080600060a086880312156200033d578081fd5b855194506020860151620003518162000447565b60408701519094506001604060020a03808211156200036e578283fd5b6200037c89838a0162000272565b9450606088015191508082111562000392578283fd5b50620003a18882890162000272565b9250506080860151620003b48162000447565b809150509295509295909350565b600281046001821680620003d757607f821691505b6020821081141562000412577f4e487b7100000000000000000000000000000000000000000000000000000000600052602260045260246000fd5b50919050565b7f4e487b7100000000000000000000000000000000000000000000000000000000600052604160045260246000fd5b600160a060020a03811681146200045d57600080fd5b50565b613dfd80620004706000396000f3fe608060405234801561001057600080fd5b506004361061039f576000357c010000000000000000000000000000000000000000000000000000000090048063714c5398116101fb578063a22cb4651161012c578063d547741f116100ca578063e670472311610099578063e6704723146107aa578063e985e9c5146107b2578063eb02c301146107ee578063f2fde38b1461080157600080fd5b8063d547741f1461074e578063db3843c614610761578063e074278d14610784578063e36db2fb1461079757600080fd5b8063b88d4fde11610106578063b88d4fde14610702578063beabacc814610715578063c3d6ee7f14610728578063c87b56dd1461073b57600080fd5b8063a22cb465146106c9578063a8c3c850146106dc578063b5c82bd1146106ef57600080fd5b806391b7f5ed1161019957806399a2f2d71161017357806399a2f2d7146106a85780639c96b2f7146106b0578063a035b1fe146106b8578063a217fddf146106c157600080fd5b806391b7f5ed1461067a57806391d148541461068d57806395d89b41146106a057600080fd5b806380e719c6116101d557806380e719c61461062057806386481d40146106335780638a26d4ec146106565780638da5cb5b1461066957600080fd5b8063714c5398146105fd578063715018a6146106055780637c2062171461060d57600080fd5b806336568abe116102d557806355f804b3116102735780636352211e1161024d5780636352211e146105bc5780636c0360eb146105cf57806370a08231146105d757806370a93b36146105ea57600080fd5b806355f804b31461058057806356e3df971461059357806357e871e7146105b357600080fd5b806342966c68116102af57806342966c681461054157806342cbb15c14610554578063487586971461055a578063512d62df1461056d57600080fd5b806336568abe1461050857806336e3c0901461051b57806342842e0e1461052e57600080fd5b806318160ddd11610342578063280919041161031c57806328091904146104aa5780632de4f3db146104bd5780632f2ff15d146104e2578063363e9fb1146104f557600080fd5b806318160ddd1461046c57806323b872dd14610474578063248a9ca31461048757600080fd5b806306fdde031161037e57806306fdde0314610404578063081812fc14610419578063095ea7b314610444578063128ae7121461045757600080fd5b8062497846146103a457806301ffc9a7146103cc57806304d5ef3f146103ef575b600080fd5b6103b9600080516020613da883398151915281565b6040519081526020015b60405180910390f35b6103df6103da366004613627565b610814565b60405190151581526020016103c3565b6104026103fd3660046136ef565b610825565b005b61040c610851565b6040516103c39190613acc565b61042c6104273660046135ed565b6108e3565b604051600160a060020a0390911681526020016103c3565b6104026104523660046135a8565b610984565b61045f610abc565b6040516103c39190613a88565b6103b9610bfb565b6104026104823660046134be565b610c0b565b6103b96104953660046135ed565b60009081526020819052604090206001015490565b6104026104b83660046137a8565b610c3f565b6104d06104cb3660046135ed565b610d02565b6040516103c396959493929190613bce565b6104026104f0366004613605565b610ed1565b610402610503366004613472565b610ef7565b610402610516366004613605565b610fa7565b6104026105293660046136aa565b611036565b61040261053c3660046134be565b61107c565b61040261054f3660046135ed565b611097565b436103b9565b61040c6105683660046135ed565b6110b9565b61040c61057b3660046135ed565b61115e565b61040261058e36600461365f565b61117e565b6103b96105a13660046135ed565b60009081526010602052604090205490565b6103b9600b5481565b61042c6105ca3660046135ed565b6111be565b61040c61124c565b6103b96105e5366004613472565b6112da565b6104026105f83660046136ef565b611377565b61040c6113a6565b61040261143c565b61040261061b366004613710565b611475565b61040c61062e3660046135ed565b61167e565b6103b96106413660046135ed565b60009081526010602052604090206001015490565b6104026106643660046136aa565b611692565b600154600160a060020a031661042c565b6104026106883660046135ed565b6116d1565b6103df61069b366004613605565b611703565b61040c61172c565b61040c61173b565b610402611748565b6103b9600c5481565b6103b9600081565b6104026106d7366004613572565b611dfe565b6104026106ea3660046135ed565b611e09565b6104026106fd3660046136aa565b611e3b565b6104026107103660046134f9565b611e7a565b6104026107233660046134be565b611eb5565b61040261073636600461365f565b611eed565b61040c6107493660046135ed565b611f2d565b61040261075c366004613605565b6120b3565b6103b961076f3660046135ed565b60009081526010602052604090206002015490565b610402610792366004613472565b6120d9565b6104026107a53660046136ef565b6121b4565b61042c6121e3565b6103df6107c036600461348c565b600160a060020a03918216600090815260076020908152604080832093909416825291909152205460ff1690565b61040c6107fc3660046135ed565b612223565b61040261080f366004613472565b612243565b600061081f826122f8565b92915050565b600080516020613da883398151915261083e813361236a565b5060009182526010602052604090912055565b60606002805461086090613ccb565b80601f016020809104026020016040519081016040528092919081815260200182805461088c90613ccb565b80156108d95780601f106108ae576101008083540402835291602001916108d9565b820191906000526020600020905b8154815290600101906020018083116108bc57829003601f168201915b5050505050905090565b60006108ee826123d1565b6109685760405160e560020a62461bcd02815260206004820152602c60248201527f4552433732313a20617070726f76656420717565727920666f72206e6f6e657860448201527f697374656e7420746f6b656e000000000000000000000000000000000000000060648201526084015b60405180910390fd5b50600090815260066020526040902054600160a060020a031690565b600061098f826111be565b905080600160a060020a031683600160a060020a03161415610a1c5760405160e560020a62461bcd02815260206004820152602160248201527f4552433732313a20617070726f76616c20746f2063757272656e74206f776e6560448201527f7200000000000000000000000000000000000000000000000000000000000000606482015260840161095f565b33600160a060020a0382161480610a385750610a3881336107c0565b610aad5760405160e560020a62461bcd02815260206004820152603860248201527f4552433732313a20617070726f76652063616c6c6572206973206e6f74206f7760448201527f6e6572206e6f7220617070726f76656420666f7220616c6c0000000000000000606482015260840161095f565b610ab783836123ee565b505050565b6060600080610aca60095490565b905060005b81811015610b155733610ae66105ca836001613c26565b600160a060020a03161415610b035782610aff81613d09565b9350505b80610b0d81613d09565b915050610acf565b5060008267ffffffffffffffff811115610b425760e060020a634e487b7102600052604160045260246000fd5b604051908082528060200260200182016040528015610b6b578160200160208202803683370190505b5090506000805b83811015610bf15733610b896105ca836001613c26565b600160a060020a03161415610bdf57610ba3816001613c26565b838381518110610bc65760e060020a634e487b7102600052603260045260246000fd5b602090810291909101015281610bdb81613d09565b9250505b80610be981613d09565b915050610b72565b5090949350505050565b6000610c0660095490565b905090565b610c153382612469565b610c345760405160e560020a62461bcd02815260040161095f90613b71565b610ab7838383612563565b600080516020613da8833981519152610c58813361236a565b6040805160c0810182528881526020808201898152828401898152606084018981526080850189905260a0850188905260008e81526010855295909520845181559151600183015551600282015592518051929392610cbd92600385019201906132f2565b5060808201518051610cd99160048401916020909101906132f2565b5060a08201518051610cf59160058401916020909101906132f2565b5050505050505050505050565b601060205260009081526040902080546001820154600283015460038401805493949293919291610d3290613ccb565b80601f0160208091040260200160405190810160405280929190818152602001828054610d5e90613ccb565b8015610dab5780601f10610d8057610100808354040283529160200191610dab565b820191906000526020600020905b815481529060010190602001808311610d8e57829003601f168201915b505050505090806004018054610dc090613ccb565b80601f0160208091040260200160405190810160405280929190818152602001828054610dec90613ccb565b8015610e395780601f10610e0e57610100808354040283529160200191610e39565b820191906000526020600020905b815481529060010190602001808311610e1c57829003601f168201915b505050505090806005018054610e4e90613ccb565b80601f0160208091040260200160405190810160405280929190818152602001828054610e7a90613ccb565b8015610ec75780601f10610e9c57610100808354040283529160200191610ec7565b820191906000526020600020905b815481529060010190602001808311610eaa57829003601f168201915b5050505050905086565b600082815260208190526040902060010154610eed813361236a565b610ab78383612743565b600154600160a060020a03163314610f245760405160e560020a62461bcd02815260040161095f90613b3c565b610f3c600080516020613da883398151915282611703565b15610f8c5760405160e560020a62461bcd02815260206004820152601960248201527f416c726561647920686176652075706461746520726f6c652100000000000000604482015260640161095f565b610fa4600080516020613da8833981519152826127c7565b50565b600160a060020a03811633146110285760405160e560020a62461bcd02815260206004820152602f60248201527f416363657373436f6e74726f6c3a2063616e206f6e6c792072656e6f756e636560448201527f20726f6c657320666f722073656c660000000000000000000000000000000000606482015260840161095f565b61103282826127d1565b5050565b600080516020613da883398151915261104f813361236a565b6000838152601060209081526040909120835190916110759160038401918601906132f2565b5050505050565b610ab783838360405180602001604052806000815250611e7a565b600080516020613da88339815191526110b0813361236a565b61103282612836565b60008181526010602052604090206004018054606091906110d990613ccb565b80601f016020809104026020016040519081016040528092919081815260200182805461110590613ccb565b80156111525780601f1061112757610100808354040283529160200191611152565b820191906000526020600020905b81548152906001019060200180831161113557829003601f168201915b50505050509050919050565b60008181526010602052604090206005018054606091906110d990613ccb565b600154600160a060020a031633146111ab5760405160e560020a62461bcd02815260040161095f90613b3c565b805161103290600d9060208401906132f2565b600081815260046020526040812054600160a060020a03168061081f5760405160e560020a62461bcd02815260206004820152602960248201527f4552433732313a206f776e657220717565727920666f72206e6f6e657869737460448201527f656e7420746f6b656e0000000000000000000000000000000000000000000000606482015260840161095f565b600d805461125990613ccb565b80601f016020809104026020016040519081016040528092919081815260200182805461128590613ccb565b80156112d25780601f106112a7576101008083540402835291602001916112d2565b820191906000526020600020905b8154815290600101906020018083116112b557829003601f168201915b505050505081565b6000600160a060020a03821661135b5760405160e560020a62461bcd02815260206004820152602a60248201527f4552433732313a2062616c616e636520717565727920666f7220746865207a6560448201527f726f206164647265737300000000000000000000000000000000000000000000606482015260840161095f565b50600160a060020a031660009081526005602052604090205490565b600080516020613da8833981519152611390813361236a565b5060009182526010602052604090912060010155565b60606000600d80546113b790613ccb565b80601f01602080910402602001604051908101604052809291908181526020018280546113e390613ccb565b80156114305780601f1061140557610100808354040283529160200191611430565b820191906000526020600020905b81548152906001019060200180831161141357829003601f168201915b50939695505050505050565b600154600160a060020a031633146114695760405160e560020a62461bcd02815260040161095f90613b3c565b6114736000612876565b565b600080516020613da883398151915261148e813361236a565b600061149a600a6128d5565b90506000600582116114b4576114af87611f2d565b6114bd565b6114bd88611f2d565b90506114cd600980546001019055565b60006114d860095490565b90506000601060008b81526020019081526020016000206001015490506000601060008b81526020019081526020016000206001015490506000601060008d81526020019081526020016000206002015490506000601060008d81526020019081526020016000206002015490506000601060008f815260200190815260200160002060000154600161156b9190613c26565b90506040518060c0016040528082815260200185871161158b578561158d565b865b815260200183851161159f57836115a1565b845b815260208082018f905260408083018f905260609283018e905260008a815260108352819020845181558483015160018201559084015160028201559183015180516115f392600385019201906132f2565b506080820151805161160f9160048401916020909101906132f2565b5060a0820151805161162b9160058401916020909101906132f2565b50905050611639338761291c565b6116438688612a62565b60405186907f01db8c7c6ad92be8b4130331ba7a596589ebf84d276b370ce2ff1d38489c2ffb90600090a25050505050505050505050505050565b6060600061168b83611f2d565b9392505050565b600080516020613da88339815191526116ab813361236a565b6000838152601060209081526040909120835190916110759160058401918601906132f2565b600154600160a060020a031633146116fe5760405160e560020a62461bcd02815260040161095f90613b3c565b600c55565b600091825260208281526040808420600160a060020a0393909316845291905290205460ff1690565b60606003805461086090613ccb565b600e805461125990613ccb565b336117be5760405160e560020a62461bcd02815260206004820152602260248201527f4d696e7420416464726573732063616e2774206265207a65726f20616464726560448201527f7373000000000000000000000000000000000000000000000000000000000000606482015260840161095f565b6203e8006117cb60095490565b1061181b5760405160e560020a62461bcd02815260206004820152601160248201527f416c6c204e4650732061726520736f6c64000000000000000000000000000000604482015260640161095f565b600c5461183090670de0b6b3a7640000613c52565b600f546040517f70a08231000000000000000000000000000000000000000000000000000000008152336004820152600160a060020a03909116906370a082319060240160206040518083038186803b15801561188c57600080fd5b505afa1580156118a0573d6000803e3d6000fd5b505050506040513d601f19601f820116820180604052508101906118c49190613692565b101561193b5760405160e560020a62461bcd02815260206004820152603360248201527f42616c616e6365206f6620476f6c20746f6b656e206973206e6f7420656e6f7560448201527f67687420746f2062757920426c696e64426f7800000000000000000000000000606482015260840161095f565b600f54600a54600c54600160a060020a03928316926323b872dd92339291169061196d90670de0b6b3a7640000613c52565b6040517c010000000000000000000000000000000000000000000000000000000063ffffffff8616028152600160a060020a0393841660048201529290911660248301526044820152606401602060405180830381600087803b1580156119d357600080fd5b505af11580156119e7573d6000803e3d6000fd5b505050506040513d601f19601f82011682018060405250810190611a0b91906135d1565b50611a1a600980546001019055565b6000611a2560095490565b90506000600d600e611a3684612aff565b604051602001611a4893929190613949565b60405160208183030381529060405290506060806000611a696127106128d5565b905061157c811115611ab2576040518060400160405280600681526020017f436f6d6d6f6e00000000000000000000000000000000000000000000000000008152509250611bbf565b6107d0811115611af9576040518060400160405280600881526020017f556e636f6d6d6f6e0000000000000000000000000000000000000000000000008152509250611bbf565b6101f4811115611b40576040518060400160405280600481526020017f52617265000000000000000000000000000000000000000000000000000000008152509250611bbf565b6064811115611b86576040518060400160405280600981526020017f4c6567656e6461727900000000000000000000000000000000000000000000008152509250611bbf565b6040518060400160405280600881526020017f4d7974686963616c00000000000000000000000000000000000000000000000081525092505b611bca6127106128d5565b9050611d4c811115611c13576040518060400160405280600681526020017f476f616c696500000000000000000000000000000000000000000000000000008152509150611cda565b611388811115611c5a576040518060400160405280600881526020017f446566656e6465720000000000000000000000000000000000000000000000008152509150611cda565b6109c4811115611ca1576040518060400160405280600a81526020017f4d69646669656c646572000000000000000000000000000000000000000000008152509150611cda565b6040518060400160405280600781526020017f537472696b65720000000000000000000000000000000000000000000000000081525091505b6040805160c0810182526000808252602080830182815283850183815260608501888152608086018a905286518088018852600681527f526f6f6b696500000000000000000000000000000000000000000000000000008186015260a08701528b855260108452959093208451815590516001820155915160028301559251805192939192611d6f92600385019201906132f2565b5060808201518051611d8b9160048401916020909101906132f2565b5060a08201518051611da79160058401916020909101906132f2565b50905050611db5338661291c565b611dbf8585612a62565b847f3ca34f54675bad9d785db929cb916abd42ddf71feb18d41797015aa66e3d8c3185604051611def9190613acc565b60405180910390a25050505050565b611032338383612c5a565b600154600160a060020a03163314611e365760405160e560020a62461bcd02815260040161095f90613b3c565b600b55565b600080516020613da8833981519152611e54813361236a565b6000838152601060209081526040909120835190916110759160048401918601906132f2565b611e843383612469565b611ea35760405160e560020a62461bcd02815260040161095f90613b71565b611eaf84848484612d2c565b50505050565b600154600160a060020a03163314611ee25760405160e560020a62461bcd02815260040161095f90613b3c565b610ab7838383610c0b565b600154600160a060020a03163314611f1a5760405160e560020a62461bcd02815260040161095f90613b3c565b805161103290600e9060208401906132f2565b6060611f38826123d1565b611fad5760405160e560020a62461bcd02815260206004820152603160248201527f45524337323155524953746f726167653a2055524920717565727920666f722060448201527f6e6f6e6578697374656e7420746f6b656e000000000000000000000000000000606482015260840161095f565b60008281526008602052604081208054611fc690613ccb565b80601f0160208091040260200160405190810160405280929190818152602001828054611ff290613ccb565b801561203f5780601f106120145761010080835404028352916020019161203f565b820191906000526020600020905b81548152906001019060200180831161202257829003601f168201915b50505050509050600061205d60408051602081019091526000815290565b9050805160001415612070575092915050565b8151156120a257808260405160200161208a92919061391a565b60405160208183030381529060405292505050919050565b6120ab84612d62565b949350505050565b6000828152602081905260409020600101546120cf813361236a565b610ab783836127d1565b600154600160a060020a031633146121065760405160e560020a62461bcd02815260040161095f90613b3c565b600160a060020a0381166121855760405160e560020a62461bcd02815260206004820152602360248201527f4f776e657220416464726573732063616e2774206265207a65726f206164647260448201527f6573730000000000000000000000000000000000000000000000000000000000606482015260840161095f565b600a805473ffffffffffffffffffffffffffffffffffffffff1916600160a060020a0392909216919091179055565b600080516020613da88339815191526121cd813361236a565b5060009182526010602052604090912060020155565b600154600090600160a060020a031633146122135760405160e560020a62461bcd02815260040161095f90613b3c565b50600a54600160a060020a031690565b60008181526010602052604090206003018054606091906110d990613ccb565b600154600160a060020a031633146122705760405160e560020a62461bcd02815260040161095f90613b3c565b600160a060020a0381166122ef5760405160e560020a62461bcd02815260206004820152602660248201527f4f776e61626c653a206e6577206f776e657220697320746865207a65726f206160448201527f6464726573730000000000000000000000000000000000000000000000000000606482015260840161095f565b610fa481612876565b6000600160e060020a031982167f80ac58cd00000000000000000000000000000000000000000000000000000000148061235b5750600160e060020a031982167f5b5e139f00000000000000000000000000000000000000000000000000000000145b8061081f575061081f82612e4a565b6123748282611703565b6110325761238c81600160a060020a03166014612eb1565b612397836020612eb1565b6040516020016123a89291906139cb565b60408051601f198184030181529082905260e560020a62461bcd02825261095f91600401613acc565b600090815260046020526040902054600160a060020a0316151590565b6000818152600660205260409020805473ffffffffffffffffffffffffffffffffffffffff1916600160a060020a0384169081179091558190612430826111be565b600160a060020a03167f8c5be1e5ebec7d5bd14f71427d1e84f3dd0314c0f7b2291e5b200ac8c7c3b92560405160405180910390a45050565b6000612474826123d1565b6124e95760405160e560020a62461bcd02815260206004820152602c60248201527f4552433732313a206f70657261746f7220717565727920666f72206e6f6e657860448201527f697374656e7420746f6b656e0000000000000000000000000000000000000000606482015260840161095f565b60006124f4836111be565b905080600160a060020a031684600160a060020a0316148061252f575083600160a060020a0316612524846108e3565b600160a060020a0316145b806120ab5750600160a060020a0380821660009081526007602090815260408083209388168352929052205460ff166120ab565b82600160a060020a0316612576826111be565b600160a060020a0316146125f55760405160e560020a62461bcd02815260206004820152602560248201527f4552433732313a207472616e736665722066726f6d20696e636f72726563742060448201527f6f776e6572000000000000000000000000000000000000000000000000000000606482015260840161095f565b600160a060020a0382166126735760405160e560020a62461bcd028152602060048201526024808201527f4552433732313a207472616e7366657220746f20746865207a65726f2061646460448201527f7265737300000000000000000000000000000000000000000000000000000000606482015260840161095f565b61267e6000826123ee565b600160a060020a03831660009081526005602052604081208054600192906126a7908490613c71565b9091555050600160a060020a03821660009081526005602052604081208054600192906126d5908490613c26565b9091555050600081815260046020526040808220805473ffffffffffffffffffffffffffffffffffffffff1916600160a060020a0386811691821790925591518493918716917fddf252ad1be2c89b69c2b068fc378daa952ba7f163c4a11628f55a4df523b3ef91a4505050565b61274d8282611703565b61103257600082815260208181526040808320600160a060020a03851684529091529020805460ff191660011790556127833390565b600160a060020a031681600160a060020a0316837f2f8788117e7eff1d82e926ec794901d17c78024a50270940304540a733656f0d60405160405180910390a45050565b6110328282612743565b6127db8282611703565b1561103257600082815260208181526040808320600160a060020a0385168085529252808320805460ff1916905551339285917ff6391f5c32d9c69d2a47ea670b442974b53935d1edc7fd64eb21e047a839171b9190a45050565b61283f81613108565b6000818152600860205260409020805461285890613ccb565b159050610fa4576000818152600860205260408120610fa491613376565b60018054600160a060020a0383811673ffffffffffffffffffffffffffffffffffffffff19831681179093556040519116919082907f8be0079c531659141344cd1fd0a4f28419497f9722a3daafe3b4186f6b6457e090600090a35050565b6040805142602080830191909152336c010000000000000000000000000282840152825160348184030181526054909201909252805191012060009061081f908390613d24565b600160a060020a0382166129755760405160e560020a62461bcd02815260206004820181905260248201527f4552433732313a206d696e7420746f20746865207a65726f2061646472657373604482015260640161095f565b61297e816123d1565b156129ce5760405160e560020a62461bcd02815260206004820152601c60248201527f4552433732313a20746f6b656e20616c7265616479206d696e74656400000000604482015260640161095f565b600160a060020a03821660009081526005602052604081208054600192906129f7908490613c26565b9091555050600081815260046020526040808220805473ffffffffffffffffffffffffffffffffffffffff1916600160a060020a03861690811790915590518392907fddf252ad1be2c89b69c2b068fc378daa952ba7f163c4a11628f55a4df523b3ef908290a45050565b612a6b826123d1565b612ae05760405160e560020a62461bcd02815260206004820152602e60248201527f45524337323155524953746f726167653a2055524920736574206f66206e6f6e60448201527f6578697374656e7420746f6b656e000000000000000000000000000000000000606482015260840161095f565b60008281526008602090815260409091208251610ab7928401906132f2565b606081612b3f57505060408051808201909152600181527f3000000000000000000000000000000000000000000000000000000000000000602082015290565b8160005b8115612b695780612b5381613d09565b9150612b629050600a83613c3e565b9150612b43565b60008167ffffffffffffffff811115612b955760e060020a634e487b7102600052604160045260246000fd5b6040519080825280601f01601f191660200182016040528015612bbf576020820181803683370190505b5090505b84156120ab57612bd4600183613c71565b9150612be1600a86613d24565b612bec906030613c26565b7f010000000000000000000000000000000000000000000000000000000000000002818381518110612c315760e060020a634e487b7102600052603260045260246000fd5b6020010190600160f860020a031916908160001a905350612c53600a86613c3e565b9450612bc3565b81600160a060020a031683600160a060020a03161415612cbf5760405160e560020a62461bcd02815260206004820152601960248201527f4552433732313a20617070726f766520746f2063616c6c657200000000000000604482015260640161095f565b600160a060020a03838116600081815260076020908152604080832094871680845294825291829020805460ff191686151590811790915591519182527f17307eab39ab6107e8899845ad3d59bd9653f200f220920489ca2b5937696c31910160405180910390a3505050565b612d37848484612563565b612d43848484846131b0565b611eaf5760405160e560020a62461bcd02815260040161095f90613adf565b6060612d6d826123d1565b612de25760405160e560020a62461bcd02815260206004820152602f60248201527f4552433732314d657461646174613a2055524920717565727920666f72206e6f60448201527f6e6578697374656e7420746f6b656e0000000000000000000000000000000000606482015260840161095f565b6000612df960408051602081019091526000815290565b90506000815111612e19576040518060200160405280600081525061168b565b80612e2384612aff565b604051602001612e3492919061391a565b6040516020818303038152906040529392505050565b6000600160e060020a031982167f7965db0b00000000000000000000000000000000000000000000000000000000148061081f57507f01ffc9a700000000000000000000000000000000000000000000000000000000600160e060020a031983161461081f565b60606000612ec0836002613c52565b612ecb906002613c26565b67ffffffffffffffff811115612ef45760e060020a634e487b7102600052604160045260246000fd5b6040519080825280601f01601f191660200182016040528015612f1e576020820181803683370190505b5090507f300000000000000000000000000000000000000000000000000000000000000081600081518110612f665760e060020a634e487b7102600052603260045260246000fd5b6020010190600160f860020a031916908160001a9053507f780000000000000000000000000000000000000000000000000000000000000081600181518110612fc25760e060020a634e487b7102600052603260045260246000fd5b6020010190600160f860020a031916908160001a9053506000612fe6846002613c52565b612ff1906001613c26565b90505b60018111156130b6577f303132333435363738396162636465660000000000000000000000000000000085600f16601081106130435760e060020a634e487b7102600052603260045260246000fd5b1a7f0100000000000000000000000000000000000000000000000000000000000000028282815181106130895760e060020a634e487b7102600052603260045260246000fd5b6020010190600160f860020a031916908160001a9053506010909404936130af81613cb4565b9050612ff4565b50831561168b5760405160e560020a62461bcd02815260206004820181905260248201527f537472696e67733a20686578206c656e67746820696e73756666696369656e74604482015260640161095f565b6000613113826111be565b90506131206000836123ee565b600160a060020a0381166000908152600560205260408120805460019290613149908490613c71565b9091555050600082815260046020526040808220805473ffffffffffffffffffffffffffffffffffffffff1916905551839190600160a060020a038416907fddf252ad1be2c89b69c2b068fc378daa952ba7f163c4a11628f55a4df523b3ef908390a45050565b6000600160a060020a0384163b156132e7576040517f150b7a02000000000000000000000000000000000000000000000000000000008152600160a060020a0385169063150b7a029061320d903390899088908890600401613a4c565b602060405180830381600087803b15801561322757600080fd5b505af1925050508015613257575060408051601f3d908101601f1916820190925261325491810190613643565b60015b6132b4573d808015613285576040519150601f19603f3d011682016040523d82523d6000602084013e61328a565b606091505b5080516132ac5760405160e560020a62461bcd02815260040161095f90613adf565b805181602001fd5b600160e060020a0319167f150b7a02000000000000000000000000000000000000000000000000000000001490506120ab565b506001949350505050565b8280546132fe90613ccb565b90600052602060002090601f0160209004810192826133205760008555613366565b82601f1061333957805160ff1916838001178555613366565b82800160010185558215613366579182015b8281111561336657825182559160200191906001019061334b565b506133729291506133ac565b5090565b50805461338290613ccb565b6000825580601f10613392575050565b601f016020900490600052602060002090810190610fa491905b5b8082111561337257600081556001016133ad565b600067ffffffffffffffff808411156133dc576133dc613d6a565b604051601f8501601f19908116603f0116810190828211818310171561340457613404613d6a565b8160405280935085815286868601111561341d57600080fd5b858560208301376000602087830101525050509392505050565b8035600160a060020a038116811461344e57600080fd5b919050565b600082601f830112613463578081fd5b61168b838335602085016133c1565b600060208284031215613483578081fd5b61168b82613437565b6000806040838503121561349e578081fd5b6134a783613437565b91506134b560208401613437565b90509250929050565b6000806000606084860312156134d2578081fd5b6134db84613437565b92506134e960208501613437565b9150604084013590509250925092565b6000806000806080858703121561350e578081fd5b61351785613437565b935061352560208601613437565b925060408501359150606085013567ffffffffffffffff811115613547578182fd5b8501601f81018713613557578182fd5b613566878235602084016133c1565b91505092959194509250565b60008060408385031215613584578182fd5b61358d83613437565b9150602083013561359d81613d83565b809150509250929050565b600080604083850312156135ba578182fd5b6135c383613437565b946020939093013593505050565b6000602082840312156135e2578081fd5b815161168b81613d83565b6000602082840312156135fe578081fd5b5035919050565b60008060408385031215613617578182fd5b823591506134b560208401613437565b600060208284031215613638578081fd5b813561168b81613d91565b600060208284031215613654578081fd5b815161168b81613d91565b600060208284031215613670578081fd5b813567ffffffffffffffff811115613686578182fd5b6120ab84828501613453565b6000602082840312156136a3578081fd5b5051919050565b600080604083850312156136bc578182fd5b82359150602083013567ffffffffffffffff8111156136d9578182fd5b6136e585828601613453565b9150509250929050565b60008060408385031215613701578182fd5b50508035926020909101359150565b600080600080600060a08688031215613727578283fd5b8535945060208601359350604086013567ffffffffffffffff8082111561374c578485fd5b61375889838a01613453565b9450606088013591508082111561376d578283fd5b61377989838a01613453565b9350608088013591508082111561378e578283fd5b5061379b88828901613453565b9150509295509295909350565b600080600080600080600060e0888a0312156137c2578485fd5b87359650602088013595506040880135945060608801359350608088013567ffffffffffffffff808211156137f5578384fd5b6138018b838c01613453565b945060a08a0135915080821115613816578384fd5b6138228b838c01613453565b935060c08a0135915080821115613837578283fd5b506138448a828b01613453565b91505092959891949750929550565b6000815180845261386b816020860160208601613c88565b601f01601f19169290920160200192915050565b80546000906002810460018083168061389957607f831692505b60208084108214156138bc5760e060020a634e487b710286526022600452602486fd5b8180156138d057600181146138e15761390e565b60ff1986168952848901965061390e565b60008881526020902060005b868110156139065781548b8201529085019083016138ed565b505084890196505b50505050505092915050565b6000835161392c818460208801613c88565b835190830190613940818360208801613c88565b01949350505050565b600061395e613958838761387f565b8561387f565b7f2f0000000000000000000000000000000000000000000000000000000000000081528351613994816001840160208801613c88565b7f2e6a736f6e0000000000000000000000000000000000000000000000000000006001929091019182015260060195945050505050565b7f416363657373436f6e74726f6c3a206163636f756e7420000000000000000000815260008351613a03816017850160208801613c88565b7f206973206d697373696e6720726f6c65200000000000000000000000000000006017918401918201528351613a40816028840160208801613c88565b01602801949350505050565b6000600160a060020a03808716835280861660208401525083604083015260806060830152613a7e6080830184613853565b9695505050505050565b6020808252825182820181905260009190848201906040850190845b81811015613ac057835183529284019291840191600101613aa4565b50909695505050505050565b60208152600061168b6020830184613853565b60208082526032908201527f4552433732313a207472616e7366657220746f206e6f6e20455243373231526560408201527f63656976657220696d706c656d656e7465720000000000000000000000000000606082015260800190565b6020808252818101527f4f776e61626c653a2063616c6c6572206973206e6f7420746865206f776e6572604082015260600190565b60208082526031908201527f4552433732313a207472616e736665722063616c6c6572206973206e6f74206f60408201527f776e6572206e6f7220617070726f766564000000000000000000000000000000606082015260800190565b86815285602082015284604082015260c060608201526000613bf360c0830186613853565b8281036080840152613c058186613853565b905082810360a0840152613c198185613853565b9998505050505050505050565b60008219821115613c3957613c39613d38565b500190565b600082613c4d57613c4d613d51565b500490565b6000816000190483118215151615613c6c57613c6c613d38565b500290565b600082821015613c8357613c83613d38565b500390565b60005b83811015613ca3578181015183820152602001613c8b565b83811115611eaf5750506000910152565b600081613cc357613cc3613d38565b506000190190565b600281046001821680613cdf57607f821691505b60208210811415613d035760e060020a634e487b7102600052602260045260246000fd5b50919050565b6000600019821415613d1d57613d1d613d38565b5060010190565b600082613d3357613d33613d51565b500690565b60e060020a634e487b7102600052601160045260246000fd5b60e060020a634e487b7102600052601260045260246000fd5b60e060020a634e487b7102600052604160045260246000fd5b8015158114610fa457600080fd5b600160e060020a031981168114610fa457600080fdfe3ee192ac25847473237ced4bba57f848e1fd794930ff85b42823290580967205a26469706673582212208fa87155c1c9c32f32fe3c064c87f7cc60f152e236a1c92b7c3750927791cfce64736f6c63430008040033",
  "immutableReferences": {},
  "source": "// SPDX-License-Identifier: MIT\r\npragma solidity ^0.8.4;\r\n\r\nimport \"@openzeppelin/contracts/access/Ownable.sol\";\r\nimport \"@openzeppelin/contracts/access/AccessControl.sol\";\r\nimport \"@openzeppelin/contracts/utils/Counters.sol\";\r\nimport \"@openzeppelin/contracts/token/ERC721/ERC721.sol\";\r\nimport \"@openzeppelin/contracts/token/ERC721/extensions/ERC721URIStorage.sol\";\r\nimport \"@openzeppelin/contracts/utils/Strings.sol\";\r\nimport \"./interfaces/IBusd.sol\";\r\nimport \"./interfaces/INonFungiblePlayer.sol\";\r\n\r\ncontract NonFungiblePlayer is\r\n    AccessControl,\r\n    Ownable,\r\n    ERC721URIStorage,\r\n    INonFungiblePlayer\r\n{\r\n    using Counters for Counters.Counter;\r\n    Counters.Counter private _tokenIds;\r\n\r\n    bytes32 public constant UPDATE_ROLE = keccak256(\"UPDATE_ROLE\");\r\n\r\n    address private ownerAddr;\r\n    uint256 public blockNumber;\r\n    uint256 public price;\r\n    string public baseURI;\r\n    string public cID;\r\n\r\n    IBusd busd;\r\n\r\n    mapping(uint256 => NfpInfo) public nfps;\r\n    event BuyBlindBox(uint256 indexed itemId, string metaHash);\r\n    event FusionSuccess(uint256 indexed tokenId);\r\n\r\n    constructor(\r\n        uint256 _blockNumber,\r\n        IBusd _busd,\r\n        string memory _baseURI,\r\n        string memory _cID,\r\n        address _ownerAddr\r\n    ) ERC721(\"Non-Fungible Player\", \"NFP\") {\r\n        blockNumber = _blockNumber;\r\n        busd = _busd;\r\n        baseURI = _baseURI;\r\n        price = 100;\r\n        cID = _cID;\r\n        ownerAddr = _ownerAddr;\r\n    }\r\n\r\n    function _rand(uint256 _modulus) internal view returns (uint256) {\r\n        return\r\n            uint256(keccak256(abi.encodePacked(block.timestamp, msg.sender))) %\r\n            _modulus;\r\n    }\r\n\r\n    function buyNFPBox() public {\r\n        require(msg.sender != address(0), \"Mint Address can't be zero address\");\r\n        // require(block.number >= blockNumber, \"NFPBox Sale is not started\");\r\n        require(_tokenIds.current() < 256000, \"All NFPs are sold\");\r\n        require(\r\n            busd.balanceOf(msg.sender) >= price * 10**18,\r\n            \"Balance of Gol token is not enought to buy BlindBox\"\r\n        );\r\n\r\n        busd.transferFrom(msg.sender, ownerAddr, price * 10**18);\r\n\r\n        _tokenIds.increment();\r\n        uint256 newItemId = _tokenIds.current();\r\n        string memory s = string(\r\n            abi.encodePacked(\r\n                baseURI,\r\n                cID,\r\n                \"/\",\r\n                Strings.toString(newItemId),\r\n                \".json\"\r\n            )\r\n        );\r\n\r\n        string memory rarityOfNew;\r\n        string memory positionOfNew;\r\n        uint256 randProbability = _rand(10000);\r\n\r\n        if (randProbability > 5500) {\r\n            rarityOfNew = \"Common\";\r\n        } else if (randProbability > 2000) {\r\n            rarityOfNew = \"Uncommon\";\r\n        } else if (randProbability > 500) {\r\n            rarityOfNew = \"Rare\";\r\n        } else if (randProbability > 100) {\r\n            rarityOfNew = \"Legendary\";\r\n        } else {\r\n            rarityOfNew = \"Mythical\";\r\n        }\r\n\r\n        randProbability = _rand(10000);\r\n\r\n        if (randProbability > 7500) {\r\n            positionOfNew = \"Goalie\";\r\n        } else if (randProbability > 5000) {\r\n            positionOfNew = \"Defender\";\r\n        } else if (randProbability > 2500) {\r\n            positionOfNew = \"Midfielder\";\r\n        } else {\r\n            positionOfNew = \"Striker\";\r\n        }\r\n\r\n        nfps[newItemId] = NfpInfo(\r\n            0,\r\n            0,\r\n            0,\r\n            positionOfNew,\r\n            rarityOfNew,\r\n            \"Rookie\"\r\n        );\r\n        _mint(msg.sender, newItemId);\r\n        _setTokenURI(newItemId, s);\r\n\r\n        emit BuyBlindBox(newItemId, s);\r\n    }\r\n\r\n    function mintFusionedNFP(\r\n        uint256 _tokenId1,\r\n        uint256 _tokenId2,\r\n        string memory _position,\r\n        string memory _rarity,\r\n        string memory _class\r\n    ) external override onlyRole(UPDATE_ROLE) {\r\n        uint256 randomNumber = _rand(10);\r\n        string memory _tokenURI = randomNumber > 5\r\n            ? tokenURI(_tokenId1)\r\n            : tokenURI(_tokenId2);\r\n\r\n        _tokenIds.increment();\r\n        uint256 newItemId = _tokenIds.current();\r\n\r\n        uint256 level1 = nfps[_tokenId1].level;\r\n        uint256 level2 = nfps[_tokenId2].level;\r\n        uint256 skillPoint1 = nfps[_tokenId1].skillPoint;\r\n        uint256 skillPoint2 = nfps[_tokenId2].skillPoint;\r\n        uint256 newGen = nfps[_tokenId1].gen + 1;\r\n\r\n        nfps[newItemId] = NfpInfo(\r\n            newGen,\r\n            level1 > level2 ? level1 : level2,\r\n            skillPoint1 > skillPoint2 ? skillPoint1 : skillPoint2,\r\n            _position,\r\n            _rarity,\r\n            _class\r\n        );\r\n        _mint(msg.sender, newItemId);\r\n        _setTokenURI(newItemId, _tokenURI);\r\n        emit FusionSuccess(newItemId);\r\n    }\r\n\r\n    function updateTraitsNFP(\r\n        uint256 _tokenId,\r\n        uint256 _gen,\r\n        uint256 _level,\r\n        uint256 _skillPoint,\r\n        string memory _position,\r\n        string memory _rarity,\r\n        string memory _class\r\n    ) external override onlyRole(UPDATE_ROLE) {\r\n        nfps[_tokenId] = NfpInfo(\r\n            _gen,\r\n            _level,\r\n            _skillPoint,\r\n            _position,\r\n            _rarity,\r\n            _class\r\n        );\r\n    }\r\n\r\n    function setOwnerAddr(address _ownerAddr) public onlyOwner {\r\n        require(\r\n            _ownerAddr != address(0),\r\n            \"Owner Address can't be zero address\"\r\n        );\r\n        ownerAddr = _ownerAddr;\r\n    }\r\n\r\n    function getOwnerAddr() public view onlyOwner returns (address) {\r\n        return ownerAddr;\r\n    }\r\n\r\n    function setPrice(uint256 _price) public onlyOwner {\r\n        price = _price;\r\n    }\r\n\r\n    function setBlockNumber(uint256 _blockNumber) public onlyOwner {\r\n        blockNumber = _blockNumber;\r\n    }\r\n\r\n    function setBaseURI(string memory _baseURI) public onlyOwner {\r\n        baseURI = _baseURI;\r\n    }\r\n\r\n    function setCID(string memory _cID) public onlyOwner {\r\n        cID = _cID;\r\n    }\r\n\r\n    function transfer(\r\n        address _from,\r\n        address _to,\r\n        uint256 _tokenId\r\n    ) external onlyOwner {\r\n        transferFrom(_from, _to, _tokenId);\r\n    }\r\n\r\n    function getBlockNumber() external view returns (uint256) {\r\n        return block.number;\r\n    }\r\n\r\n    function totalSupply() external view returns (uint256) {\r\n        return (_tokenIds.current());\r\n    }\r\n\r\n    function getTokenFullURI(uint256 tokenId)\r\n        external\r\n        view\r\n        returns (string memory)\r\n    {\r\n        string memory _tokenURI = tokenURI(tokenId);\r\n\r\n        return _tokenURI;\r\n    }\r\n\r\n    function getBaseURI() external view returns (string memory) {\r\n        string memory _baseURI = baseURI;\r\n        return _baseURI;\r\n    }\r\n\r\n    function fetchMyNfts() external view returns (uint256[] memory) {\r\n        uint256 tokenCount = 0;\r\n        uint256 _totalSupply = _tokenIds.current();\r\n        for (uint256 i = 0; i < _totalSupply; i++) {\r\n            if (ownerOf(i + 1) == msg.sender) {\r\n                tokenCount++;\r\n            }\r\n        }\r\n\r\n        uint256[] memory tokenIds = new uint256[](tokenCount);\r\n        uint256 currentIndex = 0;\r\n        for (uint256 i = 0; i < _totalSupply; i++) {\r\n            if (ownerOf(i + 1) == msg.sender) {\r\n                tokenIds[currentIndex] = i + 1;\r\n                currentIndex++;\r\n            }\r\n        }\r\n\r\n        return tokenIds;\r\n    }\r\n\r\n    function setUpdateRoleAddr(address _updateRoleAddr) public onlyOwner {\r\n        require(\r\n            !hasRole(UPDATE_ROLE, _updateRoleAddr),\r\n            \"Already have update role!\"\r\n        );\r\n        _setupRole(UPDATE_ROLE, _updateRoleAddr);\r\n    }\r\n\r\n    function getSkillPoint(uint256 _tokenId)\r\n        external\r\n        view\r\n        override\r\n        returns (uint256)\r\n    {\r\n        return nfps[_tokenId].skillPoint;\r\n    }\r\n\r\n    function setSkillPoint(uint256 _tokenId, uint256 _skillPoint)\r\n        external\r\n        override\r\n        onlyRole(UPDATE_ROLE)\r\n    {\r\n        NfpInfo storage _nfpInfo = nfps[_tokenId];\r\n        _nfpInfo.skillPoint = _skillPoint;\r\n    }\r\n\r\n    function getGeneration(uint256 _tokenId)\r\n        external\r\n        view\r\n        override\r\n        returns (uint256)\r\n    {\r\n        return nfps[_tokenId].gen;\r\n    }\r\n\r\n    function setGeneration(uint256 _tokenId, uint256 _gen)\r\n        external\r\n        override\r\n        onlyRole(UPDATE_ROLE)\r\n    {\r\n        NfpInfo storage _nfpInfo = nfps[_tokenId];\r\n        _nfpInfo.gen = _gen;\r\n    }\r\n\r\n    function getLevel(uint256 _tokenId)\r\n        external\r\n        view\r\n        override\r\n        returns (uint256)\r\n    {\r\n        return nfps[_tokenId].level;\r\n    }\r\n\r\n    function setLevel(uint256 _tokenId, uint256 _level)\r\n        external\r\n        override\r\n        onlyRole(UPDATE_ROLE)\r\n    {\r\n        NfpInfo storage _nfpInfo = nfps[_tokenId];\r\n        _nfpInfo.level = _level;\r\n    }\r\n\r\n    function getPosition(uint256 _tokenId)\r\n        external\r\n        view\r\n        override\r\n        returns (string memory)\r\n    {\r\n        return nfps[_tokenId].position;\r\n    }\r\n\r\n    function setPosition(uint256 _tokenId, string memory _position)\r\n        external\r\n        override\r\n        onlyRole(UPDATE_ROLE)\r\n    {\r\n        NfpInfo storage _nfpInfo = nfps[_tokenId];\r\n        _nfpInfo.position = _position;\r\n    }\r\n\r\n    function getRarity(uint256 _tokenId)\r\n        external\r\n        view\r\n        override\r\n        returns (string memory)\r\n    {\r\n        return nfps[_tokenId].rarity;\r\n    }\r\n\r\n    function setRarity(uint256 _tokenId, string memory _rarity)\r\n        external\r\n        override\r\n        onlyRole(UPDATE_ROLE)\r\n    {\r\n        NfpInfo storage _nfpInfo = nfps[_tokenId];\r\n        _nfpInfo.rarity = _rarity;\r\n    }\r\n\r\n    function getClass(uint256 _tokenId)\r\n        external\r\n        view\r\n        override\r\n        returns (string memory)\r\n    {\r\n        return nfps[_tokenId].class;\r\n    }\r\n\r\n    function setClass(uint256 _tokenId, string memory _class)\r\n        external\r\n        override\r\n        onlyRole(UPDATE_ROLE)\r\n    {\r\n        NfpInfo storage _nfpInfo = nfps[_tokenId];\r\n        _nfpInfo.class = _class;\r\n    }\r\n\r\n    function burn(uint256 tokenId) external override onlyRole(UPDATE_ROLE) {\r\n        _burn(tokenId);\r\n    }\r\n\r\n    function supportsInterface(bytes4 interfaceId)\r\n        public\r\n        view\r\n        virtual\r\n        override(ERC721, IERC165, AccessControl)\r\n        returns (bool)\r\n    {\r\n        return super.supportsInterface(interfaceId);\r\n    }\r\n}\r\n",
  "sourcePath": "E:\\Git for Project\\Ethereum\\NFT\\GolFinance\\gol-staking-contracts\\contracts\\NonFungiblePlayer.sol",
  "compiler": {
    "name": "solc",
    "version": "0.8.4+commit.c7e474f2.Emscripten.clang"
  },
  "schemaVersion": "3.4.5",
  "updatedAt": "2022-04-29T11:33:35.955Z",
  "devdoc": {
    "kind": "dev",
    "methods": {
      "approve(address,uint256)": {
        "details": "See {IERC721-approve}."
      },
      "balanceOf(address)": {
        "details": "See {IERC721-balanceOf}."
      },
      "getApproved(uint256)": {
        "details": "See {IERC721-getApproved}."
      },
      "getRoleAdmin(bytes32)": {
        "details": "Returns the admin role that controls `role`. See {grantRole} and {revokeRole}. To change a role's admin, use {_setRoleAdmin}."
      },
      "grantRole(bytes32,address)": {
        "details": "Grants `role` to `account`. If `account` had not been already granted `role`, emits a {RoleGranted} event. Requirements: - the caller must have ``role``'s admin role."
      },
      "hasRole(bytes32,address)": {
        "details": "Returns `true` if `account` has been granted `role`."
      },
      "isApprovedForAll(address,address)": {
        "details": "See {IERC721-isApprovedForAll}."
      },
      "name()": {
        "details": "See {IERC721Metadata-name}."
      },
      "owner()": {
        "details": "Returns the address of the current owner."
      },
      "ownerOf(uint256)": {
        "details": "See {IERC721-ownerOf}."
      },
      "renounceOwnership()": {
        "details": "Leaves the contract without owner. It will not be possible to call `onlyOwner` functions anymore. Can only be called by the current owner. NOTE: Renouncing ownership will leave the contract without an owner, thereby removing any functionality that is only available to the owner."
      },
      "renounceRole(bytes32,address)": {
        "details": "Revokes `role` from the calling account. Roles are often managed via {grantRole} and {revokeRole}: this function's purpose is to provide a mechanism for accounts to lose their privileges if they are compromised (such as when a trusted device is misplaced). If the calling account had been revoked `role`, emits a {RoleRevoked} event. Requirements: - the caller must be `account`."
      },
      "revokeRole(bytes32,address)": {
        "details": "Revokes `role` from `account`. If `account` had been granted `role`, emits a {RoleRevoked} event. Requirements: - the caller must have ``role``'s admin role."
      },
      "safeTransferFrom(address,address,uint256)": {
        "details": "See {IERC721-safeTransferFrom}."
      },
      "safeTransferFrom(address,address,uint256,bytes)": {
        "details": "See {IERC721-safeTransferFrom}."
      },
      "setApprovalForAll(address,bool)": {
        "details": "See {IERC721-setApprovalForAll}."
      },
      "symbol()": {
        "details": "See {IERC721Metadata-symbol}."
      },
      "tokenURI(uint256)": {
        "details": "See {IERC721Metadata-tokenURI}."
      },
      "transferFrom(address,address,uint256)": {
        "details": "See {IERC721-transferFrom}."
      },
      "transferOwnership(address)": {
        "details": "Transfers ownership of the contract to a new account (`newOwner`). Can only be called by the current owner."
      }
    },
    "version": 1
  },
  "userdoc": {
    "kind": "user",
    "methods": {},
    "version": 1
  }
}