{
  "contractName": "NonFungiblePlayer",
  "abi": [
    {
      "inputs": [
        {
          "internalType": "uint256",
          "name": "_blockNumber",
          "type": "uint256"
        },
        {
          "internalType": "contract IBusd",
          "name": "_busd",
          "type": "address"
        },
        {
          "internalType": "string",
          "name": "_baseURI",
          "type": "string"
        },
        {
          "internalType": "string",
          "name": "_cID",
          "type": "string"
        },
        {
          "internalType": "address",
          "name": "_ownerAddr",
          "type": "address"
        }
      ],
      "stateMutability": "nonpayable",
      "type": "constructor"
    },
    {
      "anonymous": false,
      "inputs": [
        {
          "indexed": true,
          "internalType": "address",
          "name": "owner",
          "type": "address"
        },
        {
          "indexed": true,
          "internalType": "address",
          "name": "approved",
          "type": "address"
        },
        {
          "indexed": true,
          "internalType": "uint256",
          "name": "tokenId",
          "type": "uint256"
        }
      ],
      "name": "Approval",
      "type": "event"
    },
    {
      "anonymous": false,
      "inputs": [
        {
          "indexed": true,
          "internalType": "address",
          "name": "owner",
          "type": "address"
        },
        {
          "indexed": true,
          "internalType": "address",
          "name": "operator",
          "type": "address"
        },
        {
          "indexed": false,
          "internalType": "bool",
          "name": "approved",
          "type": "bool"
        }
      ],
      "name": "ApprovalForAll",
      "type": "event"
    },
    {
      "anonymous": false,
      "inputs": [
        {
          "indexed": true,
          "internalType": "uint256",
          "name": "itemId",
          "type": "uint256"
        },
        {
          "indexed": false,
          "internalType": "string",
          "name": "metaHash",
          "type": "string"
        }
      ],
      "name": "BuyBlindBox",
      "type": "event"
    },
    {
      "anonymous": false,
      "inputs": [
        {
          "indexed": true,
          "internalType": "uint256",
          "name": "tokenId",
          "type": "uint256"
        }
      ],
      "name": "FusionSuccess",
      "type": "event"
    },
    {
      "anonymous": false,
      "inputs": [
        {
          "indexed": true,
          "internalType": "address",
          "name": "previousOwner",
          "type": "address"
        },
        {
          "indexed": true,
          "internalType": "address",
          "name": "newOwner",
          "type": "address"
        }
      ],
      "name": "OwnershipTransferred",
      "type": "event"
    },
    {
      "anonymous": false,
      "inputs": [
        {
          "indexed": true,
          "internalType": "bytes32",
          "name": "role",
          "type": "bytes32"
        },
        {
          "indexed": true,
          "internalType": "bytes32",
          "name": "previousAdminRole",
          "type": "bytes32"
        },
        {
          "indexed": true,
          "internalType": "bytes32",
          "name": "newAdminRole",
          "type": "bytes32"
        }
      ],
      "name": "RoleAdminChanged",
      "type": "event"
    },
    {
      "anonymous": false,
      "inputs": [
        {
          "indexed": true,
          "internalType": "bytes32",
          "name": "role",
          "type": "bytes32"
        },
        {
          "indexed": true,
          "internalType": "address",
          "name": "account",
          "type": "address"
        },
        {
          "indexed": true,
          "internalType": "address",
          "name": "sender",
          "type": "address"
        }
      ],
      "name": "RoleGranted",
      "type": "event"
    },
    {
      "anonymous": false,
      "inputs": [
        {
          "indexed": true,
          "internalType": "bytes32",
          "name": "role",
          "type": "bytes32"
        },
        {
          "indexed": true,
          "internalType": "address",
          "name": "account",
          "type": "address"
        },
        {
          "indexed": true,
          "internalType": "address",
          "name": "sender",
          "type": "address"
        }
      ],
      "name": "RoleRevoked",
      "type": "event"
    },
    {
      "anonymous": false,
      "inputs": [
        {
          "indexed": true,
          "internalType": "address",
          "name": "from",
          "type": "address"
        },
        {
          "indexed": true,
          "internalType": "address",
          "name": "to",
          "type": "address"
        },
        {
          "indexed": true,
          "internalType": "uint256",
          "name": "tokenId",
          "type": "uint256"
        }
      ],
      "name": "Transfer",
      "type": "event"
    },
    {
      "inputs": [],
      "name": "DEFAULT_ADMIN_ROLE",
      "outputs": [
        {
          "internalType": "bytes32",
          "name": "",
          "type": "bytes32"
        }
      ],
      "stateMutability": "view",
      "type": "function"
    },
    {
      "inputs": [],
      "name": "UPDATE_ROLE",
      "outputs": [
        {
          "internalType": "bytes32",
          "name": "",
          "type": "bytes32"
        }
      ],
      "stateMutability": "view",
      "type": "function"
    },
    {
      "inputs": [
        {
          "internalType": "address",
          "name": "to",
          "type": "address"
        },
        {
          "internalType": "uint256",
          "name": "tokenId",
          "type": "uint256"
        }
      ],
      "name": "approve",
      "outputs": [],
      "stateMutability": "nonpayable",
      "type": "function"
    },
    {
      "inputs": [
        {
          "internalType": "address",
          "name": "owner",
          "type": "address"
        }
      ],
      "name": "balanceOf",
      "outputs": [
        {
          "internalType": "uint256",
          "name": "",
          "type": "uint256"
        }
      ],
      "stateMutability": "view",
      "type": "function"
    },
    {
      "inputs": [],
      "name": "baseURI",
      "outputs": [
        {
          "internalType": "string",
          "name": "",
          "type": "string"
        }
      ],
      "stateMutability": "view",
      "type": "function"
    },
    {
      "inputs": [],
      "name": "blockNumber",
      "outputs": [
        {
          "internalType": "uint256",
          "name": "",
          "type": "uint256"
        }
      ],
      "stateMutability": "view",
      "type": "function"
    },
    {
      "inputs": [],
      "name": "cID",
      "outputs": [
        {
          "internalType": "string",
          "name": "",
          "type": "string"
        }
      ],
      "stateMutability": "view",
      "type": "function"
    },
    {
      "inputs": [
        {
          "internalType": "uint256",
          "name": "tokenId",
          "type": "uint256"
        }
      ],
      "name": "getApproved",
      "outputs": [
        {
          "internalType": "address",
          "name": "",
          "type": "address"
        }
      ],
      "stateMutability": "view",
      "type": "function"
    },
    {
      "inputs": [
        {
          "internalType": "bytes32",
          "name": "role",
          "type": "bytes32"
        }
      ],
      "name": "getRoleAdmin",
      "outputs": [
        {
          "internalType": "bytes32",
          "name": "",
          "type": "bytes32"
        }
      ],
      "stateMutability": "view",
      "type": "function"
    },
    {
      "inputs": [
        {
          "internalType": "bytes32",
          "name": "role",
          "type": "bytes32"
        },
        {
          "internalType": "address",
          "name": "account",
          "type": "address"
        }
      ],
      "name": "grantRole",
      "outputs": [],
      "stateMutability": "nonpayable",
      "type": "function"
    },
    {
      "inputs": [
        {
          "internalType": "bytes32",
          "name": "role",
          "type": "bytes32"
        },
        {
          "internalType": "address",
          "name": "account",
          "type": "address"
        }
      ],
      "name": "hasRole",
      "outputs": [
        {
          "internalType": "bool",
          "name": "",
          "type": "bool"
        }
      ],
      "stateMutability": "view",
      "type": "function"
    },
    {
      "inputs": [
        {
          "internalType": "address",
          "name": "owner",
          "type": "address"
        },
        {
          "internalType": "address",
          "name": "operator",
          "type": "address"
        }
      ],
      "name": "isApprovedForAll",
      "outputs": [
        {
          "internalType": "bool",
          "name": "",
          "type": "bool"
        }
      ],
      "stateMutability": "view",
      "type": "function"
    },
    {
      "inputs": [
        {
          "internalType": "uint256",
          "name": "",
          "type": "uint256"
        }
      ],
      "name": "isBurned",
      "outputs": [
        {
          "internalType": "bool",
          "name": "",
          "type": "bool"
        }
      ],
      "stateMutability": "view",
      "type": "function"
    },
    {
      "inputs": [],
      "name": "name",
      "outputs": [
        {
          "internalType": "string",
          "name": "",
          "type": "string"
        }
      ],
      "stateMutability": "view",
      "type": "function"
    },
    {
      "inputs": [
        {
          "internalType": "uint256",
          "name": "",
          "type": "uint256"
        }
      ],
      "name": "nfps",
      "outputs": [
        {
          "internalType": "uint256",
          "name": "gen",
          "type": "uint256"
        },
        {
          "internalType": "uint256",
          "name": "level",
          "type": "uint256"
        },
        {
          "internalType": "uint256",
          "name": "skillPoint",
          "type": "uint256"
        },
        {
          "internalType": "string",
          "name": "position",
          "type": "string"
        },
        {
          "internalType": "string",
          "name": "rarity",
          "type": "string"
        },
        {
          "internalType": "string",
          "name": "class",
          "type": "string"
        }
      ],
      "stateMutability": "view",
      "type": "function"
    },
    {
      "inputs": [],
      "name": "owner",
      "outputs": [
        {
          "internalType": "address",
          "name": "",
          "type": "address"
        }
      ],
      "stateMutability": "view",
      "type": "function"
    },
    {
      "inputs": [
        {
          "internalType": "uint256",
          "name": "tokenId",
          "type": "uint256"
        }
      ],
      "name": "ownerOf",
      "outputs": [
        {
          "internalType": "address",
          "name": "",
          "type": "address"
        }
      ],
      "stateMutability": "view",
      "type": "function"
    },
    {
      "inputs": [],
      "name": "price",
      "outputs": [
        {
          "internalType": "uint256",
          "name": "",
          "type": "uint256"
        }
      ],
      "stateMutability": "view",
      "type": "function"
    },
    {
      "inputs": [],
      "name": "renounceOwnership",
      "outputs": [],
      "stateMutability": "nonpayable",
      "type": "function"
    },
    {
      "inputs": [
        {
          "internalType": "bytes32",
          "name": "role",
          "type": "bytes32"
        },
        {
          "internalType": "address",
          "name": "account",
          "type": "address"
        }
      ],
      "name": "renounceRole",
      "outputs": [],
      "stateMutability": "nonpayable",
      "type": "function"
    },
    {
      "inputs": [
        {
          "internalType": "bytes32",
          "name": "role",
          "type": "bytes32"
        },
        {
          "internalType": "address",
          "name": "account",
          "type": "address"
        }
      ],
      "name": "revokeRole",
      "outputs": [],
      "stateMutability": "nonpayable",
      "type": "function"
    },
    {
      "inputs": [
        {
          "internalType": "address",
          "name": "from",
          "type": "address"
        },
        {
          "internalType": "address",
          "name": "to",
          "type": "address"
        },
        {
          "internalType": "uint256",
          "name": "tokenId",
          "type": "uint256"
        }
      ],
      "name": "safeTransferFrom",
      "outputs": [],
      "stateMutability": "nonpayable",
      "type": "function"
    },
    {
      "inputs": [
        {
          "internalType": "address",
          "name": "from",
          "type": "address"
        },
        {
          "internalType": "address",
          "name": "to",
          "type": "address"
        },
        {
          "internalType": "uint256",
          "name": "tokenId",
          "type": "uint256"
        },
        {
          "internalType": "bytes",
          "name": "_data",
          "type": "bytes"
        }
      ],
      "name": "safeTransferFrom",
      "outputs": [],
      "stateMutability": "nonpayable",
      "type": "function"
    },
    {
      "inputs": [
        {
          "internalType": "address",
          "name": "operator",
          "type": "address"
        },
        {
          "internalType": "bool",
          "name": "approved",
          "type": "bool"
        }
      ],
      "name": "setApprovalForAll",
      "outputs": [],
      "stateMutability": "nonpayable",
      "type": "function"
    },
    {
      "inputs": [],
      "name": "symbol",
      "outputs": [
        {
          "internalType": "string",
          "name": "",
          "type": "string"
        }
      ],
      "stateMutability": "view",
      "type": "function"
    },
    {
      "inputs": [
        {
          "internalType": "uint256",
          "name": "tokenId",
          "type": "uint256"
        }
      ],
      "name": "tokenURI",
      "outputs": [
        {
          "internalType": "string",
          "name": "",
          "type": "string"
        }
      ],
      "stateMutability": "view",
      "type": "function"
    },
    {
      "inputs": [],
      "name": "totalDeployedAmount",
      "outputs": [
        {
          "internalType": "uint256",
          "name": "",
          "type": "uint256"
        }
      ],
      "stateMutability": "view",
      "type": "function"
    },
    {
      "inputs": [
        {
          "internalType": "address",
          "name": "from",
          "type": "address"
        },
        {
          "internalType": "address",
          "name": "to",
          "type": "address"
        },
        {
          "internalType": "uint256",
          "name": "tokenId",
          "type": "uint256"
        }
      ],
      "name": "transferFrom",
      "outputs": [],
      "stateMutability": "nonpayable",
      "type": "function"
    },
    {
      "inputs": [
        {
          "internalType": "address",
          "name": "newOwner",
          "type": "address"
        }
      ],
      "name": "transferOwnership",
      "outputs": [],
      "stateMutability": "nonpayable",
      "type": "function"
    },
    {
      "inputs": [],
      "name": "buyNFPBox",
      "outputs": [],
      "stateMutability": "nonpayable",
      "type": "function"
    },
    {
      "inputs": [
        {
          "internalType": "address",
          "name": "_owner",
          "type": "address"
        },
        {
          "internalType": "uint256",
          "name": "_tokenId1",
          "type": "uint256"
        },
        {
          "internalType": "uint256",
          "name": "_tokenId2",
          "type": "uint256"
        },
        {
          "internalType": "string",
          "name": "_position",
          "type": "string"
        },
        {
          "internalType": "string",
          "name": "_rarity",
          "type": "string"
        },
        {
          "internalType": "string",
          "name": "_class",
          "type": "string"
        }
      ],
      "name": "mintFusionedNFP",
      "outputs": [
        {
          "internalType": "uint256",
          "name": "",
          "type": "uint256"
        }
      ],
      "stateMutability": "nonpayable",
      "type": "function"
    },
    {
      "inputs": [
        {
          "internalType": "uint256",
          "name": "_tokenId",
          "type": "uint256"
        },
        {
          "internalType": "uint256",
          "name": "_gen",
          "type": "uint256"
        },
        {
          "internalType": "uint256",
          "name": "_level",
          "type": "uint256"
        },
        {
          "internalType": "uint256",
          "name": "_skillPoint",
          "type": "uint256"
        },
        {
          "internalType": "string",
          "name": "_position",
          "type": "string"
        },
        {
          "internalType": "string",
          "name": "_rarity",
          "type": "string"
        },
        {
          "internalType": "string",
          "name": "_class",
          "type": "string"
        }
      ],
      "name": "updateTraitsNFP",
      "outputs": [],
      "stateMutability": "nonpayable",
      "type": "function"
    },
    {
      "inputs": [
        {
          "internalType": "address",
          "name": "_ownerAddr",
          "type": "address"
        }
      ],
      "name": "setOwnerAddr",
      "outputs": [],
      "stateMutability": "nonpayable",
      "type": "function"
    },
    {
      "inputs": [],
      "name": "getOwnerAddr",
      "outputs": [
        {
          "internalType": "address",
          "name": "",
          "type": "address"
        }
      ],
      "stateMutability": "view",
      "type": "function"
    },
    {
      "inputs": [
        {
          "internalType": "uint256",
          "name": "_price",
          "type": "uint256"
        }
      ],
      "name": "setPrice",
      "outputs": [],
      "stateMutability": "nonpayable",
      "type": "function"
    },
    {
      "inputs": [
        {
          "internalType": "uint256",
          "name": "_blockNumber",
          "type": "uint256"
        }
      ],
      "name": "setBlockNumber",
      "outputs": [],
      "stateMutability": "nonpayable",
      "type": "function"
    },
    {
      "inputs": [
        {
          "internalType": "string",
          "name": "_baseURI",
          "type": "string"
        }
      ],
      "name": "setBaseURI",
      "outputs": [],
      "stateMutability": "nonpayable",
      "type": "function"
    },
    {
      "inputs": [
        {
          "internalType": "string",
          "name": "_cID",
          "type": "string"
        }
      ],
      "name": "setCID",
      "outputs": [],
      "stateMutability": "nonpayable",
      "type": "function"
    },
    {
      "inputs": [
        {
          "internalType": "address",
          "name": "_from",
          "type": "address"
        },
        {
          "internalType": "address",
          "name": "_to",
          "type": "address"
        },
        {
          "internalType": "uint256",
          "name": "_tokenId",
          "type": "uint256"
        }
      ],
      "name": "transfer",
      "outputs": [],
      "stateMutability": "nonpayable",
      "type": "function"
    },
    {
      "inputs": [],
      "name": "getBlockNumber",
      "outputs": [
        {
          "internalType": "uint256",
          "name": "",
          "type": "uint256"
        }
      ],
      "stateMutability": "view",
      "type": "function"
    },
    {
      "inputs": [],
      "name": "totalSupply",
      "outputs": [
        {
          "internalType": "uint256",
          "name": "",
          "type": "uint256"
        }
      ],
      "stateMutability": "view",
      "type": "function"
    },
    {
      "inputs": [
        {
          "internalType": "uint256",
          "name": "tokenId",
          "type": "uint256"
        }
      ],
      "name": "getTokenFullURI",
      "outputs": [
        {
          "internalType": "string",
          "name": "",
          "type": "string"
        }
      ],
      "stateMutability": "view",
      "type": "function"
    },
    {
      "inputs": [],
      "name": "getBaseURI",
      "outputs": [
        {
          "internalType": "string",
          "name": "",
          "type": "string"
        }
      ],
      "stateMutability": "view",
      "type": "function"
    },
    {
      "inputs": [],
      "name": "fetchMyNfts",
      "outputs": [
        {
          "internalType": "uint256[]",
          "name": "",
          "type": "uint256[]"
        }
      ],
      "stateMutability": "view",
      "type": "function"
    },
    {
      "inputs": [
        {
          "internalType": "address",
          "name": "_updateRoleAddr",
          "type": "address"
        }
      ],
      "name": "setUpdateRoleAddr",
      "outputs": [],
      "stateMutability": "nonpayable",
      "type": "function"
    },
    {
      "inputs": [
        {
          "internalType": "uint256",
          "name": "_tokenId",
          "type": "uint256"
        }
      ],
      "name": "getSkillPoint",
      "outputs": [
        {
          "internalType": "uint256",
          "name": "",
          "type": "uint256"
        }
      ],
      "stateMutability": "view",
      "type": "function"
    },
    {
      "inputs": [
        {
          "internalType": "uint256",
          "name": "_tokenId",
          "type": "uint256"
        },
        {
          "internalType": "uint256",
          "name": "_skillPoint",
          "type": "uint256"
        }
      ],
      "name": "setSkillPoint",
      "outputs": [],
      "stateMutability": "nonpayable",
      "type": "function"
    },
    {
      "inputs": [
        {
          "internalType": "uint256",
          "name": "_tokenId",
          "type": "uint256"
        }
      ],
      "name": "getGeneration",
      "outputs": [
        {
          "internalType": "uint256",
          "name": "",
          "type": "uint256"
        }
      ],
      "stateMutability": "view",
      "type": "function"
    },
    {
      "inputs": [
        {
          "internalType": "uint256",
          "name": "_tokenId",
          "type": "uint256"
        },
        {
          "internalType": "uint256",
          "name": "_gen",
          "type": "uint256"
        }
      ],
      "name": "setGeneration",
      "outputs": [],
      "stateMutability": "nonpayable",
      "type": "function"
    },
    {
      "inputs": [
        {
          "internalType": "uint256",
          "name": "_tokenId",
          "type": "uint256"
        }
      ],
      "name": "getLevel",
      "outputs": [
        {
          "internalType": "uint256",
          "name": "",
          "type": "uint256"
        }
      ],
      "stateMutability": "view",
      "type": "function"
    },
    {
      "inputs": [
        {
          "internalType": "uint256",
          "name": "_tokenId",
          "type": "uint256"
        },
        {
          "internalType": "uint256",
          "name": "_level",
          "type": "uint256"
        }
      ],
      "name": "setLevel",
      "outputs": [],
      "stateMutability": "nonpayable",
      "type": "function"
    },
    {
      "inputs": [
        {
          "internalType": "uint256",
          "name": "_tokenId",
          "type": "uint256"
        }
      ],
      "name": "getPosition",
      "outputs": [
        {
          "internalType": "string",
          "name": "",
          "type": "string"
        }
      ],
      "stateMutability": "view",
      "type": "function"
    },
    {
      "inputs": [
        {
          "internalType": "uint256",
          "name": "_tokenId",
          "type": "uint256"
        },
        {
          "internalType": "string",
          "name": "_position",
          "type": "string"
        }
      ],
      "name": "setPosition",
      "outputs": [],
      "stateMutability": "nonpayable",
      "type": "function"
    },
    {
      "inputs": [
        {
          "internalType": "uint256",
          "name": "_tokenId",
          "type": "uint256"
        }
      ],
      "name": "getRarity",
      "outputs": [
        {
          "internalType": "string",
          "name": "",
          "type": "string"
        }
      ],
      "stateMutability": "view",
      "type": "function"
    },
    {
      "inputs": [
        {
          "internalType": "uint256",
          "name": "_tokenId",
          "type": "uint256"
        },
        {
          "internalType": "string",
          "name": "_rarity",
          "type": "string"
        }
      ],
      "name": "setRarity",
      "outputs": [],
      "stateMutability": "nonpayable",
      "type": "function"
    },
    {
      "inputs": [
        {
          "internalType": "uint256",
          "name": "_tokenId",
          "type": "uint256"
        }
      ],
      "name": "getClass",
      "outputs": [
        {
          "internalType": "string",
          "name": "",
          "type": "string"
        }
      ],
      "stateMutability": "view",
      "type": "function"
    },
    {
      "inputs": [
        {
          "internalType": "uint256",
          "name": "_tokenId",
          "type": "uint256"
        },
        {
          "internalType": "string",
          "name": "_class",
          "type": "string"
        }
      ],
      "name": "setClass",
      "outputs": [],
      "stateMutability": "nonpayable",
      "type": "function"
    },
    {
      "inputs": [
        {
          "internalType": "uint256",
          "name": "tokenId",
          "type": "uint256"
        }
      ],
      "name": "burn",
      "outputs": [],
      "stateMutability": "nonpayable",
      "type": "function"
    },
    {
      "inputs": [
        {
          "internalType": "bytes4",
          "name": "interfaceId",
          "type": "bytes4"
        }
      ],
      "name": "supportsInterface",
      "outputs": [
        {
          "internalType": "bool",
          "name": "",
          "type": "bool"
        }
      ],
      "stateMutability": "view",
      "type": "function"
    }
  ],
  "bytecode": "0x60806040523480156200001157600080fd5b50604051620042b1380380620042b1833981016040819052620000349162000325565b6040518060400160405280601381526020017f4e6f6e2d46756e6769626c6520506c61796572000000000000000000000000008152506040518060400160405280600381526020017f4e46500000000000000000000000000000000000000000000000000000000000815250620000cc620000bd62000176640100000000026401000000009004565b6401000000006200017a810204565b8151620000e1906002906020850190620001cc565b508051620000f7906003906020840190620001cc565b505050600b85905560108054600160a060020a031916600160a060020a03861617905582516200012f90600e906020860190620001cc565b506064600c5581516200014a90600f906020850190620001cc565b50600a8054600160a060020a031916600160a060020a0392909216919091179055506200046092505050565b3390565b60018054600160a060020a03838116600160a060020a0319831681179093556040519116919082907f8be0079c531659141344cd1fd0a4f28419497f9722a3daafe3b4186f6b6457e090600090a35050565b828054620001da90620003c2565b90600052602060002090601f016020900481019282620001fe576000855562000249565b82601f106200021957805160ff191683800117855562000249565b8280016001018555821562000249579182015b82811115620002495782518255916020019190600101906200022c565b50620002579291506200025b565b5090565b5b808211156200025757600081556001016200025c565b600082601f83011262000283578081fd5b81516001604060020a0380821115620002a057620002a062000418565b604051601f8301601f19908116603f01168101908282118183101715620002cb57620002cb62000418565b81604052838152602092508683858801011115620002e7578485fd5b8491505b838210156200030a5785820183015181830184015290820190620002eb565b838211156200031b57848385830101525b9695505050505050565b600080600080600060a086880312156200033d578081fd5b855194506020860151620003518162000447565b60408701519094506001604060020a03808211156200036e578283fd5b6200037c89838a0162000272565b9450606088015191508082111562000392578283fd5b50620003a18882890162000272565b9250506080860151620003b48162000447565b809150509295509295909350565b600281046001821680620003d757607f821691505b6020821081141562000412577f4e487b7100000000000000000000000000000000000000000000000000000000600052602260045260246000fd5b50919050565b7f4e487b7100000000000000000000000000000000000000000000000000000000600052604160045260246000fd5b600160a060020a03811681146200045d57600080fd5b50565b613e4180620004706000396000f3fe608060405234801561001057600080fd5b50600436106103b5576000357c010000000000000000000000000000000000000000000000000000000090048063714c539811610206578063a8c3c8501161012c578063db3843c6116100ca578063e670472311610099578063e6704723146107ec578063e985e9c5146107f4578063eb02c30114610830578063f2fde38b1461084357600080fd5b8063db3843c614610780578063db44fe07146107a3578063e074278d146107c6578063e36db2fb146107d957600080fd5b8063beabacc811610106578063beabacc814610734578063c3d6ee7f14610747578063c87b56dd1461075a578063d547741f1461076d57600080fd5b8063a8c3c850146106fb578063b5c82bd11461070e578063b88d4fde1461072157600080fd5b806391b7f5ed116101a45780639c96b2f7116101735780639c96b2f7146106cf578063a035b1fe146106d7578063a217fddf146106e0578063a22cb465146106e857600080fd5b806391b7f5ed1461069957806391d14854146106ac57806395d89b41146106bf57806399a2f2d7146106c757600080fd5b806386481d40116101e057806386481d40146106495780638a26d4ec1461066c5780638d615eea1461067f5780638da5cb5b1461068857600080fd5b8063714c539814610626578063715018a61461062e57806380e719c61461063657600080fd5b8063363e9fb1116102eb578063512d62df116102895780636352211e116102585780636352211e146105e55780636c0360eb146105f857806370a082311461060057806370a93b361461061357600080fd5b8063512d62df1461059657806355f804b3146105a957806356e3df97146105bc57806357e871e7146105dc57600080fd5b806342842e0e116102c557806342842e0e1461055757806342966c681461056a57806342cbb15c1461057d578063487586971461058357600080fd5b8063363e9fb11461051e57806336568abe1461053157806336e3c0901461054457600080fd5b8063128ae71211610358578063248a9ca311610332578063248a9ca3146104b057806328091904146104d35780632de4f3db146104e65780632f2ff15d1461050b57600080fd5b8063128ae7121461048057806318160ddd1461049557806323b872dd1461049d57600080fd5b806306fdde031161039457806306fdde031461041a578063081812fc1461042f578063095ea7b31461045a5780631280c0471461046d57600080fd5b8062497846146103ba57806301ffc9a7146103e257806304d5ef3f14610405575b600080fd5b6103cf600080516020613dec83398151915281565b6040519081526020015b60405180910390f35b6103f56103f0366004613703565b610856565b60405190151581526020016103d9565b6104186104133660046137cb565b610867565b005b610422610893565b6040516103d99190613b10565b61044261043d3660046136c9565b610925565b604051600160a060020a0390911681526020016103d9565b6104186104683660046135dd565b6109c6565b6103cf61047b366004613606565b610afe565b610488610c91565b6040516103d99190613acc565b6103cf610e1d565b6104186104ab3660046134f3565b610e2d565b6103cf6104be3660046136c9565b60009081526020819052604090206001015490565b6104186104e13660046137ec565b610e61565b6104f96104f43660046136c9565b610f24565b6040516103d996959493929190613c12565b6104186105193660046136e1565b6110f3565b61041861052c3660046134a7565b611119565b61041861053f3660046136e1565b6111c9565b610418610552366004613786565b611258565b6104186105653660046134f3565b61129e565b6104186105783660046136c9565b6112b9565b436103cf565b6104226105913660046136c9565b6112f7565b6104226105a43660046136c9565b61139c565b6104186105b736600461373b565b6113bc565b6103cf6105ca3660046136c9565b60009081526011602052604090205490565b6103cf600b5481565b6104426105f33660046136c9565b6113fc565b61042261148a565b6103cf61060e3660046134a7565b611518565b6104186106213660046137cb565b6115b5565b6104226115e4565b61041861167a565b6104226106443660046136c9565b6116b3565b6103cf6106573660046136c9565b60009081526011602052604090206001015490565b61041861067a366004613786565b6116c7565b6103cf600d5481565b600154600160a060020a0316610442565b6104186106a73660046136c9565b611706565b6103f56106ba3660046136e1565b611738565b610422611761565b610422611770565b61041861177d565b6103cf600c5481565b6103cf600081565b6104186106f63660046135a7565b611e33565b6104186107093660046136c9565b611e3e565b61041861071c366004613786565b611e70565b61041861072f36600461352e565b611eaf565b6104186107423660046134f3565b611eea565b61041861075536600461373b565b611f22565b6104226107683660046136c9565b611f62565b61041861077b3660046136e1565b6120e8565b6103cf61078e3660046136c9565b60009081526011602052604090206002015490565b6103f56107b13660046136c9565b60126020526000908152604090205460ff1681565b6104186107d43660046134a7565b61210e565b6104186107e73660046137cb565b6121e9565b610442612218565b6103f56108023660046134c1565b600160a060020a03918216600090815260076020908152604080832093909416825291909152205460ff1690565b61042261083e3660046136c9565b612258565b6104186108513660046134a7565b612278565b60006108618261232d565b92915050565b600080516020613dec833981519152610880813361239f565b5060009182526011602052604090912055565b6060600280546108a290613d0f565b80601f01602080910402602001604051908101604052809291908181526020018280546108ce90613d0f565b801561091b5780601f106108f05761010080835404028352916020019161091b565b820191906000526020600020905b8154815290600101906020018083116108fe57829003601f168201915b5050505050905090565b600061093082612406565b6109aa5760405160e560020a62461bcd02815260206004820152602c60248201527f4552433732313a20617070726f76656420717565727920666f72206e6f6e657860448201527f697374656e7420746f6b656e000000000000000000000000000000000000000060648201526084015b60405180910390fd5b50600090815260066020526040902054600160a060020a031690565b60006109d1826113fc565b905080600160a060020a031683600160a060020a03161415610a5e5760405160e560020a62461bcd02815260206004820152602160248201527f4552433732313a20617070726f76616c20746f2063757272656e74206f776e6560448201527f720000000000000000000000000000000000000000000000000000000000000060648201526084016109a1565b33600160a060020a0382161480610a7a5750610a7a8133610802565b610aef5760405160e560020a62461bcd02815260206004820152603860248201527f4552433732313a20617070726f76652063616c6c6572206973206e6f74206f7760448201527f6e6572206e6f7220617070726f76656420666f7220616c6c000000000000000060648201526084016109a1565b610af98383612423565b505050565b6000600080516020613dec833981519152610b19813361239f565b610b27600980546001019055565b6000610b3260095490565b6000898152601160205260408082206001808201548c8552928420808201546002808501549201548f875293549697509395939490939091610b749190613c6a565b90506040518060c00160405280828152602001858711610b945785610b96565b865b8152602001838511610ba85783610baa565b845b815260208082018e905260408083018e905260609283018d905260008a81526011835281902084518155848301516001820155908401516002820155918301518051610bfc9260038501920190613327565b5060808201518051610c18916004840191602090910190613327565b5060a08201518051610c34916005840191602090910190613327565b50905050610c428e8761249e565b6000600e600f610c51896125e4565b604051602001610c639392919061398d565b6040516020818303038152906040529050610c7e878261273f565b50949d9c50505050505050505050505050565b6060600080610c9f60095490565b90506000805b82811015610d125760126000610cbc836001613c6a565b815260208101919091526040016000205460ff16610d005733610ce36105f3836001613c6a565b600160a060020a03161415610d005783610cfc81613d4d565b9450505b80610d0a81613d4d565b915050610ca5565b5060008367ffffffffffffffff811115610d3f5760e060020a634e487b7102600052604160045260246000fd5b604051908082528060200260200182016040528015610d68578160200160208202803683370190505b50905060005b83811015610e145760126000610d85836001613c6a565b815260208101919091526040016000205460ff16610e025733610dac6105f3836001613c6a565b600160a060020a03161415610e0257610dc6816001613c6a565b828481518110610de95760e060020a634e487b7102600052603260045260246000fd5b602090810291909101015282610dfe81613d4d565b9350505b80610e0c81613d4d565b915050610d6e565b50949350505050565b6000610e2860095490565b905090565b610e3733826127dc565b610e565760405160e560020a62461bcd0281526004016109a190613bb5565b610af98383836128d6565b600080516020613dec833981519152610e7a813361239f565b6040805160c0810182528881526020808201898152828401898152606084018981526080850189905260a0850188905260008e81526011855295909520845181559151600183015551600282015592518051929392610edf9260038501920190613327565b5060808201518051610efb916004840191602090910190613327565b5060a08201518051610f17916005840191602090910190613327565b5050505050505050505050565b601160205260009081526040902080546001820154600283015460038401805493949293919291610f5490613d0f565b80601f0160208091040260200160405190810160405280929190818152602001828054610f8090613d0f565b8015610fcd5780601f10610fa257610100808354040283529160200191610fcd565b820191906000526020600020905b815481529060010190602001808311610fb057829003601f168201915b505050505090806004018054610fe290613d0f565b80601f016020809104026020016040519081016040528092919081815260200182805461100e90613d0f565b801561105b5780601f106110305761010080835404028352916020019161105b565b820191906000526020600020905b81548152906001019060200180831161103e57829003601f168201915b50505050509080600501805461107090613d0f565b80601f016020809104026020016040519081016040528092919081815260200182805461109c90613d0f565b80156110e95780601f106110be576101008083540402835291602001916110e9565b820191906000526020600020905b8154815290600101906020018083116110cc57829003601f168201915b5050505050905086565b60008281526020819052604090206001015461110f813361239f565b610af98383612ab6565b600154600160a060020a031633146111465760405160e560020a62461bcd0281526004016109a190613b80565b61115e600080516020613dec83398151915282611738565b156111ae5760405160e560020a62461bcd02815260206004820152601960248201527f416c726561647920686176652075706461746520726f6c65210000000000000060448201526064016109a1565b6111c6600080516020613dec83398151915282612b3a565b50565b600160a060020a038116331461124a5760405160e560020a62461bcd02815260206004820152602f60248201527f416363657373436f6e74726f6c3a2063616e206f6e6c792072656e6f756e636560448201527f20726f6c657320666f722073656c66000000000000000000000000000000000060648201526084016109a1565b6112548282612b44565b5050565b600080516020613dec833981519152611271813361239f565b600083815260116020908152604090912083519091611297916003840191860190613327565b5050505050565b610af983838360405180602001604052806000815250611eaf565b600080516020613dec8339815191526112d2813361239f565b6112db82612ba9565b506000908152601260205260409020805460ff19166001179055565b600081815260116020526040902060040180546060919061131790613d0f565b80601f016020809104026020016040519081016040528092919081815260200182805461134390613d0f565b80156113905780601f1061136557610100808354040283529160200191611390565b820191906000526020600020905b81548152906001019060200180831161137357829003601f168201915b50505050509050919050565b600081815260116020526040902060050180546060919061131790613d0f565b600154600160a060020a031633146113e95760405160e560020a62461bcd0281526004016109a190613b80565b805161125490600e906020840190613327565b600081815260046020526040812054600160a060020a0316806108615760405160e560020a62461bcd02815260206004820152602960248201527f4552433732313a206f776e657220717565727920666f72206e6f6e657869737460448201527f656e7420746f6b656e000000000000000000000000000000000000000000000060648201526084016109a1565b600e805461149790613d0f565b80601f01602080910402602001604051908101604052809291908181526020018280546114c390613d0f565b80156115105780601f106114e557610100808354040283529160200191611510565b820191906000526020600020905b8154815290600101906020018083116114f357829003601f168201915b505050505081565b6000600160a060020a0382166115995760405160e560020a62461bcd02815260206004820152602a60248201527f4552433732313a2062616c616e636520717565727920666f7220746865207a6560448201527f726f20616464726573730000000000000000000000000000000000000000000060648201526084016109a1565b50600160a060020a031660009081526005602052604090205490565b600080516020613dec8339815191526115ce813361239f565b5060009182526011602052604090912060010155565b60606000600e80546115f590613d0f565b80601f016020809104026020016040519081016040528092919081815260200182805461162190613d0f565b801561166e5780601f106116435761010080835404028352916020019161166e565b820191906000526020600020905b81548152906001019060200180831161165157829003601f168201915b50939695505050505050565b600154600160a060020a031633146116a75760405160e560020a62461bcd0281526004016109a190613b80565b6116b16000612be9565b565b606060006116c083611f62565b9392505050565b600080516020613dec8339815191526116e0813361239f565b600083815260116020908152604090912083519091611297916005840191860190613327565b600154600160a060020a031633146117335760405160e560020a62461bcd0281526004016109a190613b80565b600c55565b600091825260208281526040808420600160a060020a0393909316845291905290205460ff1690565b6060600380546108a290613d0f565b600f805461149790613d0f565b336117f35760405160e560020a62461bcd02815260206004820152602260248201527f4d696e7420416464726573732063616e2774206265207a65726f20616464726560448201527f737300000000000000000000000000000000000000000000000000000000000060648201526084016109a1565b6203e80061180060095490565b106118505760405160e560020a62461bcd02815260206004820152601160248201527f416c6c204e4650732061726520736f6c6400000000000000000000000000000060448201526064016109a1565b600c5461186590670de0b6b3a7640000613c96565b6010546040517f70a08231000000000000000000000000000000000000000000000000000000008152336004820152600160a060020a03909116906370a082319060240160206040518083038186803b1580156118c157600080fd5b505afa1580156118d5573d6000803e3d6000fd5b505050506040513d601f19601f820116820180604052508101906118f9919061376e565b10156119705760405160e560020a62461bcd02815260206004820152603360248201527f42616c616e6365206f6620476f6c20746f6b656e206973206e6f7420656e6f7560448201527f67687420746f2062757920426c696e64426f780000000000000000000000000060648201526084016109a1565b601054600a54600c54600160a060020a03928316926323b872dd9233929116906119a290670de0b6b3a7640000613c96565b6040517c010000000000000000000000000000000000000000000000000000000063ffffffff8616028152600160a060020a0393841660048201529290911660248301526044820152606401602060405180830381600087803b158015611a0857600080fd5b505af1158015611a1c573d6000803e3d6000fd5b505050506040513d601f19601f82011682018060405250810190611a4091906136ad565b50611a4f600980546001019055565b6000611a5a60095490565b90506000600e600f611a6b846125e4565b604051602001611a7d9392919061398d565b60405160208183030381529060405290506060806000611a9e612710612c48565b905061157c811115611ae7576040518060400160405280600681526020017f436f6d6d6f6e00000000000000000000000000000000000000000000000000008152509250611bf4565b6107d0811115611b2e576040518060400160405280600881526020017f556e636f6d6d6f6e0000000000000000000000000000000000000000000000008152509250611bf4565b6101f4811115611b75576040518060400160405280600481526020017f52617265000000000000000000000000000000000000000000000000000000008152509250611bf4565b6064811115611bbb576040518060400160405280600981526020017f4c6567656e6461727900000000000000000000000000000000000000000000008152509250611bf4565b6040518060400160405280600881526020017f4d7974686963616c00000000000000000000000000000000000000000000000081525092505b611bff612710612c48565b9050611d4c811115611c48576040518060400160405280600681526020017f476f616c696500000000000000000000000000000000000000000000000000008152509150611d0f565b611388811115611c8f576040518060400160405280600881526020017f446566656e6465720000000000000000000000000000000000000000000000008152509150611d0f565b6109c4811115611cd6576040518060400160405280600a81526020017f4d69646669656c646572000000000000000000000000000000000000000000008152509150611d0f565b6040518060400160405280600781526020017f537472696b65720000000000000000000000000000000000000000000000000081525091505b6040805160c0810182526000808252602080830182815283850183815260608501888152608086018a905286518088018852600681527f526f6f6b696500000000000000000000000000000000000000000000000000008186015260a08701528b855260118452959093208451815590516001820155915160028301559251805192939192611da49260038501920190613327565b5060808201518051611dc0916004840191602090910190613327565b5060a08201518051611ddc916005840191602090910190613327565b50905050611dea338661249e565b611df4858561273f565b847f3ca34f54675bad9d785db929cb916abd42ddf71feb18d41797015aa66e3d8c3185604051611e249190613b10565b60405180910390a25050505050565b611254338383612c8f565b600154600160a060020a03163314611e6b5760405160e560020a62461bcd0281526004016109a190613b80565b600b55565b600080516020613dec833981519152611e89813361239f565b600083815260116020908152604090912083519091611297916004840191860190613327565b611eb933836127dc565b611ed85760405160e560020a62461bcd0281526004016109a190613bb5565b611ee484848484612d61565b50505050565b600154600160a060020a03163314611f175760405160e560020a62461bcd0281526004016109a190613b80565b610af9838383610e2d565b600154600160a060020a03163314611f4f5760405160e560020a62461bcd0281526004016109a190613b80565b805161125490600f906020840190613327565b6060611f6d82612406565b611fe25760405160e560020a62461bcd02815260206004820152603160248201527f45524337323155524953746f726167653a2055524920717565727920666f722060448201527f6e6f6e6578697374656e7420746f6b656e00000000000000000000000000000060648201526084016109a1565b60008281526008602052604081208054611ffb90613d0f565b80601f016020809104026020016040519081016040528092919081815260200182805461202790613d0f565b80156120745780601f1061204957610100808354040283529160200191612074565b820191906000526020600020905b81548152906001019060200180831161205757829003601f168201915b50505050509050600061209260408051602081019091526000815290565b90508051600014156120a5575092915050565b8151156120d75780826040516020016120bf92919061395e565b60405160208183030381529060405292505050919050565b6120e084612d97565b949350505050565b600082815260208190526040902060010154612104813361239f565b610af98383612b44565b600154600160a060020a0316331461213b5760405160e560020a62461bcd0281526004016109a190613b80565b600160a060020a0381166121ba5760405160e560020a62461bcd02815260206004820152602360248201527f4f776e657220416464726573732063616e2774206265207a65726f206164647260448201527f657373000000000000000000000000000000000000000000000000000000000060648201526084016109a1565b600a805473ffffffffffffffffffffffffffffffffffffffff1916600160a060020a0392909216919091179055565b600080516020613dec833981519152612202813361239f565b5060009182526011602052604090912060020155565b600154600090600160a060020a031633146122485760405160e560020a62461bcd0281526004016109a190613b80565b50600a54600160a060020a031690565b600081815260116020526040902060030180546060919061131790613d0f565b600154600160a060020a031633146122a55760405160e560020a62461bcd0281526004016109a190613b80565b600160a060020a0381166123245760405160e560020a62461bcd02815260206004820152602660248201527f4f776e61626c653a206e6577206f776e657220697320746865207a65726f206160448201527f646472657373000000000000000000000000000000000000000000000000000060648201526084016109a1565b6111c681612be9565b6000600160e060020a031982167f80ac58cd0000000000000000000000000000000000000000000000000000000014806123905750600160e060020a031982167f5b5e139f00000000000000000000000000000000000000000000000000000000145b80610861575061086182612e7f565b6123a98282611738565b611254576123c181600160a060020a03166014612ee6565b6123cc836020612ee6565b6040516020016123dd929190613a0f565b60408051601f198184030181529082905260e560020a62461bcd0282526109a191600401613b10565b600090815260046020526040902054600160a060020a0316151590565b6000818152600660205260409020805473ffffffffffffffffffffffffffffffffffffffff1916600160a060020a0384169081179091558190612465826113fc565b600160a060020a03167f8c5be1e5ebec7d5bd14f71427d1e84f3dd0314c0f7b2291e5b200ac8c7c3b92560405160405180910390a45050565b600160a060020a0382166124f75760405160e560020a62461bcd02815260206004820181905260248201527f4552433732313a206d696e7420746f20746865207a65726f206164647265737360448201526064016109a1565b61250081612406565b156125505760405160e560020a62461bcd02815260206004820152601c60248201527f4552433732313a20746f6b656e20616c7265616479206d696e7465640000000060448201526064016109a1565b600160a060020a0382166000908152600560205260408120805460019290612579908490613c6a565b9091555050600081815260046020526040808220805473ffffffffffffffffffffffffffffffffffffffff1916600160a060020a03861690811790915590518392907fddf252ad1be2c89b69c2b068fc378daa952ba7f163c4a11628f55a4df523b3ef908290a45050565b60608161262457505060408051808201909152600181527f3000000000000000000000000000000000000000000000000000000000000000602082015290565b8160005b811561264e578061263881613d4d565b91506126479050600a83613c82565b9150612628565b60008167ffffffffffffffff81111561267a5760e060020a634e487b7102600052604160045260246000fd5b6040519080825280601f01601f1916602001820160405280156126a4576020820181803683370190505b5090505b84156120e0576126b9600183613cb5565b91506126c6600a86613d68565b6126d1906030613c6a565b7f0100000000000000000000000000000000000000000000000000000000000000028183815181106127165760e060020a634e487b7102600052603260045260246000fd5b6020010190600160f860020a031916908160001a905350612738600a86613c82565b94506126a8565b61274882612406565b6127bd5760405160e560020a62461bcd02815260206004820152602e60248201527f45524337323155524953746f726167653a2055524920736574206f66206e6f6e60448201527f6578697374656e7420746f6b656e00000000000000000000000000000000000060648201526084016109a1565b60008281526008602090815260409091208251610af992840190613327565b60006127e782612406565b61285c5760405160e560020a62461bcd02815260206004820152602c60248201527f4552433732313a206f70657261746f7220717565727920666f72206e6f6e657860448201527f697374656e7420746f6b656e000000000000000000000000000000000000000060648201526084016109a1565b6000612867836113fc565b905080600160a060020a031684600160a060020a031614806128a2575083600160a060020a031661289784610925565b600160a060020a0316145b806120e05750600160a060020a0380821660009081526007602090815260408083209388168352929052205460ff166120e0565b82600160a060020a03166128e9826113fc565b600160a060020a0316146129685760405160e560020a62461bcd02815260206004820152602560248201527f4552433732313a207472616e736665722066726f6d20696e636f72726563742060448201527f6f776e657200000000000000000000000000000000000000000000000000000060648201526084016109a1565b600160a060020a0382166129e65760405160e560020a62461bcd028152602060048201526024808201527f4552433732313a207472616e7366657220746f20746865207a65726f2061646460448201527f726573730000000000000000000000000000000000000000000000000000000060648201526084016109a1565b6129f1600082612423565b600160a060020a0383166000908152600560205260408120805460019290612a1a908490613cb5565b9091555050600160a060020a0382166000908152600560205260408120805460019290612a48908490613c6a565b9091555050600081815260046020526040808220805473ffffffffffffffffffffffffffffffffffffffff1916600160a060020a0386811691821790925591518493918716917fddf252ad1be2c89b69c2b068fc378daa952ba7f163c4a11628f55a4df523b3ef91a4505050565b612ac08282611738565b61125457600082815260208181526040808320600160a060020a03851684529091529020805460ff19166001179055612af63390565b600160a060020a031681600160a060020a0316837f2f8788117e7eff1d82e926ec794901d17c78024a50270940304540a733656f0d60405160405180910390a45050565b6112548282612ab6565b612b4e8282611738565b1561125457600082815260208181526040808320600160a060020a0385168085529252808320805460ff1916905551339285917ff6391f5c32d9c69d2a47ea670b442974b53935d1edc7fd64eb21e047a839171b9190a45050565b612bb28161313d565b60008181526008602052604090208054612bcb90613d0f565b1590506111c65760008181526008602052604081206111c6916133ab565b60018054600160a060020a0383811673ffffffffffffffffffffffffffffffffffffffff19831681179093556040519116919082907f8be0079c531659141344cd1fd0a4f28419497f9722a3daafe3b4186f6b6457e090600090a35050565b6040805142602080830191909152336c0100000000000000000000000002828401528251603481840301815260549092019092528051910120600090610861908390613d68565b81600160a060020a031683600160a060020a03161415612cf45760405160e560020a62461bcd02815260206004820152601960248201527f4552433732313a20617070726f766520746f2063616c6c65720000000000000060448201526064016109a1565b600160a060020a03838116600081815260076020908152604080832094871680845294825291829020805460ff191686151590811790915591519182527f17307eab39ab6107e8899845ad3d59bd9653f200f220920489ca2b5937696c31910160405180910390a3505050565b612d6c8484846128d6565b612d78848484846131e5565b611ee45760405160e560020a62461bcd0281526004016109a190613b23565b6060612da282612406565b612e175760405160e560020a62461bcd02815260206004820152602f60248201527f4552433732314d657461646174613a2055524920717565727920666f72206e6f60448201527f6e6578697374656e7420746f6b656e000000000000000000000000000000000060648201526084016109a1565b6000612e2e60408051602081019091526000815290565b90506000815111612e4e57604051806020016040528060008152506116c0565b80612e58846125e4565b604051602001612e6992919061395e565b6040516020818303038152906040529392505050565b6000600160e060020a031982167f7965db0b00000000000000000000000000000000000000000000000000000000148061086157507f01ffc9a700000000000000000000000000000000000000000000000000000000600160e060020a0319831614610861565b60606000612ef5836002613c96565b612f00906002613c6a565b67ffffffffffffffff811115612f295760e060020a634e487b7102600052604160045260246000fd5b6040519080825280601f01601f191660200182016040528015612f53576020820181803683370190505b5090507f300000000000000000000000000000000000000000000000000000000000000081600081518110612f9b5760e060020a634e487b7102600052603260045260246000fd5b6020010190600160f860020a031916908160001a9053507f780000000000000000000000000000000000000000000000000000000000000081600181518110612ff75760e060020a634e487b7102600052603260045260246000fd5b6020010190600160f860020a031916908160001a905350600061301b846002613c96565b613026906001613c6a565b90505b60018111156130eb577f303132333435363738396162636465660000000000000000000000000000000085600f16601081106130785760e060020a634e487b7102600052603260045260246000fd5b1a7f0100000000000000000000000000000000000000000000000000000000000000028282815181106130be5760e060020a634e487b7102600052603260045260246000fd5b6020010190600160f860020a031916908160001a9053506010909404936130e481613cf8565b9050613029565b5083156116c05760405160e560020a62461bcd02815260206004820181905260248201527f537472696e67733a20686578206c656e67746820696e73756666696369656e7460448201526064016109a1565b6000613148826113fc565b9050613155600083612423565b600160a060020a038116600090815260056020526040812080546001929061317e908490613cb5565b9091555050600082815260046020526040808220805473ffffffffffffffffffffffffffffffffffffffff1916905551839190600160a060020a038416907fddf252ad1be2c89b69c2b068fc378daa952ba7f163c4a11628f55a4df523b3ef908390a45050565b6000600160a060020a0384163b1561331c576040517f150b7a02000000000000000000000000000000000000000000000000000000008152600160a060020a0385169063150b7a0290613242903390899088908890600401613a90565b602060405180830381600087803b15801561325c57600080fd5b505af192505050801561328c575060408051601f3d908101601f191682019092526132899181019061371f565b60015b6132e9573d8080156132ba576040519150601f19603f3d011682016040523d82523d6000602084013e6132bf565b606091505b5080516132e15760405160e560020a62461bcd0281526004016109a190613b23565b805181602001fd5b600160e060020a0319167f150b7a02000000000000000000000000000000000000000000000000000000001490506120e0565b506001949350505050565b82805461333390613d0f565b90600052602060002090601f016020900481019282613355576000855561339b565b82601f1061336e57805160ff191683800117855561339b565b8280016001018555821561339b579182015b8281111561339b578251825591602001919060010190613380565b506133a79291506133e1565b5090565b5080546133b790613d0f565b6000825580601f106133c7575050565b601f0160209004906000526020600020908101906111c691905b5b808211156133a757600081556001016133e2565b600067ffffffffffffffff8084111561341157613411613dae565b604051601f8501601f19908116603f0116810190828211818310171561343957613439613dae565b8160405280935085815286868601111561345257600080fd5b858560208301376000602087830101525050509392505050565b8035600160a060020a038116811461348357600080fd5b919050565b600082601f830112613498578081fd5b6116c0838335602085016133f6565b6000602082840312156134b8578081fd5b6116c08261346c565b600080604083850312156134d3578081fd5b6134dc8361346c565b91506134ea6020840161346c565b90509250929050565b600080600060608486031215613507578081fd5b6135108461346c565b925061351e6020850161346c565b9150604084013590509250925092565b60008060008060808587031215613543578081fd5b61354c8561346c565b935061355a6020860161346c565b925060408501359150606085013567ffffffffffffffff81111561357c578182fd5b8501601f8101871361358c578182fd5b61359b878235602084016133f6565b91505092959194509250565b600080604083850312156135b9578182fd5b6135c28361346c565b915060208301356135d281613dc7565b809150509250929050565b600080604083850312156135ef578182fd5b6135f88361346c565b946020939093013593505050565b60008060008060008060c0878903121561361e578182fd5b6136278761346c565b95506020870135945060408701359350606087013567ffffffffffffffff80821115613651578384fd5b61365d8a838b01613488565b94506080890135915080821115613672578384fd5b61367e8a838b01613488565b935060a0890135915080821115613693578283fd5b506136a089828a01613488565b9150509295509295509295565b6000602082840312156136be578081fd5b81516116c081613dc7565b6000602082840312156136da578081fd5b5035919050565b600080604083850312156136f3578182fd5b823591506134ea6020840161346c565b600060208284031215613714578081fd5b81356116c081613dd5565b600060208284031215613730578081fd5b81516116c081613dd5565b60006020828403121561374c578081fd5b813567ffffffffffffffff811115613762578182fd5b6120e084828501613488565b60006020828403121561377f578081fd5b5051919050565b60008060408385031215613798578182fd5b82359150602083013567ffffffffffffffff8111156137b5578182fd5b6137c185828601613488565b9150509250929050565b600080604083850312156137dd578182fd5b50508035926020909101359150565b600080600080600080600060e0888a031215613806578485fd5b87359650602088013595506040880135945060608801359350608088013567ffffffffffffffff80821115613839578283fd5b6138458b838c01613488565b945060a08a013591508082111561385a578283fd5b6138668b838c01613488565b935060c08a013591508082111561387b578283fd5b506138888a828b01613488565b91505092959891949750929550565b600081518084526138af816020860160208601613ccc565b601f01601f19169290920160200192915050565b8054600090600281046001808316806138dd57607f831692505b60208084108214156139005760e060020a634e487b710286526022600452602486fd5b818015613914576001811461392557613952565b60ff19861689528489019650613952565b60008881526020902060005b8681101561394a5781548b820152908501908301613931565b505084890196505b50505050505092915050565b60008351613970818460208801613ccc565b835190830190613984818360208801613ccc565b01949350505050565b60006139a261399c83876138c3565b856138c3565b7f2f00000000000000000000000000000000000000000000000000000000000000815283516139d8816001840160208801613ccc565b7f2e6a736f6e0000000000000000000000000000000000000000000000000000006001929091019182015260060195945050505050565b7f416363657373436f6e74726f6c3a206163636f756e7420000000000000000000815260008351613a47816017850160208801613ccc565b7f206973206d697373696e6720726f6c65200000000000000000000000000000006017918401918201528351613a84816028840160208801613ccc565b01602801949350505050565b6000600160a060020a03808716835280861660208401525083604083015260806060830152613ac26080830184613897565b9695505050505050565b6020808252825182820181905260009190848201906040850190845b81811015613b0457835183529284019291840191600101613ae8565b50909695505050505050565b6020815260006116c06020830184613897565b60208082526032908201527f4552433732313a207472616e7366657220746f206e6f6e20455243373231526560408201527f63656976657220696d706c656d656e7465720000000000000000000000000000606082015260800190565b6020808252818101527f4f776e61626c653a2063616c6c6572206973206e6f7420746865206f776e6572604082015260600190565b60208082526031908201527f4552433732313a207472616e736665722063616c6c6572206973206e6f74206f60408201527f776e6572206e6f7220617070726f766564000000000000000000000000000000606082015260800190565b86815285602082015284604082015260c060608201526000613c3760c0830186613897565b8281036080840152613c498186613897565b905082810360a0840152613c5d8185613897565b9998505050505050505050565b60008219821115613c7d57613c7d613d7c565b500190565b600082613c9157613c91613d95565b500490565b6000816000190483118215151615613cb057613cb0613d7c565b500290565b600082821015613cc757613cc7613d7c565b500390565b60005b83811015613ce7578181015183820152602001613ccf565b83811115611ee45750506000910152565b600081613d0757613d07613d7c565b506000190190565b600281046001821680613d2357607f821691505b60208210811415613d475760e060020a634e487b7102600052602260045260246000fd5b50919050565b6000600019821415613d6157613d61613d7c565b5060010190565b600082613d7757613d77613d95565b500690565b60e060020a634e487b7102600052601160045260246000fd5b60e060020a634e487b7102600052601260045260246000fd5b60e060020a634e487b7102600052604160045260246000fd5b80151581146111c657600080fd5b600160e060020a0319811681146111c657600080fdfe3ee192ac25847473237ced4bba57f848e1fd794930ff85b42823290580967205a2646970667358221220802a09398a68d61539376adea6b1ee2fd1f6adf2f595ef3d8200234c003a4edf64736f6c63430008040033",
  "immutableReferences": {},
  "source": "// SPDX-License-Identifier: MIT\r\npragma solidity ^0.8.4;\r\n\r\nimport \"@openzeppelin/contracts/access/Ownable.sol\";\r\nimport \"@openzeppelin/contracts/access/AccessControl.sol\";\r\nimport \"@openzeppelin/contracts/utils/Counters.sol\";\r\nimport \"@openzeppelin/contracts/token/ERC721/ERC721.sol\";\r\nimport \"@openzeppelin/contracts/token/ERC721/extensions/ERC721URIStorage.sol\";\r\nimport \"@openzeppelin/contracts/utils/Strings.sol\";\r\nimport \"./interfaces/IBusd.sol\";\r\nimport \"./interfaces/INonFungiblePlayer.sol\";\r\n\r\ncontract NonFungiblePlayer is\r\n    AccessControl,\r\n    Ownable,\r\n    ERC721URIStorage,\r\n    INonFungiblePlayer\r\n{\r\n    using Counters for Counters.Counter;\r\n    Counters.Counter private _tokenIds;\r\n\r\n    bytes32 public constant UPDATE_ROLE = keccak256(\"UPDATE_ROLE\");\r\n\r\n    address private ownerAddr;\r\n    uint256 public blockNumber;\r\n    uint256 public price;\r\n    uint256 public totalDeployedAmount;\r\n    string public baseURI;\r\n    string public cID;\r\n\r\n    IBusd busd;\r\n\r\n    mapping(uint256 => NfpInfo) public nfps;\r\n    mapping(uint256 => bool) public isBurned;\r\n    event BuyBlindBox(uint256 indexed itemId, string metaHash);\r\n    event FusionSuccess(uint256 indexed tokenId);\r\n\r\n    constructor(\r\n        uint256 _blockNumber,\r\n        IBusd _busd,\r\n        string memory _baseURI,\r\n        string memory _cID,\r\n        address _ownerAddr\r\n    ) ERC721(\"Non-Fungible Player\", \"NFP\") {\r\n        blockNumber = _blockNumber;\r\n        busd = _busd;\r\n        baseURI = _baseURI;\r\n        price = 100;\r\n        cID = _cID;\r\n        ownerAddr = _ownerAddr;\r\n    }\r\n\r\n    function _rand(uint256 _modulus) internal view returns (uint256) {\r\n        return\r\n            uint256(keccak256(abi.encodePacked(block.timestamp, msg.sender))) %\r\n            _modulus;\r\n    }\r\n\r\n    function buyNFPBox() public {\r\n        require(msg.sender != address(0), \"Mint Address can't be zero address\");\r\n        // require(block.number >= blockNumber, \"NFPBox Sale is not started\");\r\n        require(_tokenIds.current() < 256000, \"All NFPs are sold\");\r\n        require(\r\n            busd.balanceOf(msg.sender) >= price * 10**18,\r\n            \"Balance of Gol token is not enought to buy BlindBox\"\r\n        );\r\n\r\n        busd.transferFrom(msg.sender, ownerAddr, price * 10**18);\r\n\r\n        _tokenIds.increment();\r\n        uint256 newItemId = _tokenIds.current();\r\n        string memory s = string(\r\n            abi.encodePacked(\r\n                baseURI,\r\n                cID,\r\n                \"/\",\r\n                Strings.toString(newItemId),\r\n                \".json\"\r\n            )\r\n        );\r\n\r\n        string memory rarityOfNew;\r\n        string memory positionOfNew;\r\n        uint256 randProbability = _rand(10000);\r\n\r\n        if (randProbability > 5500) {\r\n            rarityOfNew = \"Common\";\r\n        } else if (randProbability > 2000) {\r\n            rarityOfNew = \"Uncommon\";\r\n        } else if (randProbability > 500) {\r\n            rarityOfNew = \"Rare\";\r\n        } else if (randProbability > 100) {\r\n            rarityOfNew = \"Legendary\";\r\n        } else {\r\n            rarityOfNew = \"Mythical\";\r\n        }\r\n\r\n        randProbability = _rand(10000);\r\n\r\n        if (randProbability > 7500) {\r\n            positionOfNew = \"Goalie\";\r\n        } else if (randProbability > 5000) {\r\n            positionOfNew = \"Defender\";\r\n        } else if (randProbability > 2500) {\r\n            positionOfNew = \"Midfielder\";\r\n        } else {\r\n            positionOfNew = \"Striker\";\r\n        }\r\n\r\n        nfps[newItemId] = NfpInfo(\r\n            0,\r\n            0,\r\n            0,\r\n            positionOfNew,\r\n            rarityOfNew,\r\n            \"Rookie\"\r\n        );\r\n        _mint(msg.sender, newItemId);\r\n        _setTokenURI(newItemId, s);\r\n\r\n        emit BuyBlindBox(newItemId, s);\r\n    }\r\n\r\n    function mintFusionedNFP(\r\n        address _owner,\r\n        uint256 _tokenId1,\r\n        uint256 _tokenId2,\r\n        string memory _position,\r\n        string memory _rarity,\r\n        string memory _class\r\n    ) external override onlyRole(UPDATE_ROLE) returns (uint256) {\r\n        _tokenIds.increment();\r\n        uint256 newItemId = _tokenIds.current();\r\n\r\n        uint256 level1 = nfps[_tokenId1].level;\r\n        uint256 level2 = nfps[_tokenId2].level;\r\n        uint256 skillPoint1 = nfps[_tokenId1].skillPoint;\r\n        uint256 skillPoint2 = nfps[_tokenId2].skillPoint;\r\n        uint256 newGen = nfps[_tokenId1].gen + 1;\r\n\r\n        nfps[newItemId] = NfpInfo(\r\n            newGen,\r\n            level1 > level2 ? level1 : level2,\r\n            skillPoint1 > skillPoint2 ? skillPoint1 : skillPoint2,\r\n            _position,\r\n            _rarity,\r\n            _class\r\n        );\r\n        _mint(_owner, newItemId);\r\n\r\n        string memory s = string(\r\n            abi.encodePacked(\r\n                baseURI,\r\n                cID,\r\n                \"/\",\r\n                Strings.toString(newItemId),\r\n                \".json\"\r\n            )\r\n        );\r\n\r\n        _setTokenURI(newItemId, s);\r\n        return newItemId;\r\n    }\r\n\r\n    function updateTraitsNFP(\r\n        uint256 _tokenId,\r\n        uint256 _gen,\r\n        uint256 _level,\r\n        uint256 _skillPoint,\r\n        string memory _position,\r\n        string memory _rarity,\r\n        string memory _class\r\n    ) external override onlyRole(UPDATE_ROLE) {\r\n        nfps[_tokenId] = NfpInfo(\r\n            _gen,\r\n            _level,\r\n            _skillPoint,\r\n            _position,\r\n            _rarity,\r\n            _class\r\n        );\r\n    }\r\n\r\n    function setOwnerAddr(address _ownerAddr) public onlyOwner {\r\n        require(\r\n            _ownerAddr != address(0),\r\n            \"Owner Address can't be zero address\"\r\n        );\r\n        ownerAddr = _ownerAddr;\r\n    }\r\n\r\n    function getOwnerAddr() public view onlyOwner returns (address) {\r\n        return ownerAddr;\r\n    }\r\n\r\n    function setPrice(uint256 _price) public onlyOwner {\r\n        price = _price;\r\n    }\r\n\r\n    function setBlockNumber(uint256 _blockNumber) public onlyOwner {\r\n        blockNumber = _blockNumber;\r\n    }\r\n\r\n    function setBaseURI(string memory _baseURI) public onlyOwner {\r\n        baseURI = _baseURI;\r\n    }\r\n\r\n    function setCID(string memory _cID) public onlyOwner {\r\n        cID = _cID;\r\n    }\r\n\r\n    function transfer(\r\n        address _from,\r\n        address _to,\r\n        uint256 _tokenId\r\n    ) external onlyOwner {\r\n        transferFrom(_from, _to, _tokenId);\r\n    }\r\n\r\n    function getBlockNumber() external view returns (uint256) {\r\n        return block.number;\r\n    }\r\n\r\n    function totalSupply() external view returns (uint256) {\r\n        return (_tokenIds.current());\r\n    }\r\n\r\n    function getTokenFullURI(uint256 tokenId)\r\n        external\r\n        view\r\n        returns (string memory)\r\n    {\r\n        string memory _tokenURI = tokenURI(tokenId);\r\n\r\n        return _tokenURI;\r\n    }\r\n\r\n    function getBaseURI() external view returns (string memory) {\r\n        string memory _baseURI = baseURI;\r\n        return _baseURI;\r\n    }\r\n\r\n    function fetchMyNfts() external view returns (uint256[] memory) {\r\n        uint256 tokenCount = 0;\r\n        uint256 _totalSupply = _tokenIds.current();\r\n        uint256 currentIndex = 0;\r\n\r\n        for (uint256 i = 0; i < _totalSupply; i++) {\r\n            if (isBurned[i + 1] == false)\r\n                if (ownerOf(i + 1) == msg.sender) tokenCount++;\r\n        }\r\n\r\n        uint256[] memory tokenIds = new uint256[](tokenCount);\r\n        for (uint256 i = 0; i < _totalSupply; i++) {\r\n            if (isBurned[i + 1] == false)\r\n                if (ownerOf(i + 1) == msg.sender) {\r\n                    tokenIds[currentIndex] = i + 1;\r\n                    currentIndex++;\r\n                }\r\n        }\r\n\r\n        return tokenIds;\r\n    }\r\n\r\n    function setUpdateRoleAddr(address _updateRoleAddr) public onlyOwner {\r\n        require(\r\n            !hasRole(UPDATE_ROLE, _updateRoleAddr),\r\n            \"Already have update role!\"\r\n        );\r\n        _setupRole(UPDATE_ROLE, _updateRoleAddr);\r\n    }\r\n\r\n    function getSkillPoint(uint256 _tokenId)\r\n        external\r\n        view\r\n        override\r\n        returns (uint256)\r\n    {\r\n        return nfps[_tokenId].skillPoint;\r\n    }\r\n\r\n    function setSkillPoint(uint256 _tokenId, uint256 _skillPoint)\r\n        external\r\n        override\r\n        onlyRole(UPDATE_ROLE)\r\n    {\r\n        NfpInfo storage _nfpInfo = nfps[_tokenId];\r\n        _nfpInfo.skillPoint = _skillPoint;\r\n    }\r\n\r\n    function getGeneration(uint256 _tokenId)\r\n        external\r\n        view\r\n        override\r\n        returns (uint256)\r\n    {\r\n        return nfps[_tokenId].gen;\r\n    }\r\n\r\n    function setGeneration(uint256 _tokenId, uint256 _gen)\r\n        external\r\n        override\r\n        onlyRole(UPDATE_ROLE)\r\n    {\r\n        NfpInfo storage _nfpInfo = nfps[_tokenId];\r\n        _nfpInfo.gen = _gen;\r\n    }\r\n\r\n    function getLevel(uint256 _tokenId)\r\n        external\r\n        view\r\n        override\r\n        returns (uint256)\r\n    {\r\n        return nfps[_tokenId].level;\r\n    }\r\n\r\n    function setLevel(uint256 _tokenId, uint256 _level)\r\n        external\r\n        override\r\n        onlyRole(UPDATE_ROLE)\r\n    {\r\n        NfpInfo storage _nfpInfo = nfps[_tokenId];\r\n        _nfpInfo.level = _level;\r\n    }\r\n\r\n    function getPosition(uint256 _tokenId)\r\n        external\r\n        view\r\n        override\r\n        returns (string memory)\r\n    {\r\n        return nfps[_tokenId].position;\r\n    }\r\n\r\n    function setPosition(uint256 _tokenId, string memory _position)\r\n        external\r\n        override\r\n        onlyRole(UPDATE_ROLE)\r\n    {\r\n        NfpInfo storage _nfpInfo = nfps[_tokenId];\r\n        _nfpInfo.position = _position;\r\n    }\r\n\r\n    function getRarity(uint256 _tokenId)\r\n        external\r\n        view\r\n        override\r\n        returns (string memory)\r\n    {\r\n        return nfps[_tokenId].rarity;\r\n    }\r\n\r\n    function setRarity(uint256 _tokenId, string memory _rarity)\r\n        external\r\n        override\r\n        onlyRole(UPDATE_ROLE)\r\n    {\r\n        NfpInfo storage _nfpInfo = nfps[_tokenId];\r\n        _nfpInfo.rarity = _rarity;\r\n    }\r\n\r\n    function getClass(uint256 _tokenId)\r\n        external\r\n        view\r\n        override\r\n        returns (string memory)\r\n    {\r\n        return nfps[_tokenId].class;\r\n    }\r\n\r\n    function setClass(uint256 _tokenId, string memory _class)\r\n        external\r\n        override\r\n        onlyRole(UPDATE_ROLE)\r\n    {\r\n        NfpInfo storage _nfpInfo = nfps[_tokenId];\r\n        _nfpInfo.class = _class;\r\n    }\r\n\r\n    function burn(uint256 tokenId) external override onlyRole(UPDATE_ROLE) {\r\n        _burn(tokenId);\r\n        isBurned[tokenId] = true;\r\n    }\r\n\r\n    function supportsInterface(bytes4 interfaceId)\r\n        public\r\n        view\r\n        virtual\r\n        override(ERC721, IERC165, AccessControl)\r\n        returns (bool)\r\n    {\r\n        return super.supportsInterface(interfaceId);\r\n    }\r\n}\r\n",
  "sourcePath": "E:\\Git for Project\\Ethereum\\NFT\\GolFinance\\gol-staking-contracts\\contracts\\NonFungiblePlayer.sol",
  "compiler": {
    "name": "solc",
    "version": "0.8.4+commit.c7e474f2.Emscripten.clang"
  },
  "schemaVersion": "3.4.5",
  "updatedAt": "2022-05-05T02:44:35.797Z",
  "devdoc": {
    "kind": "dev",
    "methods": {
      "approve(address,uint256)": {
        "details": "See {IERC721-approve}."
      },
      "balanceOf(address)": {
        "details": "See {IERC721-balanceOf}."
      },
      "getApproved(uint256)": {
        "details": "See {IERC721-getApproved}."
      },
      "getRoleAdmin(bytes32)": {
        "details": "Returns the admin role that controls `role`. See {grantRole} and {revokeRole}. To change a role's admin, use {_setRoleAdmin}."
      },
      "grantRole(bytes32,address)": {
        "details": "Grants `role` to `account`. If `account` had not been already granted `role`, emits a {RoleGranted} event. Requirements: - the caller must have ``role``'s admin role."
      },
      "hasRole(bytes32,address)": {
        "details": "Returns `true` if `account` has been granted `role`."
      },
      "isApprovedForAll(address,address)": {
        "details": "See {IERC721-isApprovedForAll}."
      },
      "name()": {
        "details": "See {IERC721Metadata-name}."
      },
      "owner()": {
        "details": "Returns the address of the current owner."
      },
      "ownerOf(uint256)": {
        "details": "See {IERC721-ownerOf}."
      },
      "renounceOwnership()": {
        "details": "Leaves the contract without owner. It will not be possible to call `onlyOwner` functions anymore. Can only be called by the current owner. NOTE: Renouncing ownership will leave the contract without an owner, thereby removing any functionality that is only available to the owner."
      },
      "renounceRole(bytes32,address)": {
        "details": "Revokes `role` from the calling account. Roles are often managed via {grantRole} and {revokeRole}: this function's purpose is to provide a mechanism for accounts to lose their privileges if they are compromised (such as when a trusted device is misplaced). If the calling account had been revoked `role`, emits a {RoleRevoked} event. Requirements: - the caller must be `account`."
      },
      "revokeRole(bytes32,address)": {
        "details": "Revokes `role` from `account`. If `account` had been granted `role`, emits a {RoleRevoked} event. Requirements: - the caller must have ``role``'s admin role."
      },
      "safeTransferFrom(address,address,uint256)": {
        "details": "See {IERC721-safeTransferFrom}."
      },
      "safeTransferFrom(address,address,uint256,bytes)": {
        "details": "See {IERC721-safeTransferFrom}."
      },
      "setApprovalForAll(address,bool)": {
        "details": "See {IERC721-setApprovalForAll}."
      },
      "symbol()": {
        "details": "See {IERC721Metadata-symbol}."
      },
      "tokenURI(uint256)": {
        "details": "See {IERC721Metadata-tokenURI}."
      },
      "transferFrom(address,address,uint256)": {
        "details": "See {IERC721-transferFrom}."
      },
      "transferOwnership(address)": {
        "details": "Transfers ownership of the contract to a new account (`newOwner`). Can only be called by the current owner."
      }
    },
    "version": 1
  },
  "userdoc": {
    "kind": "user",
    "methods": {},
    "version": 1
  }
}