{
  "contractName": "NonFungiblePlayer",
  "abi": [
    {
      "inputs": [
        {
          "internalType": "uint256",
          "name": "_blockNumber",
          "type": "uint256"
        },
        {
          "internalType": "contract IGolToken",
          "name": "_golToken",
          "type": "address"
        },
        {
          "internalType": "string",
          "name": "_baseURI",
          "type": "string"
        },
        {
          "internalType": "string",
          "name": "_cID",
          "type": "string"
        },
        {
          "internalType": "address",
          "name": "_ownerAddr",
          "type": "address"
        }
      ],
      "stateMutability": "nonpayable",
      "type": "constructor"
    },
    {
      "anonymous": false,
      "inputs": [
        {
          "indexed": true,
          "internalType": "address",
          "name": "owner",
          "type": "address"
        },
        {
          "indexed": true,
          "internalType": "address",
          "name": "approved",
          "type": "address"
        },
        {
          "indexed": true,
          "internalType": "uint256",
          "name": "tokenId",
          "type": "uint256"
        }
      ],
      "name": "Approval",
      "type": "event"
    },
    {
      "anonymous": false,
      "inputs": [
        {
          "indexed": true,
          "internalType": "address",
          "name": "owner",
          "type": "address"
        },
        {
          "indexed": true,
          "internalType": "address",
          "name": "operator",
          "type": "address"
        },
        {
          "indexed": false,
          "internalType": "bool",
          "name": "approved",
          "type": "bool"
        }
      ],
      "name": "ApprovalForAll",
      "type": "event"
    },
    {
      "anonymous": false,
      "inputs": [
        {
          "indexed": true,
          "internalType": "uint256",
          "name": "itemId",
          "type": "uint256"
        },
        {
          "indexed": false,
          "internalType": "string",
          "name": "metaHash",
          "type": "string"
        }
      ],
      "name": "BuyBlindBox",
      "type": "event"
    },
    {
      "anonymous": false,
      "inputs": [
        {
          "indexed": true,
          "internalType": "address",
          "name": "previousOwner",
          "type": "address"
        },
        {
          "indexed": true,
          "internalType": "address",
          "name": "newOwner",
          "type": "address"
        }
      ],
      "name": "OwnershipTransferred",
      "type": "event"
    },
    {
      "anonymous": false,
      "inputs": [
        {
          "indexed": true,
          "internalType": "address",
          "name": "from",
          "type": "address"
        },
        {
          "indexed": true,
          "internalType": "address",
          "name": "to",
          "type": "address"
        },
        {
          "indexed": true,
          "internalType": "uint256",
          "name": "tokenId",
          "type": "uint256"
        }
      ],
      "name": "Transfer",
      "type": "event"
    },
    {
      "inputs": [
        {
          "internalType": "address",
          "name": "to",
          "type": "address"
        },
        {
          "internalType": "uint256",
          "name": "tokenId",
          "type": "uint256"
        }
      ],
      "name": "approve",
      "outputs": [],
      "stateMutability": "nonpayable",
      "type": "function"
    },
    {
      "inputs": [
        {
          "internalType": "address",
          "name": "owner",
          "type": "address"
        }
      ],
      "name": "balanceOf",
      "outputs": [
        {
          "internalType": "uint256",
          "name": "",
          "type": "uint256"
        }
      ],
      "stateMutability": "view",
      "type": "function"
    },
    {
      "inputs": [],
      "name": "baseURI",
      "outputs": [
        {
          "internalType": "string",
          "name": "",
          "type": "string"
        }
      ],
      "stateMutability": "view",
      "type": "function"
    },
    {
      "inputs": [],
      "name": "blockNumber",
      "outputs": [
        {
          "internalType": "uint256",
          "name": "",
          "type": "uint256"
        }
      ],
      "stateMutability": "view",
      "type": "function"
    },
    {
      "inputs": [],
      "name": "cID",
      "outputs": [
        {
          "internalType": "string",
          "name": "",
          "type": "string"
        }
      ],
      "stateMutability": "view",
      "type": "function"
    },
    {
      "inputs": [
        {
          "internalType": "uint256",
          "name": "tokenId",
          "type": "uint256"
        }
      ],
      "name": "getApproved",
      "outputs": [
        {
          "internalType": "address",
          "name": "",
          "type": "address"
        }
      ],
      "stateMutability": "view",
      "type": "function"
    },
    {
      "inputs": [
        {
          "internalType": "address",
          "name": "owner",
          "type": "address"
        },
        {
          "internalType": "address",
          "name": "operator",
          "type": "address"
        }
      ],
      "name": "isApprovedForAll",
      "outputs": [
        {
          "internalType": "bool",
          "name": "",
          "type": "bool"
        }
      ],
      "stateMutability": "view",
      "type": "function"
    },
    {
      "inputs": [],
      "name": "name",
      "outputs": [
        {
          "internalType": "string",
          "name": "",
          "type": "string"
        }
      ],
      "stateMutability": "view",
      "type": "function"
    },
    {
      "inputs": [],
      "name": "owner",
      "outputs": [
        {
          "internalType": "address",
          "name": "",
          "type": "address"
        }
      ],
      "stateMutability": "view",
      "type": "function"
    },
    {
      "inputs": [
        {
          "internalType": "uint256",
          "name": "tokenId",
          "type": "uint256"
        }
      ],
      "name": "ownerOf",
      "outputs": [
        {
          "internalType": "address",
          "name": "",
          "type": "address"
        }
      ],
      "stateMutability": "view",
      "type": "function"
    },
    {
      "inputs": [],
      "name": "price",
      "outputs": [
        {
          "internalType": "uint256",
          "name": "",
          "type": "uint256"
        }
      ],
      "stateMutability": "view",
      "type": "function"
    },
    {
      "inputs": [],
      "name": "renounceOwnership",
      "outputs": [],
      "stateMutability": "nonpayable",
      "type": "function"
    },
    {
      "inputs": [
        {
          "internalType": "address",
          "name": "from",
          "type": "address"
        },
        {
          "internalType": "address",
          "name": "to",
          "type": "address"
        },
        {
          "internalType": "uint256",
          "name": "tokenId",
          "type": "uint256"
        }
      ],
      "name": "safeTransferFrom",
      "outputs": [],
      "stateMutability": "nonpayable",
      "type": "function"
    },
    {
      "inputs": [
        {
          "internalType": "address",
          "name": "from",
          "type": "address"
        },
        {
          "internalType": "address",
          "name": "to",
          "type": "address"
        },
        {
          "internalType": "uint256",
          "name": "tokenId",
          "type": "uint256"
        },
        {
          "internalType": "bytes",
          "name": "_data",
          "type": "bytes"
        }
      ],
      "name": "safeTransferFrom",
      "outputs": [],
      "stateMutability": "nonpayable",
      "type": "function"
    },
    {
      "inputs": [
        {
          "internalType": "address",
          "name": "operator",
          "type": "address"
        },
        {
          "internalType": "bool",
          "name": "approved",
          "type": "bool"
        }
      ],
      "name": "setApprovalForAll",
      "outputs": [],
      "stateMutability": "nonpayable",
      "type": "function"
    },
    {
      "inputs": [
        {
          "internalType": "bytes4",
          "name": "interfaceId",
          "type": "bytes4"
        }
      ],
      "name": "supportsInterface",
      "outputs": [
        {
          "internalType": "bool",
          "name": "",
          "type": "bool"
        }
      ],
      "stateMutability": "view",
      "type": "function"
    },
    {
      "inputs": [],
      "name": "symbol",
      "outputs": [
        {
          "internalType": "string",
          "name": "",
          "type": "string"
        }
      ],
      "stateMutability": "view",
      "type": "function"
    },
    {
      "inputs": [
        {
          "internalType": "uint256",
          "name": "tokenId",
          "type": "uint256"
        }
      ],
      "name": "tokenURI",
      "outputs": [
        {
          "internalType": "string",
          "name": "",
          "type": "string"
        }
      ],
      "stateMutability": "view",
      "type": "function"
    },
    {
      "inputs": [
        {
          "internalType": "address",
          "name": "from",
          "type": "address"
        },
        {
          "internalType": "address",
          "name": "to",
          "type": "address"
        },
        {
          "internalType": "uint256",
          "name": "tokenId",
          "type": "uint256"
        }
      ],
      "name": "transferFrom",
      "outputs": [],
      "stateMutability": "nonpayable",
      "type": "function"
    },
    {
      "inputs": [
        {
          "internalType": "address",
          "name": "newOwner",
          "type": "address"
        }
      ],
      "name": "transferOwnership",
      "outputs": [],
      "stateMutability": "nonpayable",
      "type": "function"
    },
    {
      "inputs": [],
      "name": "buyNFPBox",
      "outputs": [],
      "stateMutability": "nonpayable",
      "type": "function"
    },
    {
      "inputs": [
        {
          "internalType": "address",
          "name": "_ownerAddr",
          "type": "address"
        }
      ],
      "name": "setOwnerAddr",
      "outputs": [],
      "stateMutability": "nonpayable",
      "type": "function"
    },
    {
      "inputs": [],
      "name": "getOwnerAddr",
      "outputs": [
        {
          "internalType": "address",
          "name": "",
          "type": "address"
        }
      ],
      "stateMutability": "view",
      "type": "function"
    },
    {
      "inputs": [
        {
          "internalType": "uint256",
          "name": "_price",
          "type": "uint256"
        }
      ],
      "name": "setPrice",
      "outputs": [],
      "stateMutability": "nonpayable",
      "type": "function"
    },
    {
      "inputs": [
        {
          "internalType": "uint256",
          "name": "_blockNumber",
          "type": "uint256"
        }
      ],
      "name": "setBlockNumber",
      "outputs": [],
      "stateMutability": "nonpayable",
      "type": "function"
    },
    {
      "inputs": [
        {
          "internalType": "string",
          "name": "_baseURI",
          "type": "string"
        }
      ],
      "name": "setBaseURI",
      "outputs": [],
      "stateMutability": "nonpayable",
      "type": "function"
    },
    {
      "inputs": [
        {
          "internalType": "string",
          "name": "_cID",
          "type": "string"
        }
      ],
      "name": "setCID",
      "outputs": [],
      "stateMutability": "nonpayable",
      "type": "function"
    },
    {
      "inputs": [
        {
          "internalType": "address",
          "name": "_from",
          "type": "address"
        },
        {
          "internalType": "address",
          "name": "_to",
          "type": "address"
        },
        {
          "internalType": "uint256",
          "name": "_tokenId",
          "type": "uint256"
        }
      ],
      "name": "transfer",
      "outputs": [],
      "stateMutability": "nonpayable",
      "type": "function"
    },
    {
      "inputs": [],
      "name": "getBlockNumber",
      "outputs": [
        {
          "internalType": "uint256",
          "name": "",
          "type": "uint256"
        }
      ],
      "stateMutability": "view",
      "type": "function"
    },
    {
      "inputs": [],
      "name": "totalSupply",
      "outputs": [
        {
          "internalType": "uint256",
          "name": "",
          "type": "uint256"
        }
      ],
      "stateMutability": "view",
      "type": "function"
    },
    {
      "inputs": [
        {
          "internalType": "uint256",
          "name": "tokenId",
          "type": "uint256"
        }
      ],
      "name": "getTokenFullURI",
      "outputs": [
        {
          "internalType": "string",
          "name": "",
          "type": "string"
        }
      ],
      "stateMutability": "view",
      "type": "function"
    },
    {
      "inputs": [],
      "name": "getBaseURI",
      "outputs": [
        {
          "internalType": "string",
          "name": "",
          "type": "string"
        }
      ],
      "stateMutability": "view",
      "type": "function"
    },
    {
      "inputs": [],
      "name": "fetchMyNfts",
      "outputs": [
        {
          "internalType": "uint256[]",
          "name": "",
          "type": "uint256[]"
        }
      ],
      "stateMutability": "view",
      "type": "function"
    }
  ],
  "bytecode": "0x60806040523480156200001157600080fd5b5060405162002aae38038062002aae833981016040819052620000349162000323565b6040518060400160405280601381526020017f4e6f6e2d46756e6769626c6520506c61796572000000000000000000000000008152506040518060400160405280600381526020017f4e46500000000000000000000000000000000000000000000000000000000000815250620000cc620000bd62000176640100000000026401000000009004565b6401000000006200017a810204565b8151620000e1906001906020850190620001ca565b508051620000f7906002906020840190620001ca565b505050600a859055600e8054600160a060020a031916600160a060020a03861617905582516200012f90600c906020860190620001ca565b506064600b5581516200014a90600d906020850190620001ca565b5060098054600160a060020a031916600160a060020a0392909216919091179055506200045e92505050565b3390565b60008054600160a060020a03838116600160a060020a0319831681178455604051919092169283917f8be0079c531659141344cd1fd0a4f28419497f9722a3daafe3b4186f6b6457e09190a35050565b828054620001d890620003c0565b90600052602060002090601f016020900481019282620001fc576000855562000247565b82601f106200021757805160ff191683800117855562000247565b8280016001018555821562000247579182015b82811115620002475782518255916020019190600101906200022a565b506200025592915062000259565b5090565b5b808211156200025557600081556001016200025a565b600082601f83011262000281578081fd5b81516001604060020a03808211156200029e576200029e62000416565b604051601f8301601f19908116603f01168101908282118183101715620002c957620002c962000416565b81604052838152602092508683858801011115620002e5578485fd5b8491505b83821015620003085785820183015181830184015290820190620002e9565b838211156200031957848385830101525b9695505050505050565b600080600080600060a086880312156200033b578081fd5b8551945060208601516200034f8162000445565b60408701519094506001604060020a03808211156200036c578283fd5b6200037a89838a0162000270565b9450606088015191508082111562000390578283fd5b506200039f8882890162000270565b9250506080860151620003b28162000445565b809150509295509295909350565b600281046001821680620003d557607f821691505b6020821081141562000410577f4e487b7100000000000000000000000000000000000000000000000000000000600052602260045260246000fd5b50919050565b7f4e487b7100000000000000000000000000000000000000000000000000000000600052604160045260246000fd5b600160a060020a03811681146200045b57600080fd5b50565b612640806200046e6000396000f3fe608060405234801561001057600080fd5b5060043610610218576000357c01000000000000000000000000000000000000000000000000000000009004806380e719c611610137578063a8c3c850116100ca578063c87b56dd11610099578063c87b56dd14610402578063e074278d14610415578063e670472314610428578063e985e9c514610430578063f2fde38b1461046c57600080fd5b8063a8c3c850146103b6578063b88d4fde146103c9578063beabacc8146103dc578063c3d6ee7f146103ef57600080fd5b806399a2f2d71161010657806399a2f2d71461038a5780639c96b2f714610392578063a035b1fe1461039a578063a22cb465146103a357600080fd5b806380e719c61461034b5780638da5cb5b1461035e57806391b7f5ed1461036f57806395d89b411461038257600080fd5b806342cbb15c116101af5780636c0360eb1161017e5780636c0360eb1461032057806370a0823114610328578063714c53981461033b578063715018a61461034357600080fd5b806342cbb15c146102eb57806355f804b3146102f157806357e871e7146103045780636352211e1461030d57600080fd5b8063128ae712116101eb578063128ae7121461029a57806318160ddd146102af57806323b872dd146102c557806342842e0e146102d857600080fd5b806301ffc9a71461021d57806306fdde0314610245578063081812fc1461025a578063095ea7b314610285575b600080fd5b61023061022b3660046120f8565b61047f565b60405190151581526020015b60405180910390f35b61024d61051c565b60405161023c919061239e565b61026d610268366004612176565b6105ae565b604051600160a060020a03909116815260200161023c565b6102986102933660046120b3565b61064f565b005b6102a2610787565b60405161023c919061235a565b6102b76108c6565b60405190815260200161023c565b6102986102d3366004611fc9565b6108d6565b6102986102e6366004611fc9565b61090a565b436102b7565b6102986102ff366004612130565b610925565b6102b7600a5481565b61026d61031b366004612176565b610969565b61024d6109f7565b6102b7610336366004611f7d565b610a85565b61024d610b22565b610298610bb8565b61024d610359366004612176565b610bf1565b600054600160a060020a031661026d565b61029861037d366004612176565b610c05565b61024d610c37565b61024d610c46565b610298610c53565b6102b7600b5481565b6102986103b136600461207d565b610fb4565b6102986103c4366004612176565b610fbf565b6102986103d7366004612004565b610ff1565b6102986103ea366004611fc9565b61102c565b6102986103fd366004612130565b611064565b61024d610410366004612176565b6110a4565b610298610423366004611f7d565b61122a565b61026d611305565b61023061043e366004611f97565b600160a060020a03918216600090815260066020908152604080832093909416825291909152205460ff1690565b61029861047a366004611f7d565b611343565b6000600160e060020a031982167f80ac58cd0000000000000000000000000000000000000000000000000000000014806104e25750600160e060020a031982167f5b5e139f00000000000000000000000000000000000000000000000000000000145b8061051657507f01ffc9a700000000000000000000000000000000000000000000000000000000600160e060020a03198316145b92915050565b60606001805461052b9061252e565b80601f01602080910402602001604051908101604052809291908181526020018280546105579061252e565b80156105a45780601f10610579576101008083540402835291602001916105a4565b820191906000526020600020905b81548152906001019060200180831161058757829003601f168201915b5050505050905090565b60006105b9826113fb565b6106335760405160e560020a62461bcd02815260206004820152602c60248201527f4552433732313a20617070726f76656420717565727920666f72206e6f6e657860448201527f697374656e7420746f6b656e000000000000000000000000000000000000000060648201526084015b60405180910390fd5b50600090815260056020526040902054600160a060020a031690565b600061065a82610969565b905080600160a060020a031683600160a060020a031614156106e75760405160e560020a62461bcd02815260206004820152602160248201527f4552433732313a20617070726f76616c20746f2063757272656e74206f776e6560448201527f7200000000000000000000000000000000000000000000000000000000000000606482015260840161062a565b33600160a060020a03821614806107035750610703813361043e565b6107785760405160e560020a62461bcd02815260206004820152603860248201527f4552433732313a20617070726f76652063616c6c6572206973206e6f74206f7760448201527f6e6572206e6f7220617070726f76656420666f7220616c6c0000000000000000606482015260840161062a565b6107828383611418565b505050565b606060008061079560085490565b905060005b818110156107e057336107b161031b8360016124a0565b600160a060020a031614156107ce57826107ca8161256c565b9350505b806107d88161256c565b91505061079a565b5060008267ffffffffffffffff81111561080d5760e060020a634e487b7102600052604160045260246000fd5b604051908082528060200260200182016040528015610836578160200160208202803683370190505b5090506000805b838110156108bc573361085461031b8360016124a0565b600160a060020a031614156108aa5761086e8160016124a0565b8383815181106108915760e060020a634e487b7102600052603260045260246000fd5b6020908102919091010152816108a68161256c565b9250505b806108b48161256c565b91505061083d565b5090949350505050565b60006108d160085490565b905090565b6108e03382611493565b6108ff5760405160e560020a62461bcd02815260040161062a90612443565b61078283838361158d565b61078283838360405180602001604052806000815250610ff1565b600054600160a060020a031633146109525760405160e560020a62461bcd02815260040161062a9061240e565b805161096590600c906020840190611e52565b5050565b600081815260036020526040812054600160a060020a0316806105165760405160e560020a62461bcd02815260206004820152602960248201527f4552433732313a206f776e657220717565727920666f72206e6f6e657869737460448201527f656e7420746f6b656e0000000000000000000000000000000000000000000000606482015260840161062a565b600c8054610a049061252e565b80601f0160208091040260200160405190810160405280929190818152602001828054610a309061252e565b8015610a7d5780601f10610a5257610100808354040283529160200191610a7d565b820191906000526020600020905b815481529060010190602001808311610a6057829003601f168201915b505050505081565b6000600160a060020a038216610b065760405160e560020a62461bcd02815260206004820152602a60248201527f4552433732313a2062616c616e636520717565727920666f7220746865207a6560448201527f726f206164647265737300000000000000000000000000000000000000000000606482015260840161062a565b50600160a060020a031660009081526004602052604090205490565b60606000600c8054610b339061252e565b80601f0160208091040260200160405190810160405280929190818152602001828054610b5f9061252e565b8015610bac5780601f10610b8157610100808354040283529160200191610bac565b820191906000526020600020905b815481529060010190602001808311610b8f57829003601f168201915b50939695505050505050565b600054600160a060020a03163314610be55760405160e560020a62461bcd02815260040161062a9061240e565b610bef600061176d565b565b60606000610bfe836110a4565b9392505050565b600054600160a060020a03163314610c325760405160e560020a62461bcd02815260040161062a9061240e565b600b55565b60606002805461052b9061252e565b600d8054610a049061252e565b33610cc95760405160e560020a62461bcd02815260206004820152602260248201527f4d696e7420416464726573732063616e2774206265207a65726f20616464726560448201527f7373000000000000000000000000000000000000000000000000000000000000606482015260840161062a565b6103e8610cd560085490565b1115610d265760405160e560020a62461bcd02815260206004820152601160248201527f416c6c204e4654732061726520736f6c64000000000000000000000000000000604482015260640161062a565b600b54610d3b90670de0b6b3a76400006124cc565b600e546040517f70a08231000000000000000000000000000000000000000000000000000000008152336004820152600160a060020a03909116906370a082319060240160206040518083038186803b158015610d9757600080fd5b505afa158015610dab573d6000803e3d6000fd5b505050506040513d601f19601f82011682018060405250810190610dcf919061218e565b1015610e465760405160e560020a62461bcd02815260206004820152603360248201527f42616c616e6365206f6620476f6c20746f6b656e206973206e6f7420656e6f7560448201527f67687420746f2062757920426c696e64426f7800000000000000000000000000606482015260840161062a565b600e54600954600b54600160a060020a03928316926323b872dd923392911690610e7890670de0b6b3a76400006124cc565b6040517c010000000000000000000000000000000000000000000000000000000063ffffffff8616028152600160a060020a0393841660048201529290911660248301526044820152606401602060405180830381600087803b158015610ede57600080fd5b505af1158015610ef2573d6000803e3d6000fd5b505050506040513d601f19601f82011682018060405250810190610f1691906120dc565b50610f25600880546001019055565b6000610f3060085490565b90506000600c600d610f41846117ca565b604051602001610f539392919061229c565b6040516020818303038152906040529050610f6e338361193d565b610f788282611a83565b817f3ca34f54675bad9d785db929cb916abd42ddf71feb18d41797015aa66e3d8c3182604051610fa8919061239e565b60405180910390a25050565b610965338383611b20565b600054600160a060020a03163314610fec5760405160e560020a62461bcd02815260040161062a9061240e565b600a55565b610ffb3383611493565b61101a5760405160e560020a62461bcd02815260040161062a90612443565b61102684848484611bf2565b50505050565b600054600160a060020a031633146110595760405160e560020a62461bcd02815260040161062a9061240e565b6107828383836108d6565b600054600160a060020a031633146110915760405160e560020a62461bcd02815260040161062a9061240e565b805161096590600d906020840190611e52565b60606110af826113fb565b6111245760405160e560020a62461bcd02815260206004820152603160248201527f45524337323155524953746f726167653a2055524920717565727920666f722060448201527f6e6f6e6578697374656e7420746f6b656e000000000000000000000000000000606482015260840161062a565b6000828152600760205260408120805461113d9061252e565b80601f01602080910402602001604051908101604052809291908181526020018280546111699061252e565b80156111b65780601f1061118b576101008083540402835291602001916111b6565b820191906000526020600020905b81548152906001019060200180831161119957829003601f168201915b5050505050905060006111d460408051602081019091526000815290565b90508051600014156111e7575092915050565b81511561121957808260405160200161120192919061226d565b60405160208183030381529060405292505050919050565b61122284611c28565b949350505050565b600054600160a060020a031633146112575760405160e560020a62461bcd02815260040161062a9061240e565b600160a060020a0381166112d65760405160e560020a62461bcd02815260206004820152602360248201527f4f776e657220416464726573732063616e2774206265207a65726f206164647260448201527f6573730000000000000000000000000000000000000000000000000000000000606482015260840161062a565b6009805473ffffffffffffffffffffffffffffffffffffffff1916600160a060020a0392909216919091179055565b60008054600160a060020a031633146113335760405160e560020a62461bcd02815260040161062a9061240e565b50600954600160a060020a031690565b600054600160a060020a031633146113705760405160e560020a62461bcd02815260040161062a9061240e565b600160a060020a0381166113ef5760405160e560020a62461bcd02815260206004820152602660248201527f4f776e61626c653a206e6577206f776e657220697320746865207a65726f206160448201527f6464726573730000000000000000000000000000000000000000000000000000606482015260840161062a565b6113f88161176d565b50565b600090815260036020526040902054600160a060020a0316151590565b6000818152600560205260409020805473ffffffffffffffffffffffffffffffffffffffff1916600160a060020a038416908117909155819061145a82610969565b600160a060020a03167f8c5be1e5ebec7d5bd14f71427d1e84f3dd0314c0f7b2291e5b200ac8c7c3b92560405160405180910390a45050565b600061149e826113fb565b6115135760405160e560020a62461bcd02815260206004820152602c60248201527f4552433732313a206f70657261746f7220717565727920666f72206e6f6e657860448201527f697374656e7420746f6b656e0000000000000000000000000000000000000000606482015260840161062a565b600061151e83610969565b905080600160a060020a031684600160a060020a03161480611559575083600160a060020a031661154e846105ae565b600160a060020a0316145b806112225750600160a060020a0380821660009081526006602090815260408083209388168352929052205460ff16611222565b82600160a060020a03166115a082610969565b600160a060020a03161461161f5760405160e560020a62461bcd02815260206004820152602560248201527f4552433732313a207472616e736665722066726f6d20696e636f72726563742060448201527f6f776e6572000000000000000000000000000000000000000000000000000000606482015260840161062a565b600160a060020a03821661169d5760405160e560020a62461bcd028152602060048201526024808201527f4552433732313a207472616e7366657220746f20746865207a65726f2061646460448201527f7265737300000000000000000000000000000000000000000000000000000000606482015260840161062a565b6116a8600082611418565b600160a060020a03831660009081526004602052604081208054600192906116d19084906124eb565b9091555050600160a060020a03821660009081526004602052604081208054600192906116ff9084906124a0565b9091555050600081815260036020526040808220805473ffffffffffffffffffffffffffffffffffffffff1916600160a060020a0386811691821790925591518493918716917fddf252ad1be2c89b69c2b068fc378daa952ba7f163c4a11628f55a4df523b3ef91a4505050565b60008054600160a060020a0383811673ffffffffffffffffffffffffffffffffffffffff19831681178455604051919092169283917f8be0079c531659141344cd1fd0a4f28419497f9722a3daafe3b4186f6b6457e09190a35050565b60608161180a57505060408051808201909152600181527f3000000000000000000000000000000000000000000000000000000000000000602082015290565b8160005b8115611834578061181e8161256c565b915061182d9050600a836124b8565b915061180e565b60008167ffffffffffffffff8111156118605760e060020a634e487b7102600052604160045260246000fd5b6040519080825280601f01601f19166020018201604052801561188a576020820181803683370190505b5090505b84156112225761189f6001836124eb565b91506118ac600a86612587565b6118b79060306124a0565b7f0100000000000000000000000000000000000000000000000000000000000000028183815181106118fc5760e060020a634e487b7102600052603260045260246000fd5b60200101907effffffffffffffffffffffffffffffffffffffffffffffffffffffffffffff1916908160001a905350611936600a866124b8565b945061188e565b600160a060020a0382166119965760405160e560020a62461bcd02815260206004820181905260248201527f4552433732313a206d696e7420746f20746865207a65726f2061646472657373604482015260640161062a565b61199f816113fb565b156119ef5760405160e560020a62461bcd02815260206004820152601c60248201527f4552433732313a20746f6b656e20616c7265616479206d696e74656400000000604482015260640161062a565b600160a060020a0382166000908152600460205260408120805460019290611a189084906124a0565b9091555050600081815260036020526040808220805473ffffffffffffffffffffffffffffffffffffffff1916600160a060020a03861690811790915590518392907fddf252ad1be2c89b69c2b068fc378daa952ba7f163c4a11628f55a4df523b3ef908290a45050565b611a8c826113fb565b611b015760405160e560020a62461bcd02815260206004820152602e60248201527f45524337323155524953746f726167653a2055524920736574206f66206e6f6e60448201527f6578697374656e7420746f6b656e000000000000000000000000000000000000606482015260840161062a565b6000828152600760209081526040909120825161078292840190611e52565b81600160a060020a031683600160a060020a03161415611b855760405160e560020a62461bcd02815260206004820152601960248201527f4552433732313a20617070726f766520746f2063616c6c657200000000000000604482015260640161062a565b600160a060020a03838116600081815260066020908152604080832094871680845294825291829020805460ff191686151590811790915591519182527f17307eab39ab6107e8899845ad3d59bd9653f200f220920489ca2b5937696c31910160405180910390a3505050565b611bfd84848461158d565b611c0984848484611d10565b6110265760405160e560020a62461bcd02815260040161062a906123b1565b6060611c33826113fb565b611ca85760405160e560020a62461bcd02815260206004820152602f60248201527f4552433732314d657461646174613a2055524920717565727920666f72206e6f60448201527f6e6578697374656e7420746f6b656e0000000000000000000000000000000000606482015260840161062a565b6000611cbf60408051602081019091526000815290565b90506000815111611cdf5760405180602001604052806000815250610bfe565b80611ce9846117ca565b604051602001611cfa92919061226d565b6040516020818303038152906040529392505050565b6000600160a060020a0384163b15611e47576040517f150b7a02000000000000000000000000000000000000000000000000000000008152600160a060020a0385169063150b7a0290611d6d90339089908890889060040161231e565b602060405180830381600087803b158015611d8757600080fd5b505af1925050508015611db7575060408051601f3d908101601f19168201909252611db491810190612114565b60015b611e14573d808015611de5576040519150601f19603f3d011682016040523d82523d6000602084013e611dea565b606091505b508051611e0c5760405160e560020a62461bcd02815260040161062a906123b1565b805181602001fd5b600160e060020a0319167f150b7a0200000000000000000000000000000000000000000000000000000000149050611222565b506001949350505050565b828054611e5e9061252e565b90600052602060002090601f016020900481019282611e805760008555611ec6565b82601f10611e9957805160ff1916838001178555611ec6565b82800160010185558215611ec6579182015b82811115611ec6578251825591602001919060010190611eab565b50611ed2929150611ed6565b5090565b5b80821115611ed25760008155600101611ed7565b600067ffffffffffffffff80841115611f0657611f066125cd565b604051601f8501601f19908116603f01168101908282118183101715611f2e57611f2e6125cd565b81604052809350858152868686011115611f4757600080fd5b858560208301376000602087830101525050509392505050565b8035600160a060020a0381168114611f7857600080fd5b919050565b600060208284031215611f8e578081fd5b610bfe82611f61565b60008060408385031215611fa9578081fd5b611fb283611f61565b9150611fc060208401611f61565b90509250929050565b600080600060608486031215611fdd578081fd5b611fe684611f61565b9250611ff460208501611f61565b9150604084013590509250925092565b60008060008060808587031215612019578081fd5b61202285611f61565b935061203060208601611f61565b925060408501359150606085013567ffffffffffffffff811115612052578182fd5b8501601f81018713612062578182fd5b61207187823560208401611eeb565b91505092959194509250565b6000806040838503121561208f578182fd5b61209883611f61565b915060208301356120a8816125e6565b809150509250929050565b600080604083850312156120c5578182fd5b6120ce83611f61565b946020939093013593505050565b6000602082840312156120ed578081fd5b8151610bfe816125e6565b600060208284031215612109578081fd5b8135610bfe816125f4565b600060208284031215612125578081fd5b8151610bfe816125f4565b600060208284031215612141578081fd5b813567ffffffffffffffff811115612157578182fd5b8201601f81018413612167578182fd5b61122284823560208401611eeb565b600060208284031215612187578081fd5b5035919050565b60006020828403121561219f578081fd5b5051919050565b600081518084526121be816020860160208601612502565b601f01601f19169290920160200192915050565b8054600090600281046001808316806121ec57607f831692505b602080841082141561220f5760e060020a634e487b710286526022600452602486fd5b818015612223576001811461223457612261565b60ff19861689528489019650612261565b60008881526020902060005b868110156122595781548b820152908501908301612240565b505084890196505b50505050505092915050565b6000835161227f818460208801612502565b835190830190612293818360208801612502565b01949350505050565b60006122b16122ab83876121d2565b856121d2565b7f2f00000000000000000000000000000000000000000000000000000000000000815283516122e7816001840160208801612502565b7f2e6a736f6e0000000000000000000000000000000000000000000000000000006001929091019182015260060195945050505050565b6000600160a060020a0380871683528086166020840152508360408301526080606083015261235060808301846121a6565b9695505050505050565b6020808252825182820181905260009190848201906040850190845b8181101561239257835183529284019291840191600101612376565b50909695505050505050565b602081526000610bfe60208301846121a6565b60208082526032908201527f4552433732313a207472616e7366657220746f206e6f6e20455243373231526560408201527f63656976657220696d706c656d656e7465720000000000000000000000000000606082015260800190565b6020808252818101527f4f776e61626c653a2063616c6c6572206973206e6f7420746865206f776e6572604082015260600190565b60208082526031908201527f4552433732313a207472616e736665722063616c6c6572206973206e6f74206f60408201527f776e6572206e6f7220617070726f766564000000000000000000000000000000606082015260800190565b600082198211156124b3576124b361259b565b500190565b6000826124c7576124c76125b4565b500490565b60008160001904831182151516156124e6576124e661259b565b500290565b6000828210156124fd576124fd61259b565b500390565b60005b8381101561251d578181015183820152602001612505565b838111156110265750506000910152565b60028104600182168061254257607f821691505b602082108114156125665760e060020a634e487b7102600052602260045260246000fd5b50919050565b60006000198214156125805761258061259b565b5060010190565b600082612596576125966125b4565b500690565b60e060020a634e487b7102600052601160045260246000fd5b60e060020a634e487b7102600052601260045260246000fd5b60e060020a634e487b7102600052604160045260246000fd5b80151581146113f857600080fd5b600160e060020a0319811681146113f857600080fdfea26469706673582212203afd3305578f9dbaaa49c3b00ef4aef3b4e4a9f80836d42eb578041374f22c8964736f6c63430008040033",
  "immutableReferences": {},
  "source": "// SPDX-License-Identifier: MIT\r\npragma solidity ^0.8.4;\r\n\r\nimport \"@openzeppelin/contracts/access/Ownable.sol\";\r\nimport \"@openzeppelin/contracts/utils/Counters.sol\";\r\nimport \"@openzeppelin/contracts/token/ERC721/ERC721.sol\";\r\nimport \"@openzeppelin/contracts/token/ERC721/extensions/ERC721URIStorage.sol\";\r\nimport \"@openzeppelin/contracts/utils/Strings.sol\";\r\nimport \"./interfaces/IGolToken.sol\";\r\n\r\ncontract NonFungiblePlayer is Ownable, ERC721URIStorage {\r\n    using Counters for Counters.Counter;\r\n    Counters.Counter private _tokenIds;\r\n\r\n    address private ownerAddr;\r\n    uint256 public blockNumber;\r\n    uint256 public price;\r\n    string public baseURI;\r\n    string public cID;\r\n\r\n    IGolToken golToken;\r\n\r\n    event BuyBlindBox(uint256 indexed itemId, string metaHash);\r\n\r\n    constructor(\r\n        uint256 _blockNumber,\r\n        IGolToken _golToken,\r\n        string memory _baseURI,\r\n        string memory _cID,\r\n        address _ownerAddr\r\n    ) ERC721(\"Non-Fungible Player\", \"NFP\") {\r\n        blockNumber = _blockNumber;\r\n        golToken = _golToken;\r\n        baseURI = _baseURI;\r\n        price = 100;\r\n        cID = _cID;\r\n        ownerAddr = _ownerAddr;\r\n    }\r\n\r\n    function buyNFPBox() public {\r\n        require(msg.sender != address(0), \"Mint Address can't be zero address\");\r\n        // require(block.number >= blockNumber, \"NFPBox Sale is not started\");\r\n        require(_tokenIds.current() <= 1000, \"All NFTs are sold\");\r\n        require(\r\n            golToken.balanceOf(msg.sender) >= price * 10**18,\r\n            \"Balance of Gol token is not enought to buy BlindBox\"\r\n        );\r\n\r\n        golToken.transferFrom(msg.sender, ownerAddr, price * 10**18);\r\n\r\n        _tokenIds.increment();\r\n        uint256 newItemId = _tokenIds.current();\r\n        string memory s = string(\r\n            abi.encodePacked(\r\n                baseURI,\r\n                cID,\r\n                \"/\",\r\n                Strings.toString(newItemId),\r\n                \".json\"\r\n            )\r\n        );\r\n\r\n        _mint(msg.sender, newItemId);\r\n        _setTokenURI(newItemId, s);\r\n\r\n        emit BuyBlindBox(newItemId, s);\r\n    }\r\n\r\n    function setOwnerAddr(address _ownerAddr) public onlyOwner {\r\n        require(\r\n            _ownerAddr != address(0),\r\n            \"Owner Address can't be zero address\"\r\n        );\r\n        ownerAddr = _ownerAddr;\r\n    }\r\n\r\n    function getOwnerAddr() public view onlyOwner returns (address) {\r\n        return ownerAddr;\r\n    }\r\n\r\n    function setPrice(uint256 _price) public onlyOwner {\r\n        price = _price;\r\n    }\r\n\r\n    function setBlockNumber(uint256 _blockNumber) public onlyOwner {\r\n        blockNumber = _blockNumber;\r\n    }\r\n\r\n    function setBaseURI(string memory _baseURI) public onlyOwner {\r\n        baseURI = _baseURI;\r\n    }\r\n\r\n    function setCID(string memory _cID) public onlyOwner {\r\n        cID = _cID;\r\n    }\r\n\r\n    function transfer(\r\n        address _from,\r\n        address _to,\r\n        uint256 _tokenId\r\n    ) external onlyOwner {\r\n        transferFrom(_from, _to, _tokenId);\r\n    }\r\n\r\n    function getBlockNumber() external view returns (uint256) {\r\n        return block.number;\r\n    }\r\n\r\n    function totalSupply() external view returns (uint256) {\r\n        return (_tokenIds.current());\r\n    }\r\n\r\n    function getTokenFullURI(uint256 tokenId)\r\n        external\r\n        view\r\n        returns (string memory)\r\n    {\r\n        string memory _tokenURI = tokenURI(tokenId);\r\n\r\n        return _tokenURI;\r\n    }\r\n\r\n    function getBaseURI() external view returns (string memory) {\r\n        string memory _baseURI = baseURI;\r\n        return _baseURI;\r\n    }\r\n\r\n    function fetchMyNfts() external view returns (uint256[] memory) {\r\n        uint256 tokenCount = 0;\r\n        uint256 _totalSupply = _tokenIds.current();\r\n        for (uint256 i = 0; i < _totalSupply; i++) {\r\n            if (ownerOf(i + 1) == msg.sender) {\r\n                tokenCount++;\r\n            }\r\n        }\r\n\r\n        uint256[] memory tokenIds = new uint256[](tokenCount);\r\n        uint256 currentIndex = 0;\r\n        for (uint256 i = 0; i < _totalSupply; i++) {\r\n            if (ownerOf(i + 1) == msg.sender) {\r\n                tokenIds[currentIndex] = i + 1;\r\n                currentIndex++;\r\n            }\r\n        }\r\n\r\n        return tokenIds;\r\n    }\r\n}\r\n",
  "sourcePath": "E:\\Git for Project\\Ethereum\\NFT\\GolFinance\\gol-staking-contracts\\contracts\\NonFungiblePlayer.sol",
  "compiler": {
    "name": "solc",
    "version": "0.8.4+commit.c7e474f2.Emscripten.clang"
  },
  "schemaVersion": "3.4.5",
  "updatedAt": "2022-03-12T15:48:32.479Z",
  "devdoc": {
    "kind": "dev",
    "methods": {
      "approve(address,uint256)": {
        "details": "See {IERC721-approve}."
      },
      "balanceOf(address)": {
        "details": "See {IERC721-balanceOf}."
      },
      "getApproved(uint256)": {
        "details": "See {IERC721-getApproved}."
      },
      "isApprovedForAll(address,address)": {
        "details": "See {IERC721-isApprovedForAll}."
      },
      "name()": {
        "details": "See {IERC721Metadata-name}."
      },
      "owner()": {
        "details": "Returns the address of the current owner."
      },
      "ownerOf(uint256)": {
        "details": "See {IERC721-ownerOf}."
      },
      "renounceOwnership()": {
        "details": "Leaves the contract without owner. It will not be possible to call `onlyOwner` functions anymore. Can only be called by the current owner. NOTE: Renouncing ownership will leave the contract without an owner, thereby removing any functionality that is only available to the owner."
      },
      "safeTransferFrom(address,address,uint256)": {
        "details": "See {IERC721-safeTransferFrom}."
      },
      "safeTransferFrom(address,address,uint256,bytes)": {
        "details": "See {IERC721-safeTransferFrom}."
      },
      "setApprovalForAll(address,bool)": {
        "details": "See {IERC721-setApprovalForAll}."
      },
      "supportsInterface(bytes4)": {
        "details": "See {IERC165-supportsInterface}."
      },
      "symbol()": {
        "details": "See {IERC721Metadata-symbol}."
      },
      "tokenURI(uint256)": {
        "details": "See {IERC721Metadata-tokenURI}."
      },
      "transferFrom(address,address,uint256)": {
        "details": "See {IERC721-transferFrom}."
      },
      "transferOwnership(address)": {
        "details": "Transfers ownership of the contract to a new account (`newOwner`). Can only be called by the current owner."
      }
    },
    "version": 1
  },
  "userdoc": {
    "kind": "user",
    "methods": {},
    "version": 1
  }
}