{
  "contractName": "Staking",
  "abi": [
    {
      "inputs": [
        {
          "internalType": "contract IGolToken",
          "name": "_golToken",
          "type": "address"
        }
      ],
      "stateMutability": "nonpayable",
      "type": "constructor"
    },
    {
      "anonymous": false,
      "inputs": [
        {
          "indexed": false,
          "internalType": "uint256",
          "name": "itemId",
          "type": "uint256"
        },
        {
          "indexed": true,
          "internalType": "address",
          "name": "owner",
          "type": "address"
        },
        {
          "indexed": false,
          "internalType": "uint256",
          "name": "amount",
          "type": "uint256"
        }
      ],
      "name": "Harvest",
      "type": "event"
    },
    {
      "anonymous": false,
      "inputs": [
        {
          "indexed": true,
          "internalType": "address",
          "name": "previousOwner",
          "type": "address"
        },
        {
          "indexed": true,
          "internalType": "address",
          "name": "newOwner",
          "type": "address"
        }
      ],
      "name": "OwnershipTransferred",
      "type": "event"
    },
    {
      "anonymous": false,
      "inputs": [
        {
          "indexed": false,
          "internalType": "uint256",
          "name": "itemId",
          "type": "uint256"
        },
        {
          "indexed": true,
          "internalType": "address",
          "name": "nftContract",
          "type": "address"
        },
        {
          "indexed": true,
          "internalType": "address",
          "name": "owner",
          "type": "address"
        },
        {
          "indexed": false,
          "internalType": "uint256",
          "name": "tokenId",
          "type": "uint256"
        }
      ],
      "name": "StakingItemCreated",
      "type": "event"
    },
    {
      "inputs": [],
      "name": "endBlock",
      "outputs": [
        {
          "internalType": "uint256",
          "name": "",
          "type": "uint256"
        }
      ],
      "stateMutability": "view",
      "type": "function",
      "constant": true
    },
    {
      "inputs": [],
      "name": "golPerBlock",
      "outputs": [
        {
          "internalType": "uint256",
          "name": "",
          "type": "uint256"
        }
      ],
      "stateMutability": "view",
      "type": "function",
      "constant": true
    },
    {
      "inputs": [],
      "name": "isStakingAvailable",
      "outputs": [
        {
          "internalType": "bool",
          "name": "",
          "type": "bool"
        }
      ],
      "stateMutability": "view",
      "type": "function",
      "constant": true
    },
    {
      "inputs": [
        {
          "internalType": "uint256",
          "name": "",
          "type": "uint256"
        }
      ],
      "name": "items",
      "outputs": [
        {
          "internalType": "uint256",
          "name": "itemId",
          "type": "uint256"
        },
        {
          "internalType": "address",
          "name": "contractAddress",
          "type": "address"
        },
        {
          "internalType": "address",
          "name": "owner",
          "type": "address"
        },
        {
          "internalType": "uint256",
          "name": "tokenId",
          "type": "uint256"
        },
        {
          "internalType": "uint256",
          "name": "poolId",
          "type": "uint256"
        },
        {
          "internalType": "bool",
          "name": "isEnded",
          "type": "bool"
        }
      ],
      "stateMutability": "view",
      "type": "function",
      "constant": true
    },
    {
      "inputs": [],
      "name": "owner",
      "outputs": [
        {
          "internalType": "address",
          "name": "",
          "type": "address"
        }
      ],
      "stateMutability": "view",
      "type": "function",
      "constant": true
    },
    {
      "inputs": [
        {
          "internalType": "address",
          "name": "",
          "type": "address"
        }
      ],
      "name": "poolIdOfContract",
      "outputs": [
        {
          "internalType": "uint256",
          "name": "",
          "type": "uint256"
        }
      ],
      "stateMutability": "view",
      "type": "function",
      "constant": true
    },
    {
      "inputs": [
        {
          "internalType": "uint256",
          "name": "",
          "type": "uint256"
        }
      ],
      "name": "pools",
      "outputs": [
        {
          "internalType": "address",
          "name": "contractAddress",
          "type": "address"
        },
        {
          "internalType": "uint256",
          "name": "allocPoint",
          "type": "uint256"
        },
        {
          "internalType": "uint256",
          "name": "milkPower",
          "type": "uint256"
        },
        {
          "internalType": "uint256",
          "name": "maxStakeCount",
          "type": "uint256"
        },
        {
          "internalType": "uint256",
          "name": "stakedCount",
          "type": "uint256"
        }
      ],
      "stateMutability": "view",
      "type": "function",
      "constant": true
    },
    {
      "inputs": [],
      "name": "renounceOwnership",
      "outputs": [],
      "stateMutability": "nonpayable",
      "type": "function"
    },
    {
      "inputs": [
        {
          "internalType": "uint256",
          "name": "",
          "type": "uint256"
        },
        {
          "internalType": "uint256",
          "name": "",
          "type": "uint256"
        }
      ],
      "name": "stakedUsers",
      "outputs": [
        {
          "internalType": "address",
          "name": "",
          "type": "address"
        }
      ],
      "stateMutability": "view",
      "type": "function",
      "constant": true
    },
    {
      "inputs": [],
      "name": "stakingItemCount",
      "outputs": [
        {
          "internalType": "uint256",
          "name": "_value",
          "type": "uint256"
        }
      ],
      "stateMutability": "view",
      "type": "function",
      "constant": true
    },
    {
      "inputs": [],
      "name": "stakingPoolCount",
      "outputs": [
        {
          "internalType": "uint256",
          "name": "_value",
          "type": "uint256"
        }
      ],
      "stateMutability": "view",
      "type": "function",
      "constant": true
    },
    {
      "inputs": [],
      "name": "startBlock",
      "outputs": [
        {
          "internalType": "uint256",
          "name": "",
          "type": "uint256"
        }
      ],
      "stateMutability": "view",
      "type": "function",
      "constant": true
    },
    {
      "inputs": [],
      "name": "totalAllocPoint",
      "outputs": [
        {
          "internalType": "uint256",
          "name": "",
          "type": "uint256"
        }
      ],
      "stateMutability": "view",
      "type": "function",
      "constant": true
    },
    {
      "inputs": [],
      "name": "totalAmountDepositedPool",
      "outputs": [
        {
          "internalType": "uint256",
          "name": "",
          "type": "uint256"
        }
      ],
      "stateMutability": "view",
      "type": "function",
      "constant": true
    },
    {
      "inputs": [
        {
          "internalType": "address",
          "name": "newOwner",
          "type": "address"
        }
      ],
      "name": "transferOwnership",
      "outputs": [],
      "stateMutability": "nonpayable",
      "type": "function"
    },
    {
      "inputs": [
        {
          "internalType": "address",
          "name": "",
          "type": "address"
        },
        {
          "internalType": "uint256",
          "name": "",
          "type": "uint256"
        }
      ],
      "name": "userInfo",
      "outputs": [
        {
          "internalType": "bool",
          "name": "isStaked",
          "type": "bool"
        },
        {
          "internalType": "uint256",
          "name": "pendingMilk",
          "type": "uint256"
        },
        {
          "internalType": "uint256",
          "name": "userMilkPower",
          "type": "uint256"
        },
        {
          "internalType": "uint256",
          "name": "stakedCount",
          "type": "uint256"
        },
        {
          "internalType": "uint256",
          "name": "lastHarvestBlock",
          "type": "uint256"
        }
      ],
      "stateMutability": "view",
      "type": "function",
      "constant": true
    },
    {
      "inputs": [
        {
          "internalType": "uint256",
          "name": "",
          "type": "uint256"
        },
        {
          "internalType": "uint256",
          "name": "",
          "type": "uint256"
        }
      ],
      "name": "whitelistedTokenIds",
      "outputs": [
        {
          "internalType": "bool",
          "name": "",
          "type": "bool"
        }
      ],
      "stateMutability": "view",
      "type": "function",
      "constant": true
    },
    {
      "inputs": [
        {
          "internalType": "uint256",
          "name": "_totalAmountDepositedPool",
          "type": "uint256"
        },
        {
          "internalType": "uint256",
          "name": "_startBlock",
          "type": "uint256"
        },
        {
          "internalType": "uint256",
          "name": "_endBlock",
          "type": "uint256"
        }
      ],
      "name": "depositMilkToPool",
      "outputs": [],
      "stateMutability": "nonpayable",
      "type": "function"
    },
    {
      "inputs": [
        {
          "internalType": "uint256",
          "name": "_amountReward",
          "type": "uint256"
        }
      ],
      "name": "addMilkReward",
      "outputs": [],
      "stateMutability": "nonpayable",
      "type": "function"
    },
    {
      "inputs": [
        {
          "internalType": "uint256",
          "name": "_startBlock",
          "type": "uint256"
        },
        {
          "internalType": "uint256",
          "name": "_endBlock",
          "type": "uint256"
        }
      ],
      "name": "setPeriod",
      "outputs": [],
      "stateMutability": "nonpayable",
      "type": "function"
    },
    {
      "inputs": [
        {
          "internalType": "bool",
          "name": "_isStakingAvailable",
          "type": "bool"
        }
      ],
      "name": "setIsStakingAvailable",
      "outputs": [],
      "stateMutability": "nonpayable",
      "type": "function"
    },
    {
      "inputs": [
        {
          "internalType": "address",
          "name": "_contractAddress",
          "type": "address"
        },
        {
          "internalType": "uint256",
          "name": "_allocPoint",
          "type": "uint256"
        },
        {
          "internalType": "uint256",
          "name": "_milkPower",
          "type": "uint256"
        },
        {
          "internalType": "uint256",
          "name": "_maxStakeCount",
          "type": "uint256"
        }
      ],
      "name": "addPool",
      "outputs": [],
      "stateMutability": "nonpayable",
      "type": "function"
    },
    {
      "inputs": [
        {
          "internalType": "address",
          "name": "_contractAddress",
          "type": "address"
        },
        {
          "internalType": "uint256",
          "name": "_poolId",
          "type": "uint256"
        }
      ],
      "name": "setPoolIdOfContract",
      "outputs": [],
      "stateMutability": "nonpayable",
      "type": "function"
    },
    {
      "inputs": [
        {
          "internalType": "uint256",
          "name": "_poolId",
          "type": "uint256"
        },
        {
          "internalType": "uint256",
          "name": "_stakedCount",
          "type": "uint256"
        }
      ],
      "name": "setStakedCount",
      "outputs": [],
      "stateMutability": "nonpayable",
      "type": "function"
    },
    {
      "inputs": [
        {
          "internalType": "uint256",
          "name": "_poolId",
          "type": "uint256"
        },
        {
          "internalType": "address",
          "name": "_contractAddress",
          "type": "address"
        },
        {
          "internalType": "uint256",
          "name": "_allocPoint",
          "type": "uint256"
        },
        {
          "internalType": "uint256",
          "name": "_milkPower",
          "type": "uint256"
        },
        {
          "internalType": "uint256",
          "name": "_maxStakeCount",
          "type": "uint256"
        }
      ],
      "name": "updatePool",
      "outputs": [],
      "stateMutability": "nonpayable",
      "type": "function"
    },
    {
      "inputs": [
        {
          "internalType": "uint256",
          "name": "_poolId",
          "type": "uint256"
        },
        {
          "internalType": "uint256[]",
          "name": "_tokenIds",
          "type": "uint256[]"
        }
      ],
      "name": "setTokenIds",
      "outputs": [],
      "stateMutability": "nonpayable",
      "type": "function"
    },
    {
      "inputs": [
        {
          "internalType": "address",
          "name": "_nftContract",
          "type": "address"
        },
        {
          "internalType": "uint256",
          "name": "_tokenId",
          "type": "uint256"
        }
      ],
      "name": "stake",
      "outputs": [],
      "stateMutability": "nonpayable",
      "type": "function"
    },
    {
      "inputs": [
        {
          "internalType": "uint256",
          "name": "_poolId",
          "type": "uint256"
        }
      ],
      "name": "harvest",
      "outputs": [],
      "stateMutability": "nonpayable",
      "type": "function"
    },
    {
      "inputs": [
        {
          "internalType": "uint256",
          "name": "_poolId",
          "type": "uint256"
        },
        {
          "internalType": "address",
          "name": "_owner",
          "type": "address"
        }
      ],
      "name": "getPendingMilk",
      "outputs": [
        {
          "internalType": "uint256",
          "name": "",
          "type": "uint256"
        }
      ],
      "stateMutability": "view",
      "type": "function",
      "constant": true
    },
    {
      "inputs": [
        {
          "internalType": "uint256",
          "name": "_poolId",
          "type": "uint256"
        }
      ],
      "name": "getWhitelistedTokenIds",
      "outputs": [
        {
          "internalType": "uint256[]",
          "name": "",
          "type": "uint256[]"
        }
      ],
      "stateMutability": "view",
      "type": "function",
      "constant": true
    },
    {
      "inputs": [
        {
          "internalType": "address",
          "name": "_owner",
          "type": "address"
        }
      ],
      "name": "getStakedItems",
      "outputs": [
        {
          "components": [
            {
              "internalType": "uint256",
              "name": "itemId",
              "type": "uint256"
            },
            {
              "internalType": "address",
              "name": "contractAddress",
              "type": "address"
            },
            {
              "internalType": "address",
              "name": "owner",
              "type": "address"
            },
            {
              "internalType": "uint256",
              "name": "tokenId",
              "type": "uint256"
            },
            {
              "internalType": "uint256",
              "name": "poolId",
              "type": "uint256"
            },
            {
              "internalType": "bool",
              "name": "isEnded",
              "type": "bool"
            }
          ],
          "internalType": "struct Staking.StakingItem[]",
          "name": "",
          "type": "tuple[]"
        }
      ],
      "stateMutability": "view",
      "type": "function",
      "constant": true
    },
    {
      "inputs": [],
      "name": "getBlockNumber",
      "outputs": [
        {
          "internalType": "uint256",
          "name": "",
          "type": "uint256"
        }
      ],
      "stateMutability": "view",
      "type": "function",
      "constant": true
    },
    {
      "inputs": [
        {
          "internalType": "uint256",
          "name": "_poolId",
          "type": "uint256"
        }
      ],
      "name": "getTotalMilkPower",
      "outputs": [
        {
          "internalType": "uint256",
          "name": "",
          "type": "uint256"
        }
      ],
      "stateMutability": "view",
      "type": "function",
      "constant": true
    },
    {
      "inputs": [
        {
          "internalType": "uint256",
          "name": "_poolId",
          "type": "uint256"
        },
        {
          "internalType": "address",
          "name": "_owner",
          "type": "address"
        }
      ],
      "name": "getMyMilkPower",
      "outputs": [
        {
          "internalType": "uint256",
          "name": "",
          "type": "uint256"
        }
      ],
      "stateMutability": "view",
      "type": "function",
      "constant": true
    },
    {
      "inputs": [
        {
          "internalType": "uint256",
          "name": "_poolId",
          "type": "uint256"
        }
      ],
      "name": "getDailyMilkRate",
      "outputs": [
        {
          "internalType": "uint256",
          "name": "",
          "type": "uint256"
        }
      ],
      "stateMutability": "view",
      "type": "function",
      "constant": true
    },
    {
      "inputs": [
        {
          "internalType": "uint256",
          "name": "_itemId",
          "type": "uint256"
        }
      ],
      "name": "unstake",
      "outputs": [],
      "stateMutability": "nonpayable",
      "type": "function"
    },
    {
      "inputs": [],
      "name": "withdraw",
      "outputs": [],
      "stateMutability": "nonpayable",
      "type": "function"
    }
  ],
  "bytecode": "0x60806040523480156200001157600080fd5b5060405162002db838038062002db88339810160408190526200003491620000fa565b60016000556200005f62000050640100000000620000a4810204565b640100000000620000a8810204565b600f8054600160a060020a031916600160a060020a03929092169190911790556000600381905560028190556004556001805460a060020a60ff02191690556200012a565b3390565b60018054600160a060020a03838116600160a060020a0319831681179093556040519116919082907f8be0079c531659141344cd1fd0a4f28419497f9722a3daafe3b4186f6b6457e090600090a35050565b6000602082840312156200010c578081fd5b8151600160a060020a038116811462000123578182fd5b9392505050565b612c7e806200013a6000396000f3fe608060405234801561001057600080fd5b506004361061022b5760003560e060020a9004806371a80ed611610134578063ac4afa38116100bc578063d06cd51811610080578063d06cd518146105f4578063d5dfc26514610614578063ddc6326214610634578063ee15a32114610647578063f2fde38b1461066757600080fd5b8063ac4afa38146104be578063adc9772e14610537578063bb7a80541461054a578063bfb231d214610553578063c84bbd6a146105e157600080fd5b80638da5cb5b116101035780638da5cb5b146104575780639c5a85401461047c578063a3757b191461048f578063a6f9963a146104a2578063abe02271146104ab57600080fd5b806371a80ed6146104145780637e52a67414610427578063811e1cf91461043a578063872c7a501461044457600080fd5b80633ccfd60b116101b75780635119913c116101865780635119913c1461039d57806353dc4ae1146103d35780635a4ec0ca146103e65780636b16b1be146103f9578063715018a61461040c57600080fd5b80633ccfd60b1461037357806342cbb15c1461037b57806348cd4cb1146103815780634b8e4ace1461038a57600080fd5b806317caf6f1116101fe57806317caf6f1146102a957806321ce919d146102b2578063241f2570146103285780632dd96be9146103565780632e17de781461036057600080fd5b806303c5b1dc14610230578063083c6323146102455780630dea2d5c1461026157806315a7319714610296575b600080fd5b61024361023e366004612940565b61067a565b005b61024e60065481565b6040519081526020015b60405180910390f35b6001546102869074010000000000000000000000000000000000000000900460ff1681565b6040519015158152602001610258565b6102436102a43660046127e9565b610886565b61024e60035481565b6102fe6102c0366004612784565b600a6020908152600092835260408084209091529082529020805460018201546002830154600384015460049094015460ff90931693919290919085565b6040805195151586526020860194909452928401919091526060830152608082015260a001610258565b610286610336366004612940565b600b60209081526000928352604080842090915290825290205460ff1681565b600d5461024e9081565b61024361036e366004612821565b6108f3565b610243610b2f565b4361024e565b61024e60055481565b610243610398366004612961565b610d0b565b61024e6103ab366004612851565b600160a060020a03166000908152600a60209081526040808320938352929052206002015490565b6102436103e1366004612784565b610f8f565b6102436103f43660046127af565b610fd8565b610243610407366004612940565b61115a565b61024361119c565b610243610422366004612821565b6111d5565b610243610435366004612880565b6114de565b600e5461024e9081565b61024e610452366004612821565b6116cd565b600154600160a060020a03165b604051600160a060020a039091168152602001610258565b61024e61048a366004612821565b6116f8565b61024361049d3660046128c7565b61177a565b61024e60025481565b6104646104b9366004612940565b6118d3565b6105056104cc366004612821565b60076020526000908152604090208054600182015460028301546003840154600490940154600160a060020a0390931693919290919085565b60408051600160a060020a0390961686526020860194909452928401919091526060830152608082015260a001610258565b610243610545366004612784565b61190b565b61024e60045481565b6105a6610561366004612821565b6008602052600090815260409020805460018201546002830154600384015460048501546005909501549394600160a060020a03938416949290931692909160ff1686565b60408051968752600160a060020a039586166020880152939094169285019290925260608401526080830152151560a082015260c001610258565b61024e6105ef366004612851565b611f27565b61024e61060236600461274c565b60096020526000908152604090205481565b61062761062236600461274c565b612015565b60405161025891906129b0565b610243610642366004612821565b612233565b61065a610655366004612821565b612435565b6040516102589190612a36565b61024361067536600461274c565b61249a565b600154600160a060020a031633146106b05760405160e560020a62461bcd0281526004016106a790612b34565b60405180910390fd5b4381116107025760405160e560020a62461bcd02815260206004820152601e60248201527f456e6420426c6f636b206d75737420626967676572207468616e206e6f77000060448201526064016106a7565b8181116107245760405160e560020a62461bcd0281526004016106a790612a7a565b600060015b600d5481116108365760005b6000828152600c6020526040902054811015610823576000828152600c60205260409020805461079c918491849081106107825760e060020a634e487b7102600052603260045260246000fd5b600091825260209091200154600160a060020a0316612552565b6000828152600c602052604081208054600a929190849081106107d25760e060020a634e487b7102600052603260045260246000fd5b6000918252602080832090910154600160a060020a03168352828101939093526040918201812085825290925290206001015461080f9084612b69565b92508061081b81612bf1565b915050610735565b508061082e81612bf1565b915050610729565b508243811080610847575060055443115b1561084f5750435b60008260045461085f9190612bc3565b905061086b8285612bc3565b6108759082612b81565b600255505050600591909155600655565b600154600160a060020a031633146108b35760405160e560020a62461bcd0281526004016106a790612b34565b60018054911515740100000000000000000000000000000000000000000274ff000000000000000000000000000000000000000019909216919091179055565b60008181526008602052604090206002810154600160a060020a031633146109605760405160e560020a62461bcd02815260206004820152601160248201527f796f7520617265206e6f74206f776e657200000000000000000000000000000060448201526064016106a7565b600581015460ff16156109de5760405160e560020a62461bcd02815260206004820152602760248201527f54686973205374616b696e67204974656d2077617320756e7374616b6564206160448201527f6c7265616479210000000000000000000000000000000000000000000000000060648201526084016106a7565b6109ec816004015433612552565b6109f98160040154612233565b600181015460038201546040517f23b872dd000000000000000000000000000000000000000000000000000000008152600160a060020a03909216916323b872dd91610a4b913091339160040161298c565b600060405180830381600087803b158015610a6557600080fd5b505af1158015610a79573d6000803e3d6000fd5b50505060058201805460ff19166001179055506004808201546000908152600760205260408120909101805491610aaf83612bda565b909155505060048101546000818152600760209081526040808320600290810154338552600a8452828520958552949092528220018054909190610af4908490612bc3565b9091555050336000908152600a60209081526040808320600485015484529091528120600301805491610b2683612bda565b91905055505050565b600154600160a060020a03163314610b5c5760405160e560020a62461bcd0281526004016106a790612b34565b6006544311610bb05760405160e560020a62461bcd02815260206004820152601760248201527f5374616b696e67206973206e6f742066696e697368656400000000000000000060448201526064016106a7565b600f546040517f70a08231000000000000000000000000000000000000000000000000000000008152306004820152600091600160a060020a0316906370a082319060240160206040518083038186803b158015610c0d57600080fd5b505afa158015610c21573d6000803e3d6000fd5b505050506040513d601f19601f82011682018060405250810190610c459190612839565b600f54909150600160a060020a031663a9059cbb610c6b600154600160a060020a031690565b60405160e060020a63ffffffff8416028152600160a060020a03909116600482015260248101849052604401602060405180830381600087803b158015610cb157600080fd5b505af1158015610cc5573d6000803e3d6000fd5b505050506040513d601f19601f82011682018060405250810190610ce99190612805565b50506001805474ff000000000000000000000000000000000000000019169055565b600154600160a060020a03163314610d385760405160e560020a62461bcd0281526004016106a790612b34565b610d4a83670de0b6b3a7640000612ba4565b600f54600160a060020a03166370a08231610d6d600154600160a060020a031690565b60405160e060020a63ffffffff8416028152600160a060020a03909116600482015260240160206040518083038186803b158015610daa57600080fd5b505afa158015610dbe573d6000803e3d6000fd5b505050506040513d601f19601f82011682018060405250810190610de29190612839565b1015610e035760405160e560020a62461bcd0281526004016106a790612ad7565b438111610e555760405160e560020a62461bcd02815260206004820152601e60248201527f456e6420426c6f636b206d75737420626967676572207468616e206e6f77000060448201526064016106a7565b818111610e775760405160e560020a62461bcd0281526004016106a790612a7a565b600f54600160a060020a03166323b872dd610e9a600154600160a060020a031690565b30610ead87670de0b6b3a7640000612ba4565b6040518463ffffffff1660e060020a028152600401610ece9392919061298c565b602060405180830381600087803b158015610ee857600080fd5b505af1158015610efc573d6000803e3d6000fd5b505050506040513d601f19601f82011682018060405250810190610f209190612805565b50610f2e83620f4240612ba4565b60045560058290556006819055610f458282612bc3565b600454610f529190612b81565b60025550506001805474ff000000000000000000000000000000000000000019167401000000000000000000000000000000000000000017905550565b600154600160a060020a03163314610fbc5760405160e560020a62461bcd0281526004016106a790612b34565b600160a060020a03909116600090815260096020526040902055565b600154600160a060020a031633146110055760405160e560020a62461bcd0281526004016106a790612b34565b60055415801590611017575060065415155b6110665760405160e560020a62461bcd02815260206004820152601f60248201527f52657761726420546f6b656e206e6f74206465706f736974656420796574210060448201526064016106a7565b611074600d80546001019055565b600061107f600d5490565b6040805160c081018252600160a060020a038881168252602080830189815283850189815260608086018a815260006080880181815260a089018481528b835260078852999091208851815473ffffffffffffffffffffffffffffffffffffffff19169816979097178755935160018701559151600286015590516003850155905160048401559351805195965093949293919261112392600585019201906126b1565b505050600160a060020a038616600090815260096020526040902082905560035461114f908690612b69565b600355505050505050565b600154600160a060020a031633146111875760405160e560020a62461bcd0281526004016106a790612b34565b60009182526007602052604090912060040155565b600154600160a060020a031633146111c95760405160e560020a62461bcd0281526004016106a790612b34565b6111d36000612652565b565b600154600160a060020a031633146112025760405160e560020a62461bcd0281526004016106a790612b34565b61121481670de0b6b3a7640000612ba4565b600f54600160a060020a03166370a08231611237600154600160a060020a031690565b60405160e060020a63ffffffff8416028152600160a060020a03909116600482015260240160206040518083038186803b15801561127457600080fd5b505afa158015611288573d6000803e3d6000fd5b505050506040513d601f19601f820116820180604052508101906112ac9190612839565b10156112cd5760405160e560020a62461bcd0281526004016106a790612ad7565b600060015b600d5481116113c55760005b6000828152600c60205260409020548110156113b2576000828152600c60205260409020805461132b918491849081106107825760e060020a634e487b7102600052603260045260246000fd5b6000828152600c602052604081208054600a929190849081106113615760e060020a634e487b7102600052603260045260246000fd5b6000918252602080832090910154600160a060020a03168352828101939093526040918201812085825290925290206001015461139e9084612b69565b9250806113aa81612bf1565b9150506112de565b50806113bd81612bf1565b9150506112d2565b50600f54600160a060020a03166323b872dd6113e9600154600160a060020a031690565b306113fc86670de0b6b3a7640000612ba4565b6040518463ffffffff1660e060020a02815260040161141d9392919061298c565b602060405180830381600087803b15801561143757600080fd5b505af115801561144b573d6000803e3d6000fd5b505050506040513d601f19601f8201168201806040525081019061146f9190612805565b506000816004546114809190612bc3565b905061148f83620f4240612ba4565b6114999082612b69565b9050436006546114a99190612bc3565b6114b39082612b81565b6002556114c383620f4240612ba4565b600460008282546114d49190612b69565b9091555050505050565b600154600160a060020a0316331461150b5760405160e560020a62461bcd0281526004016106a790612b34565b600d548511156115605760405160e560020a62461bcd02815260206004820152600e60248201527f696e76616c696420706f6f6c496400000000000000000000000000000000000060448201526064016106a7565b60008581526007602052604090206001015460035461157f9190612bc3565b6003556040805160c081018252600160a060020a03861681526020808201869052818301859052606082018490526000888152600780835284822060048101546080860152918a905282526005018054845181840281018401909552808552929360a0850193909283018282801561161657602002820191906000526020600020905b815481526020019060010190808311611602575b5050509190925250506000868152600760209081526040918290208351815473ffffffffffffffffffffffffffffffffffffffff1916600160a060020a03909116178155838201516001820155918301516002830155606083015160038301556080830151600483015560a0830151805161169792600585019201906126b1565b505050600160a060020a03841660009081526009602052604090208590556003546116c3908490612b69565b6003555050505050565b6000818152600760205260408120600281015460049091015482916116f191612ba4565b9392505050565b600080611704836116cd565b9050600081156116f1576003546000858152600760205260409020600101546002548490611733906014612ba4565b61173e90603c612ba4565b611749906018612ba4565b611754906064612ba4565b61175e9190612b81565b6117689190612ba4565b6117729190612b81565b949350505050565b600154600160a060020a031633146117a75760405160e560020a62461bcd0281526004016106a790612b34565b6000838152600760205260408120905b600582015481101561183e576000858152600b60205260408120600584018054839190859081106117fb5760e060020a634e487b7102600052603260045260246000fd5b9060005260206000200154815260200190815260200160002060006101000a81548160ff021916908315150217905550808061183690612bf1565b9150506117b7565b5060005b828110156118bd576000858152600b6020526040812060019186868581811061187e5760e060020a634e487b7102600052603260045260246000fd5b90506020020135815260200190815260200160002060006101000a81548160ff02191690831515021790555080806118b590612bf1565b915050611842565b506118cc6005820184846126fc565b5050505050565b600c60205281600052604060002081815481106118ef57600080fd5b600091825260209091200154600160a060020a03169150829050565b600260005414156119615760405160e560020a62461bcd02815260206004820152601f60248201527f5265656e7472616e637947756172643a207265656e7472616e742063616c6c0060448201526064016106a7565b60026000556040517f6352211e000000000000000000000000000000000000000000000000000000008152600481018290523390839083908390600160a060020a03841690636352211e9060240160206040518083038186803b1580156119c757600080fd5b505afa1580156119db573d6000803e3d6000fd5b505050506040513d601f19601f820116820180604052508101906119ff9190612768565b600160a060020a031614611a585760405160e560020a62461bcd02815260206004820152600960248201527f6e6f74206f776e6572000000000000000000000000000000000000000000000060448201526064016106a7565b600160a060020a0385166000908152600960205260409020546005544310801590611a8557506006544311155b8015611aaf57506001805474010000000000000000000000000000000000000000900460ff161515145b611afe5760405160e560020a62461bcd02815260206004820152601760248201527f5374616b696e67206973206e6f7420737461727465642100000000000000000060448201526064016106a7565b80611b735760405160e560020a62461bcd028152602060048201526024808201527f5468657265206973206e6f20436f6e7472616374204164647265737320696e2060448201527f506f6f6c0000000000000000000000000000000000000000000000000000000060648201526084016106a7565b6000818152600760209081526040808320600390810154338552600a845282852086865290935292209091015410611bf05760405160e560020a62461bcd02815260206004820152601d60248201527f4f766572666c6f77206f66204d6178205374616b696e6720436f756e7400000060448201526064016106a7565b6000818152600760205260409020600501541580611c2c57506000818152600b6020908152604080832088845290915290205460ff1615156001145b611c7b5760405160e560020a62461bcd02815260206004820152601e60248201527f5468697320746f6b656e206973206e6f742077686974656c697374656421000060448201526064016106a7565b336000908152600a6020908152604080832084845290915290205460ff16611cd9576000818152600c6020908152604082208054600181018255908352912001805473ffffffffffffffffffffffffffffffffffffffff1916331790555b611ce38133612552565b611cf1600e80546001019055565b6000611cfc600e5490565b6040805160c081018252828152600160a060020a038a8116602080840182815233858701818152606087018f8152608088018c8152600060a08a018181528c825260089097528a902098518955935160018901805473ffffffffffffffffffffffffffffffffffffffff19908116928a1692909217905591516002890180549093169716969096179055935160038601555160048086019190915590516005909401805460ff19169415159490941790935592517f23b872dd00000000000000000000000000000000000000000000000000000000815293945091926323b872dd92611dee92909130918c910161298c565b600060405180830381600087803b158015611e0857600080fd5b505af1158015611e1c573d6000803e3d6000fd5b50505060008381526007602052604081206004018054925090611e3e83612bf1565b9091555050336000908152600a602090815260408083208584529091528120600301805491611e6c83612bf1565b90915550506000828152600760209081526040808320600290810154338552600a845282852087865290935290832001805491929091611ead908490612b69565b9091555050336000818152600a60209081526040808320868452825291829020805460ff191660011790558151848152908101899052600160a060020a038a16917f4249649a2f5c977056f4db60e40a673eabf996b3ec3dc5b5b5713971888e6020910160405180910390a3505060016000555050505050565b6000828152600760205260408120600281015460049091015482918291611f4e9190612ba4565b600160a060020a0385166000908152600a60209081526040808320898452909152902060065491925090431115611f89576006549250611f8d565b4392505b60008215611ffb57600282015460035460008981526007602052604090206001015460048501548693929190611fc39089612bc3565b600254611fd09190612ba4565b611fda9190612ba4565b611fe49190612b81565b611fee9190612ba4565b611ff89190612b81565b90505b600182015461200a9082612b69565b979650505050505050565b60606000612022600e5490565b905060008060015b83811161209457600081815260086020526040902060020154600160a060020a03878116911614801561206f575060008181526008602052604090206005015460ff16155b156120825761207f600184612b69565b92505b8061208c81612bf1565b91505061202a565b5060008267ffffffffffffffff8111156120c15760e060020a634e487b7102600052604160045260246000fd5b60405190808252806020026020018201604052801561212157816020015b6040805160c08101825260008082526020808301829052928201819052606082018190526080820181905260a082015282526000199092019101816120df5790505b50905060015b84811161222957600081815260086020526040902060020154600160a060020a03888116911614801561216c575060008181526008602052604090206005015460ff16155b1561221757600081815260086020908152604091829020825160c081018452815481526001820154600160a060020a03908116938201939093526002820154909216928201929092526003820154606082015260048201546080820152600582015460ff16151560a082015283518490869081106121fd5760e060020a634e487b7102600052603260045260246000fd5b6020908102919091010152612213600185612b69565b9350505b8061222181612bf1565b915050612127565b5095945050505050565b61223d8133612552565b336000908152600a6020908152604080832084845290915290206001015461226a8164e8d4a51000612ba4565b600f546040517f70a08231000000000000000000000000000000000000000000000000000000008152306004820152600160a060020a03909116906370a082319060240160206040518083038186803b1580156122c657600080fd5b505afa1580156122da573d6000803e3d6000fd5b505050506040513d601f19601f820116820180604052508101906122fe9190612839565b10156123755760405160e560020a62461bcd02815260206004820152602360248201527f696e73756666696369656e74204d696c6b20616d6f756e7420746f204861727660448201527f657374000000000000000000000000000000000000000000000000000000000060648201526084016106a7565b600f54600160a060020a031663a9059cbb336123968464e8d4a51000612ba4565b60405160e060020a63ffffffff8516028152600160a060020a0390921660048301526024820152604401602060405180830381600087803b1580156123da57600080fd5b505af11580156123ee573d6000803e3d6000fd5b505050506040513d601f19601f820116820180604052508101906124129190612805565b5050336000908152600a6020908152604080832093835292905290812060010155565b60008181526007602090815260409182902060050180548351818402810184019094528084526060939283018282801561248e57602002820191906000526020600020905b81548152602001906001019080831161247a575b50505050509050919050565b600154600160a060020a031633146124c75760405160e560020a62461bcd0281526004016106a790612b34565b600160a060020a0381166125465760405160e560020a62461bcd02815260206004820152602660248201527f4f776e61626c653a206e6577206f776e657220697320746865207a65726f206160448201527f646472657373000000000000000000000000000000000000000000000000000060648201526084016106a7565b61254f81612652565b50565b6000600654431115612567575060065461256a565b50435b6000838152600760205260408120600281015460049091015461258d9190612ba4565b600160a060020a0384166000908152600a60209081526040808320888452909152902090915081158015906125c55750600481015415155b15612646576002810154600354600087815260076020526040902060010154600484015485939291906125f89088612bc3565b6002546126059190612ba4565b61260f9190612ba4565b6126199190612b81565b6126239190612ba4565b61262d9190612b81565b8160010160008282546126409190612b69565b90915550505b60040191909155505050565b60018054600160a060020a0383811673ffffffffffffffffffffffffffffffffffffffff19831681179093556040519116919082907f8be0079c531659141344cd1fd0a4f28419497f9722a3daafe3b4186f6b6457e090600090a35050565b8280548282559060005260206000209081019282156126ec579160200282015b828111156126ec5782518255916020019190600101906126d1565b506126f8929150612737565b5090565b8280548282559060005260206000209081019282156126ec579160200282015b828111156126ec57823582559160200191906001019061271c565b5b808211156126f85760008155600101612738565b60006020828403121561275d578081fd5b81356116f181612c25565b600060208284031215612779578081fd5b81516116f181612c25565b60008060408385031215612796578081fd5b82356127a181612c25565b946020939093013593505050565b600080600080608085870312156127c4578182fd5b84356127cf81612c25565b966020860135965060408601359560600135945092505050565b6000602082840312156127fa578081fd5b81356116f181612c3a565b600060208284031215612816578081fd5b81516116f181612c3a565b600060208284031215612832578081fd5b5035919050565b60006020828403121561284a578081fd5b5051919050565b60008060408385031215612863578182fd5b82359150602083013561287581612c25565b809150509250929050565b600080600080600060a08688031215612897578081fd5b8535945060208601356128a981612c25565b94979496505050506040830135926060810135926080909101359150565b6000806000604084860312156128db578283fd5b83359250602084013567ffffffffffffffff808211156128f9578384fd5b818601915086601f83011261290c578384fd5b81358181111561291a578485fd5b876020808302850101111561292d578485fd5b6020830194508093505050509250925092565b60008060408385031215612952578182fd5b50508035926020909101359150565b600080600060608486031215612975578283fd5b505081359360208301359350604090920135919050565b600160a060020a039384168152919092166020820152604081019190915260600190565b602080825282518282018190526000919060409081850190868401855b82811015612a295781518051855286810151600160a060020a0390811688870152868201511686860152606080820151908601526080808201519086015260a09081015115159085015260c090930192908501906001016129cd565b5091979650505050505050565b6020808252825182820181905260009190848201906040850190845b81811015612a6e57835183529284019291840191600101612a52565b50909695505050505050565b60208082526034908201527f456e6420426c6f636b204e756d626572206d757374206269676765722074686160408201527f6e20537461727420426c6f636b204e756d626572000000000000000000000000606082015260800190565b60208082526023908201527f696e73756666696369656e74204d696c6b20616d6f756e7420746f204465706f60408201527f7369740000000000000000000000000000000000000000000000000000000000606082015260800190565b6020808252818101527f4f776e61626c653a2063616c6c6572206973206e6f7420746865206f776e6572604082015260600190565b60008219821115612b7c57612b7c612c0c565b500190565b600082612b9f5760e060020a634e487b710281526012600452602481fd5b500490565b6000816000190483118215151615612bbe57612bbe612c0c565b500290565b600082821015612bd557612bd5612c0c565b500390565b600081612be957612be9612c0c565b506000190190565b6000600019821415612c0557612c05612c0c565b5060010190565b60e060020a634e487b7102600052601160045260246000fd5b600160a060020a038116811461254f57600080fd5b801515811461254f57600080fdfea2646970667358221220b991051fb72b81fa413d9e7daa4c5fa538e6571a42ed1106b274672772a4b01064736f6c63430008040033",
  "immutableReferences": {},
  "source": "// SPDX-License-Identifier: MIT\r\npragma solidity ^0.8.4;\r\nimport \"@openzeppelin/contracts/utils/Counters.sol\";\r\nimport \"@openzeppelin/contracts/token/ERC721/ERC721.sol\";\r\nimport \"@openzeppelin/contracts/security/ReentrancyGuard.sol\";\r\nimport \"@openzeppelin/contracts/access/Ownable.sol\";\r\nimport \"./interfaces/IGolToken.sol\";\r\n\r\ncontract Staking is ReentrancyGuard, Ownable {\r\n    using Counters for Counters.Counter;\r\n\r\n    bool public isStakingAvailable;\r\n    uint256 public golPerBlock;\r\n    uint256 public totalAllocPoint;\r\n    uint256 public totalAmountDepositedPool;\r\n    uint256 public startBlock;\r\n    uint256 public endBlock;\r\n\r\n    struct StakingItem {\r\n        uint256 itemId;\r\n        address contractAddress;\r\n        address owner;\r\n        uint256 tokenId;\r\n        uint256 poolId;\r\n        bool isEnded;\r\n    }\r\n\r\n    struct PoolInfo {\r\n        address contractAddress;\r\n        uint256 allocPoint;\r\n        uint256 milkPower;\r\n        uint256 maxStakeCount;\r\n        uint256 stakedCount;\r\n        uint256[] tokenIds;\r\n    }\r\n\r\n    struct UserInfo {\r\n        bool isStaked;\r\n        uint256 pendingMilk;\r\n        uint256 userMilkPower;\r\n        uint256 stakedCount;\r\n        uint256 lastHarvestBlock;\r\n    }\r\n\r\n    mapping(uint256 => PoolInfo) public pools;\r\n    mapping(uint256 => StakingItem) public items;\r\n    mapping(address => uint256) public poolIdOfContract;\r\n    mapping(address => mapping(uint256 => UserInfo)) public userInfo;\r\n    mapping(uint256 => mapping(uint256 => bool)) public whitelistedTokenIds;\r\n    mapping(uint256 => address[]) public stakedUsers;\r\n\r\n    Counters.Counter public stakingPoolCount;\r\n    Counters.Counter public stakingItemCount;\r\n\r\n    IGolToken golToken;\r\n\r\n    event StakingItemCreated(\r\n        uint256 itemId,\r\n        address indexed nftContract,\r\n        address indexed owner,\r\n        uint256 tokenId\r\n    );\r\n\r\n    event Harvest(uint256 itemId, address indexed owner, uint256 amount);\r\n\r\n    constructor(IGolToken _golToken) {\r\n        golToken = _golToken;\r\n        totalAllocPoint = 0;\r\n        golPerBlock = 0;\r\n        totalAmountDepositedPool = 0;\r\n        isStakingAvailable = false;\r\n    }\r\n\r\n    function depositMilkToPool(\r\n        uint256 _totalAmountDepositedPool,\r\n        uint256 _startBlock,\r\n        uint256 _endBlock\r\n    ) public onlyOwner {\r\n        require(\r\n            golToken.balanceOf(owner()) >= _totalAmountDepositedPool * 10**18,\r\n            \"insufficient Milk amount to Deposit\"\r\n        );\r\n        require(_endBlock > block.number, \"End Block must bigger than now\");\r\n        require(\r\n            _endBlock > _startBlock,\r\n            \"End Block Number must bigger than Start Block Number\"\r\n        );\r\n        golToken.transferFrom(\r\n            owner(),\r\n            address(this),\r\n            _totalAmountDepositedPool * 10**18\r\n        );\r\n\r\n        totalAmountDepositedPool = _totalAmountDepositedPool * 10**6;\r\n        startBlock = _startBlock;\r\n        endBlock = _endBlock;\r\n        golPerBlock = totalAmountDepositedPool / (_endBlock - _startBlock);\r\n        isStakingAvailable = true;\r\n    }\r\n\r\n    function addMilkReward(uint256 _amountReward) public onlyOwner {\r\n        require(\r\n            golToken.balanceOf(owner()) >= _amountReward * 10**18,\r\n            \"insufficient Milk amount to Deposit\"\r\n        );\r\n\r\n        uint256 paidReward = 0;\r\n        for (uint256 i = 1; i <= stakingPoolCount.current(); i++) {\r\n            for (uint256 j = 0; j < stakedUsers[i].length; j++) {\r\n                _updateUserInfo(i, stakedUsers[i][j]);\r\n                paidReward += userInfo[stakedUsers[i][j]][i].pendingMilk;\r\n            }\r\n        }\r\n\r\n        golToken.transferFrom(owner(), address(this), _amountReward * 10**18);\r\n\r\n        uint256 remainReward = totalAmountDepositedPool - paidReward;\r\n        remainReward += _amountReward * 10**6;\r\n        golPerBlock = remainReward / (endBlock - block.number);\r\n        totalAmountDepositedPool += _amountReward * 10**6;\r\n    }\r\n\r\n    function setPeriod(uint256 _startBlock, uint256 _endBlock)\r\n        public\r\n        onlyOwner\r\n    {\r\n        require(_endBlock > block.number, \"End Block must bigger than now\");\r\n        require(\r\n            _endBlock > _startBlock,\r\n            \"End Block Number must bigger than Start Block Number\"\r\n        );\r\n\r\n        uint256 paidReward = 0;\r\n        for (uint256 i = 1; i <= stakingPoolCount.current(); i++) {\r\n            for (uint256 j = 0; j < stakedUsers[i].length; j++) {\r\n                _updateUserInfo(i, stakedUsers[i][j]);\r\n                paidReward += userInfo[stakedUsers[i][j]][i].pendingMilk;\r\n            }\r\n        }\r\n\r\n        uint256 tmpBlockNumber = _startBlock;\r\n        if (block.number > _startBlock || block.number > startBlock)\r\n            tmpBlockNumber = block.number;\r\n\r\n        uint256 remainReward = totalAmountDepositedPool - paidReward;\r\n\r\n        golPerBlock = remainReward / (_endBlock - tmpBlockNumber);\r\n\r\n        startBlock = _startBlock;\r\n        endBlock = _endBlock;\r\n    }\r\n\r\n    function setIsStakingAvailable(bool _isStakingAvailable) public onlyOwner {\r\n        isStakingAvailable = _isStakingAvailable;\r\n    }\r\n\r\n    function addPool(\r\n        address _contractAddress,\r\n        uint256 _allocPoint,\r\n        uint256 _milkPower,\r\n        uint256 _maxStakeCount\r\n    ) public onlyOwner {\r\n        require(\r\n            startBlock != 0 && endBlock != 0,\r\n            \"Reward Token not deposited yet!\"\r\n        );\r\n        stakingPoolCount.increment();\r\n        uint256 poolId = stakingPoolCount.current();\r\n        uint256[] memory tokenIds;\r\n        pools[poolId] = PoolInfo(\r\n            _contractAddress,\r\n            _allocPoint,\r\n            _milkPower,\r\n            _maxStakeCount,\r\n            0,\r\n            tokenIds\r\n        );\r\n\r\n        poolIdOfContract[_contractAddress] = poolId;\r\n\r\n        totalAllocPoint = totalAllocPoint + _allocPoint;\r\n    }\r\n\r\n    function setPoolIdOfContract(address _contractAddress, uint256 _poolId)\r\n        public\r\n        onlyOwner\r\n    {\r\n        poolIdOfContract[_contractAddress] = _poolId;\r\n    }\r\n\r\n    function setStakedCount(uint256 _poolId, uint256 _stakedCount)\r\n        public\r\n        onlyOwner\r\n    {\r\n        pools[_poolId].stakedCount = _stakedCount;\r\n    }\r\n\r\n    function updatePool(\r\n        uint256 _poolId,\r\n        address _contractAddress,\r\n        uint256 _allocPoint,\r\n        uint256 _milkPower,\r\n        uint256 _maxStakeCount\r\n    ) public onlyOwner {\r\n        require(_poolId <= stakingPoolCount.current(), \"invalid poolId\");\r\n\r\n        totalAllocPoint = totalAllocPoint - pools[_poolId].allocPoint;\r\n\r\n        pools[_poolId] = PoolInfo(\r\n            _contractAddress,\r\n            _allocPoint,\r\n            _milkPower,\r\n            _maxStakeCount,\r\n            pools[_poolId].stakedCount,\r\n            pools[_poolId].tokenIds\r\n        );\r\n\r\n        poolIdOfContract[_contractAddress] = _poolId;\r\n\r\n        totalAllocPoint = totalAllocPoint + _allocPoint;\r\n    }\r\n\r\n    function setTokenIds(uint256 _poolId, uint256[] calldata _tokenIds)\r\n        public\r\n        onlyOwner\r\n    {\r\n        PoolInfo storage _pool = pools[_poolId];\r\n\r\n        for (uint256 i = 0; i < _pool.tokenIds.length; i++) {\r\n            whitelistedTokenIds[_poolId][_pool.tokenIds[i]] = false;\r\n        }\r\n\r\n        for (uint256 i = 0; i < _tokenIds.length; i++) {\r\n            whitelistedTokenIds[_poolId][_tokenIds[i]] = true;\r\n        }\r\n\r\n        _pool.tokenIds = _tokenIds;\r\n    }\r\n\r\n    modifier isValid(\r\n        address _msgSender,\r\n        address _contractAddress,\r\n        uint256 _tokenId\r\n    ) {\r\n        require(\r\n            IERC721(_contractAddress).ownerOf(_tokenId) == _msgSender,\r\n            \"not owner\"\r\n        );\r\n        _;\r\n    }\r\n\r\n    function _updateUserInfo(uint256 _poolId, address _owner) internal {\r\n        /**Update the Pending Milk for All Items */\r\n        uint256 tmpEndBlock = 0;\r\n        if (block.number > endBlock) tmpEndBlock = endBlock;\r\n        else tmpEndBlock = block.number;\r\n        uint256 totalMilkPower = pools[_poolId].stakedCount *\r\n            pools[_poolId].milkPower;\r\n\r\n        UserInfo storage _userInfo = userInfo[_owner][_poolId];\r\n        if (totalMilkPower != 0 && _userInfo.lastHarvestBlock != 0)\r\n            _userInfo.pendingMilk +=\r\n                (((golPerBlock *\r\n                    (tmpEndBlock - _userInfo.lastHarvestBlock) *\r\n                    pools[_poolId].allocPoint) / totalAllocPoint) *\r\n                    _userInfo.userMilkPower) /\r\n                totalMilkPower;\r\n        _userInfo.lastHarvestBlock = tmpEndBlock;\r\n        /**End Update */\r\n    }\r\n\r\n    function stake(address _nftContract, uint256 _tokenId)\r\n        public\r\n        nonReentrant\r\n        isValid(msg.sender, _nftContract, _tokenId)\r\n    {\r\n        uint256 poolId = poolIdOfContract[_nftContract];\r\n\r\n        require(\r\n            block.number >= startBlock &&\r\n                block.number <= endBlock &&\r\n                isStakingAvailable == true,\r\n            \"Staking is not started!\"\r\n        );\r\n        require(poolId != 0, \"There is no Contract Address in Pool\");\r\n        require(\r\n            userInfo[msg.sender][poolId].stakedCount <\r\n                pools[poolId].maxStakeCount,\r\n            \"Overflow of Max Staking Count\"\r\n        );\r\n        require(\r\n            pools[poolId].tokenIds.length == 0 ||\r\n                whitelistedTokenIds[poolId][_tokenId] == true,\r\n            \"This token is not whitelisted!\"\r\n        );\r\n\r\n        if (userInfo[msg.sender][poolId].isStaked == false) {\r\n            stakedUsers[poolId].push(msg.sender);\r\n        }\r\n\r\n        _updateUserInfo(poolId, msg.sender);\r\n\r\n        stakingItemCount.increment();\r\n        uint256 itemId = stakingItemCount.current();\r\n\r\n        items[itemId] = StakingItem(\r\n            itemId,\r\n            _nftContract,\r\n            msg.sender,\r\n            _tokenId,\r\n            poolId,\r\n            false\r\n        );\r\n\r\n        IERC721(_nftContract).transferFrom(msg.sender, address(this), _tokenId);\r\n\r\n        pools[poolId].stakedCount++;\r\n        userInfo[msg.sender][poolId].stakedCount++;\r\n        userInfo[msg.sender][poolId].userMilkPower += pools[poolId].milkPower;\r\n        userInfo[msg.sender][poolId].isStaked = true;\r\n        emit StakingItemCreated(itemId, _nftContract, msg.sender, _tokenId);\r\n    }\r\n\r\n    function harvest(uint256 _poolId) public {\r\n        _updateUserInfo(_poolId, msg.sender);\r\n        uint256 userPendingMilk = userInfo[msg.sender][_poolId].pendingMilk;\r\n\r\n        require(\r\n            golToken.balanceOf(address(this)) >= userPendingMilk * 10**12,\r\n            \"insufficient Milk amount to Harvest\"\r\n        );\r\n\r\n        golToken.transfer(msg.sender, userPendingMilk * 10**12);\r\n\r\n        userInfo[msg.sender][_poolId].pendingMilk = 0;\r\n    }\r\n\r\n    function getPendingMilk(uint256 _poolId, address _owner)\r\n        public\r\n        view\r\n        returns (uint256)\r\n    {\r\n        uint256 tmpEndBlock = 0;\r\n        uint256 totalMilkPower = pools[_poolId].stakedCount *\r\n            pools[_poolId].milkPower;\r\n        UserInfo storage _userInfo = userInfo[_owner][_poolId];\r\n\r\n        if (block.number > endBlock) tmpEndBlock = endBlock;\r\n        else tmpEndBlock = block.number;\r\n\r\n        uint256 amount = 0;\r\n        if (totalMilkPower != 0)\r\n            amount =\r\n                (((golPerBlock *\r\n                    (tmpEndBlock - _userInfo.lastHarvestBlock) *\r\n                    pools[_poolId].allocPoint) / totalAllocPoint) *\r\n                    _userInfo.userMilkPower) /\r\n                totalMilkPower;\r\n        amount += _userInfo.pendingMilk;\r\n        return amount;\r\n    }\r\n\r\n    function getWhitelistedTokenIds(uint256 _poolId)\r\n        public\r\n        view\r\n        returns (uint256[] memory)\r\n    {\r\n        return pools[_poolId].tokenIds;\r\n    }\r\n\r\n    function getStakedItems(address _owner)\r\n        public\r\n        view\r\n        returns (StakingItem[] memory)\r\n    {\r\n        uint256 totalItemCount = stakingItemCount.current();\r\n        uint256 itemCount = 0;\r\n        uint256 currentIndex = 0;\r\n\r\n        for (uint256 i = 1; i <= totalItemCount; i++) {\r\n            if (_owner == items[i].owner && items[i].isEnded == false) {\r\n                itemCount += 1;\r\n            }\r\n        }\r\n\r\n        StakingItem[] memory stakedItems = new StakingItem[](itemCount);\r\n\r\n        for (uint256 i = 1; i <= totalItemCount; i++) {\r\n            if (_owner == items[i].owner && items[i].isEnded == false) {\r\n                StakingItem storage currentItem = items[i];\r\n                stakedItems[currentIndex] = currentItem;\r\n                currentIndex += 1;\r\n            }\r\n        }\r\n\r\n        return stakedItems;\r\n    }\r\n\r\n    function getBlockNumber() public view returns (uint256) {\r\n        return block.number;\r\n    }\r\n\r\n    function getTotalMilkPower(uint256 _poolId) public view returns (uint256) {\r\n        uint256 totalMilkPower = pools[_poolId].stakedCount *\r\n            pools[_poolId].milkPower;\r\n        return totalMilkPower;\r\n    }\r\n\r\n    function getMyMilkPower(uint256 _poolId, address _owner)\r\n        public\r\n        view\r\n        returns (uint256)\r\n    {\r\n        return userInfo[_owner][_poolId].userMilkPower;\r\n    }\r\n\r\n    function getDailyMilkRate(uint256 _poolId) public view returns (uint256) {\r\n        uint256 totalMilkPower = getTotalMilkPower(_poolId);\r\n        uint256 dailyRate = 0;\r\n        if (totalMilkPower != 0)\r\n            dailyRate =\r\n                (((golPerBlock * 20 * 60 * 24 * 100) / totalMilkPower) *\r\n                    pools[_poolId].allocPoint) /\r\n                totalAllocPoint;\r\n        return dailyRate;\r\n    }\r\n\r\n    function unstake(uint256 _itemId) public {\r\n        StakingItem storage item = items[_itemId];\r\n\r\n        require(item.owner == msg.sender, \"you are not owner\");\r\n        require(\r\n            item.isEnded == false,\r\n            \"This Staking Item was unstaked already!\"\r\n        );\r\n\r\n        _updateUserInfo(item.poolId, msg.sender);\r\n        harvest(item.poolId);\r\n\r\n        IERC721(item.contractAddress).transferFrom(\r\n            address(this),\r\n            msg.sender,\r\n            item.tokenId\r\n        );\r\n        item.isEnded = true;\r\n        pools[item.poolId].stakedCount--;\r\n        userInfo[msg.sender][item.poolId].userMilkPower -= pools[item.poolId]\r\n            .milkPower;\r\n        userInfo[msg.sender][item.poolId].stakedCount--;\r\n    }\r\n\r\n    function withdraw() public onlyOwner {\r\n        require(block.number > endBlock, \"Staking is not finished\");\r\n        uint256 remainBalance = golToken.balanceOf(address(this));\r\n        golToken.transfer(owner(), remainBalance);\r\n        isStakingAvailable = false;\r\n    }\r\n}\r\n",
  "sourcePath": "E:\\Git for Project\\Ethereum\\NFT\\GolFinance\\gol-staking-contracts\\contracts\\Staking.sol",
  "compiler": {
    "name": "solc",
    "version": "0.8.4+commit.c7e474f2.Emscripten.clang"
  },
  "schemaVersion": "3.4.5",
  "updatedAt": "2022-03-09T19:01:23.082Z",
  "networkType": "ethereum",
  "devdoc": {
    "kind": "dev",
    "methods": {
      "owner()": {
        "details": "Returns the address of the current owner."
      },
      "renounceOwnership()": {
        "details": "Leaves the contract without owner. It will not be possible to call `onlyOwner` functions anymore. Can only be called by the current owner. NOTE: Renouncing ownership will leave the contract without an owner, thereby removing any functionality that is only available to the owner."
      },
      "transferOwnership(address)": {
        "details": "Transfers ownership of the contract to a new account (`newOwner`). Can only be called by the current owner."
      }
    },
    "version": 1
  },
  "userdoc": {
    "kind": "user",
    "methods": {},
    "version": 1
  }
}