{
  "contractName": "Staking",
  "abi": [
    {
      "inputs": [
        {
          "internalType": "contract IGolToken",
          "name": "_golToken",
          "type": "address"
        }
      ],
      "stateMutability": "nonpayable",
      "type": "constructor"
    },
    {
      "anonymous": false,
      "inputs": [
        {
          "indexed": false,
          "internalType": "uint256",
          "name": "itemId",
          "type": "uint256"
        },
        {
          "indexed": true,
          "internalType": "address",
          "name": "owner",
          "type": "address"
        },
        {
          "indexed": false,
          "internalType": "uint256",
          "name": "amount",
          "type": "uint256"
        }
      ],
      "name": "Harvest",
      "type": "event"
    },
    {
      "anonymous": false,
      "inputs": [
        {
          "indexed": true,
          "internalType": "address",
          "name": "previousOwner",
          "type": "address"
        },
        {
          "indexed": true,
          "internalType": "address",
          "name": "newOwner",
          "type": "address"
        }
      ],
      "name": "OwnershipTransferred",
      "type": "event"
    },
    {
      "anonymous": false,
      "inputs": [
        {
          "indexed": false,
          "internalType": "uint256",
          "name": "itemId",
          "type": "uint256"
        },
        {
          "indexed": true,
          "internalType": "address",
          "name": "nftContract",
          "type": "address"
        },
        {
          "indexed": true,
          "internalType": "address",
          "name": "owner",
          "type": "address"
        },
        {
          "indexed": false,
          "internalType": "uint256",
          "name": "tokenId",
          "type": "uint256"
        }
      ],
      "name": "StakingItemCreated",
      "type": "event"
    },
    {
      "inputs": [],
      "name": "endBlock",
      "outputs": [
        {
          "internalType": "uint256",
          "name": "",
          "type": "uint256"
        }
      ],
      "stateMutability": "view",
      "type": "function"
    },
    {
      "inputs": [],
      "name": "golPerBlock",
      "outputs": [
        {
          "internalType": "uint256",
          "name": "",
          "type": "uint256"
        }
      ],
      "stateMutability": "view",
      "type": "function"
    },
    {
      "inputs": [],
      "name": "isStakingAvailable",
      "outputs": [
        {
          "internalType": "bool",
          "name": "",
          "type": "bool"
        }
      ],
      "stateMutability": "view",
      "type": "function"
    },
    {
      "inputs": [
        {
          "internalType": "uint256",
          "name": "",
          "type": "uint256"
        }
      ],
      "name": "items",
      "outputs": [
        {
          "internalType": "uint256",
          "name": "itemId",
          "type": "uint256"
        },
        {
          "internalType": "address",
          "name": "contractAddress",
          "type": "address"
        },
        {
          "internalType": "address",
          "name": "owner",
          "type": "address"
        },
        {
          "internalType": "uint256",
          "name": "tokenId",
          "type": "uint256"
        },
        {
          "internalType": "uint256",
          "name": "poolId",
          "type": "uint256"
        },
        {
          "internalType": "bool",
          "name": "isEnded",
          "type": "bool"
        }
      ],
      "stateMutability": "view",
      "type": "function"
    },
    {
      "inputs": [],
      "name": "owner",
      "outputs": [
        {
          "internalType": "address",
          "name": "",
          "type": "address"
        }
      ],
      "stateMutability": "view",
      "type": "function"
    },
    {
      "inputs": [
        {
          "internalType": "address",
          "name": "",
          "type": "address"
        }
      ],
      "name": "poolIdOfContract",
      "outputs": [
        {
          "internalType": "uint256",
          "name": "",
          "type": "uint256"
        }
      ],
      "stateMutability": "view",
      "type": "function"
    },
    {
      "inputs": [
        {
          "internalType": "uint256",
          "name": "",
          "type": "uint256"
        }
      ],
      "name": "pools",
      "outputs": [
        {
          "internalType": "address",
          "name": "contractAddress",
          "type": "address"
        },
        {
          "internalType": "uint256",
          "name": "allocPoint",
          "type": "uint256"
        },
        {
          "internalType": "uint256",
          "name": "golPower",
          "type": "uint256"
        },
        {
          "internalType": "uint256",
          "name": "maxStakeCount",
          "type": "uint256"
        },
        {
          "internalType": "uint256",
          "name": "stakedCount",
          "type": "uint256"
        }
      ],
      "stateMutability": "view",
      "type": "function"
    },
    {
      "inputs": [],
      "name": "renounceOwnership",
      "outputs": [],
      "stateMutability": "nonpayable",
      "type": "function"
    },
    {
      "inputs": [
        {
          "internalType": "uint256",
          "name": "",
          "type": "uint256"
        },
        {
          "internalType": "uint256",
          "name": "",
          "type": "uint256"
        }
      ],
      "name": "stakedUsers",
      "outputs": [
        {
          "internalType": "address",
          "name": "",
          "type": "address"
        }
      ],
      "stateMutability": "view",
      "type": "function"
    },
    {
      "inputs": [],
      "name": "stakingItemCount",
      "outputs": [
        {
          "internalType": "uint256",
          "name": "_value",
          "type": "uint256"
        }
      ],
      "stateMutability": "view",
      "type": "function"
    },
    {
      "inputs": [],
      "name": "stakingPoolCount",
      "outputs": [
        {
          "internalType": "uint256",
          "name": "_value",
          "type": "uint256"
        }
      ],
      "stateMutability": "view",
      "type": "function"
    },
    {
      "inputs": [],
      "name": "startBlock",
      "outputs": [
        {
          "internalType": "uint256",
          "name": "",
          "type": "uint256"
        }
      ],
      "stateMutability": "view",
      "type": "function"
    },
    {
      "inputs": [],
      "name": "totalAllocPoint",
      "outputs": [
        {
          "internalType": "uint256",
          "name": "",
          "type": "uint256"
        }
      ],
      "stateMutability": "view",
      "type": "function"
    },
    {
      "inputs": [],
      "name": "totalAmountDepositedPool",
      "outputs": [
        {
          "internalType": "uint256",
          "name": "",
          "type": "uint256"
        }
      ],
      "stateMutability": "view",
      "type": "function"
    },
    {
      "inputs": [
        {
          "internalType": "address",
          "name": "newOwner",
          "type": "address"
        }
      ],
      "name": "transferOwnership",
      "outputs": [],
      "stateMutability": "nonpayable",
      "type": "function"
    },
    {
      "inputs": [
        {
          "internalType": "address",
          "name": "",
          "type": "address"
        },
        {
          "internalType": "uint256",
          "name": "",
          "type": "uint256"
        }
      ],
      "name": "userInfo",
      "outputs": [
        {
          "internalType": "bool",
          "name": "isStaked",
          "type": "bool"
        },
        {
          "internalType": "uint256",
          "name": "pendingGol",
          "type": "uint256"
        },
        {
          "internalType": "uint256",
          "name": "userGolPower",
          "type": "uint256"
        },
        {
          "internalType": "uint256",
          "name": "stakedCount",
          "type": "uint256"
        },
        {
          "internalType": "uint256",
          "name": "lastHarvestBlock",
          "type": "uint256"
        }
      ],
      "stateMutability": "view",
      "type": "function"
    },
    {
      "inputs": [
        {
          "internalType": "uint256",
          "name": "",
          "type": "uint256"
        },
        {
          "internalType": "uint256",
          "name": "",
          "type": "uint256"
        }
      ],
      "name": "whitelistedTokenIds",
      "outputs": [
        {
          "internalType": "bool",
          "name": "",
          "type": "bool"
        }
      ],
      "stateMutability": "view",
      "type": "function"
    },
    {
      "inputs": [
        {
          "internalType": "uint256",
          "name": "_totalAmountDepositedPool",
          "type": "uint256"
        },
        {
          "internalType": "uint256",
          "name": "_startBlock",
          "type": "uint256"
        },
        {
          "internalType": "uint256",
          "name": "_endBlock",
          "type": "uint256"
        }
      ],
      "name": "depositGolToPool",
      "outputs": [],
      "stateMutability": "nonpayable",
      "type": "function"
    },
    {
      "inputs": [
        {
          "internalType": "uint256",
          "name": "_amountReward",
          "type": "uint256"
        }
      ],
      "name": "addGolReward",
      "outputs": [],
      "stateMutability": "nonpayable",
      "type": "function"
    },
    {
      "inputs": [
        {
          "internalType": "uint256",
          "name": "_startBlock",
          "type": "uint256"
        },
        {
          "internalType": "uint256",
          "name": "_endBlock",
          "type": "uint256"
        }
      ],
      "name": "setPeriod",
      "outputs": [],
      "stateMutability": "nonpayable",
      "type": "function"
    },
    {
      "inputs": [
        {
          "internalType": "bool",
          "name": "_isStakingAvailable",
          "type": "bool"
        }
      ],
      "name": "setIsStakingAvailable",
      "outputs": [],
      "stateMutability": "nonpayable",
      "type": "function"
    },
    {
      "inputs": [
        {
          "internalType": "address",
          "name": "_contractAddress",
          "type": "address"
        },
        {
          "internalType": "uint256",
          "name": "_allocPoint",
          "type": "uint256"
        },
        {
          "internalType": "uint256",
          "name": "_golPower",
          "type": "uint256"
        },
        {
          "internalType": "uint256",
          "name": "_maxStakeCount",
          "type": "uint256"
        }
      ],
      "name": "addPool",
      "outputs": [],
      "stateMutability": "nonpayable",
      "type": "function"
    },
    {
      "inputs": [
        {
          "internalType": "address",
          "name": "_contractAddress",
          "type": "address"
        },
        {
          "internalType": "uint256",
          "name": "_poolId",
          "type": "uint256"
        }
      ],
      "name": "setPoolIdOfContract",
      "outputs": [],
      "stateMutability": "nonpayable",
      "type": "function"
    },
    {
      "inputs": [
        {
          "internalType": "uint256",
          "name": "_poolId",
          "type": "uint256"
        },
        {
          "internalType": "uint256",
          "name": "_stakedCount",
          "type": "uint256"
        }
      ],
      "name": "setStakedCount",
      "outputs": [],
      "stateMutability": "nonpayable",
      "type": "function"
    },
    {
      "inputs": [
        {
          "internalType": "uint256",
          "name": "_poolId",
          "type": "uint256"
        },
        {
          "internalType": "address",
          "name": "_contractAddress",
          "type": "address"
        },
        {
          "internalType": "uint256",
          "name": "_allocPoint",
          "type": "uint256"
        },
        {
          "internalType": "uint256",
          "name": "_golPower",
          "type": "uint256"
        },
        {
          "internalType": "uint256",
          "name": "_maxStakeCount",
          "type": "uint256"
        }
      ],
      "name": "updatePool",
      "outputs": [],
      "stateMutability": "nonpayable",
      "type": "function"
    },
    {
      "inputs": [
        {
          "internalType": "uint256",
          "name": "_poolId",
          "type": "uint256"
        },
        {
          "internalType": "uint256[]",
          "name": "_tokenIds",
          "type": "uint256[]"
        }
      ],
      "name": "setTokenIds",
      "outputs": [],
      "stateMutability": "nonpayable",
      "type": "function"
    },
    {
      "inputs": [
        {
          "internalType": "address",
          "name": "_nftContract",
          "type": "address"
        },
        {
          "internalType": "uint256",
          "name": "_tokenId",
          "type": "uint256"
        }
      ],
      "name": "stake",
      "outputs": [],
      "stateMutability": "nonpayable",
      "type": "function"
    },
    {
      "inputs": [
        {
          "internalType": "uint256",
          "name": "_poolId",
          "type": "uint256"
        }
      ],
      "name": "harvest",
      "outputs": [],
      "stateMutability": "nonpayable",
      "type": "function"
    },
    {
      "inputs": [
        {
          "internalType": "uint256",
          "name": "_poolId",
          "type": "uint256"
        },
        {
          "internalType": "address",
          "name": "_owner",
          "type": "address"
        }
      ],
      "name": "getPendingGol",
      "outputs": [
        {
          "internalType": "uint256",
          "name": "",
          "type": "uint256"
        }
      ],
      "stateMutability": "view",
      "type": "function"
    },
    {
      "inputs": [
        {
          "internalType": "uint256",
          "name": "_poolId",
          "type": "uint256"
        }
      ],
      "name": "getWhitelistedTokenIds",
      "outputs": [
        {
          "internalType": "uint256[]",
          "name": "",
          "type": "uint256[]"
        }
      ],
      "stateMutability": "view",
      "type": "function"
    },
    {
      "inputs": [
        {
          "internalType": "address",
          "name": "_owner",
          "type": "address"
        }
      ],
      "name": "getStakedItems",
      "outputs": [
        {
          "components": [
            {
              "internalType": "uint256",
              "name": "itemId",
              "type": "uint256"
            },
            {
              "internalType": "address",
              "name": "contractAddress",
              "type": "address"
            },
            {
              "internalType": "address",
              "name": "owner",
              "type": "address"
            },
            {
              "internalType": "uint256",
              "name": "tokenId",
              "type": "uint256"
            },
            {
              "internalType": "uint256",
              "name": "poolId",
              "type": "uint256"
            },
            {
              "internalType": "bool",
              "name": "isEnded",
              "type": "bool"
            }
          ],
          "internalType": "struct Staking.StakingItem[]",
          "name": "",
          "type": "tuple[]"
        }
      ],
      "stateMutability": "view",
      "type": "function"
    },
    {
      "inputs": [],
      "name": "getBlockNumber",
      "outputs": [
        {
          "internalType": "uint256",
          "name": "",
          "type": "uint256"
        }
      ],
      "stateMutability": "view",
      "type": "function"
    },
    {
      "inputs": [
        {
          "internalType": "uint256",
          "name": "_poolId",
          "type": "uint256"
        }
      ],
      "name": "getTotalGolPower",
      "outputs": [
        {
          "internalType": "uint256",
          "name": "",
          "type": "uint256"
        }
      ],
      "stateMutability": "view",
      "type": "function"
    },
    {
      "inputs": [
        {
          "internalType": "uint256",
          "name": "_poolId",
          "type": "uint256"
        },
        {
          "internalType": "address",
          "name": "_owner",
          "type": "address"
        }
      ],
      "name": "getMyGolPower",
      "outputs": [
        {
          "internalType": "uint256",
          "name": "",
          "type": "uint256"
        }
      ],
      "stateMutability": "view",
      "type": "function"
    },
    {
      "inputs": [
        {
          "internalType": "uint256",
          "name": "_poolId",
          "type": "uint256"
        }
      ],
      "name": "getDailyGolRate",
      "outputs": [
        {
          "internalType": "uint256",
          "name": "",
          "type": "uint256"
        }
      ],
      "stateMutability": "view",
      "type": "function"
    },
    {
      "inputs": [
        {
          "internalType": "uint256",
          "name": "_itemId",
          "type": "uint256"
        }
      ],
      "name": "unstake",
      "outputs": [],
      "stateMutability": "nonpayable",
      "type": "function"
    },
    {
      "inputs": [],
      "name": "withdraw",
      "outputs": [],
      "stateMutability": "nonpayable",
      "type": "function"
    }
  ],
  "bytecode": "0x60806040523480156200001157600080fd5b5060405162002e0738038062002e078339810160408190526200003491620000fa565b60016000556200005f62000050640100000000620000a4810204565b640100000000620000a8810204565b600f8054600160a060020a031916600160a060020a03929092169190911790556000600381905560028190556004556001805460a060020a60ff02191690556200012a565b3390565b60018054600160a060020a03838116600160a060020a0319831681179093556040519116919082907f8be0079c531659141344cd1fd0a4f28419497f9722a3daafe3b4186f6b6457e090600090a35050565b6000602082840312156200010c578081fd5b8151600160a060020a038116811462000123578182fd5b9392505050565b612ccd806200013a6000396000f3fe608060405234801561001057600080fd5b506004361061022b5760003560e060020a900480637e52a67411610134578063bb7a8054116100bc578063db11ea5711610080578063db11ea571461060e578063ddc6326214610621578063e46c9d5d14610634578063ee15a32114610647578063f2fde38b1461066757600080fd5b8063bb7a805414610501578063bfb231d21461050a578063d06cd51814610598578063d5dfc265146105b8578063d9913962146105d857600080fd5b8063a6f9963a11610103578063a6f9963a14610446578063aaf5a68f1461044f578063abe0227114610462578063ac4afa3814610475578063adc9772e146104ee57600080fd5b80637e52a674146103f1578063811e1cf9146104045780638da5cb5b1461040e578063a3757b191461043357600080fd5b80632e17de78116101b757806353dc4ae11161018657806353dc4ae11461039d5780635a4ec0ca146103b0578063662861b1146103c35780636b16b1be146103d6578063715018a6146103e957600080fd5b80632e17de78146103735780633ccfd60b1461038657806342cbb15c1461038e57806348cd4cb11461039457600080fd5b806317caf6f1116101fe57806317caf6f1146102a957806321ce919d146102b2578063241f257014610328578063280b8ee6146103565780632dd96be91461036957600080fd5b806303c5b1dc14610230578063083c6323146102455780630dea2d5c1461026157806315a7319714610296575b600080fd5b61024361023e3660046129ec565b61067a565b005b61024e60065481565b6040519081526020015b60405180910390f35b6001546102869074010000000000000000000000000000000000000000900460ff1681565b6040519015158152602001610258565b6102436102a4366004612895565b610886565b61024e60035481565b6102fe6102c0366004612830565b600a6020908152600092835260408084209091529082529020805460018201546002830154600384015460049094015460ff90931693919290919085565b6040805195151586526020860194909452928401919091526060830152608082015260a001610258565b6102866103363660046129ec565b600b60209081526000928352604080842090915290825290205460ff1681565b61024e6103643660046128fd565b6108f3565b600d5461024e9081565b6102436103813660046128cd565b6109e1565b610243610c1d565b4361024e565b61024e60055481565b6102436103ab366004612830565b610df9565b6102436103be36600461285b565b610e42565b61024e6103d13660046128cd565b610fc4565b6102436103e43660046129ec565b610fef565b610243611031565b6102436103ff36600461292c565b61106a565b600e5461024e9081565b600154600160a060020a03165b604051600160a060020a039091168152602001610258565b610243610441366004612973565b611259565b61024e60025481565b61024361045d366004612a0d565b6113b2565b61041b6104703660046129ec565b61168c565b6104bc6104833660046128cd565b60076020526000908152604090208054600182015460028301546003840154600490940154600160a060020a0390931693919290919085565b60408051600160a060020a0390961686526020860194909452928401919091526060830152608082015260a001610258565b6102436104fc366004612830565b6116c4565b61024e60045481565b61055d6105183660046128cd565b6008602052600090815260409020805460018201546002830154600384015460048501546005909501549394600160a060020a03938416949290931692909160ff1686565b60408051968752600160a060020a039586166020880152939094169285019290925260608401526080830152151560a082015260c001610258565b61024e6105a63660046127f8565b60096020526000908152604090205481565b6105cb6105c63660046127f8565b611ce0565b6040516102589190612a5c565b61024e6105e63660046128fd565b600160a060020a03166000908152600a60209081526040808320938352929052206002015490565b61024361061c3660046128cd565b611efe565b61024361062f3660046128cd565b61225d565b61024e6106423660046128cd565b61245f565b61065a6106553660046128cd565b6124e1565b6040516102589190612ae2565b6102436106753660046127f8565b612546565b600154600160a060020a031633146106b05760405160e560020a62461bcd0281526004016106a790612b83565b60405180910390fd5b4381116107025760405160e560020a62461bcd02815260206004820152601e60248201527f456e6420426c6f636b206d75737420626967676572207468616e206e6f77000060448201526064016106a7565b8181116107245760405160e560020a62461bcd0281526004016106a790612b26565b600060015b600d5481116108365760005b6000828152600c6020526040902054811015610823576000828152600c60205260409020805461079c918491849081106107825760e060020a634e487b7102600052603260045260246000fd5b600091825260209091200154600160a060020a03166125fe565b6000828152600c602052604081208054600a929190849081106107d25760e060020a634e487b7102600052603260045260246000fd5b6000918252602080832090910154600160a060020a03168352828101939093526040918201812085825290925290206001015461080f9084612bb8565b92508061081b81612c40565b915050610735565b508061082e81612c40565b915050610729565b508243811080610847575060055443115b1561084f5750435b60008260045461085f9190612c12565b905061086b8285612c12565b6108759082612bd0565b600255505050600591909155600655565b600154600160a060020a031633146108b35760405160e560020a62461bcd0281526004016106a790612b83565b60018054911515740100000000000000000000000000000000000000000274ff000000000000000000000000000000000000000019909216919091179055565b600082815260076020526040812060028101546004909101548291829161091a9190612bf3565b600160a060020a0385166000908152600a60209081526040808320898452909152902060065491925090431115610955576006549250610959565b4392505b600082156109c75760028201546003546000898152600760205260409020600101546004850154869392919061098f9089612c12565b60025461099c9190612bf3565b6109a69190612bf3565b6109b09190612bd0565b6109ba9190612bf3565b6109c49190612bd0565b90505b60018201546109d69082612bb8565b979650505050505050565b60008181526008602052604090206002810154600160a060020a03163314610a4e5760405160e560020a62461bcd02815260206004820152601160248201527f796f7520617265206e6f74206f776e657200000000000000000000000000000060448201526064016106a7565b600581015460ff1615610acc5760405160e560020a62461bcd02815260206004820152602760248201527f54686973205374616b696e67204974656d2077617320756e7374616b6564206160448201527f6c7265616479210000000000000000000000000000000000000000000000000060648201526084016106a7565b610ada8160040154336125fe565b610ae7816004015461225d565b600181015460038201546040517f23b872dd000000000000000000000000000000000000000000000000000000008152600160a060020a03909216916323b872dd91610b399130913391600401612a38565b600060405180830381600087803b158015610b5357600080fd5b505af1158015610b67573d6000803e3d6000fd5b50505060058201805460ff19166001179055506004808201546000908152600760205260408120909101805491610b9d83612c29565b909155505060048101546000818152600760209081526040808320600290810154338552600a8452828520958552949092528220018054909190610be2908490612c12565b9091555050336000908152600a60209081526040808320600485015484529091528120600301805491610c1483612c29565b91905055505050565b600154600160a060020a03163314610c4a5760405160e560020a62461bcd0281526004016106a790612b83565b6006544311610c9e5760405160e560020a62461bcd02815260206004820152601760248201527f5374616b696e67206973206e6f742066696e697368656400000000000000000060448201526064016106a7565b600f546040517f70a08231000000000000000000000000000000000000000000000000000000008152306004820152600091600160a060020a0316906370a082319060240160206040518083038186803b158015610cfb57600080fd5b505afa158015610d0f573d6000803e3d6000fd5b505050506040513d601f19601f82011682018060405250810190610d3391906128e5565b600f54909150600160a060020a031663a9059cbb610d59600154600160a060020a031690565b60405160e060020a63ffffffff8416028152600160a060020a03909116600482015260248101849052604401602060405180830381600087803b158015610d9f57600080fd5b505af1158015610db3573d6000803e3d6000fd5b505050506040513d601f19601f82011682018060405250810190610dd791906128b1565b50506001805474ff000000000000000000000000000000000000000019169055565b600154600160a060020a03163314610e265760405160e560020a62461bcd0281526004016106a790612b83565b600160a060020a03909116600090815260096020526040902055565b600154600160a060020a03163314610e6f5760405160e560020a62461bcd0281526004016106a790612b83565b60055415801590610e81575060065415155b610ed05760405160e560020a62461bcd02815260206004820152601f60248201527f52657761726420546f6b656e206e6f74206465706f736974656420796574210060448201526064016106a7565b610ede600d80546001019055565b6000610ee9600d5490565b6040805160c081018252600160a060020a038881168252602080830189815283850189815260608086018a815260006080880181815260a089018481528b835260078852999091208851815473ffffffffffffffffffffffffffffffffffffffff191698169790971787559351600187015591516002860155905160038501559051600484015593518051959650939492939192610f8d926005850192019061275d565b505050600160a060020a0386166000908152600960205260409020829055600354610fb9908690612bb8565b600355505050505050565b600081815260076020526040812060028101546004909101548291610fe891612bf3565b9392505050565b600154600160a060020a0316331461101c5760405160e560020a62461bcd0281526004016106a790612b83565b60009182526007602052604090912060040155565b600154600160a060020a0316331461105e5760405160e560020a62461bcd0281526004016106a790612b83565b61106860006126fe565b565b600154600160a060020a031633146110975760405160e560020a62461bcd0281526004016106a790612b83565b600d548511156110ec5760405160e560020a62461bcd02815260206004820152600e60248201527f696e76616c696420706f6f6c496400000000000000000000000000000000000060448201526064016106a7565b60008581526007602052604090206001015460035461110b9190612c12565b6003556040805160c081018252600160a060020a03861681526020808201869052818301859052606082018490526000888152600780835284822060048101546080860152918a905282526005018054845181840281018401909552808552929360a085019390928301828280156111a257602002820191906000526020600020905b81548152602001906001019080831161118e575b5050509190925250506000868152600760209081526040918290208351815473ffffffffffffffffffffffffffffffffffffffff1916600160a060020a03909116178155838201516001820155918301516002830155606083015160038301556080830151600483015560a08301518051611223926005850192019061275d565b505050600160a060020a038416600090815260096020526040902085905560035461124f908490612bb8565b6003555050505050565b600154600160a060020a031633146112865760405160e560020a62461bcd0281526004016106a790612b83565b6000838152600760205260408120905b600582015481101561131d576000858152600b60205260408120600584018054839190859081106112da5760e060020a634e487b7102600052603260045260246000fd5b9060005260206000200154815260200190815260200160002060006101000a81548160ff021916908315150217905550808061131590612c40565b915050611296565b5060005b8281101561139c576000858152600b6020526040812060019186868581811061135d5760e060020a634e487b7102600052603260045260246000fd5b90506020020135815260200190815260200160002060006101000a81548160ff021916908315150217905550808061139490612c40565b915050611321565b506113ab6005820184846127a8565b5050505050565b600154600160a060020a031633146113df5760405160e560020a62461bcd0281526004016106a790612b83565b6113f183670de0b6b3a7640000612bf3565b600f54600160a060020a03166370a08231611414600154600160a060020a031690565b60405160e060020a63ffffffff8416028152600160a060020a03909116600482015260240160206040518083038186803b15801561145157600080fd5b505afa158015611465573d6000803e3d6000fd5b505050506040513d601f19601f8201168201806040525081019061148991906128e5565b10156115005760405160e560020a62461bcd02815260206004820152602260248201527f696e73756666696369656e7420474f4c20616d6f756e7420746f204465706f7360448201527f697400000000000000000000000000000000000000000000000000000000000060648201526084016106a7565b4381116115525760405160e560020a62461bcd02815260206004820152601e60248201527f456e6420426c6f636b206d75737420626967676572207468616e206e6f77000060448201526064016106a7565b8181116115745760405160e560020a62461bcd0281526004016106a790612b26565b600f54600160a060020a03166323b872dd611597600154600160a060020a031690565b306115aa87670de0b6b3a7640000612bf3565b6040518463ffffffff1660e060020a0281526004016115cb93929190612a38565b602060405180830381600087803b1580156115e557600080fd5b505af11580156115f9573d6000803e3d6000fd5b505050506040513d601f19601f8201168201806040525081019061161d91906128b1565b5061162b83620f4240612bf3565b600455600582905560068190556116428282612c12565b60045461164f9190612bd0565b60025550506001805474ff000000000000000000000000000000000000000019167401000000000000000000000000000000000000000017905550565b600c60205281600052604060002081815481106116a857600080fd5b600091825260209091200154600160a060020a03169150829050565b6002600054141561171a5760405160e560020a62461bcd02815260206004820152601f60248201527f5265656e7472616e637947756172643a207265656e7472616e742063616c6c0060448201526064016106a7565b60026000556040517f6352211e000000000000000000000000000000000000000000000000000000008152600481018290523390839083908390600160a060020a03841690636352211e9060240160206040518083038186803b15801561178057600080fd5b505afa158015611794573d6000803e3d6000fd5b505050506040513d601f19601f820116820180604052508101906117b89190612814565b600160a060020a0316146118115760405160e560020a62461bcd02815260206004820152600960248201527f6e6f74206f776e6572000000000000000000000000000000000000000000000060448201526064016106a7565b600160a060020a038516600090815260096020526040902054600554431080159061183e57506006544311155b801561186857506001805474010000000000000000000000000000000000000000900460ff161515145b6118b75760405160e560020a62461bcd02815260206004820152601760248201527f5374616b696e67206973206e6f7420737461727465642100000000000000000060448201526064016106a7565b8061192c5760405160e560020a62461bcd028152602060048201526024808201527f5468657265206973206e6f20436f6e7472616374204164647265737320696e2060448201527f506f6f6c0000000000000000000000000000000000000000000000000000000060648201526084016106a7565b6000818152600760209081526040808320600390810154338552600a8452828520868652909352922090910154106119a95760405160e560020a62461bcd02815260206004820152601d60248201527f4f766572666c6f77206f66204d6178205374616b696e6720436f756e7400000060448201526064016106a7565b60008181526007602052604090206005015415806119e557506000818152600b6020908152604080832088845290915290205460ff1615156001145b611a345760405160e560020a62461bcd02815260206004820152601e60248201527f5468697320746f6b656e206973206e6f742077686974656c697374656421000060448201526064016106a7565b336000908152600a6020908152604080832084845290915290205460ff16611a92576000818152600c6020908152604082208054600181018255908352912001805473ffffffffffffffffffffffffffffffffffffffff1916331790555b611a9c81336125fe565b611aaa600e80546001019055565b6000611ab5600e5490565b6040805160c081018252828152600160a060020a038a8116602080840182815233858701818152606087018f8152608088018c8152600060a08a018181528c825260089097528a902098518955935160018901805473ffffffffffffffffffffffffffffffffffffffff19908116928a1692909217905591516002890180549093169716969096179055935160038601555160048086019190915590516005909401805460ff19169415159490941790935592517f23b872dd00000000000000000000000000000000000000000000000000000000815293945091926323b872dd92611ba792909130918c9101612a38565b600060405180830381600087803b158015611bc157600080fd5b505af1158015611bd5573d6000803e3d6000fd5b50505060008381526007602052604081206004018054925090611bf783612c40565b9091555050336000908152600a602090815260408083208584529091528120600301805491611c2583612c40565b90915550506000828152600760209081526040808320600290810154338552600a845282852087865290935290832001805491929091611c66908490612bb8565b9091555050336000818152600a60209081526040808320868452825291829020805460ff191660011790558151848152908101899052600160a060020a038a16917f4249649a2f5c977056f4db60e40a673eabf996b3ec3dc5b5b5713971888e6020910160405180910390a3505060016000555050505050565b60606000611ced600e5490565b905060008060015b838111611d5f57600081815260086020526040902060020154600160a060020a038781169116148015611d3a575060008181526008602052604090206005015460ff16155b15611d4d57611d4a600184612bb8565b92505b80611d5781612c40565b915050611cf5565b5060008267ffffffffffffffff811115611d8c5760e060020a634e487b7102600052604160045260246000fd5b604051908082528060200260200182016040528015611dec57816020015b6040805160c08101825260008082526020808301829052928201819052606082018190526080820181905260a08201528252600019909201910181611daa5790505b50905060015b848111611ef457600081815260086020526040902060020154600160a060020a038881169116148015611e37575060008181526008602052604090206005015460ff16155b15611ee257600081815260086020908152604091829020825160c081018452815481526001820154600160a060020a03908116938201939093526002820154909216928201929092526003820154606082015260048201546080820152600582015460ff16151560a08201528351849086908110611ec85760e060020a634e487b7102600052603260045260246000fd5b6020908102919091010152611ede600185612bb8565b9350505b80611eec81612c40565b915050611df2565b5095945050505050565b600154600160a060020a03163314611f2b5760405160e560020a62461bcd0281526004016106a790612b83565b611f3d81670de0b6b3a7640000612bf3565b600f54600160a060020a03166370a08231611f60600154600160a060020a031690565b60405160e060020a63ffffffff8416028152600160a060020a03909116600482015260240160206040518083038186803b158015611f9d57600080fd5b505afa158015611fb1573d6000803e3d6000fd5b505050506040513d601f19601f82011682018060405250810190611fd591906128e5565b101561204c5760405160e560020a62461bcd02815260206004820152602260248201527f696e73756666696369656e7420476f6c20616d6f756e7420746f204465706f7360448201527f697400000000000000000000000000000000000000000000000000000000000060648201526084016106a7565b600060015b600d5481116121445760005b6000828152600c6020526040902054811015612131576000828152600c6020526040902080546120aa918491849081106107825760e060020a634e487b7102600052603260045260246000fd5b6000828152600c602052604081208054600a929190849081106120e05760e060020a634e487b7102600052603260045260246000fd5b6000918252602080832090910154600160a060020a03168352828101939093526040918201812085825290925290206001015461211d9084612bb8565b92508061212981612c40565b91505061205d565b508061213c81612c40565b915050612051565b50600f54600160a060020a03166323b872dd612168600154600160a060020a031690565b3061217b86670de0b6b3a7640000612bf3565b6040518463ffffffff1660e060020a02815260040161219c93929190612a38565b602060405180830381600087803b1580156121b657600080fd5b505af11580156121ca573d6000803e3d6000fd5b505050506040513d601f19601f820116820180604052508101906121ee91906128b1565b506000816004546121ff9190612c12565b905061220e83620f4240612bf3565b6122189082612bb8565b9050436006546122289190612c12565b6122329082612bd0565b60025561224283620f4240612bf3565b600460008282546122539190612bb8565b9091555050505050565b61226781336125fe565b336000908152600a602090815260408083208484529091529020600101546122948164e8d4a51000612bf3565b600f546040517f70a08231000000000000000000000000000000000000000000000000000000008152306004820152600160a060020a03909116906370a082319060240160206040518083038186803b1580156122f057600080fd5b505afa158015612304573d6000803e3d6000fd5b505050506040513d601f19601f8201168201806040525081019061232891906128e5565b101561239f5760405160e560020a62461bcd02815260206004820152602260248201527f696e73756666696369656e7420474f4c20616d6f756e7420746f20486172766560448201527f737400000000000000000000000000000000000000000000000000000000000060648201526084016106a7565b600f54600160a060020a031663a9059cbb336123c08464e8d4a51000612bf3565b60405160e060020a63ffffffff8516028152600160a060020a0390921660048301526024820152604401602060405180830381600087803b15801561240457600080fd5b505af1158015612418573d6000803e3d6000fd5b505050506040513d601f19601f8201168201806040525081019061243c91906128b1565b5050336000908152600a6020908152604080832093835292905290812060010155565b60008061246b83610fc4565b905060008115610fe857600354600085815260076020526040902060010154600254849061249a906014612bf3565b6124a590603c612bf3565b6124b0906018612bf3565b6124bb906064612bf3565b6124c59190612bd0565b6124cf9190612bf3565b6124d99190612bd0565b949350505050565b60008181526007602090815260409182902060050180548351818402810184019094528084526060939283018282801561253a57602002820191906000526020600020905b815481526020019060010190808311612526575b50505050509050919050565b600154600160a060020a031633146125735760405160e560020a62461bcd0281526004016106a790612b83565b600160a060020a0381166125f25760405160e560020a62461bcd02815260206004820152602660248201527f4f776e61626c653a206e6577206f776e657220697320746865207a65726f206160448201527f646472657373000000000000000000000000000000000000000000000000000060648201526084016106a7565b6125fb816126fe565b50565b60006006544311156126135750600654612616565b50435b600083815260076020526040812060028101546004909101546126399190612bf3565b600160a060020a0384166000908152600a60209081526040808320888452909152902090915081158015906126715750600481015415155b156126f2576002810154600354600087815260076020526040902060010154600484015485939291906126a49088612c12565b6002546126b19190612bf3565b6126bb9190612bf3565b6126c59190612bd0565b6126cf9190612bf3565b6126d99190612bd0565b8160010160008282546126ec9190612bb8565b90915550505b60040191909155505050565b60018054600160a060020a0383811673ffffffffffffffffffffffffffffffffffffffff19831681179093556040519116919082907f8be0079c531659141344cd1fd0a4f28419497f9722a3daafe3b4186f6b6457e090600090a35050565b828054828255906000526020600020908101928215612798579160200282015b8281111561279857825182559160200191906001019061277d565b506127a49291506127e3565b5090565b828054828255906000526020600020908101928215612798579160200282015b828111156127985782358255916020019190600101906127c8565b5b808211156127a457600081556001016127e4565b600060208284031215612809578081fd5b8135610fe881612c74565b600060208284031215612825578081fd5b8151610fe881612c74565b60008060408385031215612842578081fd5b823561284d81612c74565b946020939093013593505050565b60008060008060808587031215612870578182fd5b843561287b81612c74565b966020860135965060408601359560600135945092505050565b6000602082840312156128a6578081fd5b8135610fe881612c89565b6000602082840312156128c2578081fd5b8151610fe881612c89565b6000602082840312156128de578081fd5b5035919050565b6000602082840312156128f6578081fd5b5051919050565b6000806040838503121561290f578182fd5b82359150602083013561292181612c74565b809150509250929050565b600080600080600060a08688031215612943578081fd5b85359450602086013561295581612c74565b94979496505050506040830135926060810135926080909101359150565b600080600060408486031215612987578283fd5b83359250602084013567ffffffffffffffff808211156129a5578384fd5b818601915086601f8301126129b8578384fd5b8135818111156129c6578485fd5b87602080830285010111156129d9578485fd5b6020830194508093505050509250925092565b600080604083850312156129fe578182fd5b50508035926020909101359150565b600080600060608486031215612a21578283fd5b505081359360208301359350604090920135919050565b600160a060020a039384168152919092166020820152604081019190915260600190565b602080825282518282018190526000919060409081850190868401855b82811015612ad55781518051855286810151600160a060020a0390811688870152868201511686860152606080820151908601526080808201519086015260a09081015115159085015260c09093019290850190600101612a79565b5091979650505050505050565b6020808252825182820181905260009190848201906040850190845b81811015612b1a57835183529284019291840191600101612afe565b50909695505050505050565b60208082526034908201527f456e6420426c6f636b204e756d626572206d757374206269676765722074686160408201527f6e20537461727420426c6f636b204e756d626572000000000000000000000000606082015260800190565b6020808252818101527f4f776e61626c653a2063616c6c6572206973206e6f7420746865206f776e6572604082015260600190565b60008219821115612bcb57612bcb612c5b565b500190565b600082612bee5760e060020a634e487b710281526012600452602481fd5b500490565b6000816000190483118215151615612c0d57612c0d612c5b565b500290565b600082821015612c2457612c24612c5b565b500390565b600081612c3857612c38612c5b565b506000190190565b6000600019821415612c5457612c54612c5b565b5060010190565b60e060020a634e487b7102600052601160045260246000fd5b600160a060020a03811681146125fb57600080fd5b80151581146125fb57600080fdfea2646970667358221220690d85b6cae73108b857a060171475060bdddd7dfa6c1cbf777a6c720a8e87ad64736f6c63430008040033",
  "immutableReferences": {},
  "source": "// SPDX-License-Identifier: MIT\r\npragma solidity ^0.8.4;\r\nimport \"@openzeppelin/contracts/utils/Counters.sol\";\r\nimport \"@openzeppelin/contracts/token/ERC721/ERC721.sol\";\r\nimport \"@openzeppelin/contracts/security/ReentrancyGuard.sol\";\r\nimport \"@openzeppelin/contracts/access/Ownable.sol\";\r\nimport \"./interfaces/IGolToken.sol\";\r\n\r\ncontract Staking is ReentrancyGuard, Ownable {\r\n    using Counters for Counters.Counter;\r\n\r\n    bool public isStakingAvailable;\r\n    uint256 public golPerBlock;\r\n    uint256 public totalAllocPoint;\r\n    uint256 public totalAmountDepositedPool;\r\n    uint256 public startBlock;\r\n    uint256 public endBlock;\r\n\r\n    struct StakingItem {\r\n        uint256 itemId;\r\n        address contractAddress;\r\n        address owner;\r\n        uint256 tokenId;\r\n        uint256 poolId;\r\n        bool isEnded;\r\n    }\r\n\r\n    struct PoolInfo {\r\n        address contractAddress;\r\n        uint256 allocPoint;\r\n        uint256 golPower;\r\n        uint256 maxStakeCount;\r\n        uint256 stakedCount;\r\n        uint256[] tokenIds;\r\n    }\r\n\r\n    struct UserInfo {\r\n        bool isStaked;\r\n        uint256 pendingGol;\r\n        uint256 userGolPower;\r\n        uint256 stakedCount;\r\n        uint256 lastHarvestBlock;\r\n    }\r\n\r\n    mapping(uint256 => PoolInfo) public pools;\r\n    mapping(uint256 => StakingItem) public items;\r\n    mapping(address => uint256) public poolIdOfContract;\r\n    mapping(address => mapping(uint256 => UserInfo)) public userInfo;\r\n    mapping(uint256 => mapping(uint256 => bool)) public whitelistedTokenIds;\r\n    mapping(uint256 => address[]) public stakedUsers;\r\n\r\n    Counters.Counter public stakingPoolCount;\r\n    Counters.Counter public stakingItemCount;\r\n\r\n    IGolToken golToken;\r\n\r\n    event StakingItemCreated(\r\n        uint256 itemId,\r\n        address indexed nftContract,\r\n        address indexed owner,\r\n        uint256 tokenId\r\n    );\r\n\r\n    event Harvest(uint256 itemId, address indexed owner, uint256 amount);\r\n\r\n    constructor(IGolToken _golToken) {\r\n        golToken = _golToken;\r\n        totalAllocPoint = 0;\r\n        golPerBlock = 0;\r\n        totalAmountDepositedPool = 0;\r\n        isStakingAvailable = false;\r\n    }\r\n\r\n    function depositGolToPool(\r\n        uint256 _totalAmountDepositedPool,\r\n        uint256 _startBlock,\r\n        uint256 _endBlock\r\n    ) public onlyOwner {\r\n        require(\r\n            golToken.balanceOf(owner()) >= _totalAmountDepositedPool * 10**18,\r\n            \"insufficient GOL amount to Deposit\"\r\n        );\r\n        require(_endBlock > block.number, \"End Block must bigger than now\");\r\n        require(\r\n            _endBlock > _startBlock,\r\n            \"End Block Number must bigger than Start Block Number\"\r\n        );\r\n        golToken.transferFrom(\r\n            owner(),\r\n            address(this),\r\n            _totalAmountDepositedPool * 10**18\r\n        );\r\n\r\n        totalAmountDepositedPool = _totalAmountDepositedPool * 10**6;\r\n        startBlock = _startBlock;\r\n        endBlock = _endBlock;\r\n        golPerBlock = totalAmountDepositedPool / (_endBlock - _startBlock);\r\n        isStakingAvailable = true;\r\n    }\r\n\r\n    function addGolReward(uint256 _amountReward) public onlyOwner {\r\n        require(\r\n            golToken.balanceOf(owner()) >= _amountReward * 10**18,\r\n            \"insufficient Gol amount to Deposit\"\r\n        );\r\n\r\n        uint256 paidReward = 0;\r\n        for (uint256 i = 1; i <= stakingPoolCount.current(); i++) {\r\n            for (uint256 j = 0; j < stakedUsers[i].length; j++) {\r\n                _updateUserInfo(i, stakedUsers[i][j]);\r\n                paidReward += userInfo[stakedUsers[i][j]][i].pendingGol;\r\n            }\r\n        }\r\n\r\n        golToken.transferFrom(owner(), address(this), _amountReward * 10**18);\r\n\r\n        uint256 remainReward = totalAmountDepositedPool - paidReward;\r\n        remainReward += _amountReward * 10**6;\r\n        golPerBlock = remainReward / (endBlock - block.number);\r\n        totalAmountDepositedPool += _amountReward * 10**6;\r\n    }\r\n\r\n    function setPeriod(uint256 _startBlock, uint256 _endBlock)\r\n        public\r\n        onlyOwner\r\n    {\r\n        require(_endBlock > block.number, \"End Block must bigger than now\");\r\n        require(\r\n            _endBlock > _startBlock,\r\n            \"End Block Number must bigger than Start Block Number\"\r\n        );\r\n\r\n        uint256 paidReward = 0;\r\n        for (uint256 i = 1; i <= stakingPoolCount.current(); i++) {\r\n            for (uint256 j = 0; j < stakedUsers[i].length; j++) {\r\n                _updateUserInfo(i, stakedUsers[i][j]);\r\n                paidReward += userInfo[stakedUsers[i][j]][i].pendingGol;\r\n            }\r\n        }\r\n\r\n        uint256 tmpBlockNumber = _startBlock;\r\n        if (block.number > _startBlock || block.number > startBlock)\r\n            tmpBlockNumber = block.number;\r\n\r\n        uint256 remainReward = totalAmountDepositedPool - paidReward;\r\n\r\n        golPerBlock = remainReward / (_endBlock - tmpBlockNumber);\r\n\r\n        startBlock = _startBlock;\r\n        endBlock = _endBlock;\r\n    }\r\n\r\n    function setIsStakingAvailable(bool _isStakingAvailable) public onlyOwner {\r\n        isStakingAvailable = _isStakingAvailable;\r\n    }\r\n\r\n    function addPool(\r\n        address _contractAddress,\r\n        uint256 _allocPoint,\r\n        uint256 _golPower,\r\n        uint256 _maxStakeCount\r\n    ) public onlyOwner {\r\n        require(\r\n            startBlock != 0 && endBlock != 0,\r\n            \"Reward Token not deposited yet!\"\r\n        );\r\n        stakingPoolCount.increment();\r\n        uint256 poolId = stakingPoolCount.current();\r\n        uint256[] memory tokenIds;\r\n        pools[poolId] = PoolInfo(\r\n            _contractAddress,\r\n            _allocPoint,\r\n            _golPower,\r\n            _maxStakeCount,\r\n            0,\r\n            tokenIds\r\n        );\r\n\r\n        poolIdOfContract[_contractAddress] = poolId;\r\n\r\n        totalAllocPoint = totalAllocPoint + _allocPoint;\r\n    }\r\n\r\n    function setPoolIdOfContract(address _contractAddress, uint256 _poolId)\r\n        public\r\n        onlyOwner\r\n    {\r\n        poolIdOfContract[_contractAddress] = _poolId;\r\n    }\r\n\r\n    function setStakedCount(uint256 _poolId, uint256 _stakedCount)\r\n        public\r\n        onlyOwner\r\n    {\r\n        pools[_poolId].stakedCount = _stakedCount;\r\n    }\r\n\r\n    function updatePool(\r\n        uint256 _poolId,\r\n        address _contractAddress,\r\n        uint256 _allocPoint,\r\n        uint256 _golPower,\r\n        uint256 _maxStakeCount\r\n    ) public onlyOwner {\r\n        require(_poolId <= stakingPoolCount.current(), \"invalid poolId\");\r\n\r\n        totalAllocPoint = totalAllocPoint - pools[_poolId].allocPoint;\r\n\r\n        pools[_poolId] = PoolInfo(\r\n            _contractAddress,\r\n            _allocPoint,\r\n            _golPower,\r\n            _maxStakeCount,\r\n            pools[_poolId].stakedCount,\r\n            pools[_poolId].tokenIds\r\n        );\r\n\r\n        poolIdOfContract[_contractAddress] = _poolId;\r\n\r\n        totalAllocPoint = totalAllocPoint + _allocPoint;\r\n    }\r\n\r\n    function setTokenIds(uint256 _poolId, uint256[] calldata _tokenIds)\r\n        public\r\n        onlyOwner\r\n    {\r\n        PoolInfo storage _pool = pools[_poolId];\r\n\r\n        for (uint256 i = 0; i < _pool.tokenIds.length; i++) {\r\n            whitelistedTokenIds[_poolId][_pool.tokenIds[i]] = false;\r\n        }\r\n\r\n        for (uint256 i = 0; i < _tokenIds.length; i++) {\r\n            whitelistedTokenIds[_poolId][_tokenIds[i]] = true;\r\n        }\r\n\r\n        _pool.tokenIds = _tokenIds;\r\n    }\r\n\r\n    modifier isValid(\r\n        address _msgSender,\r\n        address _contractAddress,\r\n        uint256 _tokenId\r\n    ) {\r\n        require(\r\n            IERC721(_contractAddress).ownerOf(_tokenId) == _msgSender,\r\n            \"not owner\"\r\n        );\r\n        _;\r\n    }\r\n\r\n    function _updateUserInfo(uint256 _poolId, address _owner) internal {\r\n        uint256 tmpEndBlock = 0;\r\n        if (block.number > endBlock) tmpEndBlock = endBlock;\r\n        else tmpEndBlock = block.number;\r\n        uint256 totalGolPower = pools[_poolId].stakedCount *\r\n            pools[_poolId].golPower;\r\n\r\n        UserInfo storage _userInfo = userInfo[_owner][_poolId];\r\n        if (totalGolPower != 0 && _userInfo.lastHarvestBlock != 0)\r\n            _userInfo.pendingGol +=\r\n                (((golPerBlock *\r\n                    (tmpEndBlock - _userInfo.lastHarvestBlock) *\r\n                    pools[_poolId].allocPoint) / totalAllocPoint) *\r\n                    _userInfo.userGolPower) /\r\n                totalGolPower;\r\n        _userInfo.lastHarvestBlock = tmpEndBlock;\r\n    }\r\n\r\n    function stake(address _nftContract, uint256 _tokenId)\r\n        public\r\n        nonReentrant\r\n        isValid(msg.sender, _nftContract, _tokenId)\r\n    {\r\n        uint256 poolId = poolIdOfContract[_nftContract];\r\n\r\n        require(\r\n            block.number >= startBlock &&\r\n                block.number <= endBlock &&\r\n                isStakingAvailable == true,\r\n            \"Staking is not started!\"\r\n        );\r\n        require(poolId != 0, \"There is no Contract Address in Pool\");\r\n        require(\r\n            userInfo[msg.sender][poolId].stakedCount <\r\n                pools[poolId].maxStakeCount,\r\n            \"Overflow of Max Staking Count\"\r\n        );\r\n        require(\r\n            pools[poolId].tokenIds.length == 0 ||\r\n                whitelistedTokenIds[poolId][_tokenId] == true,\r\n            \"This token is not whitelisted!\"\r\n        );\r\n\r\n        if (userInfo[msg.sender][poolId].isStaked == false) {\r\n            stakedUsers[poolId].push(msg.sender);\r\n        }\r\n\r\n        _updateUserInfo(poolId, msg.sender);\r\n\r\n        stakingItemCount.increment();\r\n        uint256 itemId = stakingItemCount.current();\r\n\r\n        items[itemId] = StakingItem(\r\n            itemId,\r\n            _nftContract,\r\n            msg.sender,\r\n            _tokenId,\r\n            poolId,\r\n            false\r\n        );\r\n\r\n        IERC721(_nftContract).transferFrom(msg.sender, address(this), _tokenId);\r\n\r\n        pools[poolId].stakedCount++;\r\n        userInfo[msg.sender][poolId].stakedCount++;\r\n        userInfo[msg.sender][poolId].userGolPower += pools[poolId].golPower;\r\n        userInfo[msg.sender][poolId].isStaked = true;\r\n        emit StakingItemCreated(itemId, _nftContract, msg.sender, _tokenId);\r\n    }\r\n\r\n    function harvest(uint256 _poolId) public {\r\n        _updateUserInfo(_poolId, msg.sender);\r\n        uint256 userPendingGol = userInfo[msg.sender][_poolId].pendingGol;\r\n\r\n        require(\r\n            golToken.balanceOf(address(this)) >= userPendingGol * 10**12,\r\n            \"insufficient GOL amount to Harvest\"\r\n        );\r\n\r\n        golToken.transfer(msg.sender, userPendingGol * 10**12);\r\n\r\n        userInfo[msg.sender][_poolId].pendingGol = 0;\r\n    }\r\n\r\n    function getPendingGol(uint256 _poolId, address _owner)\r\n        public\r\n        view\r\n        returns (uint256)\r\n    {\r\n        uint256 tmpEndBlock = 0;\r\n        uint256 totalGolPower = pools[_poolId].stakedCount *\r\n            pools[_poolId].golPower;\r\n        UserInfo storage _userInfo = userInfo[_owner][_poolId];\r\n\r\n        if (block.number > endBlock) tmpEndBlock = endBlock;\r\n        else tmpEndBlock = block.number;\r\n\r\n        uint256 amount = 0;\r\n        if (totalGolPower != 0)\r\n            amount =\r\n                (((golPerBlock *\r\n                    (tmpEndBlock - _userInfo.lastHarvestBlock) *\r\n                    pools[_poolId].allocPoint) / totalAllocPoint) *\r\n                    _userInfo.userGolPower) /\r\n                totalGolPower;\r\n        amount += _userInfo.pendingGol;\r\n        return amount;\r\n    }\r\n\r\n    function getWhitelistedTokenIds(uint256 _poolId)\r\n        public\r\n        view\r\n        returns (uint256[] memory)\r\n    {\r\n        return pools[_poolId].tokenIds;\r\n    }\r\n\r\n    function getStakedItems(address _owner)\r\n        public\r\n        view\r\n        returns (StakingItem[] memory)\r\n    {\r\n        uint256 totalItemCount = stakingItemCount.current();\r\n        uint256 itemCount = 0;\r\n        uint256 currentIndex = 0;\r\n\r\n        for (uint256 i = 1; i <= totalItemCount; i++) {\r\n            if (_owner == items[i].owner && items[i].isEnded == false) {\r\n                itemCount += 1;\r\n            }\r\n        }\r\n\r\n        StakingItem[] memory stakedItems = new StakingItem[](itemCount);\r\n\r\n        for (uint256 i = 1; i <= totalItemCount; i++) {\r\n            if (_owner == items[i].owner && items[i].isEnded == false) {\r\n                StakingItem storage currentItem = items[i];\r\n                stakedItems[currentIndex] = currentItem;\r\n                currentIndex += 1;\r\n            }\r\n        }\r\n\r\n        return stakedItems;\r\n    }\r\n\r\n    function getBlockNumber() public view returns (uint256) {\r\n        return block.number;\r\n    }\r\n\r\n    function getTotalGolPower(uint256 _poolId) public view returns (uint256) {\r\n        uint256 totalGolPower = pools[_poolId].stakedCount *\r\n            pools[_poolId].golPower;\r\n        return totalGolPower;\r\n    }\r\n\r\n    function getMyGolPower(uint256 _poolId, address _owner)\r\n        public\r\n        view\r\n        returns (uint256)\r\n    {\r\n        return userInfo[_owner][_poolId].userGolPower;\r\n    }\r\n\r\n    function getDailyGolRate(uint256 _poolId) public view returns (uint256) {\r\n        uint256 totalGolPower = getTotalGolPower(_poolId);\r\n        uint256 dailyRate = 0;\r\n        if (totalGolPower != 0)\r\n            dailyRate =\r\n                (((golPerBlock * 20 * 60 * 24 * 100) / totalGolPower) *\r\n                    pools[_poolId].allocPoint) /\r\n                totalAllocPoint;\r\n        return dailyRate;\r\n    }\r\n\r\n    function unstake(uint256 _itemId) public {\r\n        StakingItem storage item = items[_itemId];\r\n\r\n        require(item.owner == msg.sender, \"you are not owner\");\r\n        require(\r\n            item.isEnded == false,\r\n            \"This Staking Item was unstaked already!\"\r\n        );\r\n\r\n        _updateUserInfo(item.poolId, msg.sender);\r\n        harvest(item.poolId);\r\n\r\n        IERC721(item.contractAddress).transferFrom(\r\n            address(this),\r\n            msg.sender,\r\n            item.tokenId\r\n        );\r\n        item.isEnded = true;\r\n        pools[item.poolId].stakedCount--;\r\n        userInfo[msg.sender][item.poolId].userGolPower -= pools[item.poolId]\r\n            .golPower;\r\n        userInfo[msg.sender][item.poolId].stakedCount--;\r\n    }\r\n\r\n    function withdraw() public onlyOwner {\r\n        require(block.number > endBlock, \"Staking is not finished\");\r\n        uint256 remainBalance = golToken.balanceOf(address(this));\r\n        golToken.transfer(owner(), remainBalance);\r\n        isStakingAvailable = false;\r\n    }\r\n}\r\n",
  "sourcePath": "E:\\Git for Project\\Ethereum\\NFT\\GolFinance\\gol-staking-contracts\\contracts\\Staking.sol",
  "compiler": {
    "name": "solc",
    "version": "0.8.4+commit.c7e474f2.Emscripten.clang"
  },
  "schemaVersion": "3.4.5",
  "updatedAt": "2022-04-20T15:42:28.020Z",
  "devdoc": {
    "kind": "dev",
    "methods": {
      "owner()": {
        "details": "Returns the address of the current owner."
      },
      "renounceOwnership()": {
        "details": "Leaves the contract without owner. It will not be possible to call `onlyOwner` functions anymore. Can only be called by the current owner. NOTE: Renouncing ownership will leave the contract without an owner, thereby removing any functionality that is only available to the owner."
      },
      "transferOwnership(address)": {
        "details": "Transfers ownership of the contract to a new account (`newOwner`). Can only be called by the current owner."
      }
    },
    "version": 1
  },
  "userdoc": {
    "kind": "user",
    "methods": {},
    "version": 1
  }
}