{
  "contractName": "Training",
  "abi": [
    {
      "inputs": [
        {
          "internalType": "contract IGolToken",
          "name": "_golToken",
          "type": "address"
        },
        {
          "internalType": "contract INonFungiblePlayer",
          "name": "_nonFungiblePlayer",
          "type": "address"
        },
        {
          "internalType": "address",
          "name": "_ownerAddr",
          "type": "address"
        }
      ],
      "stateMutability": "nonpayable",
      "type": "constructor"
    },
    {
      "anonymous": false,
      "inputs": [
        {
          "indexed": true,
          "internalType": "address",
          "name": "previousOwner",
          "type": "address"
        },
        {
          "indexed": true,
          "internalType": "address",
          "name": "newOwner",
          "type": "address"
        }
      ],
      "name": "OwnershipTransferred",
      "type": "event"
    },
    {
      "inputs": [
        {
          "internalType": "address",
          "name": "",
          "type": "address"
        }
      ],
      "name": "countStakedNfps",
      "outputs": [
        {
          "internalType": "uint256",
          "name": "",
          "type": "uint256"
        }
      ],
      "stateMutability": "view",
      "type": "function"
    },
    {
      "inputs": [],
      "name": "maxStakedBlock",
      "outputs": [
        {
          "internalType": "uint256",
          "name": "",
          "type": "uint256"
        }
      ],
      "stateMutability": "view",
      "type": "function"
    },
    {
      "inputs": [],
      "name": "owner",
      "outputs": [
        {
          "internalType": "address",
          "name": "",
          "type": "address"
        }
      ],
      "stateMutability": "view",
      "type": "function"
    },
    {
      "inputs": [],
      "name": "renounceOwnership",
      "outputs": [],
      "stateMutability": "nonpayable",
      "type": "function"
    },
    {
      "inputs": [
        {
          "internalType": "uint256",
          "name": "",
          "type": "uint256"
        }
      ],
      "name": "stakedNfps",
      "outputs": [
        {
          "internalType": "uint256",
          "name": "tokenId",
          "type": "uint256"
        },
        {
          "internalType": "uint256",
          "name": "startBlock",
          "type": "uint256"
        },
        {
          "internalType": "address",
          "name": "owner",
          "type": "address"
        },
        {
          "internalType": "bool",
          "name": "isEnded",
          "type": "bool"
        }
      ],
      "stateMutability": "view",
      "type": "function"
    },
    {
      "inputs": [],
      "name": "stakingNfpCount",
      "outputs": [
        {
          "internalType": "uint256",
          "name": "_value",
          "type": "uint256"
        }
      ],
      "stateMutability": "view",
      "type": "function"
    },
    {
      "inputs": [
        {
          "internalType": "address",
          "name": "",
          "type": "address"
        }
      ],
      "name": "trainingLevel",
      "outputs": [
        {
          "internalType": "uint256",
          "name": "",
          "type": "uint256"
        }
      ],
      "stateMutability": "view",
      "type": "function"
    },
    {
      "inputs": [
        {
          "internalType": "address",
          "name": "newOwner",
          "type": "address"
        }
      ],
      "name": "transferOwnership",
      "outputs": [],
      "stateMutability": "nonpayable",
      "type": "function"
    },
    {
      "inputs": [],
      "name": "updateLevelFee",
      "outputs": [
        {
          "internalType": "uint256",
          "name": "",
          "type": "uint256"
        }
      ],
      "stateMutability": "view",
      "type": "function"
    },
    {
      "inputs": [],
      "name": "updateTrainingLevelFee",
      "outputs": [
        {
          "internalType": "uint256",
          "name": "",
          "type": "uint256"
        }
      ],
      "stateMutability": "view",
      "type": "function"
    },
    {
      "inputs": [
        {
          "internalType": "address",
          "name": "_ownerAddr",
          "type": "address"
        }
      ],
      "name": "setOwnerAddr",
      "outputs": [],
      "stateMutability": "nonpayable",
      "type": "function"
    },
    {
      "inputs": [
        {
          "internalType": "uint256",
          "name": "_updateTrainingLevelFee",
          "type": "uint256"
        }
      ],
      "name": "setUpdateTrainingLevelFee",
      "outputs": [],
      "stateMutability": "nonpayable",
      "type": "function"
    },
    {
      "inputs": [
        {
          "internalType": "uint256",
          "name": "_updateLevelFee",
          "type": "uint256"
        }
      ],
      "name": "setUpdateLevelFee",
      "outputs": [],
      "stateMutability": "nonpayable",
      "type": "function"
    },
    {
      "inputs": [
        {
          "internalType": "uint256",
          "name": "_tokenId",
          "type": "uint256"
        }
      ],
      "name": "stakeNfpToTrain",
      "outputs": [],
      "stateMutability": "nonpayable",
      "type": "function"
    },
    {
      "inputs": [
        {
          "internalType": "uint256",
          "name": "_itemId",
          "type": "uint256"
        }
      ],
      "name": "unStakeNfpFromTrain",
      "outputs": [],
      "stateMutability": "nonpayable",
      "type": "function"
    },
    {
      "inputs": [],
      "name": "updateTrainingLevel",
      "outputs": [],
      "stateMutability": "nonpayable",
      "type": "function"
    }
  ],
  "bytecode": "0x60806040523480156200001157600080fd5b506040516200146a3803806200146a8339810160408190526200003491620000fd565b6200005a6200004b640100000000620000a9810204565b640100000000620000ad810204565b60098054600160a060020a03948516600160a060020a03199182161790915560088054938516938216939093179092556257e40060015560646002556004805491909316911617905562000169565b3390565b60008054600160a060020a03838116600160a060020a0319831681178455604051919092169283917f8be0079c531659141344cd1fd0a4f28419497f9722a3daafe3b4186f6b6457e09190a35050565b60008060006060848603121562000112578283fd5b83516200011f8162000150565b6020850151909350620001328162000150565b6040850151909250620001458162000150565b809150509250925092565b600160a060020a03811681146200016657600080fd5b50565b6112f180620001796000396000f3fe608060405234801561001057600080fd5b506004361061011d576000357c01000000000000000000000000000000000000000000000000000000009004806393ddc2a3116100b4578063e074278d11610083578063e074278d14610200578063ee1eceac14610213578063f2fde38b14610226578063fb2fd5d21461023957600080fd5b806393ddc2a3146101d2578063cd0d9331146101e5578063ddec00b8146101ed578063df252da7146101f657600080fd5b8063715018a6116100f0578063715018a614610186578063841f5b4d1461018e57806388d76409146101ae5780638da5cb5b146101b757600080fd5b8063564c5e94146101225780635aceb7771461013757806362fd78b71461014a57806368151a4a1461017d575b600080fd5b610135610130366004611159565b6102bf565b005b610135610145366004611159565b6102fa565b61016a6101583660046110fa565b60066020526000908152604090205481565b6040519081526020015b60405180910390f35b61016a60035481565b6101356105e3565b61016a61019c3660046110fa565b60076020526000908152604090205481565b61016a60015481565b600054604051600160a060020a039091168152602001610174565b6101356101e0366004611159565b61061c565b610135610ce0565b61016a60025481565b600a5461016a9081565b61013561020e3660046110fa565b610f57565b610135610221366004611159565b610fb3565b6101356102343660046110fa565b610fe5565b61028e610247366004611159565b600560205260009081526040902080546001820154600290920154909190600160a060020a0381169074010000000000000000000000000000000000000000900460ff1684565b60405161017494939291909384526020840192909252600160a060020a031660408301521515606082015260800190565b600054600160a060020a031633146102f55760405160e560020a62461bcd0281526004016102ec90611189565b60405180910390fd5b600255565b6008546040517f6352211e00000000000000000000000000000000000000000000000000000000815260048101839052600160a060020a0390911690636352211e9060240160206040518083038186803b15801561035757600080fd5b505afa15801561036b573d6000803e3d6000fd5b505050506040513d601f19601f8201168201806040525081019061038f919061111d565b600160a060020a031633600160a060020a0316146103f25760405160e560020a62461bcd02815260206004820152601860248201527f596f7520617265206e6f74206f776e6572206f66204e4650000000000000000060448201526064016102ec565b3360009081526006602052604090205461040d9060016111be565b3360009081526007602052604090205411156104945760405160e560020a62461bcd02815260206004820152603160248201527f5374616b656420416d6f756e74206973206c696d6974656420666f722074686960448201527f7320747261696e696e67204c6576656c2100000000000000000000000000000060648201526084016102ec565b6008546040517f23b872dd00000000000000000000000000000000000000000000000000000000815233600482015230602482015260448101839052600160a060020a03909116906323b872dd90606401600060405180830381600087803b1580156104ff57600080fd5b505af1158015610513573d6000803e3d6000fd5b50505050610525600a80546001019055565b6000610530600a5490565b604080516080810182528481524360208083019182523383850181815260006060860181815288825260058552878220965187559451600187015590516002909501805494511515740100000000000000000000000000000000000000000274ffffffffffffffffffffffffffffffffffffffffff19909516600160a060020a0396909616959095179390931790935591815260079091529081208054929350906105da8361125c565b91905055505050565b600054600160a060020a031633146106105760405160e560020a62461bcd0281526004016102ec90611189565b61061a600061109d565b565b600081815260056020526040902060020154600160a060020a031633146106885760405160e560020a62461bcd02815260206004820152601e60248201527f596f7520617265206e6f74206f776e6572206f662074686973204e465021000060448201526064016102ec565b60008181526005602052604090206002015474010000000000000000000000000000000000000000900460ff16156107055760405160e560020a62461bcd02815260206004820152601d60248201527f54686973204e465020697320756e7374616b656420616c72656164792100000060448201526064016102ec565b60018054600083815260056020526040812090920154610725904361122e565b610733906305f45a6061120f565b61073d91906111d6565b6008546000848152600560205260408082205490517fdb3843c6000000000000000000000000000000000000000000000000000000008152600481019190915292935091600160a060020a039091169063db3843c69060240160206040518083038186803b1580156107ae57600080fd5b505afa1580156107c2573d6000803e3d6000fd5b505050506040513d601f19601f820116820180604052508101906107e69190611171565b90506305f45a606107f783836111be565b111561080857506305f45a60610815565b61081282826111be565b90505b610822620186a0826111d6565b600854600085815260056020526040908190205490517fe36db2fb000000000000000000000000000000000000000000000000000000008152600481019190915260248101839052919250600160a060020a03169063e36db2fb90604401600060405180830381600087803b15801561089a57600080fd5b505af11580156108ae573d6000803e3d6000fd5b505050506000600a826108c191906111d6565b6008546000868152600560205260408082205490517f56e3df97000000000000000000000000000000000000000000000000000000008152600481019190915292935091600160a060020a03909116906356e3df979060240160206040518083038186803b15801561093257600080fd5b505afa158015610946573d6000803e3d6000fd5b505050506040513d601f19601f8201168201806040525081019061096a9190611171565b9050600161097882826111be565b61098390600a61120f565b61098d919061122e565b8211156109b85760016109a082826111be565b6109ab90600a61120f565b6109b5919061122e565b91505b600854600086815260056020526040908190205490517f70a93b36000000000000000000000000000000000000000000000000000000008152600160a060020a03909216916370a93b3691610a1a918690600401918252602082015260400190565b600060405180830381600087803b158015610a3457600080fd5b505af1158015610a48573d6000803e3d6000fd5b505050506019821015610b06576008546000868152600560205260409081902054905160e260020a632289b53b028152600160a060020a0390921691638a26d4ec91610acf916004019081526040602082018190526006908201527f526f6f6b69650000000000000000000000000000000000000000000000000000606082015260800190565b600060405180830381600087803b158015610ae957600080fd5b505af1158015610afd573d6000803e3d6000fd5b50505050610cb9565b6032821015610b89576008546000868152600560205260409081902054905160e260020a632289b53b028152600160a060020a0390921691638a26d4ec91610acf916004019081526040602082018190526007908201527f416d617465757200000000000000000000000000000000000000000000000000606082015260800190565b604b821015610c0c576008546000868152600560205260409081902054905160e260020a632289b53b028152600160a060020a0390921691638a26d4ec91610acf916004019081526040602082018190526003908201527f50726f0000000000000000000000000000000000000000000000000000000000606082015260800190565b6008546000868152600560205260409081902054905160e260020a632289b53b028152600160a060020a0390921691638a26d4ec91610c86916004019081526040602082018190526003908201527f50726f0000000000000000000000000000000000000000000000000000000000606082015260800190565b600060405180830381600087803b158015610ca057600080fd5b505af1158015610cb4573d6000803e3d6000fd5b505050505b336000908152600760205260408120805491610cd483611245565b91905055505050505050565b336000908152600660205260409020546103e71015610d6a5760405160e560020a62461bcd02815260206004820152602260248201527f596f7520617265206d6178206c6576656c206f6620747261696e696e6720436160448201527f6d7000000000000000000000000000000000000000000000000000000000000060648201526084016102ec565b600254610d7f90670de0b6b3a764000061120f565b6009546040517f70a08231000000000000000000000000000000000000000000000000000000008152336004820152600160a060020a03909116906370a082319060240160206040518083038186803b158015610ddb57600080fd5b505afa158015610def573d6000803e3d6000fd5b505050506040513d601f19601f82011682018060405250810190610e139190611171565b1015610e645760405160e560020a62461bcd02815260206004820181905260248201527f496e737566696369656e742042616c616e6365206f6620476f6c20546f6b656e60448201526064016102ec565b600954600454600254600160a060020a03928316926323b872dd923392911690610e9690670de0b6b3a764000061120f565b6040517c010000000000000000000000000000000000000000000000000000000063ffffffff8616028152600160a060020a0393841660048201529290911660248301526044820152606401602060405180830381600087803b158015610efc57600080fd5b505af1158015610f10573d6000803e3d6000fd5b505050506040513d601f19601f82011682018060405250810190610f349190611139565b50336000908152600660205260408120805491610f508361125c565b9190505550565b600054600160a060020a03163314610f845760405160e560020a62461bcd0281526004016102ec90611189565b6004805473ffffffffffffffffffffffffffffffffffffffff1916600160a060020a0392909216919091179055565b600054600160a060020a03163314610fe05760405160e560020a62461bcd0281526004016102ec90611189565b600355565b600054600160a060020a031633146110125760405160e560020a62461bcd0281526004016102ec90611189565b600160a060020a0381166110915760405160e560020a62461bcd02815260206004820152602660248201527f4f776e61626c653a206e6577206f776e657220697320746865207a65726f206160448201527f646472657373000000000000000000000000000000000000000000000000000060648201526084016102ec565b61109a8161109d565b50565b60008054600160a060020a0383811673ffffffffffffffffffffffffffffffffffffffff19831681178455604051919092169283917f8be0079c531659141344cd1fd0a4f28419497f9722a3daafe3b4186f6b6457e09190a35050565b60006020828403121561110b578081fd5b8135611116816112a6565b9392505050565b60006020828403121561112e578081fd5b8151611116816112a6565b60006020828403121561114a578081fd5b81518015158114611116578182fd5b60006020828403121561116a578081fd5b5035919050565b600060208284031215611182578081fd5b5051919050565b6020808252818101527f4f776e61626c653a2063616c6c6572206973206e6f7420746865206f776e6572604082015260600190565b600082198211156111d1576111d1611277565b500190565b60008261120a577f4e487b710000000000000000000000000000000000000000000000000000000081526012600452602481fd5b500490565b600081600019048311821515161561122957611229611277565b500290565b60008282101561124057611240611277565b500390565b60008161125457611254611277565b506000190190565b600060001982141561127057611270611277565b5060010190565b7f4e487b7100000000000000000000000000000000000000000000000000000000600052601160045260246000fd5b600160a060020a038116811461109a57600080fdfea2646970667358221220e5690159d840bd7139bf5c6b5697f4c3e72580016015a60e5febcede54db99c164736f6c63430008040033",
  "immutableReferences": {},
  "source": "// SPDX-License-Identifier: MIT\r\npragma solidity ^0.8.4;\r\nimport \"@openzeppelin/contracts/utils/Counters.sol\";\r\nimport \"@openzeppelin/contracts/token/ERC721/ERC721.sol\";\r\nimport \"@openzeppelin/contracts/security/ReentrancyGuard.sol\";\r\nimport \"@openzeppelin/contracts/access/Ownable.sol\";\r\nimport \"./interfaces/IGolToken.sol\";\r\nimport \"./interfaces/INonFungiblePlayer.sol\";\r\n\r\ncontract Training is Ownable {\r\n    using Counters for Counters.Counter;\r\n\r\n    uint256 public maxStakedBlock;\r\n    uint256 public updateTrainingLevelFee;\r\n    uint256 public updateLevelFee;\r\n\r\n    address private ownerAddr;\r\n\r\n    struct stakedNfp {\r\n        uint256 tokenId;\r\n        uint256 startBlock;\r\n        address owner;\r\n        bool isEnded;\r\n    }\r\n\r\n    mapping(uint256 => stakedNfp) public stakedNfps;\r\n\r\n    mapping(address => uint256) public trainingLevel;\r\n    mapping(address => uint256) public countStakedNfps;\r\n\r\n    INonFungiblePlayer private nonFungiblePlayer;\r\n    IGolToken private golToken;\r\n\r\n    Counters.Counter public stakingNfpCount;\r\n\r\n    constructor(\r\n        IGolToken _golToken,\r\n        INonFungiblePlayer _nonFungiblePlayer,\r\n        address _ownerAddr\r\n    ) {\r\n        golToken = _golToken;\r\n        nonFungiblePlayer = _nonFungiblePlayer;\r\n        maxStakedBlock = 5760000;\r\n        updateTrainingLevelFee = 100;\r\n        ownerAddr = _ownerAddr;\r\n    }\r\n\r\n    function setOwnerAddr(address _ownerAddr) public onlyOwner {\r\n        ownerAddr = _ownerAddr;\r\n    }\r\n\r\n    function setUpdateTrainingLevelFee(uint256 _updateTrainingLevelFee)\r\n        public\r\n        onlyOwner\r\n    {\r\n        updateTrainingLevelFee = _updateTrainingLevelFee;\r\n    }\r\n\r\n    function setUpdateLevelFee(uint256 _updateLevelFee) public onlyOwner {\r\n        updateLevelFee = _updateLevelFee;\r\n    }\r\n\r\n    function stakeNfpToTrain(uint256 _tokenId) public {\r\n        require(\r\n            msg.sender == nonFungiblePlayer.ownerOf(_tokenId),\r\n            \"You are not owner of NFP\"\r\n        );\r\n        require(\r\n            countStakedNfps[msg.sender] <= trainingLevel[msg.sender] + 1,\r\n            \"Staked Amount is limited for this training Level!\"\r\n        );\r\n\r\n        nonFungiblePlayer.transferFrom(msg.sender, address(this), _tokenId);\r\n        stakingNfpCount.increment();\r\n        uint256 itemId = stakingNfpCount.current();\r\n\r\n        stakedNfps[itemId] = stakedNfp(\r\n            _tokenId,\r\n            block.number,\r\n            msg.sender,\r\n            false\r\n        );\r\n        countStakedNfps[msg.sender]++;\r\n    }\r\n\r\n    function unStakeNfpFromTrain(uint256 _itemId) public {\r\n        require(\r\n            msg.sender == stakedNfps[_itemId].owner,\r\n            \"You are not owner of this NFP!\"\r\n        );\r\n        require(\r\n            stakedNfps[_itemId].isEnded == false,\r\n            \"This NFP is unstaked already!\"\r\n        );\r\n\r\n        uint256 upgradableSP = (99900000 *\r\n            (block.number - stakedNfps[_itemId].startBlock)) / maxStakedBlock;\r\n        uint256 currentSP = nonFungiblePlayer.getSkillPoint(\r\n            stakedNfps[_itemId].tokenId\r\n        );\r\n\r\n        // uint256 level = nonFungiblePlayer.getLevel(stakedNfps[_itemId].tokenId);\r\n        if ((currentSP + upgradableSP) > 99900000) {\r\n            currentSP = 99900000;\r\n        } else currentSP += upgradableSP;\r\n\r\n        currentSP = currentSP / 100000;\r\n        nonFungiblePlayer.setSkillPoint(stakedNfps[_itemId].tokenId, currentSP);\r\n\r\n        uint256 updateLvl = currentSP / 10;\r\n        uint256 currentGEN = nonFungiblePlayer.getGeneration(\r\n            stakedNfps[_itemId].tokenId\r\n        );\r\n        if (updateLvl > (currentGEN + 1) * 10 - 1)\r\n            updateLvl = (currentGEN + 1) * 10 - 1;\r\n\r\n        nonFungiblePlayer.setLevel(stakedNfps[_itemId].tokenId, updateLvl);\r\n\r\n        if (updateLvl < 25)\r\n            nonFungiblePlayer.setClass(stakedNfps[_itemId].tokenId, \"Rookie\");\r\n        else if (updateLvl < 50)\r\n            nonFungiblePlayer.setClass(stakedNfps[_itemId].tokenId, \"Amateur\");\r\n        else if (updateLvl < 75)\r\n            nonFungiblePlayer.setClass(stakedNfps[_itemId].tokenId, \"Pro\");\r\n        else nonFungiblePlayer.setClass(stakedNfps[_itemId].tokenId, \"Pro\");\r\n\r\n        countStakedNfps[msg.sender]--;\r\n    }\r\n\r\n    function updateTrainingLevel() public {\r\n        require(\r\n            trainingLevel[msg.sender] <= 999,\r\n            \"You are max level of training Camp\"\r\n        );\r\n\r\n        require(\r\n            golToken.balanceOf(msg.sender) >= updateTrainingLevelFee * 10**18,\r\n            \"Insuficient Balance of Gol Token\"\r\n        );\r\n\r\n        golToken.transferFrom(\r\n            msg.sender,\r\n            ownerAddr,\r\n            updateTrainingLevelFee * 10**18\r\n        );\r\n\r\n        trainingLevel[msg.sender]++;\r\n    }\r\n\r\n    // function updateLevel(uint256 _tokenId) public {\r\n    //     require(\r\n    //         golToken.balanceOf(msg.sender) >= updateLevelFee * 10**18,\r\n    //         \"Insuficient Balance of Gol Token\"\r\n    //     );\r\n\r\n    //     uint256 currentSP = nonFungiblePlayer.getSkillPoint(_tokenId);\r\n    //     uint256 currentLevel = nonFungiblePlayer.getLevel(_tokenId);\r\n    //     uint256 currentGEN = nonFungiblePlayer.getGeneration(_tokenId);\r\n\r\n    //     require(\r\n    //         currentSP == (currentLevel + 1) * 10 - 1,\r\n    //         \"Not max Skill Point\"\r\n    //     );\r\n\r\n    //     require(\r\n    //         currentLevel < (currentGEN + 1) * 10 - 1,\r\n    //         \"Generation Limit executed!\"\r\n    //     );\r\n\r\n    //     require(currentLevel < 100, \"Max Level\");\r\n\r\n    //     currentLevel++;\r\n\r\n    //     golToken.transferFrom(msg.sender, ownerAddr, updateLevelFee * 10**18);\r\n    //     nonFungiblePlayer.setLevel(_tokenId, currentLevel);\r\n\r\n    //     if (currentLevel < 25) nonFungiblePlayer.setClass(_tokenId, \"Rookie\");\r\n    //     else if (currentLevel < 50)\r\n    //         nonFungiblePlayer.setClass(_tokenId, \"Amateur\");\r\n    //     else if (currentLevel < 75) nonFungiblePlayer.setClass(_tokenId, \"Pro\");\r\n    //     else nonFungiblePlayer.setClass(_tokenId, \"Pro\");\r\n    // }\r\n}\r\n",
  "sourcePath": "E:\\Git for Project\\Ethereum\\NFT\\GolFinance\\gol-staking-contracts\\contracts\\Training.sol",
  "compiler": {
    "name": "solc",
    "version": "0.8.4+commit.c7e474f2.Emscripten.clang"
  },
  "schemaVersion": "3.4.5",
  "updatedAt": "2022-04-20T15:42:28.058Z",
  "devdoc": {
    "kind": "dev",
    "methods": {
      "owner()": {
        "details": "Returns the address of the current owner."
      },
      "renounceOwnership()": {
        "details": "Leaves the contract without owner. It will not be possible to call `onlyOwner` functions anymore. Can only be called by the current owner. NOTE: Renouncing ownership will leave the contract without an owner, thereby removing any functionality that is only available to the owner."
      },
      "transferOwnership(address)": {
        "details": "Transfers ownership of the contract to a new account (`newOwner`). Can only be called by the current owner."
      }
    },
    "version": 1
  },
  "userdoc": {
    "kind": "user",
    "methods": {},
    "version": 1
  }
}