{
  "contractName": "Training",
  "abi": [
    {
      "inputs": [
        {
          "internalType": "contract IGolToken",
          "name": "_golToken",
          "type": "address"
        },
        {
          "internalType": "contract INonFungiblePlayer",
          "name": "_nonFungiblePlayer",
          "type": "address"
        },
        {
          "internalType": "address",
          "name": "_ownerAddr",
          "type": "address"
        }
      ],
      "stateMutability": "nonpayable",
      "type": "constructor"
    },
    {
      "anonymous": false,
      "inputs": [
        {
          "indexed": true,
          "internalType": "address",
          "name": "previousOwner",
          "type": "address"
        },
        {
          "indexed": true,
          "internalType": "address",
          "name": "newOwner",
          "type": "address"
        }
      ],
      "name": "OwnershipTransferred",
      "type": "event"
    },
    {
      "inputs": [
        {
          "internalType": "address",
          "name": "",
          "type": "address"
        }
      ],
      "name": "countStakedNfps",
      "outputs": [
        {
          "internalType": "uint256",
          "name": "",
          "type": "uint256"
        }
      ],
      "stateMutability": "view",
      "type": "function",
      "constant": true
    },
    {
      "inputs": [],
      "name": "maxStakedBlock",
      "outputs": [
        {
          "internalType": "uint256",
          "name": "",
          "type": "uint256"
        }
      ],
      "stateMutability": "view",
      "type": "function",
      "constant": true
    },
    {
      "inputs": [],
      "name": "owner",
      "outputs": [
        {
          "internalType": "address",
          "name": "",
          "type": "address"
        }
      ],
      "stateMutability": "view",
      "type": "function",
      "constant": true
    },
    {
      "inputs": [],
      "name": "renounceOwnership",
      "outputs": [],
      "stateMutability": "nonpayable",
      "type": "function"
    },
    {
      "inputs": [
        {
          "internalType": "uint256",
          "name": "",
          "type": "uint256"
        }
      ],
      "name": "stakedNfps",
      "outputs": [
        {
          "internalType": "uint256",
          "name": "itemId",
          "type": "uint256"
        },
        {
          "internalType": "uint256",
          "name": "tokenId",
          "type": "uint256"
        },
        {
          "internalType": "uint256",
          "name": "startBlock",
          "type": "uint256"
        },
        {
          "internalType": "address",
          "name": "owner",
          "type": "address"
        },
        {
          "internalType": "bool",
          "name": "isEnded",
          "type": "bool"
        }
      ],
      "stateMutability": "view",
      "type": "function",
      "constant": true
    },
    {
      "inputs": [],
      "name": "stakingNfpCount",
      "outputs": [
        {
          "internalType": "uint256",
          "name": "_value",
          "type": "uint256"
        }
      ],
      "stateMutability": "view",
      "type": "function",
      "constant": true
    },
    {
      "inputs": [
        {
          "internalType": "address",
          "name": "",
          "type": "address"
        }
      ],
      "name": "trainingLevel",
      "outputs": [
        {
          "internalType": "uint256",
          "name": "",
          "type": "uint256"
        }
      ],
      "stateMutability": "view",
      "type": "function",
      "constant": true
    },
    {
      "inputs": [
        {
          "internalType": "address",
          "name": "newOwner",
          "type": "address"
        }
      ],
      "name": "transferOwnership",
      "outputs": [],
      "stateMutability": "nonpayable",
      "type": "function"
    },
    {
      "inputs": [],
      "name": "updateLevelFee",
      "outputs": [
        {
          "internalType": "uint256",
          "name": "",
          "type": "uint256"
        }
      ],
      "stateMutability": "view",
      "type": "function",
      "constant": true
    },
    {
      "inputs": [],
      "name": "updateTrainingLevelFee",
      "outputs": [
        {
          "internalType": "uint256",
          "name": "",
          "type": "uint256"
        }
      ],
      "stateMutability": "view",
      "type": "function",
      "constant": true
    },
    {
      "inputs": [
        {
          "internalType": "address",
          "name": "_ownerAddr",
          "type": "address"
        }
      ],
      "name": "setOwnerAddr",
      "outputs": [],
      "stateMutability": "nonpayable",
      "type": "function"
    },
    {
      "inputs": [
        {
          "internalType": "uint256",
          "name": "_updateTrainingLevelFee",
          "type": "uint256"
        }
      ],
      "name": "setUpdateTrainingLevelFee",
      "outputs": [],
      "stateMutability": "nonpayable",
      "type": "function"
    },
    {
      "inputs": [
        {
          "internalType": "uint256",
          "name": "_updateLevelFee",
          "type": "uint256"
        }
      ],
      "name": "setUpdateLevelFee",
      "outputs": [],
      "stateMutability": "nonpayable",
      "type": "function"
    },
    {
      "inputs": [
        {
          "internalType": "uint256",
          "name": "_tokenId",
          "type": "uint256"
        }
      ],
      "name": "stakeNfpToTrain",
      "outputs": [],
      "stateMutability": "nonpayable",
      "type": "function"
    },
    {
      "inputs": [
        {
          "internalType": "uint256",
          "name": "_itemId",
          "type": "uint256"
        }
      ],
      "name": "unStakeNfpFromTrain",
      "outputs": [],
      "stateMutability": "nonpayable",
      "type": "function"
    },
    {
      "inputs": [
        {
          "internalType": "uint256",
          "name": "_itemId",
          "type": "uint256"
        }
      ],
      "name": "getUpgradableSP",
      "outputs": [
        {
          "internalType": "uint256",
          "name": "",
          "type": "uint256"
        }
      ],
      "stateMutability": "view",
      "type": "function",
      "constant": true
    },
    {
      "inputs": [
        {
          "internalType": "address",
          "name": "_owner",
          "type": "address"
        }
      ],
      "name": "getStakedItems",
      "outputs": [
        {
          "components": [
            {
              "internalType": "uint256",
              "name": "itemId",
              "type": "uint256"
            },
            {
              "internalType": "uint256",
              "name": "tokenId",
              "type": "uint256"
            },
            {
              "internalType": "uint256",
              "name": "startBlock",
              "type": "uint256"
            },
            {
              "internalType": "address",
              "name": "owner",
              "type": "address"
            },
            {
              "internalType": "bool",
              "name": "isEnded",
              "type": "bool"
            }
          ],
          "internalType": "struct Training.StakeNFP[]",
          "name": "",
          "type": "tuple[]"
        }
      ],
      "stateMutability": "view",
      "type": "function",
      "constant": true
    },
    {
      "inputs": [
        {
          "internalType": "address",
          "name": "_owner",
          "type": "address"
        }
      ],
      "name": "getStakedCount",
      "outputs": [
        {
          "internalType": "uint256",
          "name": "",
          "type": "uint256"
        }
      ],
      "stateMutability": "view",
      "type": "function",
      "constant": true
    },
    {
      "inputs": [],
      "name": "updateTrainingLevel",
      "outputs": [],
      "stateMutability": "nonpayable",
      "type": "function"
    }
  ],
  "bytecode": "0x60806040523480156200001157600080fd5b50604051620019c0380380620019c08339810160408190526200003491620000fd565b6200005a6200004b640100000000620000a9810204565b640100000000620000ad810204565b60098054600160a060020a03948516600160a060020a03199182161790915560088054938516938216939093179092556257e40060015560646002556004805491909316911617905562000169565b3390565b60008054600160a060020a03838116600160a060020a0319831681178455604051919092169283917f8be0079c531659141344cd1fd0a4f28419497f9722a3daafe3b4186f6b6457e09190a35050565b60008060006060848603121562000112578283fd5b83516200011f8162000150565b6020850151909350620001328162000150565b6040850151909250620001458162000150565b809150509250925092565b600160a060020a03811681146200016657600080fd5b50565b61184780620001796000396000f3fe608060405234801561001057600080fd5b506004361061013e576000357c01000000000000000000000000000000000000000000000000000000009004806390e3430b116100ca578063df252da71161008e578063df252da71461025d578063e074278d14610267578063ee1eceac1461027a578063f2fde38b1461028d578063fb2fd5d2146102a057600080fd5b806390e3430b1461020657806393ddc2a314610219578063cd0d93311461022c578063d5dfc26514610234578063ddec00b81461025457600080fd5b8063715018a611610111578063715018a6146101a757806383c13db2146101af578063841f5b4d146101c257806388d76409146101e25780638da5cb5b146101eb57600080fd5b8063564c5e94146101435780635aceb7771461015857806362fd78b71461016b57806368151a4a1461019e575b600080fd5b610156610151366004611662565b61031d565b005b610156610166366004611662565b610358565b61018b610179366004611603565b60066020526000908152604090205481565b6040519081526020015b60405180910390f35b61018b60035481565b61015661062c565b61018b6101bd366004611603565b610665565b61018b6101d0366004611603565b60076020526000908152604090205481565b61018b60015481565b600054604051600160a060020a039091168152602001610195565b61018b610214366004611662565b6106f1565b610156610227366004611662565b61081c565b610156610fbb565b610247610242366004611603565b611232565b6040516101959190611692565b61018b60025481565b600a5461018b9081565b610156610275366004611603565b611460565b610156610288366004611662565b6114bc565b61015661029b366004611603565b6114ee565b6102ea6102ae366004611662565b600560205260009081526040902080546001820154600283015460039093015491929091600160a060020a0381169060a060020a900460ff1685565b60408051958652602086019490945292840191909152600160a060020a031660608301521515608082015260a001610195565b600054600160a060020a031633146103535760405160e560020a62461bcd02815260040161034a9061170b565b60405180910390fd5b600255565b6008546040517f6352211e00000000000000000000000000000000000000000000000000000000815260048101839052600160a060020a0390911690636352211e9060240160206040518083038186803b1580156103b557600080fd5b505afa1580156103c9573d6000803e3d6000fd5b505050506040513d601f19601f820116820180604052508101906103ed9190611626565b600160a060020a031633600160a060020a0316146104505760405160e560020a62461bcd02815260206004820152601860248201527f596f7520617265206e6f74206f776e6572206f66204e46500000000000000000604482015260640161034a565b3360009081526006602090815260408083205460079092529091205411156104e35760405160e560020a62461bcd02815260206004820152603160248201527f5374616b656420416d6f756e74206973206c696d6974656420666f722074686960448201527f7320747261696e696e67204c6576656c21000000000000000000000000000000606482015260840161034a565b6008546040517f23b872dd00000000000000000000000000000000000000000000000000000000815233600482015230602482015260448101839052600160a060020a03909116906323b872dd90606401600060405180830381600087803b15801561054e57600080fd5b505af1158015610562573d6000803e3d6000fd5b50505050610574600a80546001019055565b600061057f600a5490565b6040805160a08101825282815260208082018681524383850190815233606085018181526000608087018181528982526005875288822097518855945160018801559251600287015551600390950180549351151560a060020a0274ffffffffffffffffffffffffffffffffffffffffff19909416600160a060020a03969096169590951792909217909355825260079052908120805492935090610623836117c8565b91905055505050565b600054600160a060020a031633146106595760405160e560020a62461bcd02815260040161034a9061170b565b61066360006115a6565b565b600080610671600a5490565b9050600060015b8281116106e957600081815260056020526040902060030154600160a060020a0386811691161480156106c4575060008181526005602052604090206003015460a060020a900460ff16155b156106d7576106d4600183611740565b91505b806106e1816117c8565b915050610678565b509392505050565b60015460008281526005602052604081206002015490918291610714904361179a565b610722906305f45a6061177b565b61072c9190611758565b6008546000858152600560205260408082206001015490517fdb3843c6000000000000000000000000000000000000000000000000000000008152600481019190915292935091600160a060020a039091169063db3843c69060240160206040518083038186803b1580156107a057600080fd5b505afa1580156107b4573d6000803e3d6000fd5b505050506040513d601f19601f820116820180604052508101906107d8919061167a565b90506305f45a606107e98383611740565b11156107fa57506305f45a60610807565b6108048282611740565b90505b610814620186a082611758565b949350505050565b600081815260056020526040902060030154600160a060020a031633146108885760405160e560020a62461bcd02815260206004820152601e60248201527f596f7520617265206e6f74206f776e6572206f662074686973204e4650210000604482015260640161034a565b60008181526005602052604090206003015460a060020a900460ff16156108f45760405160e560020a62461bcd02815260206004820152601d60248201527f54686973204e465020697320756e7374616b656420616c726561647921000000604482015260640161034a565b600154600082815260056020526040812060020154909190610916904361179a565b610924906305f45a6061177b565b61092e9190611758565b6008546000848152600560205260408082206001015490517fdb3843c6000000000000000000000000000000000000000000000000000000008152600481019190915292935091600160a060020a039091169063db3843c69060240160206040518083038186803b1580156109a257600080fd5b505afa1580156109b6573d6000803e3d6000fd5b505050506040513d601f19601f820116820180604052508101906109da919061167a565b90506305f45a606109eb8383611740565b11156109fc57506305f45a60610a09565b610a068282611740565b90505b610a16620186a082611758565b600854600085815260056020526040908190206001015490517fe36db2fb000000000000000000000000000000000000000000000000000000008152600481019190915260248101839052919250600160a060020a03169063e36db2fb90604401600060405180830381600087803b158015610a9157600080fd5b505af1158015610aa5573d6000803e3d6000fd5b505050506000600a82610ab89190611758565b6008546000868152600560205260408082206001015490517f56e3df97000000000000000000000000000000000000000000000000000000008152600481019190915292935091600160a060020a03909116906356e3df979060240160206040518083038186803b158015610b2c57600080fd5b505afa158015610b40573d6000803e3d6000fd5b505050506040513d601f19601f82011682018060405250810190610b64919061167a565b90506001610b728282611740565b610b7d90600a61177b565b610b87919061179a565b821115610bb2576001610b9a8282611740565b610ba590600a61177b565b610baf919061179a565b91505b600854600086815260056020526040908190206001015490517f70a93b36000000000000000000000000000000000000000000000000000000008152600160a060020a03909216916370a93b3691610c17918690600401918252602082015260400190565b600060405180830381600087803b158015610c3157600080fd5b505af1158015610c45573d6000803e3d6000fd5b505050506019821015610d06576008546000868152600560205260409081902060010154905160e260020a632289b53b028152600160a060020a0390921691638a26d4ec91610ccf916004019081526040602082018190526006908201527f526f6f6b69650000000000000000000000000000000000000000000000000000606082015260800190565b600060405180830381600087803b158015610ce957600080fd5b505af1158015610cfd573d6000803e3d6000fd5b50505050610ec2565b6032821015610d8c576008546000868152600560205260409081902060010154905160e260020a632289b53b028152600160a060020a0390921691638a26d4ec91610ccf916004019081526040602082018190526007908201527f416d617465757200000000000000000000000000000000000000000000000000606082015260800190565b604b821015610e12576008546000868152600560205260409081902060010154905160e260020a632289b53b028152600160a060020a0390921691638a26d4ec91610ccf916004019081526040602082018190526003908201527f50726f0000000000000000000000000000000000000000000000000000000000606082015260800190565b6008546000868152600560205260409081902060010154905160e260020a632289b53b028152600160a060020a0390921691638a26d4ec91610e8f916004019081526040602082018190526003908201527f50726f0000000000000000000000000000000000000000000000000000000000606082015260800190565b600060405180830381600087803b158015610ea957600080fd5b505af1158015610ebd573d6000803e3d6000fd5b505050505b60085460008681526005602052604090819020600381015460019091015491517f23b872dd000000000000000000000000000000000000000000000000000000008152306004820152600160a060020a0391821660248201526044810192909252909116906323b872dd90606401600060405180830381600087803b158015610f4a57600080fd5b505af1158015610f5e573d6000803e3d6000fd5b5050506000868152600560209081526040808320600301805474ff0000000000000000000000000000000000000000191660a060020a179055338352600790915281208054925090610faf836117b1565b91905055505050505050565b336000908152600660205260409020546103e710156110455760405160e560020a62461bcd02815260206004820152602260248201527f596f7520617265206d6178206c6576656c206f6620747261696e696e6720436160448201527f6d70000000000000000000000000000000000000000000000000000000000000606482015260840161034a565b60025461105a90670de0b6b3a764000061177b565b6009546040517f70a08231000000000000000000000000000000000000000000000000000000008152336004820152600160a060020a03909116906370a082319060240160206040518083038186803b1580156110b657600080fd5b505afa1580156110ca573d6000803e3d6000fd5b505050506040513d601f19601f820116820180604052508101906110ee919061167a565b101561113f5760405160e560020a62461bcd02815260206004820181905260248201527f496e737566696369656e742042616c616e6365206f6620476f6c20546f6b656e604482015260640161034a565b600954600454600254600160a060020a03928316926323b872dd92339291169061117190670de0b6b3a764000061177b565b6040517c010000000000000000000000000000000000000000000000000000000063ffffffff8616028152600160a060020a0393841660048201529290911660248301526044820152606401602060405180830381600087803b1580156111d757600080fd5b505af11580156111eb573d6000803e3d6000fd5b505050506040513d601f19601f8201168201806040525081019061120f9190611642565b5033600090815260066020526040812080549161122b836117c8565b9190505550565b6060600061123f600a5490565b905060008060015b8381116112b857600081815260056020526040902060030154600160a060020a038781169116148015611293575060008181526005602052604090206003015460a060020a900460ff16155b156112a6576112a3600184611740565b92505b806112b0816117c8565b915050611247565b5060008267ffffffffffffffff8111156112e55760e060020a634e487b7102600052604160045260246000fd5b60405190808252806020026020018201604052801561135357816020015b6113406040518060a001604052806000815260200160008152602001600081526020016000600160a060020a031681526020016000151581525090565b8152602001906001900390816113035790505b50905060015b84811161145657600081815260056020526040902060030154600160a060020a0388811691161480156113a5575060008181526005602052604090206003015460a060020a900460ff16155b1561144457600081815260056020908152604091829020825160a081018452815481526001820154928101929092526002810154928201929092526003820154600160a060020a038116606083015260a060020a900460ff1615156080820152835184908690811061142a5760e060020a634e487b7102600052603260045260246000fd5b6020908102919091010152611440600185611740565b9350505b8061144e816117c8565b915050611359565b5095945050505050565b600054600160a060020a0316331461148d5760405160e560020a62461bcd02815260040161034a9061170b565b6004805473ffffffffffffffffffffffffffffffffffffffff1916600160a060020a0392909216919091179055565b600054600160a060020a031633146114e95760405160e560020a62461bcd02815260040161034a9061170b565b600355565b600054600160a060020a0316331461151b5760405160e560020a62461bcd02815260040161034a9061170b565b600160a060020a03811661159a5760405160e560020a62461bcd02815260206004820152602660248201527f4f776e61626c653a206e6577206f776e657220697320746865207a65726f206160448201527f6464726573730000000000000000000000000000000000000000000000000000606482015260840161034a565b6115a3816115a6565b50565b60008054600160a060020a0383811673ffffffffffffffffffffffffffffffffffffffff19831681178455604051919092169283917f8be0079c531659141344cd1fd0a4f28419497f9722a3daafe3b4186f6b6457e09190a35050565b600060208284031215611614578081fd5b813561161f816117fc565b9392505050565b600060208284031215611637578081fd5b815161161f816117fc565b600060208284031215611653578081fd5b8151801515811461161f578182fd5b600060208284031215611673578081fd5b5035919050565b60006020828403121561168b578081fd5b5051919050565b602080825282518282018190526000919060409081850190868401855b828110156116fe5781518051855286810151878601528581015186860152606080820151600160a060020a03169086015260809081015115159085015260a090930192908501906001016116af565b5091979650505050505050565b6020808252818101527f4f776e61626c653a2063616c6c6572206973206e6f7420746865206f776e6572604082015260600190565b60008219821115611753576117536117e3565b500190565b6000826117765760e060020a634e487b710281526012600452602481fd5b500490565b6000816000190483118215151615611795576117956117e3565b500290565b6000828210156117ac576117ac6117e3565b500390565b6000816117c0576117c06117e3565b506000190190565b60006000198214156117dc576117dc6117e3565b5060010190565b60e060020a634e487b7102600052601160045260246000fd5b600160a060020a03811681146115a357600080fdfea264697066735822122062d0db6f7dd83deb2f5c97a244df2f35d3f46439f590628218738f26a604f51164736f6c63430008040033",
  "immutableReferences": {},
  "source": "// SPDX-License-Identifier: MIT\r\npragma solidity ^0.8.4;\r\nimport \"@openzeppelin/contracts/utils/Counters.sol\";\r\nimport \"@openzeppelin/contracts/token/ERC721/ERC721.sol\";\r\nimport \"@openzeppelin/contracts/security/ReentrancyGuard.sol\";\r\nimport \"@openzeppelin/contracts/access/Ownable.sol\";\r\nimport \"./interfaces/IGolToken.sol\";\r\nimport \"./interfaces/INonFungiblePlayer.sol\";\r\n\r\ncontract Training is Ownable {\r\n    using Counters for Counters.Counter;\r\n\r\n    uint256 public maxStakedBlock;\r\n    uint256 public updateTrainingLevelFee;\r\n    uint256 public updateLevelFee;\r\n\r\n    address private ownerAddr;\r\n\r\n    struct StakeNFP {\r\n        uint256 itemId;\r\n        uint256 tokenId;\r\n        uint256 startBlock;\r\n        address owner;\r\n        bool isEnded;\r\n    }\r\n\r\n    mapping(uint256 => StakeNFP) public stakedNfps;\r\n\r\n    mapping(address => uint256) public trainingLevel;\r\n    mapping(address => uint256) public countStakedNfps;\r\n\r\n    INonFungiblePlayer private nonFungiblePlayer;\r\n    IGolToken private golToken;\r\n\r\n    Counters.Counter public stakingNfpCount;\r\n\r\n    constructor(\r\n        IGolToken _golToken,\r\n        INonFungiblePlayer _nonFungiblePlayer,\r\n        address _ownerAddr\r\n    ) {\r\n        golToken = _golToken;\r\n        nonFungiblePlayer = _nonFungiblePlayer;\r\n        maxStakedBlock = 5760000;\r\n        updateTrainingLevelFee = 100;\r\n        ownerAddr = _ownerAddr;\r\n    }\r\n\r\n    function setOwnerAddr(address _ownerAddr) public onlyOwner {\r\n        ownerAddr = _ownerAddr;\r\n    }\r\n\r\n    function setUpdateTrainingLevelFee(uint256 _updateTrainingLevelFee)\r\n        public\r\n        onlyOwner\r\n    {\r\n        updateTrainingLevelFee = _updateTrainingLevelFee;\r\n    }\r\n\r\n    function setUpdateLevelFee(uint256 _updateLevelFee) public onlyOwner {\r\n        updateLevelFee = _updateLevelFee;\r\n    }\r\n\r\n    function stakeNfpToTrain(uint256 _tokenId) public {\r\n        require(\r\n            msg.sender == nonFungiblePlayer.ownerOf(_tokenId),\r\n            \"You are not owner of NFP\"\r\n        );\r\n        require(\r\n            countStakedNfps[msg.sender] <= trainingLevel[msg.sender],\r\n            \"Staked Amount is limited for this training Level!\"\r\n        );\r\n\r\n        nonFungiblePlayer.transferFrom(msg.sender, address(this), _tokenId);\r\n        stakingNfpCount.increment();\r\n        uint256 itemId = stakingNfpCount.current();\r\n\r\n        stakedNfps[itemId] = StakeNFP(\r\n            itemId,\r\n            _tokenId,\r\n            block.number,\r\n            msg.sender,\r\n            false\r\n        );\r\n        countStakedNfps[msg.sender]++;\r\n    }\r\n\r\n    function unStakeNfpFromTrain(uint256 _itemId) public {\r\n        require(\r\n            msg.sender == stakedNfps[_itemId].owner,\r\n            \"You are not owner of this NFP!\"\r\n        );\r\n        require(\r\n            stakedNfps[_itemId].isEnded == false,\r\n            \"This NFP is unstaked already!\"\r\n        );\r\n\r\n        uint256 upgradableSP = (99900000 *\r\n            (block.number - stakedNfps[_itemId].startBlock)) / maxStakedBlock;\r\n        uint256 currentSP = nonFungiblePlayer.getSkillPoint(\r\n            stakedNfps[_itemId].tokenId\r\n        );\r\n\r\n        // uint256 level = nonFungiblePlayer.getLevel(stakedNfps[_itemId].tokenId);\r\n        if ((currentSP + upgradableSP) > 99900000) {\r\n            currentSP = 99900000;\r\n        } else currentSP += upgradableSP;\r\n\r\n        currentSP = currentSP / 100000;\r\n        nonFungiblePlayer.setSkillPoint(stakedNfps[_itemId].tokenId, currentSP);\r\n\r\n        uint256 updateLvl = currentSP / 10;\r\n        uint256 currentGEN = nonFungiblePlayer.getGeneration(\r\n            stakedNfps[_itemId].tokenId\r\n        );\r\n        if (updateLvl > (currentGEN + 1) * 10 - 1)\r\n            updateLvl = (currentGEN + 1) * 10 - 1;\r\n\r\n        nonFungiblePlayer.setLevel(stakedNfps[_itemId].tokenId, updateLvl);\r\n\r\n        if (updateLvl < 25)\r\n            nonFungiblePlayer.setClass(stakedNfps[_itemId].tokenId, \"Rookie\");\r\n        else if (updateLvl < 50)\r\n            nonFungiblePlayer.setClass(stakedNfps[_itemId].tokenId, \"Amateur\");\r\n        else if (updateLvl < 75)\r\n            nonFungiblePlayer.setClass(stakedNfps[_itemId].tokenId, \"Pro\");\r\n        else nonFungiblePlayer.setClass(stakedNfps[_itemId].tokenId, \"Pro\");\r\n\r\n        nonFungiblePlayer.transferFrom(\r\n            address(this),\r\n            stakedNfps[_itemId].owner,\r\n            stakedNfps[_itemId].tokenId\r\n        );\r\n\r\n        stakedNfps[_itemId].isEnded = true;\r\n        countStakedNfps[msg.sender]--;\r\n    }\r\n\r\n    function getUpgradableSP(uint256 _itemId) public view returns (uint256) {\r\n        uint256 upgradableSP = (99900000 *\r\n            (block.number - stakedNfps[_itemId].startBlock)) / maxStakedBlock;\r\n        uint256 currentSP = nonFungiblePlayer.getSkillPoint(\r\n            stakedNfps[_itemId].tokenId\r\n        );\r\n\r\n        // uint256 level = nonFungiblePlayer.getLevel(stakedNfps[_itemId].tokenId);\r\n        if ((currentSP + upgradableSP) > 99900000) {\r\n            currentSP = 99900000;\r\n        } else currentSP += upgradableSP;\r\n\r\n        currentSP = currentSP / 100000;\r\n\r\n        return currentSP;\r\n    }\r\n\r\n    function getStakedItems(address _owner)\r\n        public\r\n        view\r\n        returns (StakeNFP[] memory)\r\n    {\r\n        uint256 totalItemCount = stakingNfpCount.current();\r\n        uint256 itemCount = 0;\r\n        uint256 currentIndex = 0;\r\n\r\n        for (uint256 i = 1; i <= totalItemCount; i++) {\r\n            if (\r\n                _owner == stakedNfps[i].owner && stakedNfps[i].isEnded == false\r\n            ) {\r\n                itemCount += 1;\r\n            }\r\n        }\r\n\r\n        StakeNFP[] memory stakedItems = new StakeNFP[](itemCount);\r\n\r\n        for (uint256 i = 1; i <= totalItemCount; i++) {\r\n            if (\r\n                _owner == stakedNfps[i].owner && stakedNfps[i].isEnded == false\r\n            ) {\r\n                StakeNFP storage currentItem = stakedNfps[i];\r\n                stakedItems[currentIndex] = currentItem;\r\n                currentIndex += 1;\r\n            }\r\n        }\r\n\r\n        return stakedItems;\r\n    }\r\n\r\n    function getStakedCount(address _owner) public view returns (uint256) {\r\n        uint256 totalItemCount = stakingNfpCount.current();\r\n        uint256 itemCount = 0;\r\n\r\n        for (uint256 i = 1; i <= totalItemCount; i++) {\r\n            if (\r\n                _owner == stakedNfps[i].owner && stakedNfps[i].isEnded == false\r\n            ) {\r\n                itemCount += 1;\r\n            }\r\n        }\r\n\r\n        return itemCount;\r\n    }\r\n\r\n    function updateTrainingLevel() public {\r\n        require(\r\n            trainingLevel[msg.sender] <= 999,\r\n            \"You are max level of training Camp\"\r\n        );\r\n\r\n        require(\r\n            golToken.balanceOf(msg.sender) >= updateTrainingLevelFee * 10**18,\r\n            \"Insuficient Balance of Gol Token\"\r\n        );\r\n\r\n        golToken.transferFrom(\r\n            msg.sender,\r\n            ownerAddr,\r\n            updateTrainingLevelFee * 10**18\r\n        );\r\n\r\n        trainingLevel[msg.sender]++;\r\n    }\r\n\r\n    // function updateLevel(uint256 _tokenId) public {\r\n    //     require(\r\n    //         golToken.balanceOf(msg.sender) >= updateLevelFee * 10**18,\r\n    //         \"Insuficient Balance of Gol Token\"\r\n    //     );\r\n\r\n    //     uint256 currentSP = nonFungiblePlayer.getSkillPoint(_tokenId);\r\n    //     uint256 currentLevel = nonFungiblePlayer.getLevel(_tokenId);\r\n    //     uint256 currentGEN = nonFungiblePlayer.getGeneration(_tokenId);\r\n\r\n    //     require(\r\n    //         currentSP == (currentLevel + 1) * 10 - 1,\r\n    //         \"Not max Skill Point\"\r\n    //     );\r\n\r\n    //     require(\r\n    //         currentLevel < (currentGEN + 1) * 10 - 1,\r\n    //         \"Generation Limit executed!\"\r\n    //     );\r\n\r\n    //     require(currentLevel < 100, \"Max Level\");\r\n\r\n    //     currentLevel++;\r\n\r\n    //     golToken.transferFrom(msg.sender, ownerAddr, updateLevelFee * 10**18);\r\n    //     nonFungiblePlayer.setLevel(_tokenId, currentLevel);\r\n\r\n    //     if (currentLevel < 25) nonFungiblePlayer.setClass(_tokenId, \"Rookie\");\r\n    //     else if (currentLevel < 50)\r\n    //         nonFungiblePlayer.setClass(_tokenId, \"Amateur\");\r\n    //     else if (currentLevel < 75) nonFungiblePlayer.setClass(_tokenId, \"Pro\");\r\n    //     else nonFungiblePlayer.setClass(_tokenId, \"Pro\");\r\n    // }\r\n}\r\n",
  "sourcePath": "E:\\Git for Project\\Ethereum\\NFT\\GolFinance\\gol-staking-contracts\\contracts\\Training.sol",
  "compiler": {
    "name": "solc",
    "version": "0.8.4+commit.c7e474f2.Emscripten.clang"
  },
  "schemaVersion": "3.4.5",
  "updatedAt": "2022-04-27T01:18:01.895Z",
  "networkType": "ethereum",
  "devdoc": {
    "kind": "dev",
    "methods": {
      "owner()": {
        "details": "Returns the address of the current owner."
      },
      "renounceOwnership()": {
        "details": "Leaves the contract without owner. It will not be possible to call `onlyOwner` functions anymore. Can only be called by the current owner. NOTE: Renouncing ownership will leave the contract without an owner, thereby removing any functionality that is only available to the owner."
      },
      "transferOwnership(address)": {
        "details": "Transfers ownership of the contract to a new account (`newOwner`). Can only be called by the current owner."
      }
    },
    "version": 1
  },
  "userdoc": {
    "kind": "user",
    "methods": {},
    "version": 1
  }
}