{
  "contractName": "Training",
  "abi": [
    {
      "inputs": [
        {
          "internalType": "contract IGolToken",
          "name": "_golToken",
          "type": "address"
        },
        {
          "internalType": "contract INonFungiblePlayer",
          "name": "_nonFungiblePlayer",
          "type": "address"
        },
        {
          "internalType": "address",
          "name": "_ownerAddr",
          "type": "address"
        }
      ],
      "stateMutability": "nonpayable",
      "type": "constructor"
    },
    {
      "anonymous": false,
      "inputs": [
        {
          "indexed": true,
          "internalType": "address",
          "name": "previousOwner",
          "type": "address"
        },
        {
          "indexed": true,
          "internalType": "address",
          "name": "newOwner",
          "type": "address"
        }
      ],
      "name": "OwnershipTransferred",
      "type": "event"
    },
    {
      "inputs": [
        {
          "internalType": "address",
          "name": "",
          "type": "address"
        }
      ],
      "name": "countStakedNfps",
      "outputs": [
        {
          "internalType": "uint256",
          "name": "",
          "type": "uint256"
        }
      ],
      "stateMutability": "view",
      "type": "function"
    },
    {
      "inputs": [],
      "name": "maxStakedBlock",
      "outputs": [
        {
          "internalType": "uint256",
          "name": "",
          "type": "uint256"
        }
      ],
      "stateMutability": "view",
      "type": "function"
    },
    {
      "inputs": [],
      "name": "owner",
      "outputs": [
        {
          "internalType": "address",
          "name": "",
          "type": "address"
        }
      ],
      "stateMutability": "view",
      "type": "function"
    },
    {
      "inputs": [],
      "name": "renounceOwnership",
      "outputs": [],
      "stateMutability": "nonpayable",
      "type": "function"
    },
    {
      "inputs": [
        {
          "internalType": "uint256",
          "name": "",
          "type": "uint256"
        }
      ],
      "name": "stakedNfps",
      "outputs": [
        {
          "internalType": "uint256",
          "name": "itemId",
          "type": "uint256"
        },
        {
          "internalType": "uint256",
          "name": "tokenId",
          "type": "uint256"
        },
        {
          "internalType": "uint256",
          "name": "startBlock",
          "type": "uint256"
        },
        {
          "internalType": "address",
          "name": "owner",
          "type": "address"
        },
        {
          "internalType": "bool",
          "name": "isEnded",
          "type": "bool"
        }
      ],
      "stateMutability": "view",
      "type": "function"
    },
    {
      "inputs": [],
      "name": "stakingNfpCount",
      "outputs": [
        {
          "internalType": "uint256",
          "name": "_value",
          "type": "uint256"
        }
      ],
      "stateMutability": "view",
      "type": "function"
    },
    {
      "inputs": [
        {
          "internalType": "address",
          "name": "",
          "type": "address"
        }
      ],
      "name": "trainingLevel",
      "outputs": [
        {
          "internalType": "uint256",
          "name": "",
          "type": "uint256"
        }
      ],
      "stateMutability": "view",
      "type": "function"
    },
    {
      "inputs": [
        {
          "internalType": "address",
          "name": "newOwner",
          "type": "address"
        }
      ],
      "name": "transferOwnership",
      "outputs": [],
      "stateMutability": "nonpayable",
      "type": "function"
    },
    {
      "inputs": [],
      "name": "updateLevelFee",
      "outputs": [
        {
          "internalType": "uint256",
          "name": "",
          "type": "uint256"
        }
      ],
      "stateMutability": "view",
      "type": "function"
    },
    {
      "inputs": [],
      "name": "updateTrainingLevelFee",
      "outputs": [
        {
          "internalType": "uint256",
          "name": "",
          "type": "uint256"
        }
      ],
      "stateMutability": "view",
      "type": "function"
    },
    {
      "inputs": [
        {
          "internalType": "address",
          "name": "_ownerAddr",
          "type": "address"
        }
      ],
      "name": "setOwnerAddr",
      "outputs": [],
      "stateMutability": "nonpayable",
      "type": "function"
    },
    {
      "inputs": [
        {
          "internalType": "uint256",
          "name": "_maxStakedBlock",
          "type": "uint256"
        }
      ],
      "name": "setMaxStakedBlock",
      "outputs": [],
      "stateMutability": "nonpayable",
      "type": "function"
    },
    {
      "inputs": [
        {
          "internalType": "uint256",
          "name": "_updateTrainingLevelFee",
          "type": "uint256"
        }
      ],
      "name": "setUpdateTrainingLevelFee",
      "outputs": [],
      "stateMutability": "nonpayable",
      "type": "function"
    },
    {
      "inputs": [
        {
          "internalType": "uint256",
          "name": "_updateLevelFee",
          "type": "uint256"
        }
      ],
      "name": "setUpdateLevelFee",
      "outputs": [],
      "stateMutability": "nonpayable",
      "type": "function"
    },
    {
      "inputs": [
        {
          "internalType": "uint256",
          "name": "_tokenId",
          "type": "uint256"
        }
      ],
      "name": "stakeNfpToTrain",
      "outputs": [],
      "stateMutability": "nonpayable",
      "type": "function"
    },
    {
      "inputs": [
        {
          "internalType": "uint256",
          "name": "_itemId",
          "type": "uint256"
        }
      ],
      "name": "unStakeNfpFromTrain",
      "outputs": [],
      "stateMutability": "nonpayable",
      "type": "function"
    },
    {
      "inputs": [
        {
          "internalType": "uint256",
          "name": "_itemId",
          "type": "uint256"
        }
      ],
      "name": "getUpgradableSP",
      "outputs": [
        {
          "internalType": "uint256",
          "name": "",
          "type": "uint256"
        }
      ],
      "stateMutability": "view",
      "type": "function"
    },
    {
      "inputs": [
        {
          "internalType": "address",
          "name": "_owner",
          "type": "address"
        }
      ],
      "name": "getStakedItems",
      "outputs": [
        {
          "components": [
            {
              "internalType": "uint256",
              "name": "itemId",
              "type": "uint256"
            },
            {
              "internalType": "uint256",
              "name": "tokenId",
              "type": "uint256"
            },
            {
              "internalType": "uint256",
              "name": "startBlock",
              "type": "uint256"
            },
            {
              "internalType": "address",
              "name": "owner",
              "type": "address"
            },
            {
              "internalType": "bool",
              "name": "isEnded",
              "type": "bool"
            }
          ],
          "internalType": "struct Training.StakeNFP[]",
          "name": "",
          "type": "tuple[]"
        }
      ],
      "stateMutability": "view",
      "type": "function"
    },
    {
      "inputs": [
        {
          "internalType": "address",
          "name": "_owner",
          "type": "address"
        }
      ],
      "name": "getStakedCount",
      "outputs": [
        {
          "internalType": "uint256",
          "name": "",
          "type": "uint256"
        }
      ],
      "stateMutability": "view",
      "type": "function"
    },
    {
      "inputs": [],
      "name": "updateTrainingLevel",
      "outputs": [],
      "stateMutability": "nonpayable",
      "type": "function"
    }
  ],
  "bytecode": "0x60806040523480156200001157600080fd5b5060405162001ba938038062001ba98339810160408190526200003491620000fd565b6200005a6200004b640100000000620000a9810204565b640100000000620000ad810204565b60098054600160a060020a03948516600160a060020a03199182161790915560088054938516938216939093179092556257e40060015560646002556004805491909316911617905562000169565b3390565b60008054600160a060020a03838116600160a060020a0319831681178455604051919092169283917f8be0079c531659141344cd1fd0a4f28419497f9722a3daafe3b4186f6b6457e09190a35050565b60008060006060848603121562000112578283fd5b83516200011f8162000150565b6020850151909350620001328162000150565b6040850151909250620001458162000150565b809150509250925092565b600160a060020a03811681146200016657600080fd5b50565b611a3080620001796000396000f3fe608060405234801561001057600080fd5b5060043610610149576000357c01000000000000000000000000000000000000000000000000000000009004806393ddc2a3116100ca578063df252da71161008e578063df252da71461027b578063e074278d14610285578063ee1eceac14610298578063f2fde38b146102ab578063fb2fd5d2146102be57600080fd5b806393ddc2a314610224578063cd0d933114610237578063ce0974361461023f578063d5dfc26514610252578063ddec00b81461027257600080fd5b806383c13db21161011157806383c13db2146101ba578063841f5b4d146101cd57806388d76409146101ed5780638da5cb5b146101f657806390e3430b1461021157600080fd5b8063564c5e941461014e5780635aceb7771461016357806362fd78b71461017657806368151a4a146101a9578063715018a6146101b2575b600080fd5b61016161015c36600461184b565b61033b565b005b61016161017136600461184b565b610376565b6101966101843660046117ec565b60066020526000908152604090205481565b6040519081526020015b60405180910390f35b61019660035481565b61016161064a565b6101966101c83660046117ec565b610683565b6101966101db3660046117ec565b60076020526000908152604090205481565b61019660015481565b600054604051600160a060020a0390911681526020016101a0565b61019661021f36600461184b565b61070f565b61016161023236600461184b565b610990565b610161611172565b61016161024d36600461184b565b6113e9565b6102656102603660046117ec565b61141b565b6040516101a0919061187b565b61019660025481565b600a546101969081565b6101616102933660046117ec565b611649565b6101616102a636600461184b565b6116a5565b6101616102b93660046117ec565b6116d7565b6103086102cc36600461184b565b600560205260009081526040902080546001820154600283015460039093015491929091600160a060020a0381169060a060020a900460ff1685565b60408051958652602086019490945292840191909152600160a060020a031660608301521515608082015260a0016101a0565b600054600160a060020a031633146103715760405160e560020a62461bcd028152600401610368906118f4565b60405180910390fd5b600255565b6008546040517f6352211e00000000000000000000000000000000000000000000000000000000815260048101839052600160a060020a0390911690636352211e9060240160206040518083038186803b1580156103d357600080fd5b505afa1580156103e7573d6000803e3d6000fd5b505050506040513d601f19601f8201168201806040525081019061040b919061180f565b600160a060020a031633600160a060020a03161461046e5760405160e560020a62461bcd02815260206004820152601860248201527f596f7520617265206e6f74206f776e6572206f66204e465000000000000000006044820152606401610368565b3360009081526006602090815260408083205460079092529091205411156105015760405160e560020a62461bcd02815260206004820152603160248201527f5374616b656420416d6f756e74206973206c696d6974656420666f722074686960448201527f7320747261696e696e67204c6576656c210000000000000000000000000000006064820152608401610368565b6008546040517f23b872dd00000000000000000000000000000000000000000000000000000000815233600482015230602482015260448101839052600160a060020a03909116906323b872dd90606401600060405180830381600087803b15801561056c57600080fd5b505af1158015610580573d6000803e3d6000fd5b50505050610592600a80546001019055565b600061059d600a5490565b6040805160a08101825282815260208082018681524383850190815233606085018181526000608087018181528982526005875288822097518855945160018801559251600287015551600390950180549351151560a060020a0274ffffffffffffffffffffffffffffffffffffffffff19909416600160a060020a03969096169590951792909217909355825260079052908120805492935090610641836119b1565b91905055505050565b600054600160a060020a031633146106775760405160e560020a62461bcd028152600401610368906118f4565b610681600061178f565b565b60008061068f600a5490565b9050600060015b82811161070757600081815260056020526040902060030154600160a060020a0386811691161480156106e2575060008181526005602052604090206003015460a060020a900460ff16155b156106f5576106f2600183611929565b91505b806106ff816119b1565b915050610696565b509392505050565b600154600082815260056020526040812060020154909182916107329043611983565b610740906305f45a60611964565b61074a9190611941565b6008546000858152600560205260408082206001015490517fdb3843c6000000000000000000000000000000000000000000000000000000008152600481019190915292935091600160a060020a039091169063db3843c69060240160206040518083038186803b1580156107be57600080fd5b505afa1580156107d2573d6000803e3d6000fd5b505050506040513d601f19601f820116820180604052508101906107f69190611863565b9050806305f45a608361080c83620186a0611964565b6108169190611929565b111561082757506305f45a60610842565b8261083583620186a0611964565b61083f9190611929565b90505b61084f620186a082611941565b9050600061085e600a83611941565b6008546000888152600560205260408082206001015490517f56e3df97000000000000000000000000000000000000000000000000000000008152600481019190915292935091600160a060020a03909116906356e3df979060240160206040518083038186803b1580156108d257600080fd5b505afa1580156108e6573d6000803e3d6000fd5b505050506040513d601f19601f8201168201806040525081019061090a9190611863565b905060016109188282611929565b61092390600a611964565b61092d9190611983565b82111561097b5760016109408282611929565b61094b90600a611964565b6109559190611983565b915060016109638382611929565b61096e90600a611964565b6109789190611983565b92505b6109858484611983565b979650505050505050565b600081815260056020526040902060030154600160a060020a031633146109fc5760405160e560020a62461bcd02815260206004820152601e60248201527f596f7520617265206e6f74206f776e6572206f662074686973204e46502100006044820152606401610368565b60008181526005602052604090206003015460a060020a900460ff1615610a685760405160e560020a62461bcd02815260206004820152601d60248201527f54686973204e465020697320756e7374616b656420616c7265616479210000006044820152606401610368565b600154600082815260056020526040812060020154909190610a8a9043611983565b610a98906305f45a60611964565b610aa29190611941565b6008546000848152600560205260408082206001015490517fdb3843c6000000000000000000000000000000000000000000000000000000008152600481019190915292935091600160a060020a039091169063db3843c69060240160206040518083038186803b158015610b1657600080fd5b505afa158015610b2a573d6000803e3d6000fd5b505050506040513d601f19601f82011682018060405250810190610b4e9190611863565b90506305f45a6082610b6383620186a0611964565b610b6d9190611929565b1115610b7e57506305f45a60610b99565b81610b8c82620186a0611964565b610b969190611929565b90505b610ba6620186a082611941565b90506000610bb5600a83611941565b6008546000868152600560205260408082206001015490517f56e3df97000000000000000000000000000000000000000000000000000000008152600481019190915292935091600160a060020a03909116906356e3df979060240160206040518083038186803b158015610c2957600080fd5b505afa158015610c3d573d6000803e3d6000fd5b505050506040513d601f19601f82011682018060405250810190610c619190611863565b90506001610c6f8282611929565b610c7a90600a611964565b610c849190611983565b821115610cd2576001610c978282611929565b610ca290600a611964565b610cac9190611983565b91506001610cba8382611929565b610cc590600a611964565b610ccf9190611983565b92505b600854600086815260056020526040908190206001015490517fe36db2fb000000000000000000000000000000000000000000000000000000008152600160a060020a039092169163e36db2fb91610d37918790600401918252602082015260400190565b600060405180830381600087803b158015610d5157600080fd5b505af1158015610d65573d6000803e3d6000fd5b5050600854600088815260056020526040908190206001015490517f70a93b36000000000000000000000000000000000000000000000000000000008152600160a060020a0390921693506370a93b369250610dce918690600401918252602082015260400190565b600060405180830381600087803b158015610de857600080fd5b505af1158015610dfc573d6000803e3d6000fd5b505050506019821015610ebd576008546000868152600560205260409081902060010154905160e260020a632289b53b028152600160a060020a0390921691638a26d4ec91610e86916004019081526040602082018190526006908201527f526f6f6b69650000000000000000000000000000000000000000000000000000606082015260800190565b600060405180830381600087803b158015610ea057600080fd5b505af1158015610eb4573d6000803e3d6000fd5b50505050611079565b6032821015610f43576008546000868152600560205260409081902060010154905160e260020a632289b53b028152600160a060020a0390921691638a26d4ec91610e86916004019081526040602082018190526007908201527f416d617465757200000000000000000000000000000000000000000000000000606082015260800190565b604b821015610fc9576008546000868152600560205260409081902060010154905160e260020a632289b53b028152600160a060020a0390921691638a26d4ec91610e86916004019081526040602082018190526003908201527f50726f0000000000000000000000000000000000000000000000000000000000606082015260800190565b6008546000868152600560205260409081902060010154905160e260020a632289b53b028152600160a060020a0390921691638a26d4ec91611046916004019081526040602082018190526003908201527f50726f0000000000000000000000000000000000000000000000000000000000606082015260800190565b600060405180830381600087803b15801561106057600080fd5b505af1158015611074573d6000803e3d6000fd5b505050505b60085460008681526005602052604090819020600381015460019091015491517f23b872dd000000000000000000000000000000000000000000000000000000008152306004820152600160a060020a0391821660248201526044810192909252909116906323b872dd90606401600060405180830381600087803b15801561110157600080fd5b505af1158015611115573d6000803e3d6000fd5b5050506000868152600560209081526040808320600301805474ff0000000000000000000000000000000000000000191660a060020a1790553383526007909152812080549250906111668361199a565b91905055505050505050565b336000908152600660205260409020546103e710156111fc5760405160e560020a62461bcd02815260206004820152602260248201527f596f7520617265206d6178206c6576656c206f6620747261696e696e6720436160448201527f6d700000000000000000000000000000000000000000000000000000000000006064820152608401610368565b60025461121190670de0b6b3a7640000611964565b6009546040517f70a08231000000000000000000000000000000000000000000000000000000008152336004820152600160a060020a03909116906370a082319060240160206040518083038186803b15801561126d57600080fd5b505afa158015611281573d6000803e3d6000fd5b505050506040513d601f19601f820116820180604052508101906112a59190611863565b10156112f65760405160e560020a62461bcd02815260206004820181905260248201527f496e737566696369656e742042616c616e6365206f6620476f6c20546f6b656e6044820152606401610368565b600954600454600254600160a060020a03928316926323b872dd92339291169061132890670de0b6b3a7640000611964565b6040517c010000000000000000000000000000000000000000000000000000000063ffffffff8616028152600160a060020a0393841660048201529290911660248301526044820152606401602060405180830381600087803b15801561138e57600080fd5b505af11580156113a2573d6000803e3d6000fd5b505050506040513d601f19601f820116820180604052508101906113c6919061182b565b503360009081526006602052604081208054916113e2836119b1565b9190505550565b600054600160a060020a031633146114165760405160e560020a62461bcd028152600401610368906118f4565b600155565b60606000611428600a5490565b905060008060015b8381116114a157600081815260056020526040902060030154600160a060020a03878116911614801561147c575060008181526005602052604090206003015460a060020a900460ff16155b1561148f5761148c600184611929565b92505b80611499816119b1565b915050611430565b5060008267ffffffffffffffff8111156114ce5760e060020a634e487b7102600052604160045260246000fd5b60405190808252806020026020018201604052801561153c57816020015b6115296040518060a001604052806000815260200160008152602001600081526020016000600160a060020a031681526020016000151581525090565b8152602001906001900390816114ec5790505b50905060015b84811161163f57600081815260056020526040902060030154600160a060020a03888116911614801561158e575060008181526005602052604090206003015460a060020a900460ff16155b1561162d57600081815260056020908152604091829020825160a081018452815481526001820154928101929092526002810154928201929092526003820154600160a060020a038116606083015260a060020a900460ff161515608082015283518490869081106116135760e060020a634e487b7102600052603260045260246000fd5b6020908102919091010152611629600185611929565b9350505b80611637816119b1565b915050611542565b5095945050505050565b600054600160a060020a031633146116765760405160e560020a62461bcd028152600401610368906118f4565b6004805473ffffffffffffffffffffffffffffffffffffffff1916600160a060020a0392909216919091179055565b600054600160a060020a031633146116d25760405160e560020a62461bcd028152600401610368906118f4565b600355565b600054600160a060020a031633146117045760405160e560020a62461bcd028152600401610368906118f4565b600160a060020a0381166117835760405160e560020a62461bcd02815260206004820152602660248201527f4f776e61626c653a206e6577206f776e657220697320746865207a65726f206160448201527f64647265737300000000000000000000000000000000000000000000000000006064820152608401610368565b61178c8161178f565b50565b60008054600160a060020a0383811673ffffffffffffffffffffffffffffffffffffffff19831681178455604051919092169283917f8be0079c531659141344cd1fd0a4f28419497f9722a3daafe3b4186f6b6457e09190a35050565b6000602082840312156117fd578081fd5b8135611808816119e5565b9392505050565b600060208284031215611820578081fd5b8151611808816119e5565b60006020828403121561183c578081fd5b81518015158114611808578182fd5b60006020828403121561185c578081fd5b5035919050565b600060208284031215611874578081fd5b5051919050565b602080825282518282018190526000919060409081850190868401855b828110156118e75781518051855286810151878601528581015186860152606080820151600160a060020a03169086015260809081015115159085015260a09093019290850190600101611898565b5091979650505050505050565b6020808252818101527f4f776e61626c653a2063616c6c6572206973206e6f7420746865206f776e6572604082015260600190565b6000821982111561193c5761193c6119cc565b500190565b60008261195f5760e060020a634e487b710281526012600452602481fd5b500490565b600081600019048311821515161561197e5761197e6119cc565b500290565b600082821015611995576119956119cc565b500390565b6000816119a9576119a96119cc565b506000190190565b60006000198214156119c5576119c56119cc565b5060010190565b60e060020a634e487b7102600052601160045260246000fd5b600160a060020a038116811461178c57600080fdfea26469706673582212207b5e1a3b78ac5e6fd787533349e04d65ae90f614a3d7406e4be7b6f1b2a0462264736f6c63430008040033",
  "immutableReferences": {},
  "source": "// SPDX-License-Identifier: MIT\r\npragma solidity ^0.8.4;\r\nimport \"@openzeppelin/contracts/utils/Counters.sol\";\r\nimport \"@openzeppelin/contracts/token/ERC721/ERC721.sol\";\r\nimport \"@openzeppelin/contracts/security/ReentrancyGuard.sol\";\r\nimport \"@openzeppelin/contracts/access/Ownable.sol\";\r\nimport \"./interfaces/IGolToken.sol\";\r\nimport \"./interfaces/INonFungiblePlayer.sol\";\r\n\r\ncontract Training is Ownable {\r\n    using Counters for Counters.Counter;\r\n\r\n    uint256 public maxStakedBlock;\r\n    uint256 public updateTrainingLevelFee;\r\n    uint256 public updateLevelFee;\r\n\r\n    address private ownerAddr;\r\n\r\n    struct StakeNFP {\r\n        uint256 itemId;\r\n        uint256 tokenId;\r\n        uint256 startBlock;\r\n        address owner;\r\n        bool isEnded;\r\n    }\r\n\r\n    mapping(uint256 => StakeNFP) public stakedNfps;\r\n\r\n    mapping(address => uint256) public trainingLevel;\r\n    mapping(address => uint256) public countStakedNfps;\r\n\r\n    INonFungiblePlayer private nonFungiblePlayer;\r\n    IGolToken private golToken;\r\n\r\n    Counters.Counter public stakingNfpCount;\r\n\r\n    constructor(\r\n        IGolToken _golToken,\r\n        INonFungiblePlayer _nonFungiblePlayer,\r\n        address _ownerAddr\r\n    ) {\r\n        golToken = _golToken;\r\n        nonFungiblePlayer = _nonFungiblePlayer;\r\n        maxStakedBlock = 5760000;\r\n        updateTrainingLevelFee = 100;\r\n        ownerAddr = _ownerAddr;\r\n    }\r\n\r\n    function setOwnerAddr(address _ownerAddr) public onlyOwner {\r\n        ownerAddr = _ownerAddr;\r\n    }\r\n\r\n    function setMaxStakedBlock(uint256 _maxStakedBlock) public onlyOwner {\r\n        maxStakedBlock = _maxStakedBlock;\r\n    }\r\n\r\n    function setUpdateTrainingLevelFee(uint256 _updateTrainingLevelFee)\r\n        public\r\n        onlyOwner\r\n    {\r\n        updateTrainingLevelFee = _updateTrainingLevelFee;\r\n    }\r\n\r\n    function setUpdateLevelFee(uint256 _updateLevelFee) public onlyOwner {\r\n        updateLevelFee = _updateLevelFee;\r\n    }\r\n\r\n    function stakeNfpToTrain(uint256 _tokenId) public {\r\n        require(\r\n            msg.sender == nonFungiblePlayer.ownerOf(_tokenId),\r\n            \"You are not owner of NFP\"\r\n        );\r\n        require(\r\n            countStakedNfps[msg.sender] <= trainingLevel[msg.sender],\r\n            \"Staked Amount is limited for this training Level!\"\r\n        );\r\n\r\n        nonFungiblePlayer.transferFrom(msg.sender, address(this), _tokenId);\r\n        stakingNfpCount.increment();\r\n        uint256 itemId = stakingNfpCount.current();\r\n\r\n        stakedNfps[itemId] = StakeNFP(\r\n            itemId,\r\n            _tokenId,\r\n            block.number,\r\n            msg.sender,\r\n            false\r\n        );\r\n        countStakedNfps[msg.sender]++;\r\n    }\r\n\r\n    function unStakeNfpFromTrain(uint256 _itemId) public {\r\n        require(\r\n            msg.sender == stakedNfps[_itemId].owner,\r\n            \"You are not owner of this NFP!\"\r\n        );\r\n        require(\r\n            stakedNfps[_itemId].isEnded == false,\r\n            \"This NFP is unstaked already!\"\r\n        );\r\n\r\n        uint256 upgradableSP = (99900000 *\r\n            (block.number - stakedNfps[_itemId].startBlock)) / maxStakedBlock;\r\n        uint256 currentSP = nonFungiblePlayer.getSkillPoint(\r\n            stakedNfps[_itemId].tokenId\r\n        );\r\n\r\n        // uint256 level = nonFungiblePlayer.getLevel(stakedNfps[_itemId].tokenId);\r\n        if ((currentSP * 100000 + upgradableSP) > 99900000) {\r\n            currentSP = 99900000;\r\n        } else currentSP = currentSP * 100000 + upgradableSP;\r\n\r\n        currentSP = currentSP / 100000;\r\n\r\n        uint256 updateLvl = currentSP / 10;\r\n        uint256 currentGEN = nonFungiblePlayer.getGeneration(\r\n            stakedNfps[_itemId].tokenId\r\n        );\r\n        if (updateLvl > (currentGEN + 1) * 10 - 1) {\r\n            updateLvl = (currentGEN + 1) * 10 - 1;\r\n            currentSP = (updateLvl + 1) * 10 - 1;\r\n        }\r\n\r\n        nonFungiblePlayer.setSkillPoint(stakedNfps[_itemId].tokenId, currentSP);\r\n        nonFungiblePlayer.setLevel(stakedNfps[_itemId].tokenId, updateLvl);\r\n\r\n        if (updateLvl < 25)\r\n            nonFungiblePlayer.setClass(stakedNfps[_itemId].tokenId, \"Rookie\");\r\n        else if (updateLvl < 50)\r\n            nonFungiblePlayer.setClass(stakedNfps[_itemId].tokenId, \"Amateur\");\r\n        else if (updateLvl < 75)\r\n            nonFungiblePlayer.setClass(stakedNfps[_itemId].tokenId, \"Pro\");\r\n        else nonFungiblePlayer.setClass(stakedNfps[_itemId].tokenId, \"Pro\");\r\n\r\n        nonFungiblePlayer.transferFrom(\r\n            address(this),\r\n            stakedNfps[_itemId].owner,\r\n            stakedNfps[_itemId].tokenId\r\n        );\r\n\r\n        stakedNfps[_itemId].isEnded = true;\r\n        countStakedNfps[msg.sender]--;\r\n    }\r\n\r\n    function getUpgradableSP(uint256 _itemId) public view returns (uint256) {\r\n        uint256 upgradableSP = (99900000 *\r\n            (block.number - stakedNfps[_itemId].startBlock)) / maxStakedBlock;\r\n        uint256 currentSP = nonFungiblePlayer.getSkillPoint(\r\n            stakedNfps[_itemId].tokenId\r\n        );\r\n        uint256 newSP = currentSP;\r\n        // uint256 level = nonFungiblePlayer.getLevel(stakedNfps[_itemId].tokenId);\r\n        if ((currentSP * 100000 + upgradableSP) > 99900000) {\r\n            newSP = 99900000;\r\n        } else newSP = currentSP * 100000 + upgradableSP;\r\n\r\n        newSP = newSP / 100000;\r\n\r\n        uint256 updateLvl = newSP / 10;\r\n        uint256 currentGEN = nonFungiblePlayer.getGeneration(\r\n            stakedNfps[_itemId].tokenId\r\n        );\r\n        if (updateLvl > (currentGEN + 1) * 10 - 1) {\r\n            updateLvl = (currentGEN + 1) * 10 - 1;\r\n            newSP = (updateLvl + 1) * 10 - 1;\r\n        }\r\n\r\n        upgradableSP = newSP - currentSP;\r\n\r\n        return upgradableSP;\r\n    }\r\n\r\n    function getStakedItems(address _owner)\r\n        public\r\n        view\r\n        returns (StakeNFP[] memory)\r\n    {\r\n        uint256 totalItemCount = stakingNfpCount.current();\r\n        uint256 itemCount = 0;\r\n        uint256 currentIndex = 0;\r\n\r\n        for (uint256 i = 1; i <= totalItemCount; i++) {\r\n            if (\r\n                _owner == stakedNfps[i].owner && stakedNfps[i].isEnded == false\r\n            ) {\r\n                itemCount += 1;\r\n            }\r\n        }\r\n\r\n        StakeNFP[] memory stakedItems = new StakeNFP[](itemCount);\r\n\r\n        for (uint256 i = 1; i <= totalItemCount; i++) {\r\n            if (\r\n                _owner == stakedNfps[i].owner && stakedNfps[i].isEnded == false\r\n            ) {\r\n                StakeNFP storage currentItem = stakedNfps[i];\r\n                stakedItems[currentIndex] = currentItem;\r\n                currentIndex += 1;\r\n            }\r\n        }\r\n\r\n        return stakedItems;\r\n    }\r\n\r\n    function getStakedCount(address _owner) public view returns (uint256) {\r\n        uint256 totalItemCount = stakingNfpCount.current();\r\n        uint256 itemCount = 0;\r\n\r\n        for (uint256 i = 1; i <= totalItemCount; i++) {\r\n            if (\r\n                _owner == stakedNfps[i].owner && stakedNfps[i].isEnded == false\r\n            ) {\r\n                itemCount += 1;\r\n            }\r\n        }\r\n\r\n        return itemCount;\r\n    }\r\n\r\n    function updateTrainingLevel() public {\r\n        require(\r\n            trainingLevel[msg.sender] <= 999,\r\n            \"You are max level of training Camp\"\r\n        );\r\n\r\n        require(\r\n            golToken.balanceOf(msg.sender) >= updateTrainingLevelFee * 10**18,\r\n            \"Insuficient Balance of Gol Token\"\r\n        );\r\n\r\n        golToken.transferFrom(\r\n            msg.sender,\r\n            ownerAddr,\r\n            updateTrainingLevelFee * 10**18\r\n        );\r\n\r\n        trainingLevel[msg.sender]++;\r\n    }\r\n\r\n    // function updateLevel(uint256 _tokenId) public {\r\n    //     require(\r\n    //         golToken.balanceOf(msg.sender) >= updateLevelFee * 10**18,\r\n    //         \"Insuficient Balance of Gol Token\"\r\n    //     );\r\n\r\n    //     uint256 currentSP = nonFungiblePlayer.getSkillPoint(_tokenId);\r\n    //     uint256 currentLevel = nonFungiblePlayer.getLevel(_tokenId);\r\n    //     uint256 currentGEN = nonFungiblePlayer.getGeneration(_tokenId);\r\n\r\n    //     require(\r\n    //         currentSP == (currentLevel + 1) * 10 - 1,\r\n    //         \"Not max Skill Point\"\r\n    //     );\r\n\r\n    //     require(\r\n    //         currentLevel < (currentGEN + 1) * 10 - 1,\r\n    //         \"Generation Limit executed!\"\r\n    //     );\r\n\r\n    //     require(currentLevel < 100, \"Max Level\");\r\n\r\n    //     currentLevel++;\r\n\r\n    //     golToken.transferFrom(msg.sender, ownerAddr, updateLevelFee * 10**18);\r\n    //     nonFungiblePlayer.setLevel(_tokenId, currentLevel);\r\n\r\n    //     if (currentLevel < 25) nonFungiblePlayer.setClass(_tokenId, \"Rookie\");\r\n    //     else if (currentLevel < 50)\r\n    //         nonFungiblePlayer.setClass(_tokenId, \"Amateur\");\r\n    //     else if (currentLevel < 75) nonFungiblePlayer.setClass(_tokenId, \"Pro\");\r\n    //     else nonFungiblePlayer.setClass(_tokenId, \"Pro\");\r\n    // }\r\n}\r\n",
  "sourcePath": "E:\\Git for Project\\Ethereum\\NFT\\GolFinance\\gol-staking-contracts\\contracts\\Training.sol",
  "compiler": {
    "name": "solc",
    "version": "0.8.4+commit.c7e474f2.Emscripten.clang"
  },
  "schemaVersion": "3.4.5",
  "updatedAt": "2022-05-19T19:20:56.494Z",
  "devdoc": {
    "kind": "dev",
    "methods": {
      "owner()": {
        "details": "Returns the address of the current owner."
      },
      "renounceOwnership()": {
        "details": "Leaves the contract without owner. It will not be possible to call `onlyOwner` functions anymore. Can only be called by the current owner. NOTE: Renouncing ownership will leave the contract without an owner, thereby removing any functionality that is only available to the owner."
      },
      "transferOwnership(address)": {
        "details": "Transfers ownership of the contract to a new account (`newOwner`). Can only be called by the current owner."
      }
    },
    "version": 1
  },
  "userdoc": {
    "kind": "user",
    "methods": {},
    "version": 1
  }
}